:100000001076002035BF01000000000061AE010045
:1000100000000000000000000000000000000000E0
:1000200000000000000000000000000000000000D0
:1000300000000000000000000000000000000000C0
:1000400000000000000000000000000000000000B0
:1041000009000100A5690020000000000000000077
:1041100008001400684D00200000000001000000AD
:1041200007002800B8620020000000000100000025
:1041300002008003F83C00200000000001000000A5
:1041400001006000F8370020255600000000000044
:1041500058E401000500014008B502F03FFD0D4B99
:104160000D4A1A600D4B1A7852B2002AFBDB0C4B39
:104170000C4A1A60094B1A7852B2002AFBDB0B205A
:1041800017F00CFD00F04AFA074800F04DFA02F073
:1041900041FDFCE7080C004004FF0000010C00405A
:1041A000040C00400403010090F60100002934D003
:1041B0000123002210B488422CD301242407A142F9
:1041C00004D2814202D209011B01F8E7E400A142B6
:1041D00004D2814202D249005B00F8E7884201D351
:1041E000401A1A434C08A04202D3001B5C08224329
:1041F0008C08A04202D3001B9C082243CC08A0429A
:1042000002D3001BDC082243002803D01B0901D085
:104210000909E3E7101C10BC7047002801D00020FA
:10422000C04307B4024802A14018029003BDC04633
:10423000D90000000029F0D003B5FFF7B9FF0EBC8C
:104240004243891A1847C046002941D010B4041CC3
:104250004C40A44601230022002900D549420028F1
:1042600000D5404288422CD301242407A14204D225
:10427000814202D209011B01F8E7E400A14204D205
:10428000814202D249005B00F8E7884201D3401A1C
:104290001A434C08A04202D3001B5C0822438C083E
:1042A000A04202D3001B9C082243CC08A04202D3A8
:1042B000001BDC082243002803D01B0901D0090998
:1042C000E3E7101C6446002C00D5404210BC704748
:1042D000002806D003DB0020C043400801E0802016
:1042E000000607B4024802A14018029003BDC04670
:1042F000190000000029EBD003B5FFF7A7FF0EBCA3
:104300004243891A1847C0467047C0468446081C75
:104310006146FFE71FB500F0A5F8002801D4002191
:10432000C8421FBD10B500F02BF84042013010BD4F
:1043300010B500F097F8002801DB002010BD012027
:1043400010BDC04610B500F08DF8002801DD00203A
:1043500010BD012010BDC04610B500F03BF800288C
:1043600001DC002010BD012010BDC04610B500F0DA
:1043700031F8002801DA002010BD012010BDC04630
:104380004A02430270B55C0A550A43004A001B0EFC
:10439000C60F120EC90FFF2B05D0FF2A08D001202F
:1043A00093420BD070BD0120002CFBD1FF2AF6D127
:1043B0000120002DF6D101209342F3D1AC42F1D17E
:1043C0008E4205D0002BEDD1201C441EA041E9E710
:1043D0000020E7E74A024302F0B55C0A550A4300B1
:1043E0004A001B0EC60F120EC90FFF2B31D0FF2A39
:1043F00034D0002B16D1604260418446002A14D08C
:10440000002820D18E4217D1934215DC04DBAC4248
:1044100012D80020AC4212D27042704140420123B7
:1044200018430CE0002AEDD194466F426F4160467C
:10443000002805D1002FE5D0704201231843F0BDBC
:104440000020002FFBD1484248414042012318433D
:10445000F5E7002CCBD002204042F0E7002DC8D079
:10446000F9E7C0464A024302F0B55C0A550A430028
:104470004A001B0EC60F120EC90FFF2B27D0FF2AB2
:1044800029D0002B10D0002A15D194466F426F41DD
:104490006046002815D00020002F04D14842484132
:1044A000404201231843F0BD604260418446002A27
:1044B000ECD00028F2D18E4211D070420123184373
:1044C000F1E7002FF7D0704201231843EBE70220F9
:1044D000002CE8D1D3E70220002DE4D1D1E79342AC
:1044E000EBDC04DBAC42E8D80020AC42DBD270420B
:1044F0007041404201231843D5E7C04610B5041E61
:1045000033D000F04BF89E231B1A962B09DC083899
:1045100084406402640ADBB26402DB05600A18436B
:1045200010BD992B0ADD0522121A211CD1400A1C4C
:10453000011C1B318C40611E8C411443052801DD98
:10454000421F9440144A2240610704D00F210C40BE
:10455000042C00D0043251010AD59F23181AFF28D9
:1045600016D09401640AC3B2D6E700230024D3E72F
:10457000D208FF2B03D05402640ADBB2CCE7002A36
:1045800006D08024E40314436402640AFF23C3E7D3
:10459000FF230024C0E7C046FFFFFFFB1C210123CF
:1045A0001B04984201D3000C10391B0A984201D316
:1045B000000A08391B09984201D30009043902A2F4
:1045C000105C40187047C04604030202010101015B
:1045D00000000000000000009C460304F0B51B0C26
:1045E00017043F0C150C1E1C041C000C7E436B436F
:1045F00047434543FB18300C1818874202D98023E3
:104600005B02ED18030CED1863465C434A43360425
:10461000360CA118000480194919F0BD014B002285
:104620001A707047DC3700200FB4034B00220020C3
:104630001A7004B07047C046DC37002008B502F09D
:104640007DFC08BD08B5002002F0BCFC012002F092
:10465000A1FC022002F09EFC08BDC04608B5002067
:1046600002F080FC012002F095FC022002F092FC96
:1046700008BDC04608B5002002F08CFC08BDC0464D
:1046800008B5002002F09EFC08BDC04608B5022017
:1046900002F068FC08BDC04608B5022002F07AFCB2
:1046A00008BDC04608B5012002F08CFC08BDC0461C
:1046B00030B503789BB0324D002B19D10222041C77
:1046C0006A702B70F03C2622A25C162A49D0302A50
:1046D00018D1216F0A02120C69464A70120A8A70B8
:1046E00075220A70CB706846042100F0D3FA09E005
:1046F0000323041C6B70F03C2623E35C162B27D0AD
:10470000302B15D06A68211E914203D132E09C42C1
:104710000BD01A1C1368002BF9D1281C083002F0AA
:10472000B5F800F07DFE1BB030BD24681460F4E7DE
:10473000226F694613021B0C4B701B0A8B7075238A
:104740000B70FF23CB706846042100F0A3FAD9E771
:10475000226B6946130A9BB24B701B0A8B70712344
:10476000EEE7216B0A0A92B269464A70120A8A7011
:104770007122B6E7281D02F0AFF8011CCDE7C04654
:10478000E005002070B50A4D00236B70EB602B61D3
:104790006B60AB60074B2C1CEE1818341035211CD5
:1047A0000134281CFF3402F071F8B442F7D170BD17
:1047B000E005002018140000F0B52F4D47466B7837
:1047C00080B4002B26D0023B012B3DD8AB68181CCF
:1047D0000830002B43D008235B192E1CF82798467D
:1047E0001036041C083CE359002B00D09847AA68F7
:1047F000211E914203D139E09C4228D01A1C136833
:10480000002BF9D1301C02F041F8A868002826D00E
:104810000830E6E7EC68002C16D0FFF737FF174AA0
:10482000EC23E250221C2632E423201CE25090307C
:1048300003F07EFE281C0C3002F04EF8011C281DEF
:1048400002F024F800F0ECFD04BC9046F0BD2468B2
:10485000301C146002F01AF8A8680028D8D1FFF7BD
:104860001BFF00236B7000F0DBFDEDE7404602F01C
:1048700033F8011CC6E7C046E0050020B146000041
:10488000F8B51D4D4F462C694646C0B49146061CEE
:104890000F1C002C2DD0281C103002F01DF8011C1C
:1048A000281C0C3001F0F2FF396800291DD02623A6
:1048B0001B19181C6522984619F096FC3168251CB6
:1048C0009035002903D0281C682219F08DFC42463F
:1048D0003A60F8234A463560E250012400F0A0FD1A
:1048E000201C0CBC90469946F8BD26221219904611
:1048F000E4E70024F2E7C046E005002070B5084D6B
:1049000000232B606B60074B2C1CEE180834043519
:10491000211C281C6C3401F0B9FFB442F8D170BDE1
:10492000F819002078080000F0B54F464646C0B49C
:104930002A4C85B02568002D1ED0297902A800F0E8
:104940003FFE002838D1264D264B2E88264F0136B3
:104950003A8899461B78B6B290462E80002B10D12B
:104960004346B34235D0201C01F0B6FF011C201D88
:1049700001F08CFF00F034FD05B00CBC9046994668
:10498000F0BD4246931B642014215843FFF70EFCF0
:10499000FFF7B4FD1549FFF7CBFC0028E0D001A8D4
:1049A000742303704A46002302214370137000F001
:1049B00071F93B882E88D4E7281D039B984700286F
:1049C000C1D1201C01F088FF011C201C01F05EFFFA
:1049D000D0E700232B803B80C5E7C046F8190020B4
:1049E0002C320020E03700202A320020000048420C
:1049F00070B50E4C061C6568002D14D0201D01F00A
:104A00006BFF011C201C01F041FF316804350029B7
:104A100003D0281C652219F0E7FB3560012400F063
:104A2000DFFC201C70BD0024F9E7C046F819002007
:104A300010B5064C201CB43017F050FE221C483232
:104A400000236260B2222370A35410BD70220020A4
:104A5000F0B54F464646C0B4051C83B0474C00280D
:104A600000D175E02378052B52D0454B454A6E4660
:104A7000483307369846B22791464046311C0122FA
:104A800018F070F900286BDD2378013DADB2042BDE
:104A900043D89B004A46D3589F463378102B4DD0BD
:104AA000E25D211C9A18E2556268B2318A420BD24B
:104AB000511C6160137007E03378022B43D0002251
:104AC0002270E25DD318E355002D41D02378052BE9
:104AD000D3D11DE03378102B2CD0032B25D0052209
:104AE0002270E25DEEE73378102B19D0E25DE9E742
:104AF000B223E25C33789A4238D0201CB43017F0ED
:104B0000EDFD221C483200236260B2222370A354C0
:104B100003B00CBC90469946F0BD3378E25DD1E716
:104B20000223237000221023CCE704232370E25DCC
:104B30000323C7E7032323701023B1E70123237066
:104B4000E25D1023BEE703232370E25D0223B9E791
:104B5000B434201C17F0C2FD201C17F097FDD7E7D6
:104B60000948FFF761FD05232370D1E7201C636826
:104B70004830191AC9B200F073FCBEE77022002059
:104B8000F0220020F8E30100E0F5010008B5074A33
:104B9000074B6B209A5C191D424306489B186C33E7
:104BA000891848309A7818F073F808BD8E0C000008
:104BB00070230020F022002010B50C4BC9221201F6
:104BC000995C00290DD00139C9B29954084A985C02
:104BD000441CE4B21D2C05D89C54002901D0FFF7D9
:104BE000D5FF10BD1D389854F7E7C046702300204C
:104BF0008E0C000038B51D4B1D4A191C5A65181C37
:104C0000002280311B4C48300A701B499A651A6794
:104C1000827502838285194A8182211C9A67083134
:104C2000174A00259966402185768184DA6717F056
:104C3000E7FF0122C023E2546422BC23E250201C7F
:104C4000104AC423B430E25017F048FD231C0E482C
:104C5000483363600021B2230C4A0430E5542570C8
:104C600019F056FB0A4B1D7038BDC046F0220020DB
:104C7000CC7100207022002082E2FFFF514A000028
:104C8000B94B0000314A0000702300208D0C000059
:104C900028320020F8B52B4FC9231B01FA5C0024F1
:104CA0001D2A47D8652945D8274D2D78002D41D09C
:104CB0000132FA54254A6B24BB5C3D1D5C432D191F
:104CC0005C1CE4B2AC461D2C36D8BC5410236246A2
:104CD0001370644602230234537000292FD0021C43
:104CE000002509E001325D192370131ADBB2EDB221
:104CF000661C8B4209D2341C1378102BF2D123701E
:104D00001035EDB213780134ECE72535EDB2102300
:104D1000337003237370B57063460336F61A624628
:104D20006A23D654C9231B01FB5C0124002B01D04C
:104D3000FFF72CFF201CF8BD1D3BBB54C6E7261C0B
:104D40002525E4E770230020283200208F0C000086
:104D500070B5002284B001900392C378FF2B49D034
:104D60000025002603A801A90022FFF789FD041EE3
:104D700002D1201C04B070BD00216822039819F0F4
:104D8000C7FA039B01214A229952002D47D10321E2
:104D900030229954019A9178507809020143D078D1
:104DA000557900040143107900060143907900020F
:104DB0002843D579127A2D04284312060243196438
:104DC0005A64FF21482299545822985C04210143D7
:104DD000995401214C2299524E2299544D2150222E
:104DE00099525822985C0821014399540021592274
:104DF0009954BEE70379FF2BB2D14379FF2BAFD192
:104E00008379FF2BACD1C379FF2BA9D1037AFF2B78
:104E1000A6D1837846781B021E430125A2E73022E3
:104E20009954FF2148221E8799545822995C0420E6
:104E300081439954CDE7C04670B5002284B00190FB
:104E40000392C378FF2B49D00025002603A801A9AF
:104E50000022FFF715FD041E02D1201C04B070BD16
:104E600000216822039819F053FA039B01214A227A
:104E70009952002D47D1032130229954019A9178FB
:104E8000507809020143D078557900040143107924
:104E900000060143907900022843D579127A2D0447
:104EA00028431206024319645A64FF214822995488
:104EB0005822985C04210143995401214C229952B3
:104EC0004E2299541321502299525822985C08215D
:104ED00001439954002159229954BEE70379FF2BCD
:104EE000B2D14379FF2BAFD18379FF2BACD1C379FA
:104EF000FF2BA9D1037AFF2BA6D1837846781B021A
:104F00001E430125A2E730229954FF2148221E8723
:104F100099545822995C042081439954CDE7C046A6
:104F2000044BC36010230374002343600360836059
:104F30007047C0460CE4010008B5FFF783FB08BDCD
:104F400000B583B001A815F07FFF054B80221988BA
:104F500052010A4301A81A8015F07CFF03B000BD7E
:104F6000B434002008B5437E002B03D1034B042248
:104F70001A7008BDFFF7E4FFFBE7C04608300020C9
:104F8000F0B5466C474680B48046FFF78BFB31781E
:104F90001548FFF749FB3378012B20D0134F01242C
:104FA0000025BA68FB6812196B41BA60FB604023A8
:104FB0004246D15A301CFFF76DFE00280BD00C483A
:104FC000FFF732FB3A697B69A4185D413C617D6162
:104FD00004BC9046F0BD0748FFF726FBF8E70648FB
:104FE000FFF722FBF4E7C046E8F501000830002097
:104FF00008F60100FCF5010014F6010070B5264D1D
:10500000041C281C302300223430EA5417F066FBBD
:10501000A37C002B3AD102232B70FFF71FFB2B6DD3
:10502000002B00D09847A088FF221C4B151C054080
:10503000000ADD731874A1785972E1789972218A97
:105040005982217872245974154B1C701E68C02433
:105050001640240134431C6000241C715E688024C7
:1050600016406404D974D968344311405C605024FC
:105070001C72D9600421197499685D740A40094949
:1050800098740A439A6002221A7370BD0648FFF7AB
:10509000CBFAFFF755FFF8E708300020B4000020F6
:1050A000E43700200066000320F60100F0B57E4CD6
:1050B00087B016F0F5FD23680F22934304221343B3
:1050C00023602168090A89B2FF2916D07748FFF7C3
:1050D000ABFA16F01FFE764B764A236013785BB26C
:1050E000002BFBDB744A754B1A60724A13785BB273
:1050F000002BFBDB0B2016F051FD714C2578012DA8
:1051000000D1A9E0002D42D0022D32D0032D2ED1A6
:105110006C48FFF789FAFFF7ADFA6B4C6B4A9C239A
:105120005B00E2503422B823E252231CBA331D70D4
:1051300005F0CAFA211CC831026843680A604B6056
:105140000023EF22A354F022A058261C010E0906CA
:10515000A150F322A354F423E15838360A0E120664
:10516000E2504022F723E254301C12F0FBFF07B05C
:10517000F0BD554C2378580700D588E0237899076F
:10518000F5D5022293432370FFF7CEFBEFE750489B
:10519000FFF74AFAFFF752FA002002A901F0D4FF04
:1051A0000298039901225242D31712184B41591CFD
:1051B00062D0FFF71FFD201C00266F464830FFF726
:1051C000AFFE07373E702120391C01F0E9FF414D49
:1051D0003B7801222B705C23E254231C5C335A7011
:1051E000DA706122A15C0F208143012001439E708F
:1051F0001E716367201C384B6C30A154A36704F008
:105200007FFDFA235B00E363231C34331E73334BAF
:1052100004A90020636401F097FF04992A780B0227
:1052200013432B606B4613331B78059A2B711302C3
:105230002A7913436B606B4617331B782B72E36C30
:10524000002B00D09847FFF79DFAFFF757FB01238B
:105250002370FFF775FE8AE721483026FFF7E4F94F
:10526000FFF7F0F9A35D002B17D017481D4B08304E
:10527000836212F02BFF7AE7101C083099D902A83C
:1052800001F0C2FD002002A901F08AFF91E704228B
:1052900093432370FFF790FA70E7201C343017F027
:1052A000F5F9A555E1E7C046080C004030F60100CD
:1052B00004FFFF00010C004004030100040C004047
:1052C0000830002068F6010088300020654F00009B
:1052D00048F60100B4000020814F0000394F000063
:1052E00054F60100FD4F0000F8B50378502B4FD065
:1052F000902B58D04DD88E2B4AD3C4798279334B1A
:10530000240214435C72240A9C720479C578FF223B
:1053100024022C43151C2540240ADD731C74867856
:10532000477836023E435E82407972265874284B95
:1053300000211E701F68C0261971174036013E43B8
:105340005F681E608026D8741740D86876043E4394
:105350005E6010405026D8601E7204201874986851
:105360009C7402401B481C4C02439A60201C022281
:105370001A735D7434303023E15417F0AFF9FFF73E
:105380006DF92378012B12D0042B16D00223237041
:10539000F8BD912BFCD1FFF773F90F4B01221A7066
:1053A000FFF7CEFDF4E70C4B04221A70F0E7236DF3
:1053B000002BEBD098472378E6E702232370236D78
:1053C000002B00D09847FFF7BBFDDFE7B4000020BB
:1053D000E437002000660003083000207047C04614
:1053E00000B50C4B83B01B78022B01D003B000BD7D
:1053F000094B0222197801A80A431A7015F024FDFE
:10540000064B8022198852010A4301A81A8015F020
:1054100021FDEBE70830002088300020B434002064
:1054200000B50C4B83B01B78022B01D003B000BD3C
:10543000094B0422197801A80A431A7015F004FDDB
:10544000064B8022198852010A4301A81A8015F0E0
:1054500001FDEBE70830002088300020B434002044
:1054600010B5504C20230122E25403789CB00190E7
:10547000162B29D001A8FFF7BBFA002851D0638C66
:10548000A08C01339BB26384474C2278002A0CD154
:105490001B1A642014215843FEF788FEFFF72EF8EC
:1054A0004249FEF759FF00280AD0414902A80222CA
:1054B00018F09AFE012302A802212370FFF7EAFBED
:1054C000FFF73EFD1CB010BD837842781B021343EA
:1054D000C278417912041343027912061343827988
:1054E00012020A43C17909040A43017A09060A43F0
:1054F000191C114304D00C2BBCD12E4B9A42B9D1AC
:10550000437A022B31D0027B02ABC17A9A707122AE
:1055100059701A70181C00220421DA70FFF7BAFBC8
:10552000CEE723490222684618F05EFE2248FFF7C4
:105530007BF81D4B0122684602211A70FFF7AAFB77
:10554000019B02A81A78162A1CD0302A07D14B22B8
:105550004C219A5C5B5C4270837071230370FE2364
:105560000421C370FFF796FBAAE7837A002B10D0C3
:10557000012B12D0022BC6D110481421FFF78AFB51
:105580000198C0E7DA7A1B7B427083707123037045
:10559000E5E717F08FFC0198B5E700222023E254DD
:1055A000B1E7C04608320020E037002000009642F4
:1055B0001CE40100000001507CF60100E4370020EB
:1055C000F8B5154E051C736D0F1C002B19D0321C3D
:1055D0004832127C002A14D0002407E0331C4833E0
:1055E00001341B7CE4B2A3420BD9736DE20099181D
:1055F000281C082218F0F8FD2B78BB42EED10120C0
:1056000009E000232B706B70AB70EB702B716B712A
:10561000AB71EB710020F8BD083000207047C04628
:105620007047C04670B5264B264C996ADA6A2160ED
:105630006260254D254E2B79291C2372AA6CEB6CD8
:1056400022616361224B201C1B683031A3617723E8
:10565000F35C213023776E23F35C63772023EA5CCD
:10566000A2772122AA5CE2772222AA5CE2541122CC
:1056700018F0BAFDEB8863862A7B3423E2547A2340
:10568000F35AE3867123F25C3823E2548A23F25CF6
:105690003923E2545023EA5C3A23E254327C3B2320
:1056A000E25432884C23E252727A4E238036E2541E
:1056B0003168726821656265EA7A5823E25470BDE8
:1056C00098680020F8370020E06800203869002042
:1056D0007C680020F0B5A4220E4C920085B0051C19
:1056E0000F1CA61802E01034B44210D010226846F5
:1056F000211C18F079FD6A461388AB42F3D1381C9F
:105700006946102218F070FD012005B0F0BD0020A0
:10571000FBE7C0460041000000B50B4B0122824070
:10572000101C1A7883B01043187001A815F08CFB78
:10573000064B8022198892010A4301A81A8015F0AD
:1057400089FB03B000BDC04630320020B4340020D5
:1057500010B5154C82B02178002913D0CB0720D486
:10576000002301200133DBB20A1CDA401042F9D0D9
:1057700001229A40D3B25940217000F01FF82378DB
:10578000002B01D102B010BD01A815F05DFB074B45
:105790008022198892010A4301A81A8015F05AFB49
:1057A000F0E70123E7E7C04630320020B4340020A0
:1057B00008B500F089FE00F09FFC08BDF0B5374E3B
:1057C00085B000250124A95DEFB200230A1CDA4050
:1057D000D8B214421CD10133082BF7D10135062D64
:1057E000F1D13827381C00F0F3FD6C4600281BD19E
:1057F000381C6946FFF76EFF002833D1331CB11DFA
:105800001A78002A40D101338B42F9D105B0F0BD9E
:105810000122FF009A40C7199143381C715500F0CE
:10582000D7FD6C460028E3D0381C6946FFF752FFCD
:105830000028E3D06388002B2AD0019B002B27D0BF
:10584000A368002B00D0984762886368381C002149
:1058500000F06AFC0028D1D0C2211148490000F0B4
:1058600019FFCBE7029B002B00D098476188626844
:10587000381C00F03FFDFD231842BFD080210848AE
:10588000490000F007FFB9E70020FFF745FFBDE73B
:10589000BB210348490000F0FDFED1E7343200206F
:1058A00098F6010010B5831C041C09480E341A78C0
:1058B000010A4A4011094A40000250401103484081
:1058C00052015040013380B2A342F0D110BDC04616
:1058D000FFFF000010B5114B1978002910D0104BB4
:1058E0001A8882420FD04C1EE4B20433A4001C1963
:1058F00004E01A1C11880433814205D0A342F8D178
:105900000024201C10BD1A1C5388141C002BF8D135
:1059100024210448FF3100F0BDFEF2E73C340020B2
:105920003C320020A8F6010038B5041CFFF7D2FF76
:10593000002804D098210C48490000F0ABFE0B4D24
:10594000287843B2002B08DB431C2B70084B8000E7
:1059500018180470240A447038BD32210248FF31FF
:1059600000F098FE2878EFE7A8F601003C3400200C
:105970003C32002010B5041CFFF7ACFF00280ED00D
:10598000201CFFF7A7FF094B042219780139C9B27F
:105990001970074B8900591818F026FC10BD9F217B
:1059A0000448490000F076FEEAE7C0463C34002097
:1059B0003C320020A8F60100F8B5084F061C0D1C6B
:1059C000141C7878311C2A1C231C00F0CBFD78783D
:1059D000311C2A1C231C00F059FEF8BD3C34002069
:1059E00030B51B4C802285B0051C002160789201E7
:1059F00000F046FE00280AD1607800F023FE8022E5
:105A000060780021920100F03BFE00281CD00123A9
:105A10006A465B421380412393705423D37053230F
:105A200013714E235371762393713123D3710295F1
:105A30000020ED43694610220395FFF7BDFF0028C3
:105A400002D01023638000E0002005B030BDC046C6
:105A50003C34002000B583B06946063100230222A1
:105A600000200B80FFF7A8FF03B000BDF0B556463D
:105A70004D465F464446F0B48DB002911699061C1F
:105A80009146002951D0CA18002101928B464946FF
:105A90005D18ADB24F46029CA94514D140E004AA5E
:105AA0001023301C211C00F02BFD6A46938AD28AF9
:105AB000AB4206D2D21892B2BA4202D9AA420CD252
:105AC000171C6B465C8B002CE9D100200DB03CBC50
:105AD00090469946A246AB46F0BDEA1A92B290466D
:105AE00010344444A4B2A2469F421BD3EF1BBFB262
:105AF000029CB8464F464246019BAD1AADB2002B00
:105B00001BD00199224B4246891A5878534601917D
:105B1000991A89B2019A434600F0F2FCAF42D2D101
:105B20000120D3E769464C8BE5E7194A52889A1859
:105B300092B2934600220192A9E7002AEED0039781
:105B40004746B0465646AA465D46A34600E0271C97
:105B50000024102F03D93C1C103CA4B21027F61BC4
:105B6000ED1BB6B24046311C08AAADB23B1C00F09A
:105B7000C7FC281C08A93A1CFFF71EFF0028A5D067
:105B8000002CE4D15C46039FAB4646465546C5E72C
:105B90003C34002008B5064B5B68002B03D09847C7
:105BA000002800D108BD034B187800F04BFDF9E741
:105BB0003C340020CC00002038B501235B42037048
:105BC0004370041CFFF76EFE0C4DA073000AE073D7
:105BD000211C68881022FFF7EFFE041E06D06B8898
:105BE0000F221F3393436B80201C38BD687869886F
:105BF000102200F045FD0028F6D1F0E73C340020EB
:105C0000F0B5564644465F464D46F0B4474D8DB01C
:105C1000281C083001F030F86A7800232B846B844C
:105C20009246101C002104AA102300F069FC069C77
:105C30000026013CA0463E4F544608E000236E700B
:105C40009C420CD04046FFF7CBFE002810D16B7869
:105C50000133DBB2012BF1D86B709C42F2D1381CBE
:105C6000344900F017FD4046FFF7BAFE0028EED099
:105C70002B78A246002B49D000236F46994608ACEA
:105C800000260E3709E043465A465A804B460133F8
:105C9000DBB299462B784B4538D94A469300264AC1
:105CA0005046D218518810239046221C00F028FC40
:105CB0002389201CE3806B88A6806681A6819B4691
:105CC000FFF77AFF002818D04246518823895046B2
:105CD00000960022FFF7CAFE00280ED0E2886B88EB
:105CE0005846D3180F330F229343391C02226B807E
:105CF0003E80FFF761FE0028C5D10024201C0DB0B6
:105D00003CBC90469946A246AB46F0BDFFF7A2FECA
:105D1000041EF3D0094B24355246281C1A7016F085
:105D2000DDFC281C16F0B2FCE8E7C0463C3400203D
:105D3000A8F60100DB0200003C320020CC0000206D
:105D4000F0B51A4D83B0041C0E1C6F88FFF734FFAA
:105D500000281DD0002E09D0E279A37912026888AC
:105D60001A43311CFFF728FE002813D0E379A279EB
:105D70001B0213436A8869469B180F330F22934313
:105D80006B8006310023381C02220B80FFF714FEC3
:105D900003B0F0BDE379A2791B0213436A889B1814
:105DA0000F330F2293436B80F2E7C0463C34002050
:105DB000104A08B5518880239B015B1A9BB283422D
:105DC00006D30D498B4202D8137A002B09D008BDA7
:105DD000FFF716FF0028FAD10848094900F05AFCDD
:105DE000F5E7101C08300121064A074B00F026FF9A
:105DF000EDE7C0463C3400200F040000A8F6010087
:105E00001B03000010270000615F0000F0B557463B
:105E10004E464546E0B44C4C88B06368002B09D030
:105E20009847002806D1052008B01CBC904699462A
:105E3000A246F0BD608C002839D1238C0020002BB5
:105E4000F2D0181CFFF746FD061E56D0C2788378A4
:105E500012021A4304AD111C1023904660782A1CCC
:105E600000F04EFB638C002B49D063882A899A4648
:105E7000914636480421002200F00EFC2A89638CEA
:105E8000218C334800F00AFC638C4A462B819945EB
:105E900052D892B291460027281CAF80EB806F81C8
:105EA000AF81FFF789FE002807D10120BCE7103041
:105EB00080B2FFF77DFF208CC4E7607841460097F1
:105EC00000224B46FFF7D2FD0028EED0EA88638817
:105ED0006946D3180F330F2293430E3150460222E6
:105EE00063800F80FFF768FD0028DED05246B27055
:105EF0005246130A27846784F370002094E72889A8
:105F0000103080B2FFF754FF208CFFF7E3FC061E31
:105F100014D0F278B37812021A43111C1023904661
:105F200060782A1C00F0ECFA62882B899246628C19
:105F30009946002AAFD09CE71A1CAAE703480549F6
:105F400000F0A8FBE5E7C0463C340020A8F60100BD
:105F5000B0F601004E03000008B5FFF757FF08BD7B
:105F600008B5084B5B68002B03D09847002800D188
:105F700008BDFFF745FE0028FAD10348D92100F0FB
:105F800089FBF5E73C340020A8F60100F0B5474650
:105F900080B4564C00232370012388B000255F4253
:105FA000FF266A461023281C002100F0A9FA6A4641
:105FB0001388002B03D19278412A00D16CE001357F
:105FC000EDB2022DEDD1FF2E35D010236670301CBE
:105FD0006380102104AD08AE0F2710232A1C00F0A7
:105FE0008FFA2B1C1978FF2909D10133B342F9D15B
:105FF00001223823E25408B004BC9046F0BDEA897F
:10600000281C9046FFF74EFC804509D061881F315F
:10601000B94389B26180364B9942E9D86078DCE7B0
:106020002B88002B23D0E9886388C9181F31B94316
:1060300089B26180EFE700232E4D63700220404259
:10604000FFF7CEFC002803D0FFF704FD00280BD19A
:1060500063780133DBB26370012BEFD9EF21281C89
:10606000890000F017FBE9E700232370C0E76B8885
:10607000181C9846FFF72EFC002833D063881A0AB4
:106080008370C2702A89002A27D0EA881F329B18A1
:10609000BB4399B26180BEE76A46D378542B00D0E7
:1060A0008DE71379532B00D089E753794E2B00D01D
:1060B00085E79379762B00D081E7D379312B00D017
:1060C0007DE7029B039A5A40013200D077E7BB423A
:1060D00000D374E71F1C2E1C71E74046FFF74AFCF3
:1060E0006388D2E74046FFF71FFCC7E73C34002037
:1060F000FF1F0000A8F6010010B5084C3823E35C30
:10610000002B01D1FFF742FF231C243301221A7315
:10611000034B6363034BE36210BDC0463C34002075
:10612000955B0000581B0000F0B54F464646C0B4D2
:10613000051C85B08946171C9846002850D0002BB6
:106140004ED0304E7468002C08D0A047002805D1EE
:10615000052005B00CBC90469946F0BD381C1030A7
:1061600080B2FFF725FE281CFFF7B4FB041C0320B8
:10617000002CEED0E578A3782D021D437078291C01
:106180006A46102300F0BCF969460B8949467A1823
:1061900004209A42DDD86A4649469180D7805581CD
:1061A0009F422BD09389694601338B8168464146D3
:1061B0007588FFF7C5FD031C0120002BC9D0A57011
:1061C0002D0AE57069468B89642B07D94B88338487
:1061D000002373843C23F35C002B06D00020B8E737
:1061E00009480A4900F056FAABE7301C3C3001215F
:1061F000074A084B00F022FD0020AAE70023938104
:10620000D4E7C0463C340020A8F601002504000075
:10621000B80B0000595F0000F0B5474680B4041C7D
:1062200082B08846171C1D1C002812D0002B10D0ED
:10623000201CFFF74FFB002814D0C4788678240276
:10624000211C3143032000290ED102B004BC90462A
:10625000F0BD0E480E4900F01DFA201CFFF73AFB76
:106260000028EAD10320F0E74346DA19094B9A42A5
:1062700001D90420E9E7084B4246587800953B1CB9
:10628000FFF7F4FB0028F4D00020DEE7A8F60100B9
:1062900076040000FFFF00003C34002010B5041C11
:1062A00084B0002815D0201CFFF714FB002819D05B
:1062B000C17883780902194302D1081C04B010BDCB
:1062C000094B6A465878102300F01AF96B46198971
:1062D000F3E70648064900F0DDF9201CFFF7FAFA5B
:1062E0000028E5D10021E8E73C340020A8F60100B1
:1062F00092040000F0B5461E041C3048B6B285B0CA
:106300000D1C171C864217D88023DB00994213D836
:10631000201CFFF7DFFA002804D0C37882781B0224
:1063200013432FD1264E7368002B0AD098470028BC
:1063300007D1052005B0F0BD2248234900F0AAF995
:10634000E6E7281C103080B2FFF732FD33787F2B50
:106350002ED86A4600236846391C93805381938166
:1063600076885480D5801581FFF7EAFC031C012054
:10637000002BDFD0201CFFF7D7FA8670360AC670D4
:106380000220D7E7201CFFF789FFA84206D00C4B5C
:106390001C845D84FFF73AFD0028CBD10020002F3C
:1063A000C8D0201C00212A1C3B1CFFF735FFC1E789
:1063B0000448064900F06EF9CBE7C046FEEF000046
:1063C0003C340020A8F60100DF03000007040000B1
:1063D00008B5FFF77FFA002807D08378C07800025D
:1063E0001843431E9841C0B208BD0020FCE7C046D8
:1063F000F0B557464E464546E0B499462F4B40030C
:10640000CB180C1C1B18494684B0151C9A46002951
:106410004FD02B4E731E9A4546D853464B449E424E
:106420003DD380234C449B019C4233D84B46002BE8
:106430002ED049464B46102900D910239BB29846CE
:106440001A1C6846514617F0CFFE4246002A17D064
:10645000002407E02F780135BE420AD10134E4B2AE
:10646000A0450DD96B461E5D002DF3D1FF27BE421E
:10647000F4D0002004B01CBC90469946A246F0BD62
:10648000494642468B1A9BB29946C244002BD0D152
:106490000120EFE70B48A92100F0FCF8C6E7094806
:1064A000A82100F0F7F8BCE70648A72100F0F2F8B1
:1064B000B3E70448A62100F0EDF8AAE700010000C8
:1064C00000410000DCF6010010B5094CFF231C421E
:1064D00003D00848462100F0DDF8074B074A9B1817
:1064E0009C4203D003484A2100F0D4F810BDC046B6
:1064F00000010000DCF601000041000000C0FFFFC9
:10650000F0B54746144D80B4144F4D1940031C1C80
:106510002D187B1E0E1C90469D4218D82B199F42A9
:1065200010D3802336199B019E4203D90C485A216F
:1065300000F0B0F84046291C221C17F055FE04BCA0
:106540009046F0BD0648592100F0A4F8E9E7044858
:10655000582100F09FF8E1E7000100000041000031
:10656000DCF60100F0B5474680B4334F4003CF1945
:106570000E1C151C1C1C3F18002B3ED02F4B9846A0
:10658000013B9F4242D83B19984546D38023361998
:106590009B019E424AD8FF20802638407600361A5A
:1065A000A64200DD261CB3B2191C2A1C984616F020
:1065B00099FC381C16F09EFC4346E41A80235B00CD
:1065C000A4B2F7199846AE19002C13D0251C4445E7
:1065D00001D980256D00ADB2321C0020291C641B3E
:1065E00016F080FCA4B2381C16F084FC7F197619D2
:1065F000002CEBD104BC9046F0BD11486D2100F099
:1066000049F80E4B9846013B9F42BCD90C486E217D
:1066100000F040F83B199845B8D209486F2100F0C6
:1066200039F8361980239B019E42B4D90448702161
:1066300000F030F8AFE7C046000100000041000064
:10664000DCF6010038B50B4B4403E4180A4B013B60
:106650009C420AD880239B01E518201C0134FF349A
:1066600016F044FCAC42F8D138BD0448902100F04B
:1066700011F8EFE70001000000410000DCF6010026
:1066800008B5131C0022FFF7B3FE08BD08B5FFF7DD
:10669000AFFE08BD7047C0467047C0460FB404B097
:1066A0007047C0467047C04630B5104C83B0237861
:1066B000002B0DD06D4607352120291C00F044FD2C
:1066C00069461D20063100F03FFD2B78022B03D0D8
:1066D00014F0B2FE03B030BD6A469379002BF7D1B7
:1066E000034B201D636111F0CFFBF3E790340020D2
:1066F000A5660000014B18787047C0469034002012
:1067000008B516F059F808BDF0B51F240440012360
:106710004746A34080B40E1C47091C1C3F2817D8CD
:10672000BF00F5196B68234202D004BC9046F0BD4F
:10673000114B311C181C984600F0F4F800280DD0BD
:106740006B68474423436B607B681C437C60ECE7C9
:106750000A4A0B4B1A8000F049F9E1E73071707179
:10676000B071F07130727072B072F072311C4046CC
:1067700000F08CF8E4E7C046A83400200380FFFF57
:106780005C38002070B51F2404400123A3400D1C79
:1067900046091C1C3F2817D8B00029184B681C421A
:1067A00011D0E5432B404B600A490B68002B06D003
:1067B0001A185268224206D11B68002BF8D108181B
:1067C00043681D40456070BD034A044B1A8000F0C9
:1067D0000DF9E1E7A83400200380FFFF5C380020BA
:1067E000F0B5454657464E46E0B41F250540012307
:1067F000AB40071C884646091D1C3F281ED8164B77
:10680000B6009A1952682A4213D01C68002C10D086
:10681000124A134B92469946A3195B682B4205D046
:10682000E368002B10D0381C414698472468002CA0
:10683000F2D11CBC90469946A246F0BD094A074BCE
:106840001A8000F0D3F8DAE74B465246138000F086
:10685000CDF8E368E7E7C046A83400205C380020A4
:106860000580FFFF0480FFFF1F23034001229A40A1
:10687000131C4009044A8000101840681840431E49
:106880009841C0B27047C046A8340020026808B5DD
:10689000002A18D091420FD0131C01E099420BD06E
:1068A0001B68002BFAD10B6000E01A1C1368002B48
:1068B000FBD11160012008BD054A064B1A8000F08B
:1068C00081F80020F7E70A6001600120F3E7C04685
:1068D0000080FFFF5C3800200368002B01D01A689D
:1068E0000260181C7047C04610B500290ED004681D
:1068F0008C4213D0002C09D023688B4204D107E0CE
:106900001A688A4206D0131C002BF9D1002010BD52
:106910001A1C231C126801201A60F8E7246804601E
:106920000120F4E70368002B03D106E01B68002B6D
:1069300003D09942FAD1012000E000207047C04600
:1069400010B5808800280BD115F0E2FE84B203F068
:10695000BBFE0023C25A02335440082BFAD1201C3C
:1069600017F024FD0348012303731C3015F08EFE3D
:1069700010BDC046D000002008B5024803F00CFF4F
:1069800008BDC046D000002010B5084C237B002B6A
:106990000AD0201C1C3015F0A1FE054B201CA36161
:1069A0000023237303F0F8FE10BDC046D000002082
:1069B0004169000008B502481C3015F08FFE08BD83
:1069C000D0000020064808B502230380054B1B8831
:1069D0004380054B1B68002B00D0984708BDC0467C
:1069E000603800205C38002058380020064808B580
:1069F00003230380054B1B884380054B1B68002B3A
:106A000000D0984708BDC046603800205C380020A0
:106A100058380020F8B546464F46C0B408AC267832
:106A200009AC257841607E2A27D8141C7F2A22D8F9
:106A3000E2B26400A0460478914601221440474621
:106A40002743FCB24F46154094430381BB002543C6
:106A5000CB18067405700022994208D2CA700378D8
:106A600044685B089B000431E3189942F6D30CBCE0
:106A700090469946F8BD7F24DAE7034A034B1A8013
:106A8000FFF7A0FFF3E7C0460180FFFF5C3800205E
:106A9000F8B54F464646C0B48846071C914615F0E7
:106AA00037FEFB68051C3989C01AFDF77FFBFE28FD
:106AB00008D8C0B2002806D139787B684E08B600E5
:106AC0009E1918E0FF2039787C684E08B600A61998
:106AD000B44241D28446E3781A1C834200D962460C
:106AE0009B1AE37039787B684E08B60004349E190F
:106AF000B442F0D3FD60B34230D20025DC78002CE4
:106B000002D01A88424517D0002D02D0EA78A2425E
:106B100000D91D1C0433B342F0D3CB0711D5002D8F
:106B200018D043462B804B46AB703B7C0120EB706A
:106B30000CBC90469946F8BD9A784A45E4D10020AD
:106B4000F6E7002D04D0EB780220002BF0D1E8E727
:106B50000220EDE70120EBE7231CCBE7CB07591E12
:106B60008B410220C01AE3E708B5FFF70DFF08BD0F
:106B70007047C04630B5144B144D198883B00024BB
:106B800001222B880B4023411A4204D101340E2CE0
:106B9000F7D103B030BD01A814F056F92B880122BB
:106BA000A240934301A82B8014F054F9084BA40091
:106BB000E458002C01D0A047EBE7064A064B1A80A8
:106BC000FFF714FFA047E4E700010020B4340020E1
:106BD00020E401000680FFFF5C38002000B583B090
:106BE00014F0C0FA0EF0DEFF0223002802D1181CB8
:106BF00003B000BD01A814F027F9054B1022198835
:106C000001A80A431A8014F025F90123EFE7C046D2
:106C1000B434002010B5FFF7ADFF2B200021FFF7A3
:106C2000DFFD054C2388002B01D1FFF73DFD2088B7
:106C3000431E9841C0B210BDB4340020F8B51D1CED
:106C40000378041C0F1C161C012B05D0002327748D
:106C5000E66065612370F8BD00230370043015F011
:106C60003DFDF3E708B50378002B04D10123037041
:106C7000043015F00BFD08BD08B50378012B00D0DA
:106C800008BD00230370043015F028FDF8E7C04666
:106C9000164B10B5984218D01A1C1832904200D0EA
:106CA00010BD134A2020172402211C5421201954FE
:106CB0009A61997716222E21012058545A772F2154
:106CC00000221A77DA775A54EAE70A4B0322036064
:106CD0000423437182710023052142720122037152
:106CE0000172C3718275C375DAE7C046CC710020AA
:106CF000001400420008004210B51F4C0123227806
:106D000082B013420BD022789A4322702278022359
:106D1000134323706368002B01D001209847237828
:106D20009A0713D5154B1B68DA0011D52378022278
:106D3000934323702378042293432370A368002B8A
:106D400001D001209847082016F0B8F802B010BD15
:106D50000B4B0122197801A80A43D2B21A7014F021
:106D600073F8084B8022198852000A4301A81A8040
:106D700014F070F8EAE7C046B8340020204400411F
:106D800028350020B434002008B5034B01201B68CF
:106D90000021984708BDC046C434002008B5034B05
:106DA00001205B680021984708BDC046C43400201C
:106DB00008B5024B00209B68984708BDC4340020EA
:106DC00008B50248062116F099F808BDD034002015
:106DD00010B50A4CA5235B00201CE362243001237C
:106DE0000373074B636315F051FCE369002B03D079
:106DF0002022A05CC0B2984710BDC046D03400200D
:106E0000C16D00007047C04638B5174C232222726E
:106E100001222282154A051CA26128226261144ABD
:106E20001448E26002226060628100F025F8237F4E
:106E3000002B12D0201C16F09BF8C3B2002B01D0FF
:106E400058B238BD0823201C6381E56016F0AEF807
:106E5000C3B20020002BF3D1F3E70123201C2377DA
:106E600016F06EF8E6E7C04608350020056E000013
:106E700004010020FC710020094B984200D07047AB
:106E8000084B022203601023437100230371112178
:106E9000C37183720123827101724272C372EEE781
:106EA000FC710020000C004210B5224C1023227807
:106EB00082B0134238D12278012313422ED1227896
:106EC0000223134224D12278042313421AD12278B8
:106ED0000823134210D12378002B0BD001A813F004
:106EE000B3FF154B8022198852000A4301A81A806B
:106EF00013F0B0FF02B010BD22789A432270FFF762
:106F000057FFE8E722789A432270FFF747FFDEE752
:106F100022789A432270FFF737FFD4E722789A430A
:106F20002270FFF7E9FECAE722789A432270FFF742
:106F30004FFFC0E728350020B4340020074B8020E5
:106F40008021802200030905D202186019601A60AE
:106F5000034B1860196000201A6070470844004114
:106F600018440041002804D18022094B12031A6002
:106F70007047012804D18022054B12051A60F7E7FB
:106F80000228F5D18022024BD2021A60F0E7C046F7
:106F900014440041002804D18022094B12031A60D6
:106FA0007047012804D18022054B12051A60F7E7CB
:106FB0000228F5D18022024BD2021A60F0E7C046C7
:106FC00018440041002804D18022094B12031A60A2
:106FD0007047012804D18022054B12051A60F7E79B
:106FE0000228F5D18022024BD2021A60F0E7C04697
:106FF0001C4400410000000010B5174C0021201C6B
:10700000482217F085F9134B114AA262E36232233A
:107010000522E25411499022114817F0E5F8114C6D
:107020001822211C1031104817F0DEF8211C2831DD
:1070300003220E4817F0D8F8211C303158220C4892
:1070400017F0D2F800210B4A0B4817F061F910BD78
:107050000C000000000001509868002068E4010066
:1070600038690020E8E401007C680020786800208E
:10707000E06800201030000068380020C046C0469C
:1070800030B583B000236C460093A380FF23CAB2BF
:1070900099438023051C5B00994220D080239B00EC
:1070A000994214D000290AD0114A124B1A80FFF7D6
:1070B0009DFC2B1C06CC06C3281C03B030BD0E4B18
:1070C000D200D1186846082217F08EF8F1E70B4B72
:1070D000D200D1186846082217F086F8E9E7084B75
:1070E000D200D1186846082217F07EF8E1E7C046C2
:1070F0000A6000005C38002008E8010070E501002B
:1071000090E6010008B5FFF777FFFEF751FB08BDD9
:1071100030B5041C83B00D1C6846211CFFF7B0FF7E
:10712000FF239C4380239B009C4204D0044A054BD0
:107130001A80FFF75BFC009B2B6003B030BDC0469C
:10714000066000005C380020F0B5041C83B00D1C04
:107150006846211CFFF794FF01AB009F1E88002D9D
:1071600013D0FF239C4303D080235B009C4206D1B5
:10717000281C391C321C17F037F803B0F0BD064A42
:10718000064B1A80FFF732FCF7E7044BC022D2010E
:107190001A80FFF72BFCE4E7016000005C38002058
:1071A00030B5051C83B00C1C6846291CFFF768FF2E
:1071B000002C0FD0FF239D4304D0094A094B1A80AD
:1071C000FFF714FC6B469A880098211C17F00CF806
:1071D00003B030BD044A034B1A80FFF707FCE9E710
:1071E000056000005C38002004600000F0B5026813
:1071F000214C57464E464546B223E0B490465B00CC
:107200004A22E050FF320023A354A52252001B4D16
:10721000A3546A78A7235B00E254A4235B00E65CD6
:1072200050274346D85B311CFDF70EF8A623C0B2A9
:107230005B00E054994643468246311CD85BFDF71B
:1072400059F8002903D0534601334A46A354AB787A
:10725000FF229A40D24301239A434C23FF33E25446
:10726000074A1378591C11704E22FF32A3541CBCDC
:1072700090469946A246F0BDC86900207868002073
:107280002C350020F8B52C4CA56885423CD8401B15
:10729000D821FCF78BFF2278C3B29A423AD9FF2358
:1072A0001840D82358432D182B7C5B08022B07D09D
:1072B00024DD032B22D02B7C012293432B74F8BDB9
:1072C000E378002B01D0013BE370A823EF58266937
:1072D0002821B81BFCF76AFFC3B2B74220D36278FB
:1072E0009A4223D9FF23184083001818C00036188B
:1072F0003378002BDFD000233370DCE72379002BB9
:10730000D9D0013B2371D6E70C4A0D4B1A80FFF709
:1073100059FBD4E70B4A0A4B1A80FFF753FBCEE721
:10732000094A074B1A80FFF74DFBC8E7074A044B91
:107330001A80FFF747FBC2E7C869002082440000BB
:107340005C38002083440000844400008544000031
:107350004823002210B5C254436C041C002B03D0F8
:10736000201C4830984710BD034B044A1A80FFF791
:107370003DFB636CF4E7C0465C38002044440000E9
:10738000F0B557464E464546E0B43D4F82463A7802
:10739000002A13D0BC68237CD80715D5013AD2B295
:1073A000D8255543231CD8335D1905E01A1C117CE0
:1073B0001E1BD833C80709D5AB42F7D100201CBC2F
:1073C00090469946A246F0BD221C00260021A82323
:1073D000D1505146022924D007D3032905D0294A88
:1073E000294B1A80FFF702FBE8E73B79B97899420D
:1073F000E4D901333B71517C0F2500232940936070
:1074000051741371A419637C0F2293435146637422
:10741000480001231843002323602074B8688019B2
:10742000CDE7FB7899467B784B45C7D9387B8046BA
:107430000028C3D039690D780B1C8C4628330021F5
:10744000002D07D10BE09C4628331D1C283D2D78CC
:10745000002D04D00131C9B24145F4D1AEE74B460D
:1074600001336046FB70012303701C208444A8256F
:107470006046505113713B7B8B42C3D19EE7C0469F
:10748000C8690020814400005C38002000B50A4B28
:1074900001228240101C1A7A83B01043187201A88E
:1074A00013F0D2FC054B2022198801A80A431A8048
:1074B00013F0D0FC03B000BD2C350020B434002004
:1074C00008B5064B011C5A7A181C013A0C305A7246
:1074D000FFF7DCF90120FFF7D9FF08BD2C350020AC
:1074E00070B50E4CBE23A28A061C113AFF3A92B226
:1074F0002569DB009A4204D9094A0A4B1A80FFF732
:1075000075FA201C1030311CFFF7C0F9002D00D097
:1075100070BD0020FFF7BAFFFAE7C0462C35002007
:10752000634400005C38002008B5011C0448203981
:107530001830FFF7ABF90120FFF7A8FF08BDC046E0
:107540002C35002008B5011C044828391C30FFF7F1
:107550009DF90120FFF79AFF08BDC0462C35002099
:10756000F8B59A22324B52009918E822995002211C
:10757000E0229954198EE22299520B21E422995467
:107580000022F0215A54F1215A540124F2215C5472
:10759000F3215C54274EF4215A54F8215E50F52112
:1075A0005C549A2464001E5D032102258E432E4301
:1075B00083273E4080277F423E431E5538241E5D70
:1075C0003624FF341E559E8E9B2464001E53DE8E8F
:1075D0009C2464001E5332241E5D9D2464001E55AD
:1075E00039241E5D3C24FF341E559E2464001E5D1C
:1075F0008E433543294019552D215C5C3E21FF31D6
:107600005C542E215C5C9F2149005C54A021490000
:107610005C5C1A21FF315C549A62074A1876517AF1
:10762000181C0131583051720BF09CF8F8BDC0465F
:10763000C8690020BD7A00002C35002070B582B0EA
:107640006D46183103350191041C291C0D20FFF7EC
:107650007BFD2B780199002B5BD102228823CA5431
:10766000032252428A23CA525023E25A8C230932FF
:10767000CA54636D9020093B0B50228F5A70120A36
:107680009A704C22A25CDA70221C4C3252781A7129
:107690004A22A25C5A71221C4A3252789A714E22B6
:1076A000A25CDA71324A15781D720B5803201978E2
:1076B0006E1C81430C2001430F20014019702D489E
:1076C0000199A0231670C8505923E05C01999823B2
:1076D000C854294B019918789923C8545823E45C5D
:1076E00001980121E4094C409A2144540198012356
:1076F0009B21435401989C21435401989D2143545C
:10770000537A0198013353720BF02CF8002002B029
:1077100070BD01228823CA54228F8A23CA52502363
:10772000E25A8C230832CA54636D9020083BFF2232
:107730000B505A704C22A25C9A70221C4C32527828
:10774000DA704A22A25C1A71221C4A3252785A71AB
:107750004E22A25C9A71064A1578DD710B580821F9
:107760001970064801996E1CA0231670C850ABE72B
:107770002C3500208177000078680020C17400005B
:1077800038B5041CA43C9023E358051C98785A781B
:1077900000021043FF210AF06FF9002803D1281CD2
:1077A000FFF78EFE38BD054AA023E25000229D233C
:1077B000E254201C0AF0C0FFF4E7C046C174000088
:1077C000F8B5384C8820211C4000FFF7BDFC211D76
:1077D00035480C3CFFF79CFC237B002B0BD0206929
:1077E000002300219A00D218D20011540133227BC9
:1077F000DBB29A42F6D81020FF30211CFFF7A4FC20
:10780000211C08312948FFF783FC2678002E45D03B
:10781000771EFFB2D825A2687D43131CD8335D19AB
:10782000012000E0D833117C814311741A1EAA4252
:10783000F8D1237B6370012E32D9A770A4220023D4
:1078400052009420E3702371A1184000FFF77CFCE4
:10785000211C2A202531FF30FFF776FC211C8C20CB
:10786000243140002425FFF76FFC635D002B0CD012
:10787000211C1C310E48FFF74BFCB4235B00842015
:10788000E1188000FFF744FC635D2522A25C5343AE
:10789000E269D318236200232376F8BD237B63704B
:1078A000A670CBE7D46900200E0200000D02000094
:1078B0000F02000038B5144C1448211C2431251C3B
:1078C000FFF726FC20351820FF30291CFFF73CFC71
:1078D0002023E25C636A002A01D0002B0DD09100C6
:1078E0008918C9005918A8208B4205D21A1C2032C9
:1078F000283310709942F9D838BD054A054B1A80D3
:10790000FFF760F8F8E7C0462C35002012020000AF
:10791000294400005C38002070B5041C0E1C0028AF
:1079200013D0C368002B10D00B4D281C1030FEF76D
:10793000D3FF201CE3682674103098472B69002B76
:1079400002D00020FFF7A2FD70BD044A044B1A804C
:10795000FFF74CF8E8E7C0462C3500206B440000E8
:107960005C380020F0B55F46564644464D46F0B4BC
:1079700085B001908846171C13F0CEFB82464A481A
:107980002823C35C002B00D175E048490C78894658
:10799000002C00D183E0016B53465B1A4A460293E8
:1079A0009368013CE4B2191CD82608316643009163
:1079B0007D22016B1D1C012494465246D835644239
:1079C0008A1AAE19A3460099394D3A4C0392009792
:1079D00003E0D833D831B3421CD01A8A2A40A242DD
:1079E000F7D11A7C674652083A40012AF1D10A6859
:1079F000002AEED0019FBB42EBD0029FBA4236D99B
:107A0000039FBA180A605A4541D89346D833D831F3
:107A1000B342E2D1009F4146002923D14A46936AEE
:107A2000002B1FD0026B5446A11A8B4232D9D218B8
:107A3000121B49468A62BA4200D93A1C5A4500D9FB
:107A40005A46041C2834201C01211B4BFFF7F6F872
:107A5000201CFFF707F905B03CBC90469946A246AA
:107A6000AB46F0BD5A46BA42EBD93A1CE9E70022D0
:107A70000A609346CAE7041C2834201C01213A1CE2
:107A80000D4BFFF7DBF8201CFFF7ECF8E3E75A4655
:107A90009346BBE742464B469A620022D1E7012358
:107AA0005B429B46B7E7C0462C350020C8690020E2
:107AB000010F000001020000317B000070B5174D7E
:107AC000174C6B7A013B6B72237E032B0ED0022B7B
:107AD00004D0144A144B1A80FEF788FF4221FF316C
:107AE000635C002B06D12376A36270BD002323764E
:107AF000A362FAE701220D48227682782D6C013AC2
:107B00009600B2184078520052194243013B635428
:107B1000A26200200121FFF725FFE6E72C350020B7
:107B2000C8690020524400005C38002078680020BA
:107B3000F0B5454657464E46E0B43C4D2B78002BF9
:107B400000D16CE001233A483A495B429846002450
:107B50008146D827384E8A4604E001342B78E4B2B7
:107B6000A34224D93B1C6343AA68D318198A334A19
:107B700031409142F1D11A7C7D21520811400129F6
:107B8000EBD149469868496B401A98602CD1597CD2
:107B90000F208143042001435974032A2DD0012072
:107BA000FFF774FC01342B78E4B2A342DAD8AB6A55
:107BB000002B06D04846406B1B1AAB622BD0984571
:107BC00027D84146013113D04C462834201C0121CE
:107BD00042461B4BFFF732F8201CFFF743F81CBC52
:107BE00090469946A246F0BD8045B6D98046B4E796
:107BF00048462830FFF740F8F1E752469378FF22D5
:107C00009A404C23D243FF33EA540120FFF73EFC55
:107C1000C8E79846D5E70220FFF7A2FCD1E7012389
:107C20005B429846024B9946C1E7C046C8690020AE
:107C30002C35002078680020010F000001020000B0
:107C4000317B0000F0B557464E464546E0B4314A18
:107C50002023546AD25CC35C9500AD18ED00061C6D
:107C60008A466519002B4DD1AC423BD24289102384
:107C70001B189046077A994604E0AA2B07D02834AF
:107C8000A5422FD9231C20331B78A42BF5D1237AAE
:107C9000BB42F4D163894345F1D1226833689A42EB
:107CA000EDD1626873689A42E9D1327B237B9342BB
:107CB000E5D1012B0FD0032B1DD1327E237E9A42BA
:107CC000DDD1211C48461031082216F067FA002841
:107CD000D5D1201C0AE0328A238A9A42F9D028346E
:107CE000A542CFD820235246F25400201CBC904617
:107CF0009946A246F0BD084A084B1A80FEF762FE7C
:107D00000020F3E7064A054B1A80FEF75BFE0020D1
:107D1000ECE7C0462C350020264400005C380020EB
:107D2000254400005823C35C021C0020D90708D555
:107D3000190705D55023D35A61209842804140420B
:107D400070471907FCD55023D35A632098428041CD
:107D50004042F5E7F0B5474680B4874AB823CA5099
:107D60000222A023CA54028FA223CA525923C25C02
:107D7000B023CA540022B123CA545823051CC05C46
:107D80000E1CC00901214840B22170540122B321C8
:107D90007254B4217254EB5C82B05B06DB0F04D1E9
:107DA0002A8F764991425B41DAB2B523F254281CFE
:107DB000FFF7B8FF00285BD0714CA4235B00A6221C
:107DC000E15C52004A23FF33A25CE35C013A0F1CE2
:107DD000934200D1C3E03A1C1E32612A00D9B2E0BE
:107DE000B422520059439046A2586B6D101C59188A
:107DF0003A1C1E3016F0F8F90A37A423F75442460D
:107E0000A458A8231434F4502278EC231340237090
:107E10002A8F5A4B9A4200D979E023780C22934357
:107E2000237023782022934323705823EB5C5A0756
:107E300056D42378402293432370281CFFF772FF07
:107E400000281FD0227880235B42134323704A22EC
:107E50004B4BFF32995C002965D1227A03218A437A
:107E600001210A432272A62252009B5C63720DE03C
:107E70005023EA5AA4230832F2546C6DA823083C1C
:107E8000F450C1E723787F22134023704823EB5C32
:107E9000281C63704C23EB5CA3702B1C4C335B7869
:107EA000E3704A23EB5C23712B1C4A335B786371CC
:107EB0004E23EB5CA371FFF735FF00283CD1314B1B
:107EC0001A78511C1970E2715A7A301C013218303C
:107ED0005A720AF047FC002002B004BC9046F0BD84
:107EE0002278402313432370737C0F27BB43012266
:107EF00013437374281CFFF715FF00280ED1224B83
:107F00005B78727C1B0117401F43777495E72378D9
:107F10000C22934308221343237082E7A723184AB5
:107F20005B00D35CEDE7217A03208143022001430B
:107F300021729B5C6372A9E74E23114AFF33D35C25
:107F4000E371104BC0E7114B114A1A80FEF74EFD4A
:107F5000A4235B00E15C4A23FF33E35C40E750224B
:107F6000AF5A0A1C5A43BF1AFFB23A1C1E32612A8A
:107F700000D835E7E7E7C046C1740000F7FF00000E
:107F8000C86900202C350020786800205C3800206B
:107F90005144000008B5044AB2235B00D158086878
:107FA000FFF7D8FE08BDC046C8690020F8B5041E1A
:107FB00009D0AA23202543550668476802F084FBB0
:107FC0000268B24202D00025281CF8BD4368BB42BB
:107FD000F9D182236355237A013BDBB2FD2BF2D822
:107FE000237B032B09D0012B02D0A6236355EAE79C
:107FF00000222023E2540125E6E7237E0025013BF1
:10800000DBB2FD2BE0D8236962691343F0D1034A48
:10801000034B1A80FEF7D6FCD6E7C046104400009A
:108020005C38002010B5041E10D06023C154002A13
:1080300016D012684266E36D002B13D0201C60300E
:108040009847201CFFF76EFE002800D110BD084A9B
:10805000B22300215B00D1500120FFF717FAF5E7AA
:108060004266E8E7034A044B1A80FEF7ABFCEDE7F3
:10807000C8690020544400005C38002070B5124DDF
:1080800003682C69061CA34215D3181B2821FCF792
:108090008DF86A78C3B2061C9A4205D80B4A0C4B7D
:1080A0001A80FEF7A3FC2C69FF231E40B00086193E
:1080B000F000201870BD064B064A1A80FEF796FCA9
:1080C00033682C69E1E7C046C869002048440000D5
:1080D0005C38002047440000F8B54F464646C0B41F
:1080E0009946244B171C20225E6A9B5C041C9D0051
:1080F000ED18ED0088467519002839D0864231D830
:108100002834A01B2821FCF795F8002904D01A4A2E
:108110001A4B1A80FEF76AFCA54205D81DE0AA2872
:1081200007D02834A54218D9201C20300078A42874
:10813000F5D1267ABE42F4D163894345F1D14B464D
:1081400022681B689A42ECD14B4662685B689A428F
:10815000E7D1A428E5D1201C00E000200CBC90460B
:108160009946F8BD064A054B1A80FEF73FFCC7E763
:10817000341CD1E72C350020244400005C3800205A
:1081800023440000F8B55F4656464D464446F0B4D9
:108190000E1C051C02F098FAD023071CF458002D81
:1081A0002BD0A8229346002827D04C2291464E235C
:1081B000D022984692464B46E95A4346EA5C201C38
:1081C0003B1CFFF789FF041E33D0EB6A002B23D042
:1081D000237B5246B450032B24D1201C10300FF0C7
:1081E00095FD002815D0227E4823EA540388311CCF
:1081F0002B87281CFFF7AEFD05E0194A194B1A80A2
:10820000FEF7E0FBA8203CBC90469946A246AB4650
:10821000F8BDA9239B46CEE7227B9346032A0AD0CA
:10822000D023F450238A281C2B87311CFFF706FA31
:10823000E9E75846E7E7201C10300FF067FD0028FB
:10824000C6D15B462B75226963692A626B62064B55
:10825000281C1030EB620FF04FFD0020D3E7C04622
:10826000144400005C3800206D820000F8B5174F00
:10827000061C3A78283EBC680025002A0AD0237CD8
:10828000D90702D52368B3420AD00135EDB2D834FC
:108290009542F4D10E4A0F4B1A80FEF7A7FBF8BDAA
:1082A000211C301CFFF76EFF011E03D13B78AB424F
:1082B000F5D8EFE7301C0022FFF7B4FE201CFEF7D4
:1082C000E1FF0120FFF7E2F8F0E7C046C8690020AF
:1082D000154400005C38002038B5051C0C1C002833
:1082E00010D000290ED00023D022EB62281CA3500E
:1082F000211CFFF747FF051E02D0201CFEF7C2FF1E
:10830000281C38BD024A034B1A80FEF76FFBEAE7D0
:10831000134400005C380020F8B50468061C0D1CEE
:10832000002C28D0201CCE2D1FD020232A1C9A439D
:10833000D02A1AD0D12D14D0C823F35860276366F1
:10834000E5553023C35C002B1CD0291C221C643251
:10835000FFF768FE301CFEF795FF0120FFF796F847
:10836000F8BD5823E35CDB09E6D0C823F358636605
:108370006023E554E9E7084A084B1A80FEF736FB0C
:108380003068D0E7E362201C311CFFF7FBFEA82811
:10839000E6D13068E15DD9E74F4400005C38002049
:1083A000F8B5041CFFF702FE002800D1F8BD201C20
:1083B0000021FFF747FC00280DD0201CA621FFF765
:1083C00041FC0028F2D0A4222023C2541020002116
:1083D000FEF706FAEAE7002C03D02023E35C002B2B
:1083E00004D01C4A1C4B1A80FEF700FB1B4A2023BA
:1083F000D15C002915D0556AEB5CA82B15D001394A
:10840000C9B28A002B1C51182833C900591806E03C
:108410001D1C28331A1C083A1278A82A05D08B4252
:10842000F6D1AE222023E254C0E72026A427AF5580
:10843000002C09D0A35D002B06D1281C211C28226A
:1084400015F0D2FEAF55C1E7054A034B1A80FEF77F
:10845000B9FABBE7204400005C3800202C3500202E
:108460002744000010B5041E03D0104A536A9842F6
:1084700013D20F4A0F4B1A80FEF7B8FA2023E35CA1
:10848000A42B06D0AA2B04D00B4A0A4B1A80FEF765
:10849000ADFAA8222023E25410BD2021525C9100A5
:1084A0008A18D2009B189842E3D2E7E72C350020C7
:1084B000214400005C3800202244000010B5041C58
:1084C000FFF774FD002800D110BD201CA421FFF788
:1084D000B9FB0028F8D0FFF7C5FF10200021FEF7F8
:1084E0007FF9F1E710B500281BD0104B28305C6AEB
:1084F00020215B5C9A00D218D200A21890420ED2C2
:10850000435CA42B08D109E02830904207D2031C19
:1085100020331B78A42B01D0AA2BF5D110BD00204D
:10852000FCE7024B586A041CE2E7C0462C350020E9
:1085300010B5041C0548211C1C30FEF7A7F90023C8
:10854000E3620120FEF7A2FF10BDC0462C350020DB
:1085500010B5041C0548211C1830FEF797F90023BC
:1085600063620120FEF792FF10BDC0462C3500204B
:1085700070B588B0384A05AC08203223FF30211C82
:10858000D55CFEF7E1FD1A2006A9FEF7DDFD069B8E
:108590009D4206D35B001A2006A90693FEF700FE53
:1085A000069B22782D4E51008A1807357564554375
:1085B0006C465B1915346D4608201635211C336452
:1085C000FF3001232B70FEF7BFFD2420291CFEF78E
:1085D000BBFD1A2007A92478FEF7B6FD2B78726C34
:1085E0000798002B31D06100FF2932D84A4300247C
:1085F00012181B48013B1118DBB264185200002B03
:10860000F7D12B706D46620AEB75E4051735122021
:10861000611E8C41FF30291CA4180793FEF794FDBE
:108620008220800007A9FEF773FD301C48300799AF
:108630002A78FF2C0BD8012301930023E4B2029384
:10864000802300949B00FEF7E5F908B070BDFF247D
:10865000F1E7FF21CAE7C046986800202C350020CA
:10866000FF01000038B5002849D1284B0025284CCF
:10867000DD619D61DD60DD65AC230A225B00E250B7
:10868000244AB0235B00E250AE2301225B00E25497
:108690002E23E5543923E5542C23E5542D220023C1
:1086A000A3543222A354201C3822A354A586E58665
:1086B00025862376A5620021D822403015F028FEB9
:1086C0008C225200A3181D605D609D60DD601D61FD
:1086D0005D619D61DD611D625D622523E25C242395
:1086E000E35C01325A430021E06915F011FE9A2340
:1086F0005B00E218E823E250FFF73AFF38BD15F0BF
:108700005FFE024B002218705A72AFE72C35002032
:10871000C8690020957F0000F8B544465F4656467C
:108720004D46F0B4041E05D05A4D061C2969103E72
:10873000B1420AD0584A594B1A80FEF743F93CBC63
:1087400090469946A246AB46F8BD3379192BF1D134
:10875000AB8AE022D200934228D08022920093423A
:1087600004D04F4A4D4B1A80FEF740F90023602297
:108770000120AB542B72FFF775FFFFF721F8FFF7CD
:1087800099F8484B281CAB82237810303376FEF7DB
:10879000A3F87369002B76D0201C083098472B690A
:1087A000002BCCD00020FEF771FEC8E71C22EF6939
:1087B00052199046002F0AD04046FEF78DF8381C1B
:1087C000A3210022FFF72EFCEF69002FF4D1364BD6
:1087D0009A46364A9346EF68002F3BD0391C3448FE
:1087E000FEF782F852469168781A8846D821FBF73E
:1087F000DDFC51460A78C3B281469A4216D9FF235E
:1088000049460B40D8225343434418681B7C5B08FD
:10881000012B1AD0022BDED0002B10D0254A1F4B83
:108820001A80FEF7E3F8214A9346D4E71B4A5B46D9
:108830001380FEF7DBF8524691688846DFE73A1C62
:1088400039790C32FFF7EEFBC3E7A7210022FFF7CF
:10885000E9FBBEE751460B78D8229046002B07D1A2
:1088600084E7524601371378FFB2BB4200D87DE758
:108870004046784353469B681818037CD907F0D5C7
:10888000FEF700FDEDE7054B0B4A1A80FEF7AEF848
:10889000736981E72C350020664400005C380020B5
:1088A0006744000032030000C86900204244000011
:1088B00038350020434400006944000038B5354D88
:1088C0002C69002C46D023798A2B21D0C52B16D0B9
:1088D000192B05D0304A314B1A80FEF787F838BD86
:1088E000AA8A88235B009A4249D0E023DB00AB824E
:1088F0002B4B201CE36008300CF016F8EFE7AA8A37
:10890000284B9A422CD0201CA321FFF705F8E6E75C
:10891000AB8A254A934216D0C222D200934212D08B
:10892000A3232373281C1030FDF7D6FFA368002B68
:1089300029D0201C0C3098472B69002BCFD0002069
:10894000FEF7A4FDCBE7174BAB82FFF711FE002328
:108950002373E7E7154A114B1A80FEF747F8B2E791
:10896000A023DB00AB82281C022323812830FEF7E2
:1089700083F9002301206B72FEF788FDAFE78023A7
:108980009B00AB82B4E7054B094A1A80FEF72EF82C
:10899000A368CEE72C350020654400005C38002039
:1089A000198700003F040000320300006444000007
:1089B0006A44000010B58368021C58789B7886B022
:1089C0001B0203AC03434020208001A8606001200B
:1089D000A0600C4881420ED08B4211D06B461981A9
:1089E0001E20211C0192FDF7FBFEA0684342584166
:1089F000C0B206B010BD1BB20120002BF9DAEDE7C2
:108A00000120F6E7FFFF0000F8B54F464646C0B428
:108A1000051E38D01F4B20221F4E00249146984639
:108A2000002C1FD02468002C23D02379002BF7D1F1
:108A3000A268002A21D0A98F201CFFF7BBFF0028C5
:108A4000EED0A368288A1F78391C09F015F8002891
:108A5000E6D04A46AF54E368002B05D0281C98475F
:108A6000002CDFD17468DEE70C4A0A4B1A80FDF750
:108A7000A9FF0CBC90469946F8BD094B42461380AD
:108A8000FDF7B4FFD7E7074A024B1A80FDF7AEFFA8
:108A9000C0E7C0465C3800202C350020324400007E
:108AA0003144000030440000F0B55F4656464D4664
:108AB0004446F0B4061C476B7F4899B0884681460F
:108AC000B18D4830FA79FDF7E3FF002863D07A785A
:108AD000531EDBB2FD2B68D900242823F35C02ADC2
:108AE000012B00D002232B73738D2B827A782023E5
:108AF000EA54B08D0FF00EF9002800D1B4E0032243
:108B00002123EA540168426829636A63B38D4020D7
:108B10002B85F38D48212B87BA793A23EA547B7948
:108B20003A791B021343AB87FB78BA781B021343D5
:108B3000EB873023F25C8A46131C0A3B9BB22B5214
:108B400083460020011C504629543878C00938D18A
:108B5000131C083B9BB258462B52D31A726B4046EB
:108B6000D3186B644923E8544022B15C4A23E9548A
:108B70003823F15C4B23E954F16B3923E964F15C50
:108B80005023E9543B78DB09012B2ED0002C21D057
:108B9000E368281C9847301CFEF7DAFB19B03CBC90
:108BA00090469946A246AB46F0BD49464C6805E062
:108BB000A0680378934200D18FE72468002CF7D196
:108BC000E9E7387A8007C8D1131C093B9BB25946A4
:108BD0006B52C2E72823F35C012B68D07B78FF2B14
:108BE00046D0281C0FF03AFCD5E73B7A9B079B0F39
:108BF000022BCBD1314B181C9A461B6A1978A9520B
:108C00002C221978825C8B460120012A28DD221C47
:108C1000291C01975D46041CB34690460E1C524623
:108C2000D269574650192522B95CFF6961431A5D24
:108C3000791815F0D9FA5046036A40271A191078A6
:108C4000F15B2C2741184020315212785146AD1863
:108C5000CA5D0134A242E2DC019F351C44465E46F7
:108C60005146C969696491E702222123EA544DE71C
:108C700000242027002C17D02468002C00D18AE77C
:108C8000A0680378002BF5D02379002BF2D1A98FAF
:108C9000201CFFF78FFE0028ECD0A168281C0B7861
:108CA000EB55E2689047E5E74B465C68E5E7281C32
:108CB000FFF7AAFE6FE7C0462C350020C8690020E8
:108CC000F8B556464D465F464446F0B4456B061C23
:108CD0006A78531EDBB2FD2B20D8A14B5C6800E004
:108CE0002468002C0CD0A06803789342F8D16979ED
:108CF0002B7909021943201CFFF75CFE00280ED1D6
:108D00002B780022DB09012B61D0002A59D10120E8
:108D10003CBC90469946A246AB46F8BD0024297853
:108D2000CB09012B57D001224F06ECD50907890F3B
:108D300002296ED0B18D8B4A91426AD8002C03D0A3
:108D4000207900220028DED1746B23785806DED506
:108D50009B079B0F0725012B00D18FE1824B1A78CF
:108D6000002A00D10AE1013AD2B2D8279B687A439F
:108D7000181CD830801803E0D833834200D1FDE0BE
:108D80001A7C052AF8D11A1CA23212888A42F3D121
:108D90001A1CA8321268675D525D9742ECD1B6E7A3
:108DA0002C22A25CA9785F1ED31A8B4200DD0B1C1B
:108DB000FB18DFB2013A974200D0ABE10320FEF787
:108DC000CFFB301CAF21FFF76FFE0020A0E72B7A0E
:108DD0009B079AD002E02A7A9207A4D03023624CF3
:108DE000F25C2423756BE35C6F7A002B00D18EE775
:108DF0000A3A207ED2B29146804601280BD0002844
:108E000073D003286BD9594A594B1A80FDF7EEFDF0
:108E10007DE7002277E72B7A9A07920F022A02D089
:108E2000002F00D073E79B0800D070E72C23E35C91
:108E3000BB4200D26BE7228EB38D9A4200D066E728
:108E40003223E25C6B789A4200D060E7EB78A97835
:108E5000A28E1B020B439A4200D058E76B79297906
:108E6000E28E1B020B439A4200D050E73823E25CAB
:108E7000AB799A4200D04AE73923E25CEB799A4217
:108E800000D044E73B4D2D23A878E35C80469A460A
:108E900043449F4200DB3AE7381C4146FBF7CAF9DE
:108EA000CAB2BA4508D9BB1A2D21635401214346E1
:108EB000494299402E23E1542523E05CE16978433F
:108EC000736B08189846002399B2894500D1E7E0F2
:108ED0009C46C4446146897AC1540133F4E7264A6A
:108EE000234B1A80FDF782FD11E7297A8A46012972
:108EF00000D00CE79F4200D909E72522A25C9145EA
:108F000000D904E701325A43E069002115F000FA64
:108F1000A023AF225B00E25452462C23E754227672
:108F2000B38D474623866A783223E254EB78AA78D9
:108F30001B021343A3866B792A791B021343E38632
:108F4000AA793823E254EA793923E254094B5A7852
:108F50004223FF33E2542D23E7542B7A002762E7A4
:108F60002C350020F7FF0000C869002053440000A2
:108F70005C38002078680020404400000220FEF7A2
:108F8000FFF9002800D1C2E6A823C358AF211A1C5C
:108F90001C3A517056600221A02281548B46B18D3B
:108FA000A22281520022B0214254B227B121425460
:108FB000BC4601210F1C8A4661464754B3214754E1
:108FC000B427C2556E4A514694466746B822875028
:108FD000B52281541A7802218C460327BA4367468A
:108FE0003A431A7021780322890811401F788900BA
:108FF00088460C218F4341460F431F70227851460B
:109000001209114009018946FFB210218F434946D8
:109010000F439F213940197021781A78C909C90175
:109020007F278946391C11408C46624649461143C8
:1090300019702178CF062CD40827A4214754A7798A
:109040005F70E778A2783F023A43170A9A70DF70A0
:10905000677922795F711A7167789F71766B755D98
:10906000DD712578ED09012D0AD0464B18305A7A6A
:1090700001325A7209F076FB002049E601256DE6BF
:10908000257AAD0739D100221A72435C013343546B
:10909000EBE7726B5946525D5A70A423C154E4E762
:1090A000236A4846D8552D23E35CA0469F4253D0FF
:1090B0000121081C90402E228446A05C9146624605
:1090C0001043C2B248462254FF2A00D168E62C223F
:1090D000A25C013A97423BD0AA78013A9B189F4282
:1090E00018D00A235A43274B00201B6CD2186B78E8
:1090F0005A43A262FEF736FC09E6455C03220335BB
:109100004554247A03210C40197A914321430A40A3
:109110001A72AAE70220FEF723FA2E23E35CFF2B44
:1091200000D0F4E52D22A15CAB785918A1542C2273
:10913000A25C013AD71BFFB23A1C9F4200D91A1C0D
:109140000123D2B25B4293401A1C2E23E254DEE587
:109150000220FEF705FADAE52C21615CA878C91B2C
:10916000C9B28C46844500D9011C0120C9B24042D5
:1091700088402E21894641464944087098E7C046F8
:10918000C17400002C350020F0B54D4644465F46C2
:109190005646F0B4D44D8823A88A9DB080465B0023
:1091A000984200D18DE0D14F281C0C30FDF794FB84
:1091B000041E00D185E0BE68D821A01BFAF7F6FF97
:1091C0003A78C3B29A4201D800F036FCFF23184027
:1091D000D8235843C2233618DB00984500D18FE1CD
:1091E000A023DB00984500D18AE1337C5B08012B8A
:1091F00000D1B5E100DC91E1022B00D19BE1032B12
:1092000000D092E1737C1B071B0F012BCCD14A23AA
:10921000FF33FA5CA6235B00FB5C013B9A4201D161
:1092200000F017FCB2498A788946002A1DD04C23E9
:10923000FF33FB5C9C46DB0701D500F0C1FC01233A
:10924000B2469B4666460292A44608E0191C301CB2
:1092500008415C460133044201D000F00CFC029C42
:10926000DAB2A242F2D3644656461A2006A9247CFA
:10927000FDF76AFF696C069A4C434B46A4185A786E
:10928000737C1B09D31A9C40A146B22464003E594A
:1092900015F096F8C305DB0D4B44B3603B590F2125
:1092A0005A7C8A4302210A435A7438590021826841
:1092B000FEF758FB281C0C30FDF70EFB041E00D0F7
:1092C00079E78A4905AE002333808B4616E0404695
:1092D00003789A07920F012A27D04122A25C002A24
:1092E00023D1201CFEF734F83823E35C3B20337095
:1092F0003923E35C311C7370FDF772FA18204019B2
:109300000221814688464846FDF7E6FA041E00D150
:1093100090E1626AAF8A002A00D177E1606B8046F3
:10932000744B9F42D3D141460B78590601D400F0CB
:1093300080FC6E4AD1781079177808188742D0DD02
:1093400052788A42CDD91A07970F012FC9D09A07B0
:10935000920F022AC5D0002FC3D19A06C1D4282269
:10936000A25C9246012A00D19BE3022AB9D19B0755
:109370009B0F00D1C1E3022BB3D159460B78D82201
:1093800053438F68FB189F42ABD25B48039444461B
:109390005A4A8246019403E0D8379F4200D3A9E39A
:1093A000398A11405145F7D103983C68391C808DAA
:1093B000248FA8310968A042EED10198CC79C079F8
:1093C000A042E9D10198019C00796479804608792E
:1093D00024020290A1464C7948462402A446444601
:1093E0002043029C8046604620438045D4D10198AA
:1093F000019C8078E4788046887824020290A14617
:10940000CC7848462402A44644462043029C804629
:10941000604620438045BFD101988C794078A042B6
:10942000BAD10198497880798842B5D1397C490808
:10943000012901D100F04BFC0329ADD10199A523ED
:109440005B0058464A7AC35C039C88469A4200D027
:1094500047E7274901228B78101C4146897A9840BA
:109460004042014340468172787C0F2188430321AA
:10947000014379744046817AFF2901D100F0E8FB6D
:10948000C9434C20C9B2FF305F463954002B22D06B
:109490000A4201D000F0D9FB012294469846D3B28B
:1094A0009A46984517D9171C081C38416346013263
:1094B0000342F4D00123BB40DB435046DBB24C22D5
:1094C0005F460B40FF32BB54A5235B00FB5CC0181A
:1094D0004A23FF33F854B2235B005F46F95808680B
:1094E000FEF738FCFDE6C0462C350020C869002098
:1094F000786800203F04000001020000010F000016
:10950000337C5B08022B6DD0221C30680C32A32107
:10951000FEF788FD201CFDF7B5FE45E6002B04D1C3
:109520002179301CFEF7F8FE3EE6C14AC14B1A8095
:10953000FDF75CFA38E6301CA830FEF79FFD061CEC
:10954000407881467068002800D1B8E24946FFF7AC
:10955000ABFA201CFDF796FE0120FDF797FF23E6EE
:10956000737C1B071B0F012B00D01DE63268237C88
:109570001A2006A992460293FDF7E6FD0699AE4A27
:109580000391737C5278686C1B092179D31A834646
:109590009946002900D160E2CE2900D113E3F029D9
:1095A00000D110E3D02900D10DE3D12905D15823F2
:1095B0005246D35CDB0900D005E314F001FFFA2327
:1095C000C2059B004C46D20DA340D218B260737CFA
:1095D0000F218B4302210B437374301C0021FEF7D3
:1095E000C1F9E1E5301CA830FEF748FD417842683A
:1095F00081468A46002A00D176E22379002B83D166
:10960000494648685146FFF74FFA7DE7636B1A7881
:109610009207920F012A01D0984681E69A78052A8E
:10962000FAD0A08D0EF076FB002800D14EE2636BDD
:10963000984675E6AB8A9A0700D4D4E07F4B804EFB
:1096400099469846EC69002C10D0E76A002F00D1AB
:109650008BE0B2235B00F358002B1DD0201CFEF7DB
:1096600061FB002827D02468002CF7D1AB8AA02208
:10967000D200934200D180E1C222D200934200D1B5
:109680007BE1704A934200D1F4E01DB03CBC9046AF
:109690009946A246AB46F0BD201CFEF743FB0028CE
:1096A00009D0B4235B00F358002B7BD05823E35C34
:1096B000AA27590708D55023E35A642B0FD95823FA
:1096C000E35CA0271A070AD4281C1C30211CFDF7D4
:1096D0000BF9201C391C0022FEF7A4FCB2E74E2334
:1096E000E75C002F08D06B6800E01B68002B3AD0C5
:1096F00098680178B942F8D15823E25C30235207C8
:10970000D20FE35C002A04D0022B00D183E1012BAD
:1097100029D0991E012900D883E1002B19D1002AF4
:109720007BD1201CFEF7FEFA002800D08AE15823E6
:10973000E35C5A076AD50120FDF722FE424B071C65
:109740009A4637E03B4B414A1A80FDF73BF93023FC
:10975000E35C012B28D0002BE3D0022B00D1F0E0FA
:10976000032B00D1E1E0A627AEE73027E35D032B12
:1097700000D06EE7201C40300EF0C8FA002800D060
:1097800067E7206C616C20626162E35D201C2375D9
:109790002F4B1030E3620EF0AFFA281C1C30FDF79F
:1097A0009BF84FE7AA278FE70020FDF7E9FD29493D
:1097B000071C8A46002F00D158E7281C1C30211CAA
:1097C000FDF792F83C60201CFEF7ACFA002806D1A9
:1097D000391C201CD047071E00D133E779E7381C1D
:1097E000FDF704FDF4E7EC69002C00D13FE72E1CE7
:1097F0001C36211C301CFDF777F8201CA321002209
:10980000FEF710FCEC69002CF3D12FE70020FDF7E8
:10981000B7FD071C0C488246CCE74C23E35A9B4615
:1098200000F052FF824600288CD0002018E0C0468D
:109830004E4400005C38002078680020557D000010
:10984000C86900203F040000D982000012440000D3
:10985000457500003D760000037B012B00D182E7B7
:1098600059463A1C5346FEF737FC0028F4D1302302
:10987000E35C6EE7DA4E3378002B00D105E7D94F71
:10988000D948D82300249A46B946804605E00134D9
:109890003378E4B2A34200D899E057466743B168F1
:1098A0004A46CF193B8A13404345F0D13B7C7D2289
:1098B0005B081A40012AEAD1797C0809029000D19C
:1098C000F8E00807000F0128E1D00F2081438B4604
:1098D00084460121584608438346029861460F306A
:1098E00008400001029058460840011C02980143BC
:1098F0007974012B00D18FE1032BC8D14C23FF33A6
:10990000F15C9143F154A5235B00F25C4A23FF33E1
:10991000F254A7235B00F25C013AF254B2235B00DD
:10992000F1580868FEF716FAB1E7201C40300EF037
:10993000EDF9002800D1D5E00388022223873023E7
:10994000E254201CFEF7EEF900280FD15823E35C07
:109950005F0705D50120FDF713FDC246071C29E767
:109960000020FDF70DFDCA46071C23E70320FDF785
:1099700007FD9E4A071C92461CE7994ED820327874
:1099800000248046002A05D122E001343378E4B275
:10999000A3421CD947466743B168CB191A7C032AF6
:1099A000F3D15A7C1207120F042A01D0022AECD1FB
:1099B0001868A3210022FEF735FBB2680134D019E4
:1099C000BC30FDF75FFC3378E4B2A342E2D8AB8A47
:1099D000A022D200934200D057E66B7A002B00D031
:1099E00053E62C692379C52B04D0814A814B1A8018
:1099F000FCF7FCFF238902229343238100D044E635
:109A00000020FEF72FFEC223DB00201C0021AB82CA
:109A1000FDF782FF39E6228F774BA6279A4200D9BD
:109A200052E64823E35CA6270F33DBB20D2B00D8A8
:109A30004AE63023E35C8CE6704A6E4B1A80FCF7F2
:109A4000C1FF3EE40320FDF79BFC6D49071C8A46DD
:109A5000B0E66C488146FFF708FC14F0B1FC029CAC
:109A60005B466343039CC2051B194846D20D8340E5
:109A7000D218B260ABE501238B40DB43B446DBB2C6
:109A800060464C210340FF317B54A5235B00FB5C07
:109A90005D48D2184A23FF33FA5412F0F7FDFFF75E
:109AA00083FB201CFFF70CF9002801D1FFF71CFCF9
:109AB000FFF717FC381CA721FEF72EFCE7E6534AF8
:109AC0004C4B1A80FCF792FF70683FE547462773BE
:109AD000A38D4F4F201C2382676208300EF00CF9D3
:109AE000FFF711FCA927EFE54A4B42480380FCF73A
:109AF0007DFF82E5039CFFF7F4FB032FD1D1281CE7
:109B000043464830A18D1A7AFCF7C2FF002801D1E4
:109B1000FFF7E7FB3023E35C082B01D8FFF7E1FBFD
:109B2000012309A8037041468B784A781B0213432E
:109B30006A461385A08D0EF0EDF82123002800D190
:109B40007FE006A9CF540268436812921393A38D55
:109B500010A90B80E38D14AA13804346DA7906AF6F
:109B60003A23FA544046837942791B02134315A9DC
:109B70000B800379C2781B02134356226A44138078
:109B80003023E25C4023093AFA52626B0021093229
:109B900017924822B954AF214922B954E25C4A23B2
:109BA000FA543823E25C4B23FA54E06B39231990C2
:109BB000E25C381C5023FA54FEF726FFFFF791FBB6
:109BC000FE2300225CE7221C0C325046FEF72AFAE4
:109BD000201CFDF757FB0120FDF758FCFFF771FB38
:109BE000C8690020010F000001040000557D00003D
:109BF0006D4400005C380020F7FF0000494400007D
:109C0000D982000078680020186B00204D440000C5
:109C1000297500004A4400006B7A381C0133183063
:109C20006B7208F09FFDBA68381C0021FDF79AFEA0
:109C30002DE61A07970F012F01D0FFF78EFBFFF7D4
:109C400050FB504606AFF85481E7FE23002036E46F
:109C5000A622594652008A5C9446A52252008A5C8C
:109C6000501E80466046811A994200DD191C4A2028
:109C7000FF30414481465846C9B248448846017085
:109C8000012149428C44E0452ED0D218A521D2B200
:109C90005F4649007A541948A721490047788C4605
:109CA000594661440F705F464F443A70FF229A4014
:109CB000D24301239A434C235846FF33C254B22364
:109CC0005B00C1580868FEF745F8FFF70AFB7A7C8D
:109CD0000F239A4303231343039C381C7B740021F6
:109CE000FEF71AFBFFF7FDFA381CFDF77FFA381C68
:109CF0000021FEF711FBFFF7F4FAC0467868002058
:109D000038B5051E13D0A62303748368002B0ED02C
:109D10001A78531EDBB2EF2B09D80A48446800E0DA
:109D20002468002C04D0A1680B789342F8D138BD88
:109D3000E96804304B424B412B71291CFCF7A6FD0E
:109D40002C74F4E72C350020002801D000687047FF
:109D5000014B5868FBE7C0462C350020F0B58FB0AA
:109D6000002859D00378032B01D00FB0F0BD4388F1
:109D700002AC23808268C368A260E360037C466A09
:109D80002374438A63828269C369A261E3612823E1
:109D9000C25C2C23E2542A23C25C2D23E2542023EC
:109DA000C55C062DE1D933789A07920F032ADCD1DE
:109DB0005B09DAD17378002BD7D16F4607371420AF
:109DC000391CFDF7C1F932783B78D206520F9A421E
:109DD000CBD1B3789A07920F032AC6D11A09C4D1FE
:109DE0001B079B0F032B1DD0B31E072299795879AF
:109DF000090201436184D9791B7AAD1A1B020B4316
:109E000023842423E554104BB2185B6EA262002B0E
:109E1000ABD0201C9847A8E70C4A0D4B1A80FCF7E2
:109E2000D1FDA2E701232374082D9ED93079F37860
:109E300000021843FF21208307F01EFE002800D1F6
:109E400093E7331C0922D1E72C350020454500005B
:109E50005C38002008B58822064B52009A826021A7
:109E600000221A611A725A545A60FDF7A9FC0AF0CE
:109E70007DFD08BD2C35002038B50C4D041C291C77
:109E80002520FCF741FC3820291CFCF73DFC002C68
:109E900005D019232371201CFDF722FB38BD044A8D
:109EA000044B1A80FCF78EFDF8E7C046080100203D
:109EB000604400005C38002008B5002804D08A23E4
:109EC0000371FDF70DFB08BD024A034B1A80FCF736
:109ED00079FDF8E7614400005C38002008B50028EF
:109EE00004D0C5230371FDF7FBFA08BD024A034BFA
:109EF0001A80FCF767FDF8E7624400005C38002038
:109F000070B51F4D2A7B002A13D02B6919780029C0
:109F100033D1013AD2B2910089182833C9005918B7
:109F200005E028331A1C283A1278002A25D18B42E2
:109F3000F7D12B780024D826002B13D1287E431E7E
:109F40009841C0B21AE0A968CB181A7CD10704D591
:109F50005B7C1B071B0F022B0FD101342B78E4B263
:109F6000A342EBD9FCF7C6FB331C63430028EAD1BC
:109F7000AA68D3181B7CD907EFD5012070BDC04655
:109F8000C8690020F8B50E1C252822D0382800D03A
:109F9000F8BD144B0F781A78002A18D0013AD2B2C3
:109FA000D8259B685543191CD8314D190E4C0F48C4
:109FB0007D2102E0D833AB4209D01A8A2240824286
:109FC000F8D11A7C52080A40012AF3D101273770D0
:109FD000DEE70C78FFF794FF01235840044034700B
:109FE000D6E7C046C8690020010F0000010200004A
:109FF00008B50378DA0601D5FDF75CFC08BDC0465C
:10A0000070B5204D6023EC5C82B0287A231C0126B9
:10A0100001E09C422BD00133DBB2191E072901D984
:10A0200000210023021CCA401642F2D06022AB5429
:10A0300001238B405840144B89002872591801A8FD
:10A04000042214F0D1F8019B002B13D09847287AF2
:10A0500000280AD001A810F0F7FE0C4B2022198826
:10A0600001A80A431A8010F0F5FE02B070BD60230B
:10A07000EC54EDE7064B8822D2011A80FCF7B6FCBF
:10A08000019BE3E72C35002048EA0100B4340020AE
:10A090005C380020094A4223D35C162B0CD80849AF
:10A0A0009B00CB589F46022070473823D35C022088
:10A0B0000A2BF9D80820F7E70020F5E79868002078
:10A0C00068EA0100032812DC431D1AD0C31D1DD00D
:10A0D000031C09331FD0031C0E33DBB2042B0BD936
:10A0E000031C0E331CDB114A4023D05403E00F4AFB
:10A0F00003214023D15470470C4AF4214023D1540A
:10A10000F9E70A4AFC214023D154F4E7074AFA212F
:10A110004023D154EFE7054AF8214023D154EAE720
:10A12000024AEF214023D154E5E7C0469868002059
:10A130000F4A4223D35C162B18D80E499B00CB58EC
:10A140009F463823D35C1020002B00D12820704775
:10A150001020FCE73823D35C3220002BF7D01020EE
:10A160000A2BF4D81920F2E73220F0E70020EEE7BE
:10A1700098680020C4EA010010B5041CFFF7D8FF5E
:10A1800023011C1BA401FA2160438900FAF70EF891
:10A1900010BDC04610B5FFF77DFF041CFFF7C8FFD8
:10A1A000A200E301A418E4B2E418A4B2FA216043C7
:10A1B0008900F9F7FBFF024A01303223D05410BD69
:10A1C0009868002070B52C4C0B223823251CE254D3
:10A1D00040352A4B291C0320E363FCF7B5FF4023DD
:10A1E000E056FFF76FFF291C0320FCF7D9FF01267B
:10A1F00041230025E6544223E554FFF74BFF82003C
:10A20000C3018018C0B2C0184423E052FFF742FFD8
:10A210008300C0184623E054FFF73CFF4723E05477
:10A220003623236025716571A671A560257314F02E
:10A23000C7F8764201225242D31722616361268316
:10A24000607314F0BDF80523E3760423237703231A
:10A250006377A37720222223E2542323E554242387
:10A26000E5543023E55431232684E684E554A07672
:10A27000FFF790FF70BDC0469868002000F8FF0708
:10A2800010B5027882B0131C403BDBB2041C432B98
:10A2900000D991E069499B00CB589F46FB2002B052
:10A2A00010BDF420FBE78268654B00209A60F6E75A
:10A2B000027A634B00209A76F1E70289604B002016
:10A2C0001A83ECE75E498268C36800200A614B612B
:10A2D000E5E7027A5A4B00205A73E0E7027A584BBE
:10A2E0000020DA76DBE7027A554B00201A71D6E7B8
:10A2F000FFF71EFF2389FA211A01D31A9B01584345
:10A300008900F9F753FF01A901900220FCF748FFEB
:10A310000020C4E7017A4A4A2223D1540020BEE734
:10A32000037AE820072BBAD8454A00205377B6E7CE
:10A33000011C08310220FCF733FF0020AFE7037A4D
:10A34000E820342BABD83E4A00201373A7E7017AEC
:10A350003B4A3123D1540020A1E739498268C368C0
:10A3600000208A62CB629AE7037AE820052B00D9A5
:10A3700095E7334A0020137791E70289304B00209C
:10A38000DA848CE7017A2E4A2323D154002086E711
:10A3900002892B4B00201A8481E7294B027AD97E4F
:10A3A000E820914200D27AE79A77002077E7027A94
:10A3B000234B00205A7172E7072A00D971E7214B1D
:10A3C00092009B589F46237AE820032B00D966E72A
:10A3D0001B4941228B54002061E7237AE8201A1C94
:10A3E0002032D2B23F2A00D959E758B2FFF76AFEAD
:10A3F00003201549FCF7D4FE002050E7104B227AC9
:10A40000D96BE820D140CC0700D448E738215A5412
:10A41000FFF7C0FE002042E7237AE820162B00D980
:10A420003DE70121094A9940114200D137E704492B
:10A4300042228B54FFF7AEFE002030E720EB0100F4
:10A440009868002030EC0100D868002027005000F8
:10A4500030B5027883B0131C403BDBB2041C432BA5
:10A4600000D994E06B499B00CB589F4600230372B0
:10A47000002003B030BD684B5B7903720020F8E721
:10A48000F420F6E7644A2223D35C03720020F0E74D
:10A49000614B5B7F03720020EBE75F4BDB7E037257
:10A4A0000020E6E75C4B1B7903720020E1E7022005
:10A4B00001A9FCF749FE019D002D00D09BE0FA2088
:10A4C000400020810020D4E7534BDB8C0381002027
:10A4D000CFE7514A2323D35C03720020C9E74E4BD8
:10A4E0001B8C03810020C4E74B4B9B7F0372002031
:10A4F000BFE7494B1B7F03720020BAE7464B9B7EA8
:10A5000003720020B5E7444B1B8B03810020B0E7AA
:10A51000414B19695A698160C2600020A9E73E4B2E
:10A520005B7B03720020A4E73B4B1B7B0372002084
:10A530009FE7394B9B68836000209AE7FFF7F8FD9F
:10A54000354A2223D35CFA211A01D31A9B015843BE
:10A550008900F9F72BFEA06000208AE72E4A3123FC
:10A56000D35C0372002084E72B4B996ADA6A81601E
:10A57000C26000207DE7011C08310220FCF7E4FDE9
:10A58000002076E7244B1B688360002071E7072AD0
:10A5900000D975E7214B92009B589F46FFF77AFD43
:10A5A0002072002065E7FFF775FD8300C018207258
:10A5B00000205EE7FFF76EFD8300C318C201DBB227
:10A5C0009B182381002054E7134A4123D35C0020C9
:10A5D00023724EE7104A4023D35C0020237248E7E1
:10A5E0000D4B0020DB6BA36043E70B4A3823D35CA1
:10A5F000002023723DE7FFF79BFD0301181AFA21A3
:10A6000089008001F9F7D2FD011C281CF9F7CEFD65
:10A6100080B256E750EC01009868002060ED010020
:10A62000F8B54F464646C0B41D4BDA7E197F987F79
:10A6300089469446161A8E4200DD0E1C751E002EA9
:10A6400001D100250126002300220224C11801396E
:10A65000271C8F400133B846DBB24244AB42F5D9E8
:10A66000494663468F1B013B02269E40013E7E43C6
:10A6700092199500AA189500FFF70CFD84000419A3
:10A68000C301E4B2E418FFF753FDA4B26419FA2140
:10A6900060438900F9F78AFD0CBC90469946F8BDE5
:10A6A0009868002008B5FFF743FD064A2223D35CD3
:10A6B000FA211A01D31A9B0158438900F9F776FD54
:10A6C00008BDC0469868002000487047C068002058
:10A6D000064B01689A6A4A40D96A4368081C584088
:10A6E000104343425841C0B27047C04698680020AA
:10A6F00038B5041CFFF7CEFC051CFFF719FD6843B5
:10A70000FA2160438900F9F751FD38BD00B583B0E7
:10A71000684610F099FB0B4B8022198812010A43FE
:10A7200001A81A8010F090FB074B0122198801A89C
:10A730000A431A8010F08EFB684610F08BFB03B0C2
:10A7400000BDC04618360020B434002010B5054CBA
:10A75000011C201CFCF79AF82379002B01D1FFF78C
:10A76000D5FF10BD9435002008B500230371FFF715
:10A77000EDFF08BD08B501230371FFF7E7FF08BD32
:10A7800008B502230371FFF7E1FF08BD08B50323F5
:10A790000371FFF7DBFF08BD08B504230371002335
:10A7A000036102234373FFF7D1FF08BD30B50D4CA1
:10A7B00083B00025256000F08BF901A810F044FB60
:10A7C000684603300FF0AEFC002808D02571064B18
:10A7D000002201A81A8010F03DFB03B030BD022317
:10A7E0002371F4E79435002018360020F0B587B0C7
:10A7F00002A810F029FB704D6846002407306C71E8
:10A800000FF090FC002807D02B79022B3AD002A839
:10A8100010F020FB07B0F0BD6846C2790126674FF3
:10A82000331C93401A1C3B8802A893433B8010F0D2
:10A8300011FB6846C3792E710B2B05D00C2B2CD83D
:10A840005F4A9B00D3589F462C68002C25D05D4959
:10A8500023790A1CDA40164208D101222468002C10
:10A860001BD02379081CD8400242F7D0281C211C99
:10A87000FCF73AF82379072B0FD8534A9B00D3589B
:10A88000201C9F462C71C2E7504B1B78002B04D133
:10A890002B68002B01D0FFF739FF03A80FF042FC13
:10A8A00000280AD0494B1B78002BB3D12B68002B12
:10A8B00000D17FE0FFF72AFFACE704A810F0C4FA4C
:10A8C0006B79002B68D004A810F0C4FAA2E700F05E
:10A8D000DFF8041C002CE0D0012C9BD103A810F061
:10A8E000B3FA6846C37903A89C403B881C433C806C
:10A8F00010F0B0FA8EE700F069FA041CEAE700F005
:10A90000ADFA041CE6E700F04BFC041CE2E700F0A3
:10A91000D9FB041CDEE700F075FB041CDAE70FF03E
:10A92000B9F9041CD6E700F029F9041CD2E70FF0AE
:10A930007DF9041CCEE70FF05FF90A23041C68467A
:10A94000C371C7E700F002F909236A46041CD371FA
:10A95000C0E700F079F80C236A46041CD371B9E70C
:10A960000FF080F90723041C6846C371B2E700F0BA
:10A97000E9FA06236A46041CD371ABE700F080FBBA
:10A980000523041C6846C371A4E700F0D7FB02232B
:10A990006A46041CD3719DE705A810F055FA0C4BCC
:10A9A00001241A8805A8224392B21A8010F052FAA4
:10A9B0006C7188E72B712DE7943500201836002044
:10A9C00080ED0100FFFF0000B4ED0100A335002081
:10A9D000B434002038B5194D2C68281CFBF77CFFD7
:10A9E0002379072B07D8164A9B00D3589F46201C73
:10A9F0006830636E9847134B1B78002B08D038BD26
:10AA0000201CA3680C3098470E4B1B78002BF6D106
:10AA10002B68002BF3D0FFF779FEF0E7A369984786
:10AA2000E9E7201C1030A3699847E4E7201C1030A8
:10AA3000E3689847DFE7E3689847DCE79435002050
:10AA4000D4ED0100A335002010B500230374037971
:10AA5000041C062B14D0072B08D10BF005F9002895
:10AA600004D0012809D1084B1C6006E00023201CFB
:10AA700023741030E36898470020044B187010BD11
:10AA80000BF0CCF8EBE7C0461C3600209C350020CC
:10AA900010B50D4B1C682379062B11D0072B09D05C
:10AAA00001232374201C1030E36898470020074BD3
:10AAB000187010BD201C0BF0D7F80028F7D1F1E773
:10AAC000201C0BF0ABF8F8E71C3600209C3500206A
:10AAD00010B584B00BF0EEF8002400F069F800F037
:10AAE000A3FA00F0D9FB0FF0EBF800F0FFFA00F04A
:10AAF00059F80FF0B1F86A464E2368461370147285
:10AB00000BF04CFB6A464F2313700F4B68469B7F3C
:10AB100013720BF043FB6A465923147268460124F2
:10AB2000137064420BF03AFB6A4650236846137078
:10AB300014810BF033FB6A4653236846137014816B
:10AB40000BF02CFB04B010BD9868002038B5051C34
:10AB50000BF06CF9041E07D0012801D1054B1D60D4
:10AB6000054B201C1C7038BD281C1030AB69984761
:10AB7000F6E7C0461C3600209D35002038B5074B4F
:10AB80001D68281C0BF052F9041E03D1281C10303C
:10AB9000AB699847024B201C1C7038BD1C36002046
:10ABA0009D350020014B00221A7070479D35002012
:10ABB000F0B5474680B41E4C82B06E468020802798
:10ABC0000636211C7F008000FCF7A2FA381C311CDD
:10ABD000FCF7BAFA23683288A360E3602361251C7E
:10ABE0009B18E43D00226361211CE823EA501831E0
:10ABF00010489046FCF78CFA9720311C4000FCF777
:10AC0000A3FAFC23EB58822149006B5084214900B0
:10AC10006B503288862149006B509B188822520065
:10AC2000AB504346EB5102B004BC9046F0BDC04669
:10AC3000347100202302000043001818C000034BA9
:10AC4000E030C018C06801307047C0465470002022
:10AC500030B545002D180F4BED0083B0E035ED18F1
:10AC600001A810F0F1F82B691A7801329A182A61BC
:10AC700000221A702A696B699A4204D001A810F068
:10AC8000E9F803B030BDEA686B686A61EB602B617C
:10AC9000F4E7C0465070002043001818074BC0006E
:10ACA0001818E430C3684268934204D01878431EF1
:10ACB0009841C0B270470020FCE7C04650700020A9
:10ACC00030B5012085B0FFF7E7FF002816D100203E
:10ACD000FFF7E2FF002801D105B030BD1D4B022275
:10ACE000198802A80A431A8010F0AEF81A4C23788B
:10ACF000002B13D002A810F0ADF8EDE7154B01249E
:10AD00001A88684622431A8010F09EF8124D2B785C
:10AD1000002B11D0684610F09DF8D8E703A810F07A
:10AD200093F80E4B01251A8803A82A4392B21A8081
:10AD300010F090F82570DDE701A810F085F8074BBA
:10AD400001A81A88224392B21A8010F083F82C705E
:10AD5000E0E7C0461836002099350020B4340020C2
:10AD600030B597B0041CFFF767FF011C68460EF072
:10AD7000F9FF00280FD069464B785A0711D0114DC2
:10AD800001222B88684693432B8000F01DFD2A8802
:10AD9000012313432B80201CFFF75AFF002017B01C
:10ADA00030BD9A06EBD45906E9D46A4693781B075E
:10ADB0009B0FE4D1044A3823D25C69462023CA544D
:10ADC000DDE7C046000100209868002038B5224C1D
:10ADD0008E235B00E25C82235B00FC21E358615818
:10ADE0000432D2B28B4223D0842149006158002022
:10ADF000C91A91420ADD802149006350822149002D
:10AE0000581C60501A706058821862500BF0D0F8CD
:10AE1000802300225B00E2500120FFF73DFF002865
:10AE200002D00120FFF79CFFFFF74AFF002038BD4A
:10AE30008621882549006D00605865592D1A954274
:10AE4000D2DD80235B00E050431C635002706058E9
:10AE500082186250DAE7C0465070002038B51E4CA8
:10AE60008E235B00E25CE421EC23E358615804325A
:10AE7000D2B28B421FD0F02161580020C91A9142F2
:10AE800008DDE8216350581CEC2160501A706058AE
:10AE9000821862500BF08CF80022E823E250002068
:10AEA000FFF7FAFE002802D00020FFF759FFFFF756
:10AEB00007FF002038BDF421F825605865592D1A88
:10AEC0009542D8DDE823E050431C6350027060587F
:10AED00082186250DEE7C04650700020F0B5184D71
:10AEE00085B02B78061C012B21D0002000F0A4F89F
:10AEF0000BF02EFA041C071E02D0201C05B0F0BD7A
:10AF0000337A6A466846137033697469029303940E
:10AF10000BF044F92B78041C022BEED1687800F07A
:10AF2000A3F800F089F80BF013FA2F70E5E7012081
:10AF300000F082F80BF00CFA041EDED12870DCE77A
:10AF40009E35002030B5037A85B0041C502B32D9D1
:10AF50006F2B1BD011D8532B18D0592B33D0264D23
:10AF60002A78002A1DD16A466846137022696369EF
:10AF7000029203930BF012F916E01A1C1032D2B2AF
:10AF8000022AECD8F12B26D0592B1CD08D221B493C
:10AF900052008A5C184DD2B26A70162AE0D10223A0
:10AFA0002B70201CFFF79AFF002810D0144B1C6058
:10AFB000E87005B030BD4E2BE4D2002BE6D09A1ECF
:10AFC000022ACCD8DEE70C4D2B78002BE9D1A369FF
:10AFD00098470020ECE7084D237CAA789A42F3D0EA
:10AFE000AB70064A8D235B00D35CDBB26B70162B13
:10AFF000EAD101232B70D4E79E3500205070002049
:10B000001C36002038B5064B1D68281CFFF766FF6C
:10B01000041E01D1AB699847024B201CDC7038BD7F
:10B020001C3600209E350020024B0022DA701A7078
:10B030009A7070479E350020002806D016230128FC
:10B0400001D1181C70470323FBE71923F9E7C04619
:10B05000002806D01623012801D1181C70470823A8
:10B06000FBE71923F9E7C046031C083BDBB20820C5
:10B07000112B01D8014AD05C7047C046F4ED0100A5
:10B0800038B50D4A8D235B00D55C041C007AEDB207
:10B09000FFF7DEFFA8420BD0207AFFF7CDFF0BF0C1
:10B0A00057F9002804D0054B1C60054B187038BDBB
:10B0B000E36898470020F8E7507000201C36002015
:10B0C000A235002038B5074B1D68287AFFF7B4FF7A
:10B0D0000BF03EF9041E01D1EB689847024B201C8F
:10B0E0001C7038BD1C360020A2350020014B002208
:10B0F0001A707047A235002038B5084B0222041C94
:10B1000008301A700EF042FF6023051CE05CFFF768
:10B1100093FF011C281C0BF0ADF938BDA3350020AE
:10B1200010B5041C0020FFF787FF0BF011F9002871
:10B1300002D1201CFFF7E0FF10BDC04638B56023E8
:10B14000041CC05CFFF778FF0F4D8C235B00E854B4
:10B150000E4B1C600E4B5A7F0E4B1A7013F030F9D9
:10B160000D4B18808D235B00EB5C192B07D00B4D2A
:10B170000123201C2B70FFF7D3FF687038BD201C03
:10B18000FFF7BAFF054DF8E7507000201C3600208D
:10B1900098680020386B00203A6B0020A33500200F
:10B1A00070B51A4B1A4C1D68237882B0012B26D03B
:10B1B0000AF0B8FC6E460AF083FC063600233380A2
:10B1C000144A1623FF33D25C0223D2B2052A13D9C4
:10B1D0006822281CAB5468306B6E98470E4B3D209C
:10B1E0005A7F0E4B311C1B78D31A3380FBF7F8FAC9
:10B1F0000020607002B070BD094B9B5CE8E7281C22
:10B20000FFF78EFF0028F4D1D2E7C0461C3600209D
:10B21000A33500205070002098680020386B002073
:10B2200008EE010038B513F0CBF8164B1880164B1A
:10B230001A78013A1A7010F0AFFF0020FFF7FCFEF9
:10B240000BF086F8002809D0104B01225A701A70B2
:10B250000F4B042219880A431A8038BD0D4B022275
:10B260001C680A4B201C08301A700EF08FFE6023F9
:10B27000051CE05CFFF7E0FE011C281C0BF0FAF84F
:10B28000EBE7C0463A6B0020386B0020A335002066
:10B29000183600201C360020024B00225A701A700B
:10B2A0007047C046A335002038B5064AD123D35C89
:10B2B0000C1C0D780020002B02D101F0B7FD2840B6
:10B2C000207038BD5070002010B50B4C011C82B0AE
:10B2D000201C1C3CFBF7DAFA6378002B0AD101A88A
:10B2E0000FF0B2FD054B0422198801A80A431A8009
:10B2F0000FF0B0FD02B010BD6C700020B43400201F
:10B3000010B5037982B0102B44D82A4A9B00D35839
:10B310009F46021CC3681032101C9847264BD1224E
:10B320009A5C00215970002A3FD001A80FF08CFDD3
:10B33000224B0422198801A80A431A800FF08AFDC3
:10B3400002B010BD021C18324369E5E7021C1C3232
:10B350008369E1E7184BD1215A5C012082435A549A
:10B36000DFE7021C14320369D6E7021C2032C369EE
:10B37000D2E7021C2032C369101C9847E0E729235A
:10B38000C35C021C042430321C40C36A101C984762
:10B39000002CD5D1084BD1229A5CC2E7064BD121B3
:10B3A0005A5C022082435A54BBE7DB69002BBCD1B4
:10B3B000C6E7C04610EE010050700020B4340020F3
:10B3C00030B5334C83B06378002B03D0032B01D00E
:10B3D00003B030BDD123E35C002B29D12D4B1B786A
:10B3E000002BF5D0E569002DF2D0201C1C30FBF7B6
:10B3F00073FA2B79656063702B790E2B07D8264A78
:10B400009B00D3589F4600F025FC0028E0D1002384
:10B410006370E369002BDBD001A80FF015FD1F4B13
:10B420000422198801A80A431A800FF013FDCFE700
:10B43000DA0704D4102363700FF060F9C8E70F2314
:10B44000637001F027FCF12101F0B2FAC0E701F0CE
:10B45000CBF8DAE701F0AEF8D7E700F029FCD4E743
:10B4600000F0E2FED1E701F04DFACEE70EF0FEFF6C
:10B47000CBE70FF03DF8C8E700F05EFCC5E700F051
:10B480000FF9C2E700F022FBBFE70FF03FFABCE77D
:10B49000507000201801002054EE0100B434002048
:10B4A00008B507230371FFF70FFF08BD08B5082390
:10B4B0000371FFF709FF08BD08B50B230371FFF700
:10B4C00003FF08BD08B502230371FFF7FDFE08BDA9
:10B4D00030B5037A83B0041C002B05D1042303711B
:10B4E000FFF7F2FE03B030BD114D03231149D12205
:10B4F00003716B700023AB54EB6125200431FBF723
:10B5000003F9281C211C1C30FBF7C0F9FFF74EF98A
:10B51000281C083011F0E2F801A80FF095FC064B4A
:10B520000422198801A80A431A800FF093FCD9E776
:10B530005070002018010020B434002008B50A2300
:10B540000371FFF7C1FE08BD08B505230371FFF7BE
:10B55000BBFE08BD08B501230371FFF7B5FE08BDAA
:10B5600008B506230371FFF7AFFE08BD08B50C232D
:10B570000371FFF7A9FE08BD08B50D230371FFF79E
:10B58000A3FE08BD08B5034B5B78032B01D007F081
:10B59000A1FE08BD5070002008B5034B5B78032B5B
:10B5A00001D009F023FE08BD5070002008B5034B00
:10B5B0005B78032B01D005F0D5FF08BD507000204B
:10B5C00008B5034B5B78032B01D00AF0BDF908BD29
:10B5D0005070002008B5034B5B78032B01D009F0B5
:10B5E00041F908BD5070002008B5034B5B78032B70
:10B5F00001D00AF079F908BD5070002000B50B4B5E
:10B60000D122985C0121014399545B7883B0002BCF
:10B610000AD101A80FF018FC054B0422198801A8D3
:10B620000A431A800FF016FC03B000BD50700020D2
:10B63000B434002000B50B4BD122985C02210143A9
:10B6400099545B7883B0002B0AD101A80FF0FCFB62
:10B65000054B0422198801A80A431A800FF0FAFB4F
:10B6600003B000BD50700020B434002008B5044B76
:10B670005A78002A03D111225A7000F0ADFA08BDA1
:10B6800050700020054B10B500785C680FF0C8F8CA
:10B690003823E054201CFFF733FE10BD507000200B
:10B6A000F0B5474680B43D4C3D4E6568338C03276A
:10B6B0002B83AF76FFF708F82823016842682962D8
:10B6C0006A62EF54AA68EB682A636B63AB7C002B59
:10B6D0005CD040230B22E254B27E511CB176432150
:10B6E00062544122A05C0721884303210843F721CB
:10B6F000084020210843C0B29843231C41338446AC
:10B7000058780C210843804661466720084041462E
:10B71000A054CAB2BA4330218A4301215A70494227
:10B720004422A152A968EA68A164E26440225978DF
:10B7300052420A435A70328C5023E252FEF7C4FF41
:10B7400002684368A265E365328C6023E252F28CA2
:10B750006223E2522A8A6623E2523823F25C64238F
:10B76000E254104A9C23E2502323F35C002B09D1BE
:10B7700002229823E2540C48FEF7F6FF012004BC95
:10B780009046F0BD01229823E254F4E73822281CA9
:10B79000AB54FFF7B5FD0020F1E7C0465070002024
:10B7A0009868002085B600008870002010B5837866
:10B7B00082B09B0903D08369C469009301946846F1
:10B7C000FFF708FF02B010BD10B58378041C9B0979
:10B7D000022B30D0032B38D023780B2B0AD8244AE5
:10B7E0009B00D3589F465723E35CDA0738D5201CCB
:10B7F00000F0AEF810BD1F4A3123D35C002BF9D006
:10B80000FFF718FFF6E7201C00F08CFDF2E7201C84
:10B8100000F0B8F8EEE7201C0EF00CFEEAE7201C62
:10B820000EF076FEE6E7201CFFF7C0FFE2E7201CE3
:10B8300000F050FEDEE7211C221C008B55315632F1
:10B840000EF0C2FE0028C7D0D4E7221C231CC16919
:10B850008069553256330EF0F7FE0028BCD0C9E798
:10B86000201C01F025FA0028C1D0FFF7C7FEBEE773
:10B8700090EE010098680020024A01213123D15442
:10B880007047C04698680020024A00213123D154F5
:10B890007047C0469868002008B5054803238370A8
:10B8A0000022C823C2540349383001F05FF808BDB4
:10B8B00050700020B9B8000010B5034C6068FFF765
:10B8C0001FFD0023A37010BD5070002000B583B091
:10B8D00011236A4668461371FFF712FD03B000BDDD
:10B8E00038B50078144C656802281FD800280FD19D
:10B8F000EB232B7701232375104BA361FEF790FEFA
:10B9000002232061201CA370083010F0BFFE38BD58
:10B910000EF086FF03232877A3700022C823201C83
:10B92000E2543830064901F021F8F0E70328EED15F
:10B93000EB232B77A070F0E75070002099B800003F
:10B94000B9B80000014B00229A7070475070002077
:10B9500010B5837886B06A469B091370038A6C46DB
:10B9600053808269C369029203935523C35C237495
:10B97000C37863745623C35C6846A374FFF734FE30
:10B9800006B010BDF0B583788DB06C469A09227070
:10B990008669C769D1B21B07028A029603979B0F7B
:10B9A00062802374DDB28388066D63828368C46815
:10B9B000069307945423C25C6F462023FA540996D9
:10B9C0005523C45C2823FC54C4782923FC545623F3
:10B9D000C05C3A4C2A23F854A378002B38D0881E38
:10B9E0006668012801D90DB0F0BD307A814233D0AC
:10B9F00002284BD0032843D00028F4D1022954D088
:10BA00000329F0D12E4902980F69B842EBD1496958
:10BA100003988842E7D1022D2BD0002A05D0684632
:10BA2000FFF7BAFD00233377A378022BDBD1254C37
:10BA3000201C10F053FE231C083B03229A700021A7
:10BA4000C822201C995430301F4900F08FFFCAE7EC
:10BA50006846FFF7A1FDC6E7022921D00329C2D11C
:10BA6000029831698842BED1039F70698742BAD17A
:10BA7000D1E76946088B1249C98C8842B3D1CCE71B
:10BA80000F493889098B8842ADD1C4E70C49029F20
:10BA900008698742A7D14969039F8F42A3D1BAE7BA
:10BAA0003889318A88429ED1B5E705496F46388981
:10BAB000098B884200D096E7ADE7C0465070002061
:10BAC0009868002058700020B9B80000F8B54F46BB
:10BAD0004646C0B43D4C6068037A002B08D0023B58
:10BAE000012B05D9E8230377FFF70AFC002058E073
:10BAF0000721374B402561559A7E0327561C9E76B9
:10BB00004326A2554122A65C8E43311C03263143B5
:10BB1000E726314020263143A1544689442166520C
:10BB2000067A211C41313740BF004E78B9460C27B8
:10BB3000BE434F463E434E70017A002935D0A55C86
:10BB400040212943A1544122A15C7F252940A154D1
:10BB5000221C41325578CC21294051700569466933
:10BB6000A564E664188C50216052DB8C991C89B264
:10BB700001291ED951783F200140802040420143D5
:10BB800051705822A352134A9C23E2500125982356
:10BB9000201CE5543830A570FEF7E6FDC823E554B7
:10BBA00001200CBC90469946F8BDA15CA943A15464
:10BBB000C9E7517840235B420B435370FEF784FD85
:10BBC00006684768A665E765DDE7C0465070002057
:10BBD00098680020E1B8000010B583788EB01A078D
:10BBE0006946920F9B090A744B74038A20224B8288
:10BBF0008369C469069307940023124C8B5428224E
:10BC00008B54201C29228B5409930EF015FE0E4AEA
:10BC10002323D35C002B05D1201C4038C823C35CF0
:10BC2000002B0BD0094801229823C254084A9C23B8
:10BC3000C2503830FEF798FD0EB010BD0222982396
:10BC4000C254F3E7907000209868002050700020E4
:10BC5000CDB8000010B5094B5C68207A207401F063
:10BC6000A5F8002806D1E7236374201CFFF748FBE2
:10BC7000002010BD00236374F7E7C0465070002019
:10BC800008B5024B5868FFF73BFB08BD5070002019
:10BC900008B5054802224023C254044B3830C36023
:10BCA000FEF768FD08BDC0465070002081BC000052
:10BCB00070B51A4C002665682E74FFF7E5FD2D7AE5
:10BCC000002D10D100F06AFE01F08AF8F222402324
:10BCD000E2544823E554124B201C38302365FEF70C
:10BCE0004FFD012070BDFEF76DFAFEF75FFD201CD1
:10BCF000083010F0F3FCC823E65400F027FE00F0F3
:10BD00004DFE01F06DF80EF08FFB00F045FCFFF7E3
:10BD100019FE6068FFF7F4FA0020E3E75070002096
:10BD200091BC000008B5034B586800230374FFF76B
:10BD3000E7FA08BD50700020094808B543689B68C1
:10BD4000002B09D001224023C254064B3830C36077
:10BD5000FEF710FD012008BD02224023C254F4E783
:10BD60005070002025BD000008B509480E2303705F
:10BD7000084B09491B7838228B54002140228154FA
:10BD800048228354054B38308361FEF7F9FC08BD27
:10BD900050700020A535002098680020D9BE000012
:10BDA00010B5094A2323D35C084C0122002B00D193
:10BDB00002224023E254064B201C63643830FEF715
:10BDC000D9FC0523237010BD986800205070002016
:10BDD0004DBE000038B51A4D6A68002814D0002105
:10BDE000D023E954D16800230A1CDA400124D0078B
:10BDF00004D512E00A1CDA4014420ED10133DBB242
:10BE0000202BF7D1002038BDD0216B5C0133DBB291
:10BE10006B54D1681F2BE7D9F4E70A49D022AB5401
:10BE200038228B5400214022A9544822AB54064B9F
:10BE3000281C38302B65FEF7A3FC0120E3E7C04641
:10BE40005070002098680020D9BE000010B51F4C2B
:10BE500023786068052B07D0062B04D1037A002BCA
:10BE600016D0022B14D010BD037A022B27D8002B3A
:10BE700014D1F0224023E2540023A364E364144B62
:10BE8000201C23653830FEF77BFC08232370EAE78B
:10BE90000120FFF79FFF01232370E4E70D4B5021A2
:10BEA0001B8C4022A3640023E364094B201C236500
:10BEB000A1543830FEF764FC10232370D3E7032B22
:10BEC000D1D100232370FFF71BFACCE7507000207C
:10BED000D9BE00009868002070B5904C2378656842
:10BEE000102B0AD88E4A9B00D3589F46032B04D1AF
:10BEF0000120FFF76FFF0123237070BDFFF750FF94
:10BF0000FBE72D7A012D00D1C8E0022DF5D10122E9
:10BF10004023E254834B201C63643830FEF72AFC34
:10BF200006232370E9E7F1224023E254012248234B
:10BF3000E2547D4B201C23653830FEF721FC0223A0
:10BF40002370DAE7794B5321DA8C4023E1544823FC
:10BF5000E252754B201C23653830FEF711FC092393
:10BF60002370CAE7F1224023E25400224823E2541E
:10BF70006D4B201C23653830FEF702FC0323237031
:10BF8000BBE72B7A022BB1D8002B77D1F0224023CC
:10BF9000E25401224823E254634B201C23653830CD
:10BFA000FEF7EEFB07232370A7E72E7A012E00D1C0
:10BFB0008AE0002E77D0022E51D0032E9DD1092287
:10BFC0004023E254594A7F25937E591C917643229F
:10BFD000A3544122A15C231C29404025413329431D
:10BFE000782558782940032529434325B043294023
:10BFF000A154C321021C0A40382149420A435A7005
:10C0000001235B424422A3524822A3525022A3524E
:10C01000FEF75AFB02684368A265E365444A9C2325
:10C02000E250201C01229823E2543830FEF79CFB9A
:10C0300063E700232370281CFFF762F95DE73B4BA1
:10C0400050211A8C4023E1544823E252364B201CE5
:10C0500023653830FEF794FB0A2323704DE7D02385
:10C06000E35C01229A40131CEA69201C9A430C23CA
:10C07000EA612370083010F009FB3EE750224023AC
:10C08000E254012252424823E252274B201C2365EE
:10C090003830FEF775FB0F2323702EE70120FFF7E2
:10C0A00099FE257029E70C23201C2370083010F01E
:10C0B000EDFA2023EB5C6A6A201CD6541D4B383005
:10C0C0002364FEF763FB18E7402218490A23A354B0
:10C0D0008B7E7F25581C8876432163544123E05C86
:10C0E000072188430321084328409043021C47202E
:10C0F0000240E25401235B424422A352211C482205
:10C10000A352413108230A4A4B709C23E250201C61
:10C110009823E6543830FEF727FBEEE650700020F7
:10C12000C0EE01004DBE0000D9BE0000986800209E
:10C1300065C10000ADC1000010B5094C6268137AFA
:10C14000002B02D10D23237010BD0020FFF742FE0B
:10C15000002802D001232370F6E7FFF705FEF3E77E
:10C160005070002008B50378032B01D0002B0FD1AD
:10C170000D48D022825C4368012191400A1CD96994
:10C180009143D9610C230370083010F07FFA08BD89
:10C190000020FFF71FFE002803D0034B01221A7076
:10C1A000F5E7FFF7E1FDF2E75070002038B51C4CD1
:10C1B000202263680078596A9A5C8D5C854200D2BF
:10C1C000885422780D2A04D0201C3830FEF7DEFA7D
:10C1D00038BDD022A25C0125291C91400A1CD969D6
:10C1E0009143D96120215A5C0132D2B25A54997CD0
:10C1F00091420DD80B4938228A5C01329540DA68A9
:10C200006D422A4201D0FA221A76FFF7ADFDDFE730
:10C210000020FFF7DFFD0028F7D02570D8E7C046E3
:10C220005070002098680020F0B5394D394E6C6888
:10C23000F16B227AE36885B06276194001278B4260
:10C2400046D0042369460B70637C68460B72FEF788
:10C2500017F8002807D0E823201C2376FFF750F8B2
:10C26000002005B0F0BD002FF5D13823F25C2A4B39
:10C270001A70237A227C032B38D001269640FDF7D2
:10C2800057FF33019E1BF0229200B601B618FA2127
:10C2900070438900F7F78AFF286101232B751F4B34
:10C2A0000022AB612023E254E368E361237A002B90
:10C2B00016D0627C40230424EC544823EA54184BE3
:10C2C000281C38302B65FEF75BFA2C700120C8E77C
:10C2D000002BB6D0237C0E2B0CD9032AB1D10DE054
:10C2E000A27C606A002112F013F8E2E7FEF7DAF9A7
:10C2F0002861D2E7002A05D0032AA2D8EA232376B0
:10C3000000279EE7A77C22767B425F41FFB298E739
:10C310005070002098680020A535002039C1000029
:10C32000D9BE0000F0B55F46564644464D46F0B4CF
:10C330005423C75C99B0041C644E002F0DD1B3790F
:10C34000002B0AD0624B1A780C2A53D019B03CBC8F
:10C3500090469946A246AB46F0BDA378228A9B0937
:10C360009B469246A269E369029203932023E35C11
:10C37000684699464223F35C211C21310222123087
:10C38000984611F031FF2323E05C5523E15C5623EE
:10C39000E35C08AD9C46E3785A462B706B461A70F6
:10C3A00052465A8004AB4A461A706B4642465A744B
:10C3B000C00905AB18706B46624659756B469A7595
:10C3C0006946002320220AA8069311F00DFF44239A
:10C3D000E25C2823EA54A36CE26CEB623423EF5452
:10C3E000236D281C2A63AB63FFF7E0F8384B1A78FB
:10C3F0000C2AABD15D68B379002B2FD02B7A013B8F
:10C40000012BA3D800232B762023EF5CB846002F06
:10C4100026D0E15C3A1C6B6A013A181CD2B220307B
:10C420005201801802E02033834219D01A7C8A42DC
:10C43000F9D1A7781A78BF09BA42F4D15F88BC460F
:10C44000278ABC45EFD1022A3AD09A68A769BA4236
:10C45000E9D1DA68E769BA42E5D177E72B7675E783
:10C46000AB7C434500D871E76B6A42465701DF1940
:10C47000A378381C9B093B70238A211C7B80A2690E
:10C48000E369BA60FB6020239846E35C12303B749A
:10C490004223F35C21317B74022211F0A5FE232399
:10C4A000E35CDB093B755523E35C7B755623E35C5A
:10C4B000BB750023BB614746EB5D0133EB5545E798
:10C4C0001F89228B9742AED140E7C0469868002072
:10C4D00050700020F0B5837883B0041C9B09022BB8
:10C4E0000CD0032B04D1284D82692B699A421DD0B0
:10C4F000264B1A780C2A1ED003B0F0BD224D028BB9
:10C500002B8B9A42F4D1214B1A780C2A3AD06A46E6
:10C5100001231370238C684653802423E35C13713A
:10C520002823E35C5371FFF74BF8E5E7C2696B69B9
:10C530009A42DDD1E7E7144D5F682B690133DBD107
:10C540006A690132D8D1124E301C10F0C7F80022AF
:10C550003A76638C38212B83238C301C2B84E38C1C
:10C560003030EB842423E35C341C083C6B544021C2
:10C5700062544822A354074B2365FEF701F90B23AD
:10C580002370B9E75F68DEE79868002050700020EC
:10C5900058700020D9BE0000014B00221A7070476D
:10C5A0005070002008B5024B5868FEF7A9FE08BD80
:10C5B0005070002010B50B4B84B05C686A46237A3B
:10C5C00068461370FDF744FF6A461378207463745D
:10C5D000201C029A039BA261E361FEF791FE0020FA
:10C5E00004B010BD5070002030B5274D85B06C6888
:10C5F0006946237A0B7021696269029103926F2B5D
:10C600002ED06846FDF73CFE69460B7820776946D8
:10C610000A78627700282AD10021042B06D801214C
:10C620001D22994011404A1E9141C9B21A1C4E3A2E
:10C63000D2B2212A03D81548920082589746002981
:10C6400015D04022AB54029A039BAA64EB64104BB2
:10C65000281C38302B65FEF793F8012005B030BD5B
:10C66000029A03990A4307D1E82222776377201CB4
:10C67000FEF746FE0020F1E76846FDF701FE6A4638
:10C6800020771378C3E7C0465070002004EF010004
:10C69000A5C50000F0B55F4656464D464446F0B489
:10C6A000244D3823EB5C2A8C9A464223EB5C85B000
:10C6B0003026934699466A46AB5D502717709846D8
:10C6C0000389041C68461381FDF7DAFD237B6A4663
:10C6D000AB5504231370E37A68461372FDF7D0FD5F
:10C6E0006A4600231370A37A68461372FDF7C8FDEB
:10C6F0000023002815D15B4652462381A2724B4687
:10C700004246E37222730C4C2A8C4023E7544823A0
:10C71000E2520A4B201C23653830FEF731F8012322
:10C720002370181C05B03CBC90469946A246AB4607
:10C73000F0BDC04698680020507000207DC7000002
:10C7400010B50C494B681A7DE12A0BD00A4A148CAB
:10C750001C813824145D9C724224145DDC723024E8
:10C76000125D1A73002218750A70181CFEF7C8FDB6
:10C7700010BDC046507000209868002070B5504C25
:10C7800023786568022B00D17EE000D869E0032B96
:10C7900056D0042B64D12023E25C002A00D184E02F
:10C7A000484D40210B226254AA7E0726501CA876D1
:10C7B000432022544122A05CB04303263043F72695
:10C7C00030409843231C4133884359780C26B143A9
:10C7D00008263143672630400126A0547642442281
:10C7E000A6524822A652CC220A40402149420A437E
:10C7F0005A702A8C5023E252FDF766FF02684368A4
:10C80000A265E3652A8C6023E252EA8C6223E2523D
:10C810006623E6523823EA5C6423E2544223EA5C4E
:10C820006823E254284A9C23E2502323EB5C002B2C
:10C8300041D001229823E2542448FDF795FF0FE0F0
:10C84000204A3823D25C00214023E1544823E2549B
:10C850001F4B201C23653830FDF792FF0423237003
:10C8600070BD012BFCD1174A3023D25CF22140234A
:10C87000E1544823E254164B201C23653830FDF761
:10C880007FFF02232370EBE70E4A4223D25C042190
:10C890004023E1544823E2540D4B201C23653830DB
:10C8A000FDF76EFF03232370DAE7FEF7E5FF287D2F
:10C8B000FFF746FFD4E702229823E254BCE7C046C4
:10C8C0005070002098680020D5C8000088700020B3
:10C8D0007DC7000038B50A4D00786C680DF0A0FFE8
:10C8E0002075E12805D0FEF7C7FF207DFFF728FF60
:10C8F00038BD00222023EA54201CFFF7CBFEF7E7C7
:10C900005070002038B50E4B0E4DDA8C0E4B6C6813
:10C910009A4210D0201CFFF7BDFE002806D0627B93
:10C920002023EA5400232375012038BDE820FFF7B7
:10C9300007FF0020F9E7EC20FFF702FF0020F4E7F3
:10C940009868002050700020FFFF0000024B00227A
:10C9500020215A541A7070475070002008B5024ABE
:10C96000CC23D358984708BD5070002008B5084A1A
:10C97000CC23D150074A2323D35C002B01D0884716
:10C9800008BD02230372044BC360FDF7F3FEF7E713
:10C9900050700020986800205DC90000034B002201
:10C9A000C1215A54C0215A547047C04650700020CB
:10C9B000F8B5051C0C1EF02C00D17CE00379514C1D
:10C9C000082B35D00D2B1ED0C423E5504123E35C4A
:10C9D0005A0626D54C4A2323D35C002B0BD00122C8
:10C9E0009823E254494A9C23201CE2503830FDF73A
:10C9F000BBFE0020F8BDC823E35C002BEFD1022270
:10CA00009823E254EEE7C0230222201CE254403077
:10CA1000291C0DF011FFC423E5504123E35C5A06A5
:10CA2000D8D40122A023E254E82000F071F8E0E716
:10CA30000121C022A15405214022A154324A7F275E
:10CA4000517B481C5073432021544121665C0720D0
:10CA5000864303200643F6B29E4310239E432023C1
:10CA60001E43231C41333E40402758783E436654C2
:10CA7000CC2101400C200143597028696969A064E8
:10CA8000E16440215878494201435970138C502287
:10CA9000A3524422A352FDF717FE01684268A16524
:10CAA000E2652A8B6023E252AA7E6223E2540022CE
:10CAB0009423E25488E700F065F92B79082B08D01D
:10CAC0000D2B00D095E73123EC54281CFEF718FC01
:10CAD0008FE703232222AB543022AB540A4B1B8C2A
:10CAE0002B84FDF7F1FD01684268A962EA622A69B8
:10CAF0006B69AA63EB634023EC54281CFEF700FC2F
:10CB000077E7C0465070002098680020B1CB000045
:10CB100070B5254CC123E25CC425013AE25482B0D1
:10CB2000061C605900F02EF9C023E35C012B22D0D3
:10CB3000022B0ED0C0230022E254C123E35C002B61
:10CB400013D10F236A4668461371FEF7D9FB02B072
:10CB500070BD60593123C654FEF7D2FBC0230022BA
:10CB6000E254C123E35C002BEBD000F093F8F121F9
:10CB7000FFF71EFFEBE7655903232222AB54302257
:10CB8000AB540A4B1B8C2B84FDF79EFD0268436857
:10CB9000AA62EB622A696B69AA63EB634023EE54D5
:10CBA000281CFEF7ADFBC5E75070002098680020F8
:10CBB00000B5007883B00DF033FE00281BD00F4B7A
:10CBC000C4229A5800211173C1201A5C013AD2B2D2
:10CBD0001A54C0201954002A07D10F236A46684608
:10CBE0001371FEF78DFB03B000BD00F053F8F12187
:10CBF000FFF7DEFEF7E7FFF78BFFF4E7507000204A
:10CC00000C4AA82310B5D458002C05D111E0143BD0
:10CC1000A3602468002C0CD0A368142BF7D8237BC6
:10CC2000002BF6D1201CF021FFF7C2FE2468002C57
:10CC3000F2D110BD50700020011C10B50831041C49
:10CC40000220FAF781FAA368002B0ED000230F48C8
:10CC50002373A823C358002B13D0211C0C48F9F7C9
:10CC600015FE201C0DF0C4FE10BDFA204000FDF79B
:10CC700083FA0023A06005482373A823C358002B20
:10CC8000EBD1AC300FF002FDE7E7C046507000205A
:10CC9000F8700020054AA823D058002805D0037B4F
:10CCA000002B02D100680028F9D170475070002095
:10CCB00030B53149A823CB5883B0041C002B09D0D0
:10CCC0001A79092A15D00D2A45D0082A36D01B68B2
:10CCD000002BF5D16D4607352720291CFAF734FAC9
:10CCE0002B78002B45D0201CFEF7C0FC002003B0A1
:10CCF00030BDA278187C92098242E8D1022A31D054
:10CD0000032AE4D1A2699869E5695040DA696A406A
:10CD1000024350424241D2B2002AD8D01A7B002AA4
:10CD200005D101221A73C123CA5C0132CA54694673
:10CD300027200731FAF708FA0120D8E7A2789209EC
:10CD4000032AC4D11869A2699042C0D15D69E06923
:10CD50008542BCD1E2E7A278587C92098242B6D1E2
:10CD6000022ACDD1188B228B821A50424241D2B274
:10CD7000D2E70020BBE7C0465070002001380023F6
:10CD80000370704738B5084C051C291C201CF9F7A6
:10CD9000ABFD281C0DF03EFE2368002B00D038BDF3
:10CDA000201D0FF09BFCFAE7F87000200B4A08B535
:10CDB000A823D358002B06D028211A790D2A04D095
:10CDC0001B68002BF9D1002008BD5A5C8242F7D1C4
:10CDD000181CFFF7D7FF0120F6E7C046507000206F
:10CDE00010B50F4C201C0FF079FCAC3CA823E45884
:10CDF000002C06D0201CF021FFF7DAFD2468002C5F
:10CE0000F8D1084B0022A8215A501420B4215850C0
:10CE1000B8215A540449BC2299500DF01DFE10BD92
:10CE2000FC7000205070002001CC0000034AA823B1
:10CE3000D05843425841C0B27047C046507000209D
:10CE4000044A90235B00D05CAA3843425841C0B2E8
:10CE50007047C046406B0020F0B50E4EEC23F758EB
:10CE60000023D1259C46725D9A4211D3DA00BA188C
:10CE7000D478002C09D01488844206D194788C424E
:10CE800003D16446D470644654600133DBB2EAE7F0
:10CE9000F0BDC046406B0020034A4C23D05C4138B3
:10CEA00043425841C0B27047406B0020034A3C23C4
:10CEB000D05CD63843425841C0B27047406B002026
:10CEC000034ACC23D05C133843425841C0B2704768
:10CED000406B0020044AC4235B00D05CB738434257
:10CEE0005841C0B27047C046406B0020021C083257
:10CEF0000A6143781B07DB0F04D0031C10330A6060
:10CF00000B6100E00B604378DB06DB0F04D00B699C
:10CF10004B6008330B6100E04B604378DB07DB0FAD
:10CF2000DBB2002B04D00B698B6001330B6100E096
:10CF30008B6043785B07DB0F07D00B69CB601A78F7
:10CF4000013252009B180B6100E0CB600B69181A8C
:10CF5000087570470B4A8B238A2189009B00D358A0
:10CF6000525C91008918090159188B4203D307E0DC
:10CF70005033994204D91A78002AF9D0002000E0F1
:10CF800001207047406B0020044ACC235B00D05C3A
:10CF9000DA3843425841C0B27047C046406B002067
:10CFA000014BFD221A707047406B0020034A782322
:10CFB000D05CE63843425841C0B27047406B002015
:10CFC000044AA7239B00D05C0238431E9841C0B29C
:10CFD0007047C046406B0020044AC0235B00D05C11
:10CFE0008E3843425841C0B27047C046406B002063
:10CFF00030B5002818D00E4B2030802252009A58AD
:10D000000424904203D30DE0203090420AD20378EA
:10D01000A343012BF8D1837EDD07F5D483888B42AF
:10D02000F2D030BD0020FCE7014BFC229858E4E729
:10D03000406B00201E4AFC2380214900D35830B5A4
:10D040005458062500211A78002A01D1002802D060
:10D0500001311D70C9B220339C42F4D8154B002910
:10D0600017D088229A5C002A1AD11A1C5F32517894
:10D070000420814351708922995C0122002900D14A
:10D0800000225F33D1015A787F2002400A435A7050
:10D0900030BD1A1C5F325178042081435170EFE794
:10D0A0001A1C5F325078042101435170E3E7C046F7
:10D0B000406B00203869002070B51D4A84235B0056
:10D0C000D35C0A1C994200D91A1C9B1ADBB21A1CA9
:10D0D000834200D9021CD2B29A4222D0154B0025BD
:10D0E0005A7C940704D488241D5DA94289414D428D
:10D0F0001C1C5F34A90065780426B5430D43657098
:10D100000021D40707D55F335A78C8017F21114029
:10D110000143597070BD8922995C88428041414227
:10D12000F1E7044B7B225F3359780A405A70F1E7EC
:10D13000406B002038690020104A802138B5490032
:10D14000FC235458D35800210020042502E020334A
:10D15000A3420DD21A78062AF9D0AA43012AF6D1A1
:10D160005A78022A07D001312033C9B2A342F1D341
:10D17000FFF7A2FF38BD0130C0B2E8E7406B0020E6
:10D1800038B51E4B00215E22995472205F211D5C30
:10D19000585C0F2273241C5D1540904328432401E2
:10D1A000104020435854587A191C5F314C78024083
:10D1B000D0008422224002434A70191C80310A6840
:10D1C0001C6E1002FF22144020431866CC786420A5
:10D1D0001C544C6820025C6E144020435866C87989
:10D1E0006821585469215A546A215A546B215A545F
:10D1F000197C6C229954FFF79FFF38BD38690020D5
:10D2000070B5194B161CFC229D588222401B5200FF
:10D210009D584011C0002D18AB7882B00C1C002B1B
:10D2200005D05B085A089B188C081C19E4B2AC7036
:10D2300068460E49062210F0D7FF00236A46D05CEC
:10D24000D9B2A0420CD90133062BF7D10723297993
:10D250003822DB00914319432971EE7002B070BD92
:10D26000013107230B40F2E7406B002030F1010051
:10D2700070B5154B161CFC229D588222401B520093
:10D280009D584011C00082B02D18A9700C1C684632
:10D290000E49062210F0A8FF00236A46D05CD9B2DE
:10D2A000A0420CD90133062BF7D107232979382264
:10D2B000DB00914319432971EE7002B070BD01315A
:10D2C00007230B40F2E7C046406B002030F101001D
:10D2D0000D4A8021FC23490030B5D3585458042509
:10D2E00002E02033A3420DD21A78062AF9D05978E9
:10D2F0000229F6D1AA43012AF3D19A888242F0D1B9
:10D30000181C00E0002030BD406B0020024ACA23F8
:10D3100066219B00D1547047406B0020F0B54D460C
:10D320005F4656464446F0B49A46384DBD239B00AE
:10D33000EB5C85B0834688469146002B16D0BE2212
:10D340009200A958086800285CD0581EC0B201306D
:10D35000C0000823012605E0CC581A1C0832002C16
:10D360000BD0131C7600F6B28342F5D105B03CBC5D
:10D3700090469946A246AB46F0BD9C46FC23EC582D
:10D38000F74382220397802367460294C4465200E3
:10D390005B00FC210197201CB04615E06778022F46
:10D3A00015D0A788674512D04F4510D0201AAF5826
:10D3B0004011C00038184779464637434771EF5847
:10D3C0002034BC4210D268582778062FE6D1201AA4
:10D3D000AF584011C00038184779039E20343740B9
:10D3E0004771EF58BC42EED3BE239B00E958019829
:10D3F0005C460C50EB58844663444E4657469E802C
:10D400009F71B3E70026B4460126B7E7406B0020C2
:10D4100010B5104BBD2292009A5C002A15D0BE2197
:10D42000890059580B68984210D0541E0B1CE4B266
:10D430000833E4001C1906E0191C08331A1C083ACA
:10D440001268904202D0A342F6D110BD00230B60B7
:10D45000FBE7C046406B0020054A8C239B00D05C54
:10D4600002239843483843425841C0B27047C046EF
:10D47000406B0020034B187C193843425841C0B21E
:10D480007047C046406B0020034AA8239B00D05839
:10D4900043425841C0B27047406B0020036910B549
:10D4A000041C002B09D04269002A02D091688142F5
:10D4B00006D0181C1030DB6898470023237010BD7D
:10D4C00000219160F5E7C046836810B5002B05D0B8
:10D4D0001A69002A02D05C69844200D010BD00297C
:10D4E00009D01420507400201870101C11741030D2
:10D4F000D3689847F2E710790028EFD158780824CC
:10D50000A04319615870F0E7034AB1239B00D05C37
:10D5100043425841C0B27047406B002030B50D4ABD
:10D52000B324B223A4009B00145BD358E4001C195D
:10D5300002E00833A3420BD21A79D507F9D5D206F7
:10D54000D20F8A42F5D11A888242F2D1181C00E02B
:10D55000002030BD406B0020F0B5474680B40E1C63
:10D56000071C141C1D1CFFF7D9FF00280DD0837960
:10D57000AB4207D31C4A1D4BD35C01229A40427137
:10D580004480857104BC9046F0BD1749B2239B00CE
:10D59000CA58B3239B00C85A8C46C00080188046E6
:10D5A0000023101C0279D1070AD5002B03D0417942
:10D5B0005A79914200D2031C08304045F2D3181C1E
:10D5C000017901220A430271084A61468A5C0123FB
:10D5D000191C914002791E40E12336011340334368
:10D5E000417107800371CBE7406B0020CE02000041
:10D5F000044AC6235B00D05C9A3843425841C0B20B
:10D600007047C046406B0020024AB62300219B00B1
:10D61000D1547047406B0020044AC0239B00D05C6B
:10D62000313843425841C0B27047C046406B002079
:10D63000024B986E43425841C0B27047406B002085
:10D6400008B50B488C235F229B00C254094A9423DF
:10D650009B00C250902341229B00C254922300227F
:10D660009B00C2548E239B00C018FDF773FF08BDBA
:10D67000406B00203DE20000F0B557464E4645465F
:10D68000E0B4984608AB1B78214F9A46F023161C4D
:10D69000FB58F422BD5881461C1C2178CA0702D5CC
:10D6A000A168B1422CD01034AC42F6D3F822BC5859
:10D6B0009C4229D2174A184B1A80F9F797F9F82398
:10D6C000F422FB58BD581033F822BB50AB4202D3B2
:10D6D000F023FB58BB5022780123494613434246AE
:10D6E0006180E260514601220A40FD2152000B4058
:10D6F0001343A66023701CBC90469946A246F0BD19
:10D70000E2684245CFD1E6E7AC42D3D2231CDAE748
:10D71000406B0020143100005C38002000B50A4B3B
:10D7200001228240101C5A6883B01043586001A83F
:10D730000DF08AFB054B0822198801A80A431A80BC
:10D740000DF088FB03B000BD406B0020B434002016
:10D7500008B5C822064B52009958007828228854F0
:10D76000C6224721520099540620FFF7D7FF08BD73
:10D77000406B002030B590231A4D5B00EB5C83B00A
:10D78000041C452B05D0C622174B92011A80F9F7CD
:10D790002DF9002C02D0154B9C4204D0144A124B98
:10D7A0001A80F9F723F990235B00AA22EA54237820
:10D7B00001A8002B0CD00F4A7A23D35A03800923E7
:10D7C00083700AF0A5FD0220FFF7A8FF03B030BD6B
:10D7D000084A7A23D35A0380102383700AF098FDF5
:10D7E000F1E7C046406B00205C380020906C0020C0
:10D7F000813100003869002010B50D4C002804D09C
:10D8000090235B00E35C462B0CD00A4A0A4B1A803B
:10D81000F9F7ECF89023AA225B00E2540220FFF70C
:10D820007DFF10BD9E225200A3189842EDD1F1E772
:10D83000406B0020833100005C38002070B5184C2C
:10D84000C823E558CC23E35C061CE82B04D0154A1A
:10D85000154B1A80F9F7CAF8002D1AD02B1C1C336F
:10D860009E4204D0114A104B1A80F9F7BFF8327863
:10D870003823EA5473680D20EB63327A4023EA546C
:10D88000E922CC23E254CD23E35C2370FFF746FF6B
:10D8900070BD074A044B1A80F9F7A8F8DEE7C046C6
:10D8A000406B0020873000005C3800208930000089
:10D8B0008830000070B5C223144C5B00E558061C8C
:10D8C000002D1DD02B1C18339E4204D0104A114B42
:10D8D0001A80F9F78BF8C4235B00E35C5E2B04D05D
:10D8E0000D4A0C4B1A80F9F781F832785423EA5428
:10D8F000C42358225B00E2540920FFF70FFF70BDDC
:10D90000064A044B1A80F9F771F8DBE7406B0020F8
:10D91000B53000005C380020B6300000B4300000A4
:10D9200070B5174C3C23E35C061CA56B712B04D02F
:10D93000144A154B1A80F9F759F8002D1AD02B1CF0
:10D940001C339E4204D0114A0F4B1A80F9F74EF84F
:10D950003378002B04D0FA2B02D03822AB5402E0EB
:10D9600000223823EA5472223C23E2540820FFF7B5
:10D97000D5FE70BD064A044B1A80F9F737F8DEE78A
:10D98000406B0020D73000005C380020D930000008
:10D99000D8300000F8B5061C8B2319489B008A2458
:10D9A000C358A400045D002B22D0351C00200D4379
:10D9B00018D0A5002D192D015D19AB420BD311E034
:10D9C0001C1C1834002A00D0103C2768B7420AD02B
:10D9D00050339D4206D91C78002CF1D1181C5033CD
:10D9E0009D42F8D8F8BD64688C42F1D10020F9E777
:10D9F000044BC12292011A80F8F7E4FF0020F1E7FE
:10DA0000406B00205C38002010B500220F4B0270E4
:10DA100042707321595C0F24214089008270C270CA
:10DA200001707A229A5C02711A1C7A325278427121
:10DA30007422995CFF224900FE2900D8CAB2827183
:10DA40009A7A0132D2B29A72C27110BD386900203E
:10DA5000F8B5C46B2D4D061C201CEF6FFFF7D4FFEB
:10DA60002378032293430122134362782370102307
:10DA700013436370FCF728FE0CC8110A227461740A
:10DA8000110C120EE2741A0A237562751A0C1B0E21
:10DA9000A174A275E3758823EB5A6278A3701B0A00
:10DAA000E3700823134363702B1C90331A685B6880
:10DAB000110A22726172110C120EE2721A0A237399
:10DAC00062731A0C1B0EE3730123A37104232376E4
:10DAD0004023A172A27363767A7C002A00D0C0230F
:10DAE0006376BA7C002A02D020221343637688230F
:10DAF000EB5A1A2233863823F2549823EA5C4123E6
:10DB0000F25416227823EA54F8BDC046406B002038
:10DB1000F8B58B223D4B92009C588A2292009B5C68
:10DB2000061C9A00D2181201A218C56B944203D3A6
:10DB300061E05034A2425ED92378012BF9D1281C30
:10DB4000FFF762FF2B7803229343012213436A7885
:10DB50002B7008231343102213436B70627D01273F
:10DB600002213A40DBB252008B4313436B70638A4D
:10DB7000AB701B0AEB70A268E368110A2A72697223
:10DB8000110C120EEA721A0A2B736A731A0C1B0E0E
:10DB9000EB731F4BA972AA737A229A5C7A332A71AB
:10DBA0005B786B71FCF790FD0CC8110A2A746974DC
:10DBB000110C120EEA741A0A2B756A751A0C1B0ED8
:10DBC000EB750723A974AA75AF712B76238A227C83
:10DBD0001B0A6A76AB76237DEB76638A338663789D
:10DBE0001A070ED54123F75438231C22B460F2548F
:10DBF0000423237004E0074A074B1A80F8F7E2FE7B
:10DC0000F8BD05224123F254EEE7C046406B0020E8
:10DC100038690020433000005C380020F8B5C46B40
:10DC20004F464646C0B4051C201CFFF7EDFE237886
:10DC30000322934301221343237063780822934302
:10DC4000102213436370D2231B4A5B00984691460F
:10DC500042441368194E1A790127A2705B79E37068
:10DC60007A23F35C2371331C7A335B786371FCF79E
:10DC70002BFD0CC8110A22726172110C120EE27295
:10DC80001A0A237362731A0C1B0EE3730623A27322
:10DC9000A771A1722374337A4A46424463741368AD
:10DCA00012229B882B864123EF543823EA540CBC64
:10DCB00090469946F8BDC046406B00203869002068
:10DCC00010B584B002A96C461B20F9F73DFA073461
:10DCD00003A91A20F9F738FA211C0F20F9F734FAB2
:10DCE0000399029A23788818584304B010BDC0469F
:10DCF00030B5134BFC229C588222041B52009B58C7
:10DD00006411E4001C19437883B0022B0ED06D46D9
:10DD100007350E20291CF9F717FA2878094B01302E
:10DD20005843C00A0130208003B030BD837E3D20BF
:10DD3000DA07F8D4FFF7C4FFC00A013080B2F2E777
:10DD4000406B0020983A0000F0B54D4644465F46CF
:10DD50005646F0B4C16B89B088460690081CFFF7A0
:10DD600053FE424613780322444693430122134351
:10DD700062782370102313436370FCF7A5FC0CC872
:10DD8000110A22726172110C120EE2721A0A2373C6
:10DD900062731A0C1B0EE37304235B42A37001230E
:10DDA0005B42E3700123A37108232374637CA27395
:10DDB0007F2213406374984FA623A1729B00FB5AE5
:10DDC000964C9946FC23FD5880235B00FA589542F7
:10DDD0003BD2231C803341CBB246914E0021B44646
:10DDE00056462B1C8B460296039402E02033934246
:10DDF0001AD219780629F9D059780229F6D01C6967
:10DE00008442F3D15E69029CA642EFD19E886645AA
:10DE1000ECD80129EAD1B145E8D859460131C9B257
:10DE200020338B469342E4D35846039C1F280CD9D9
:10DE30007C4EB85D029000284FD04346597C9F230A
:10DE40000B4046467374039511E0764BFE5C0296D8
:10DE5000002E39D00021F9544346597C20239943A0
:10DE6000402346460B437374002603950296803484
:10DE70006368404641462568039C12306F31049127
:10DE800005909B46011C94425CD3059C664B091B84
:10DE900059434646727C1F239A431940029C131C27
:10DEA0000B437374002C02D1A6239B00FC524B0041
:10DEB0005918069C12313823E15409B03CBC9046F5
:10DEC0009946A246AB46F0BD4046417C202319430B
:10DED00040230B4343740395C9E754483918142071
:10DEE000FF30F9F731F9514BFB5C012B16D043465B
:10DEF0005A7C20231A43BF23134040464374012316
:10DF0000BB5580235B00FA58FC23FB580126039382
:10DF1000A6239B00FB5A02969946A8E741464A7CF5
:10DF200020231A43402313434B74029A80235B003F
:10DF3000BA55FA58FC23FB580393A6239B00FB5ABF
:10DF4000994694E782235B009A464346A44607938A
:10DF5000039B002402E0203393421AD21E78062E3F
:10DF6000F9D05E78022EF6D01869A842F3D15E6926
:10DF70005E45F0D19E882A488642ECD8B145EAD861
:10DF8000002C02D0A088B042E5D91C1C203393425B
:10DF9000E4D3002C3DD06646A31B504638585B1195
:10DFA000DB00C018A38884461E0A4E700B700079EF
:10DFB0008606760F00968E780720864300980643E3
:10DFC000082086438E706646367907200640360163
:10DFD000B4468E7870208643604606437F203040EA
:10DFE000029E8870002E02D0A6208600BB53A38814
:10DFF00001339BB29946009B002B00D00331049C57
:10E000008C4203D9FC23FE58B446A1E7079B9846EF
:10E010003BE7079A904638E7406B002038690020BC
:10E02000F7FF00009A020000ABAAAAAA9B02000018
:10E03000F0B5454657464E46E0B482B00123051C74
:10E04000884668466946C37107311D20F9F77CF898
:10E050004A496E23CB5C8C46022B00D175E0484EBA
:10E06000D123F05CEC23F15800270023DA008A1852
:10E07000D478002C50D1002F00D17BE00133DBB2EB
:10E080008342F3D9002F00D172E04146B970624655
:10E09000D3683D800A337B600123FB70D123F25C9F
:10E0A0004A455CD0D423F35C002B3DD00DF034F80E
:10E0B000DC23F35898424FD2C31A013B9C46EC2311
:10E0C0000122F5585242002392469846D1240AE094
:10E0D0006246801A4860824500D982460133315D2C
:10E0E000DBB2994213D3D9006918C8780028F5D05B
:10E0F0004A68101EF2D08F42F0D09445E8D34046D3
:10E100004860C8700133315DDBB29942EBD2D4363E
:10E11000301C012152460BE01488AC42AED19278FB
:10E120004245ABD100200AE0D4367A68301C012188
:10E13000144BF8F783FD301CF8F794FD012002B072
:10E140001CBC90469946A246F0BD6846C379002B98
:10E1500000D084E70320F2E7C31A9C46AFE7D02241
:10E16000B25C013A91459DD24A460132F25499E798
:10E170000220E4E79946171C80E7C0463869002072
:10E18000406B002065F80000F0B52A4DC46BE96FC4
:10E19000474680B4061C201C8846FFF735FC2378D0
:10E1A0000322934301221343627823701023134305
:10E1B0006370FCF789FA0CC8110A22726172110CA3
:10E1C000120EE2721A0A237362731A0C1B0EE373A7
:10E1D00003235B42A3700123174F5B42A172A2731A
:10E1E000E3707A23F85AE179FFF722FF6378082277
:10E1F000934363700123A371042323740023637486
:10E200006E23FB5C022B0CD04246537C41465A1EC7
:10E210009341DB0163748A7C002A02D020221343DD
:10E22000637412223823F25413227823EA5404BC74
:10E230009046F0BD406B00203869002070B58D23FA
:10E240000F4C9B00E658031C1C3B197C051C2A2024
:10E25000F8F7C6FA8C239B00E25C602A07D0002EF8
:10E260000AD05D22E2540720FFF758FA70BD2A78E1
:10E2700032735E22E254F6E74822E254F6E7C046E3
:10E28000406B0020F0B5474680B42B4A7021565CA5
:10E29000D36E71018919C900591882B0051C002775
:10E2A00000248B4206D344E0AA4229D00933FF332D
:10E2B000994207D91A78002AF6D11C1C0933FF337A
:10E2C0009942F7D8002C34D0052E1ED91B490723BC
:10E2D0006B4449199846181C012207310FF084FF3E
:10E2E000424613785E430123B610B7420BDADFB221
:10E2F000002F1ED02570201C02B004BC9046F0BD3B
:10E300000137FFB2D2E70023F1E7F1008E1B0B4982
:10E310006B1E07226A44F61808319046101C8919B2
:10E3200001220FF061FF424613789F42BF417F42B6
:10E33000DEE70020E0E7C046406B002030F101003E
:10E3400008B5FFF79FFF00281CD0021C0C32BC232D
:10E35000C2500023E0228350D8228354E422835009
:10E36000E8228350D4228354D52283548423C25C70
:10E3700002218A43C254044A7A23D25A9023C252B9
:10E38000803008BD0020FCE73869002010B5041C6F
:10E390000120FFF7D5FF011E0FD00948031969338B
:10E3A000FF331A784030013A1A704C71F8F76EFA60
:10E3B0000320FFF7B3F9012010BD0020FCE7C046A1
:10E3C000406B002010B5041E102C12D80C4A1219F4
:10E3D0006932FF3213780133DBB21370002B04D1A2
:10E3E000084A094B1A80F8F701FB201CFFF7CEFF03
:10E3F00010BD064A044B1A80F8F7F8FAE6E7C04663
:10E40000406B0020D33100005C380020D231000086
:10E4100030B583B00C206946FF300631F8F794FE22
:10E420006A46D388002B15D00D4C0E48211CF8F7F6
:10E430006FFE6B46F03CDA88F025605912018118B6
:10E44000F423E15000210FF063FF6259F823E250FA
:10E4500003B030BD044A054B1A80F8F7B3FAF7E76A
:10E46000306C00200A020000153100005C380020EA
:10E47000F0B544465F4656464D46F0B4C2239D4C27
:10E480005B00E658C4235B00E35C87B08046B3467C
:10E49000562B04D0984A994B1A80F8F7A7FA594698
:10E4A000002900D10EE15B462033984504D0944A00
:10E4B000924B1A80F8F79AFA42461378002B16D03E
:10E4C00010221C1C9443EA2C11D054225E46B354F3
:10E4D000884CC42358225B00E2540920FFF71EF940
:10E4E00007B03CBC90469946A246AB46F0BD5946A3
:10E4F0004E6941464968C4238E430196E5D04246A1
:10E50000147AD568002C31D07E4B01279A46791EAB
:10E5100001235B42C9B29C464B01EB185888504519
:10E5200022D01B7C9946BC4220D93B1C03E001331E
:10E53000DBB2A3420FD09942F9D05A01AA185688EB
:10E540008642F4D1167C4E45F1D101336646DBB2EA
:10E550005680A342EFD10137FFB2791EC9B24B01F9
:10E56000EB1858885045DCD1BC42F4D8631E281CF7
:10E57000DBB25B012030C018624BFF2642469A4650
:10E58000A8465B46019DB14600210127A44602939F
:10E59000B34603923D4219D06246002A7DD04346DD
:10E5A000002402E0203383420AD01A7C8A42F9D147
:10E5B0005A885245F6D001342033E4B28342F4D174
:10E5C000002C6AD0B44201D2261C89460131C9B25E
:10E5D0007F002029DED1029C03995E468846A3462F
:10E5E000FF2E7BD048497823CE5443461C7ADD6801
:10E5F000A04600236C466375153489461220211C01
:10E60000F8F7A2FD2378002B4ED10FF0D9FE434638
:10E61000013B291C4446DBB201345B012031AC468E
:10E62000C918251C80B200274446384A83185A1E50
:10E6300093415B421840002C0CD0634602E020332B
:10E640008B4207D01A7CB242F9D15A888242F6D165
:10E65000013080B20137BFB2BD42E6D87C234C46C0
:10E66000E052284B984233D0594600237A22A352D5
:10E670000B83274B1F4C0B625322C4230A745B008D
:10E6800059225846E2540830FCF764FF4E4678237E
:10E69000F15C2420F8F7A4F822E7C323DB031F4230
:10E6A0000AD18B4600248DE76C4616341120211CBC
:10E6B000F8F74AFD2088D1E7029B039C9B46A046C1
:10E6C0000E1C8FE7134A0D4B1A80F8F78FF9EAE614
:10E6D000114A0A4B1A80F8F775F901E74A46FF2AF2
:10E6E00005D10E4A054B1A80F8F76CF97AE74E46C9
:10E6F00078E7C046406B0020AB3000005C3800205B
:10E70000AD300000FFFF0000386900200100FFFF6E
:10E71000E5EF0000AC300000B9300000B830000078
:10E72000F0B55F4656464D464446F0B4424D8146EC
:10E73000FC23084383B08B469246EC5800273F4E9B
:10E7400080460AE09A4292415242002A1BD180231D
:10E750005B00EB5820349C425CD22378062BF6D029
:10E760006378022BF3D0637E327C93420BD0991AEC
:10E77000C81709184140C729E4D900219A424941E4
:10E78000CAB2002AE3D04146002905D022694A4591
:10E79000DDD160695845DAD15146A27E002941D1C8
:10E7A0009107D4D57420325C217E0F2A01D8914282
:10E7B000CDD2002F27D0FC2169588222601A520046
:10E7C000AA584011C0001018791A80784911C90060
:10E7D00001905218927800927A7E93420AD0991A48
:10E7E000C81709184140C7291FD99A429B415B426B
:10E7F000002BACD1019A009BD11A1931A7DB0FF085
:10E80000DFFD0107A3D480235B00EB58271C2034D5
:10E810009C42A2D3381C03B03CBC90469946A24609
:10E82000AB46F0BD5007BDD491E70021081C9A42C9
:10E830004841C3B2DCE7C046406B00203869002085
:10E840000A4910B50022002380310A604B60084954
:10E850000024A0200C54BA2084B0095C68460172E0
:10E860000092019309F0E4FA04B010BD3869002069
:10E87000406B002070B582B06C4607348620211CA6
:10E880004000F8F761FC164D1648291CF8F740FCCB
:10E89000237828685A00D218134BD200EC1883183A
:10E8A0006B6000210FF034FDB123002662689B00ED
:10E8B000E65420239A430D4B281C6260E65414381A
:10E8C0000DF00CFFAD239B00E654094AAE239B00DC
:10E8D000E2508022AC2352009B00E25002B070BD97
:10E8E000FC6D00200B02000044FDFFFFC50200008C
:10E8F000F5E80000F0B5AF23164D9B00EC58164B21
:10E9000047460022B02680B49846EA540127B60054
:10E9100005E04346EF54AB5918349C420ED223789D
:10E92000002BF8D0013BDBB22370002BF1D1201C6F
:10E93000FEF7B4FDAB5918349C42F0D3064BEB5CA8
:10E94000002B04D1AA239B00E8180DF0C7FE04BCDD
:10E950009046F0BD406B0020C502000010B50E4C83
:10E960000E48211CF8F7D4FB211C81200C314000FB
:10E97000F8F7EAFB237B22685B01D318211C636054
:10E9800008310748F8F7C4FB201C10300DF0A6FE34
:10E990000120FEF74FFB10BD3C6C0020010200007F
:10E9A00003020000F8B51B4EAF239B00F458B023C0
:10E9B0009B00F558071C00212378002B1DD062789E
:10E9C000100705D4002902D00A789A4200D9211CE8
:10E9D0001834AC42F0D30C1E0DD0201CFEF75EFDA7
:10E9E000201C002118220FF093FC01231F40FF0080
:10E9F000272367702370201CF8BD074BF25C002AA8
:10EA0000EED10122F254AA239B00F0180DF03EFE35
:10EA1000E6E7C046406B0020C502000070B5C22387
:10EA20001C4D5B00EC58061C002C2CD0231C1C3306
:10EA30009E4204D0184A194B1A80F7F7D7FFC42317
:10EA40005B00EB5C5D2B04D0154A144B1A80F7F782
:10EA5000CDFF3378002B09D05422A354C42358226D
:10EA60005B00EA540920FEF759FE70BD0D4B201CD7
:10EA700023610D4B08306361FCF760FDC4235E2207
:10EA80005B00EA54F1E7094A044B1A80F7F7AEFF3E
:10EA9000CCE7C046406B0020B23000005C3800205C
:10EAA000B3300000FFFFFF00B5D80000B130000018
:10EAB00010B5074C00229023E254064A9423201CF0
:10EAC000E2508830FCF704FD14227823E25410BD94
:10EAD000406B00204D1D010038B5134C0D1C201C4F
:10EAE000F7F7FAFE031C05751B69143098470F4BA6
:10EAF000E2182368002B11D0B42120208900505443
:10EB00001A790C2A08D0DB88094A00209A42404131
:10EB10000130FFF757FC38BD1020FAE7B423782105
:10EB20009B00D154F7E7C046146E00202CFDFFFF78
:10EB3000F7FF000038B5184CCB239B00E018E558D0
:10EB4000F7F7CAFE2378DA0607D42823C222281C46
:10EB5000EA5428302B6A984738BD6A7F0F4B002053
:10EB60001A72CC239B00E550CA2368229B00E25412
:10EB70000B4AD4239B00E250D0236F229B00E25427
:10EB8000D2239B00E118F8F7DFFACE229200A018FA
:10EB9000FCF7E0FCE0E7C046406B0020386900204D
:10EBA000D9FE0000F0B538488C229200835C83B017
:10EBB0005D2B03D05E2B0BD003B0F0BD8D2301780D
:10EBC0009B00C358CC071BD4C22119735E23835406
:10EBD0002E4C201CF7F780FE2D4B051CE6182368F1
:10EBE000002B23D0C22303738C235D229B00F2549D
:10EBF0000720FEF793FD281C0C30AB689847DBE735
:10EC0000602181541A792349531E9A4194239B0011
:10EC1000C150902341219B00C15492239B00C254B8
:10EC20008E239B00C018FCF795FCC5E703795A1E9C
:10EC3000D2B2FD2A06D9FF2B13D08C2348229B0089
:10EC4000F254D8E7FA229200534398229200B3502C
:10EC5000201C24300DF01AFD8C234A229B00F25414
:10EC6000C9E76F46073795204000391CF8F76CFA62
:10EC70003B78012B06D0022BDFD1074A98239B005B
:10EC8000F250E5E7054AF9E7406B0020746D00207B
:10EC9000CCFDFFFF3DE2000030E0030000C8AF0004
:10ECA000F8B54F464646C0B4414DBE235B00EC5814
:10ECB0008C27E35D742B07D9C02390225B00EA54B4
:10ECC0000CBC90469946F8BD0620FFF7DBFA031E00
:10ECD000F2D0011C84220C3181508022061C805C01
:10ECE000F821014099548821605C191CE0310870BA
:10ECF0008A21615AB8362F4871857A21415A181CE9
:10ED0000B185E15DE83001709B21615C8C46624613
:10ED1000F821CA541A1C15327263E15D6B32093155
:10ED20001172254AF933726401221A709023027815
:10ED3000E158706B0FF058FA204F381CF7F7CCFDF4
:10ED40000023B422A354A822A3549423E258AC2352
:10ED5000E2509D23E35C002B18D0194A211CB818FF
:10ED60000831F7F793FD0320FEF7D8FC301CF9F7C4
:10ED7000EFFBBE235B00EB58002B14D00F20FEF7F7
:10ED8000CDFCC0238F225B00EA5499E7201CA0230E
:10ED9000E358A4309847301CF9F7DAFBBE235B0038
:10EDA000EB58002BEAD1C0238E225B00EA5487E7A0
:10EDB000406B002038690020F51C0100BC6C00206D
:10EDC000C4FEFFFF70B582B06C4607340820FF30E8
:10EDD000211C00262670F8F7B7F91D4D2278291C52
:10EDE0008320742388314000EA54F8F7ADF90620F7
:10EDF000211CFF30F8F7A8F98822A95C23789942F2
:10EE000021D3AB548923EE54FEF796F9211C02233B
:10EE100013202370F8F798F922786F23EA540D4AEB
:10EE200032230D48D45CFBF763FC64000419802096
:10EE30000001FBF75DFC7423EB5C400824185C4385
:10EE4000EC6002B070BD5B1A8922AB54DCE7C046AF
:10EE50003869002098680020093D000070B5324CE8
:10EE60003C23E35C702B07D0722B32D02F4A304BFF
:10EE70001A80F7F7A7FD70BDA56B002D48D0237849
:10EE80009A0620D54023EB5C2E1D002B02D00120DA
:10EE9000FEF7D0F800233922AB5401222A732A6BE3
:10EEA00024492A612C22AA5C301C2A7577228A5CAC
:10EEB000AB75AB62204B6A75AB61FCF745FB712209
:10EEC0003C23E254D7E7C2223823EA5472223C237F
:10EED000E2541A48F7F700FD051E1FD06B6B002B9C
:10EEE00010D0281C38309847A36B002B06D0702216
:10EEF0003C23E2540820FEF711FCBCE7D6223C2359
:10EF0000E254B8E70E4A0A4B1A80F7F75BFDB2E706
:10EF10000C4A074B1A80F7F769FDB0E70A4A044B21
:10EF20001A80F7F763FDD9E7406B0020D530000069
:10EF30005C3800203869002021D90000786B00205F
:10EF4000D4300000D2300000D330000038B51D4D61
:10EF5000281CF7F7C1FC2B79041C032B04D01A4A98
:10EF60001A4B1A80F7F742FD002C25D0A023E35856
:10EF7000002B1BD0201CA4309847A823E35C002B57
:10EF80000FD03D201249F7F7FDFB124B9A6C002A77
:10EF900003D00E20FEF7C2FB38BD41214C2299540C
:10EFA000FAE73C200C49F7F71BFCEAE70B4A074B52
:10EFB0001A80F7F707FDEFE7094A044B1A80F7F7C5
:10EFC00015FDD3E7886B0020B43100005C380020C9
:10EFD0002C010020406B0020A8350020B631000035
:10EFE000B5310000F8B54E4DC2235B00EC58061C4D
:10EFF000271C0837002C00D185E0231C24339E42B7
:10F0000004D0484A484B1A80F7F7F0FC3378002BBD
:10F010000BD1C4235B00EB5C593BDBB2072B00D95F
:10F020006BE0424A9B00D3589F465422A354C4230A
:10F0300058225B00EA540920FEF770FBF8BD462316
:10F0400023740F232376C4235A225B00EA54384BDF
:10F05000381C2362FCF77EFAF0E76F23211C23742F
:10F0600000201831F8F770F8C42360225B00EA54DE
:10F07000EDE7304E0023737280361820311CF8F70C
:10F0800063F833687268134343D0FEF779F8452379
:10F090002374294B5B22A361C4235B00EA54D6E7A7
:10F0A0005223237401232376C4235C225B00EA5499
:10F0B000CDE78323211C237402201831F8F744F88C
:10F0C000C4235F225B00EA54C1E71A4B7C229A5AA0
:10F0D000381C228278229A5CA27477229B5CE374AB
:10F0E0000123237500236375144BA361FCF738FAE1
:10F0F000C4235D225B00EA54A0E7114A0A4B1A8040
:10F10000F7F760FC9AE70F4A074B1A80F7F76EFC97
:10F1100073E7FBF7D9FA0268436832607360B4E7BB
:10F12000406B0020AF3000005C3800208CEF010005
:10F13000E5EF000038690020966900201DEA000014
:10F14000B0300000AE300000154A031E93421DD0BF
:10F1500090420CD9134A904204D0134A01209342A2
:10F1600012D17047114B187A0007C00FF9E7104A07
:10F17000904209D10D4B6E229A5C0020012AF0D1F9
:10F18000187A4007C00FECE70020EAE7074A6E2331
:10F19000D35C002001229A424041C0B2E1E7C04660
:10F1A000FCFF0000FDFF0000FFFF000038690020A9
:10F1B000FBFF00003D2800D070470029FCD00A88E2
:10F1C000014B1A80F8E7C046A835002030B58423EB
:10F1D000164C5B00E35C141C9A4200D91C1C1B1BE0
:10F1E000DBB21C1C8B4200D90C1CE4B29C421AD02E
:10F1F00000280BD10E4A0123547CE50704D489234F
:10F20000D35C99424041C3B2181C30BD084802216A
:10F21000437C194001230029F6D18823C35C9A421C
:10F220004941CBB2F0E70123EEE7C046406B002036
:10F2300038690020164BF0B5FC229D588022520000
:10F240009C58822252009F5800212B1C00261A78BD
:10F25000062A0DD05A1B5211D200BA185279024216
:10F2600001D10136F6B25A78022A01D00131C9B271
:10F270002033A342EBD30020002906D00623052922
:10F2800004D900209E424041C0B2F0BD0B1CF8E7FB
:10F29000406B0020F0B5474680B44C4F381CF7F760
:10F2A0001BFB4B4A051CBF183B78DA0700D482E0F1
:10F2B000484E7A23C488B022F05AAF239B009200B4
:10F2C000FB58B95802E018338B421AD21A78002A38
:10F2D000F9D01A89A242F6D19A888242F3D1042346
:10F2E000281C6B741030EB6898473B4FA8239B0099
:10F2F000FB58002B02D00420FEF710FA04BC904605
:10F30000F0BD0120FFF74EFB041EE8D02B7903224D
:10F310001A406378602152018B43134363706B7A08
:10F3200001221A406378102112018B43134363704A
:10F33000FF23E3707A23F35A274FA380EB88A92297
:10F3400023819200BB5C591E0D293AD96D23F25CD2
:10F35000511CC9B2002901D10232D1B2F154A92302
:10F360009B00984642460123BB542620F7F738FA03
:10F370004246BB5C6D22B25C013A12011343A37298
:10F380002B7AE37200232373B37A25610133DBB256
:10F39000B3726278637301231343022213436370D1
:10F3A000B1239B00FA5C002AA0D19322FA540520D5
:10F3B000FEF7B4F99AE7C22303741030EB6898475C
:10F3C00094E70133DBB2BB54D4E7C046E06D0020C4
:10F3D00060FDFFFF38690020406B0020F8B5164A39
:10F3E000164CCC25AD007823D15C66593823F154F6
:10F3F0006359111C80310E684F681E635F637A2168
:10F40000525A5A8528229854181C28301B6A98474B
:10F4100000236351CB239B00E358002B07D0CA2362
:10F4200067229B00E2541220FEF778F9F8BDCA2348
:10F4300066229B00E254F9E738690020406B002007
:10F4400008B50078002804D0EA2819D0FFF7C6FFD5
:10F4500008BD0D48CA236A229B00C2540B4AD4231C
:10F460009B00C250D02345229B00C254084AD2239D
:10F470009B00C250CE239B00C018FCF76BF8E7E757
:10F48000CA20FFF7ABFFE3E7406B0020D9FE000086
:10F4900096690020A82210B58154942281580F4CFF
:10F4A000AC228150031CB02200218150201C191C69
:10F4B000F7F7ECF9483C4C22A35C412B07D0032B17
:10F4C00004D0074A074B1A80F7F77CFA10BD0323D4
:10F4D000A3540E20FEF722F9F8E7C046886B0020FF
:10F4E000B33100005C38002038B58468427BB42317
:10F4F0000D1CE2545030FDF78BFF291C201CFFF738
:10F50000C9FF38BD08B50D4A8B239B00D3588342F1
:10F5100008D88A218900525C91008A1812019B1830
:10F52000984205D3064A074B1A80F7F74BFA08BDF5
:10F53000002150220EF0ECFEF9E7C046406B00209F
:10F54000413000005C380020F0B557464E46454635
:10F55000E0B48B23364F9B00FC588A239B00FB5C56
:10F5600086B09E00F6183601A619002C5AD09C21B0
:10F570008900C919B8468946B44205D31FE0032B58
:10F5800023D05034A6421AD92378022BF7D1228CEB
:10F590006D462A80A169E2696B740023AB746378BD
:10F5A000A960EA609A071DD46378201C2B7450343C
:10F5B000FFF7A8FF684608F027FCA642E4D806B08B
:10F5C0001CBC90469946A246F0BD228A6D462A8010
:10F5D000A168E2686B74637DA960EA60AB746378CC
:10F5E0009A07E1D5A7239B009A46FB5C022BDBD050
:10F5F000424652440023137048460DF06FF80EF057
:10F60000DFFE0C4980B2F4F715FE9E2389B29B0001
:10F610004246D1504146012351440B7048460DF0FB
:10F6200035F8C1E7044A054B1A80F7F7CBF9C6E76E
:10F63000406B00204C1D0000423000005C38002070
:10F64000F8B5051C283D002D47D02B78052B14D18B
:10F65000254A8021FC234900AC69EE69D3585158F2
:10F660001A78062A02D09F68A7420CD020338B421A
:10F67000F6D3281CFFF746FFF8BD1C4A1C4B1A8026
:10F68000F7F7A0F9F8E7DF68B742EFD12221695C0C
:10F69000002906D004218A43012A0CD006221A70C0
:10F6A000E7E72021415C0029F4D102232B700B20D5
:10F6B000FEF734F8E0E75A78022A06D00D4A042112
:10F6C0005F32507801435170E8E70A4A80215F3287
:10F6D0005078494201435170E0E7074A044B1A80D1
:10F6E000F7F770F9C8E7C046406B002047300000CC
:10F6F0005C3800203869002046300000F8B5866884
:10F700000F1C3378042B04D0204A214B1A80F7F7C2
:10F710006DF9204A8021FC234900B568F068D35870
:10F7200054581A78062A02D09968A94206D0203384
:10F73000A342F6D3301CFFF7E5FEF8BDD96881423D
:10F74000F5D1317D002901D1002F18D004218A4341
:10F75000012A02D006221A70ECE75A78022A06D053
:10F760000D4A04215F32507801435170F2E70A4A92
:10F7700080215F325078494201435170EAE7032308
:10F7800033700B20FDF7CAFFD7E7C04645300000B5
:10F790005C380020406B00203869002038B5806854
:10F7A0000378042B15D1002910D1104A8021FC23A5
:10F7B00049008468C568D35851581A78062A02D07F
:10F7C0009A68A2420BD020338B42F6D3FFF79AFE01
:10F7D00038BD074A074B1A80F7F7F4F8F8E7DA68FC
:10F7E000AA42F0D1028A9A80F0E7C046406B00201E
:10F7F000483000005C38002010B5F4230B4C6F2219
:10F800005B00E254F8235B00E1180020F7F79CFC52
:10F81000074AFC235B00E250F0235B00E018FBF793
:10F8200099FECC2335225B00E25410BD406B0020D2
:10F83000AD37010010B50378002B0DD0084CD02255
:10F840005200A15828228B540A20FDF767FFCC23D1
:10F8500022225B00E25410BDFFF7CEFFFBE7C0465B
:10F86000406B0020F0B5012252421E484746EC236F
:10F870009046D12280B4C658E0270023944608E081
:10F88000A04500D9A04664460133015DDBB2994230
:10F8900010D3D9007118CC78002CF4D04D68C2591F
:10F8A000AC1A4C60ECD1CC7064460133015DDBB224
:10F8B0009942EED2454601350DD0041CD434201CAB
:10F8C00001214246084BF7F7B9F9201CF7F7CAF9AE
:10F8D00004BC9046F0BD0022D123C254D430F7F7C7
:10F8E000CBF9F5E7406B002065F8000038B50F4C08
:10F8F000051C291C201CF6F7C9FF0D4BE418B42386
:10F900009B00E25C782A00D038BD2022E2542B799B
:10F910000C2B08D0EB88074A00209A424041013066
:10F92000FEF750FDF0E71020FAE7C046146E002005
:10F930002CFDFFFFF7FF000070B5051C82B0274CBF
:10F94000002804D090235B00E35C442B21D0244AA0
:10F95000244B1A80F7F74AF89026AA237600A3557D
:10F960002B78002B10D19C256D00635B1E4901A8EC
:10F970007A228B5203801023837008F0C9FC9223F3
:10F980005B00E35C002B0AD10220FDF7C7FE02B04A
:10F9900070BDA2225200A3189842D8D1DCE796236A
:10F9A0000D225B00E2540322972352425B00E25295
:10F9B0000122992352425B00E25291235B00E25AFA
:10F9C00098235B00E252094B63514623A3559423CD
:10F9D0005B00E018FFF78AFFD9E7C046406B0020C4
:10F9E000823100005C38002038690020F9D700001F
:10F9F00010B5041CD030FDF70BFD00232370124C12
:10FA0000E2186932FF321278D8B2002A0DD10133E0
:10FA1000112BF5D1B1239B00E35C1A2B10D0C0232E
:10FA20005B00E25C902A05D010BDFEF7AFFC002819
:10FA3000FAD1EFE79122E2540F20FDF76FFEF3E7D2
:10FA40000520FDF76BFEEAE7406B002008B50B4888
:10FA500001230278134208D1A722920083549C23E9
:10FA60009B00C0180CF012FE08BDA72302229B00C9
:10FA7000C2540020FEF7A6FCF6E7C046406B00200B
:10FA800000B58A2083B0400001A9F7F75DFB194853
:10FA9000194BC35C002B06D0184A835C013BDBB2D8
:10FAA0008354002B0ED1164A9E239B00C250A723DD
:10FAB0009B000122C2549C239B00C0180CF0E6FD61
:10FAC00003B000BD019B002B0CD0A32292008350F9
:10FAD000A72301229B00C254A1239B00C0180CF055
:10FAE000D5FDEDE7A72302229B00C2540020FEF7BC
:10FAF00069FCE5E7406B00209A0200009B020000D1
:10FB0000983A000008B50B4801230278134208D147
:10FB1000A72292008354A1239B00C0180CF0B6FDCD
:10FB200008BDA72302229B00C2540020FEF74AFC16
:10FB3000F6E7C046406B0020007808B5002802D0E8
:10FB4000FFF74CFC08BD0948CA236B229B00C25436
:10FB5000074AD1239B00C250D02353229B00C2549A
:10FB6000CE239B00C018FBF7ADFCEBE7406B0020F9
:10FB700075FB000038B50478002C09D14378502B70
:10FB800035D0532B08D04B2B2BD0002B13D038BDA6
:10FB9000201CFFF723FCFAE701891E4A7A231E483E
:10FBA000D1524B22D0239B00C254CE239B00C018BD
:10FBB000FBF788FCEBE7174C037A211C783178259A
:10FBC00010206355F7F7ECFAFDF7DAFA124BBD2275
:10FBD00000201A70FFF702FC615D2420F6F700FE9A
:10FBE000D5E702890B4B0C481A805022DAE70289CC
:10FBF00008497C23CA5211207C31F7F7D1FA064814
:10FC0000D0239B00C454CE239B00C018FBF75AFCA2
:10FC1000BDE7C04638690020406B002008B5011CD4
:10FC2000428D08487C23C35A9A4206D00648F6F70C
:10FC30002DFE0320FDF772FD08BD081C1830FBF7F0
:10FC40009BFCF9E738690020846B0020F8B5174D5C
:10FC5000DF26B600AC59DF26B600071CA819F6F758
:10FC60003BFE134B7822995C3822A1541A1C803237
:10FC700010685168206361637A229B5A201C638557
:10FC80002823E7542830236A9847AB59002B07D024
:10FC9000DE2317229B00EA541320FDF73FFDF8BD39
:10FCA000DE2316229B00EA54F9E7C046406B002091
:10FCB00038690020037810B5002B09D14378453B03
:10FCC000DBB22A2B00D96AE0424A9B00D3589F46F8
:10FCD000181CFFF7BBFF10BD3F48E2234B229B00DF
:10FCE000C2543E4B1A88E4239B00C252E0239B007F
:10FCF000C018FBF72FFCEEE73748E22346229B00B3
:10FD0000C254E021E4230F229B008900C254401812
:10FD1000FBF720FCDFE73048E22352229B00C2546D
:10FD20002E4B1A7A1207D20FE4239B00C254E02311
:10FD30009B00C018FBF70EFCCDE72748E2239B0091
:10FD40005022C2547C23254AE021D25AE4239B004E
:10FD50008900C2524018FBF7FDFBBCE71E48E223B6
:10FD600000229B00C2541D4A7823D25CDCE71A486B
:10FD7000E2239B005322C2547A23E4E7164CE22389
:10FD80006F229B00E254E4239B00E1180020F7F768
:10FD9000DBF9E02189006018FBF7DCFB9BE70E48EC
:10FDA000E2239B00C35C002B00D094E70B4B1A7A34
:10FDB0000023110700D50A4BE22292008350094A22
:10FDC000E3239B00C250E0239B00C018FBF7B6FB67
:10FDD00081E7C046ACEF0100406B0020386900208D
:10FDE000FFFFFF00E9FD0000007808B5002802D001
:10FDF000FFF72CFF08BD034BBD221A70FFF726FF4B
:10FE0000F8E7C046406B002010B5114C237CC22B94
:10FE100002D0C12B0DD010BD201C1430F6F75CFDB4
:10FE2000031C5B68083098476369002B0DD0C12321
:10FE3000237401222023E254064B201C63621830F5
:10FE4000FBF746FBC3232374E5E719232374E2E79A
:10FE5000406B00205D1E010038B51C4C2378DA068B
:10FE600003D4C220FFF7F2FE38BDDF239B00DE2261
:10FE7000174D9200E3581821A1545B7F291C7C3157
:10FE800011202B72F7F760F9291C78311020F7F751
:10FE90005BF9FEF797FFFDF773F90E4AE6239B0027
:10FEA000E250E22345229B00E2542A1CE4235E3206
:10FEB0009B00E250E0239B00E018FBF74BFB78230C
:10FEC000E95C2420F6F78CFCCEE7C046406B0020AE
:10FED00038690020B5FC0000027810B5002A3DD139
:10FEE0004378462B52D028D9522B3BD06F2B23D1AD
:10FEF0002F48CA2369219B00C154D02303219B00B2
:10FF0000C154CC239B00C358D1219C698900445023
:10FF1000197FD2239B00C15426497723C95C264B05
:10FF2000C154264BCE21C254254AD3239B008900BD
:10FF3000C2504018FBF708FB10BD452BFCD11C48F4
:10FF4000D02346229B00C254D2230F229B00C254CE
:10FF5000CE239B00C018FBF7FDFAEDE7101CFFF75E
:10FF60003DFAE9E7134B1A7A0023110700D5154B28
:10FF70000F48D02292008350134AD1239B00C250D5
:10FF8000CE239B00C018FBF7D9FAD5E70848D02349
:10FF900052229B00C254074BCE241A7AD223120756
:10FFA000D20F9B00A400C2540019FBF7D3FAC3E799
:10FFB000406B002038690020490300004A0300001C
:10FFC00041F40000FFFFFF0039FB000070B5314C29
:10FFD000CC23E35CE72B07D0E92B12D02E4A2F4B22
:10FFE0001A80F6F7EFFC70BDC823E558002D45D008
:10FFF0002378DA071FD4C3223823EA54E922CC231A
:020000021000EC
:10000000E2542748F6F768FC051E3DD06B6B002BC9
:100010002ED0281C38309847C823E358002B06D030
:10002000E722CC23E2540D20FDF778FBDBE7132217
:10003000CC23E254D7E7EB6A00262B612E733023E2
:10004000EB5C184A2B757723D35C281D6B75102346
:10005000AB75154BAB612B1C4133AB62FBF774FAEC
:100060002278CD23E254E822CC232670E254BAE76A
:100070000E4A0A4B1A80F6F7A5FCB4E70C4A074B68
:100080001A80F6F7B3FCB3E70A4A044B1A80F6F776
:10009000ADFCBBE7406B0020863000005C380020E0
:1000A000086C0020386900203DD800008330000033
:1000B000813000008230000070B5C423794C5B00B1
:1000C000E35C542B07D0582B41D0774A774B1A80EA
:1000D000F6F778FC70BDC2235B00E558002D00D117
:1000E00094E04D23EB5C724E3372FEF76BFE237887
:1000F0009A0725D54023EB5C012B00D192E0AB6C35
:10010000002B00D1AEE05A1E134200D1AAE000221B
:100110002A746B614C23EB5C281C2B767723F35CF1
:1001200008306B761023AB762B1C3033EB62614BBF
:10013000EB61FBF709FAC42357225B00E254C9E7DD
:10014000C2225423EA54C42358225B00E2545A4882
:10015000F6F7C2FB051E5FD04423EB5C002B2BD1CE
:100160005423EB5C002B12D02B6D002B48D0281CA5
:1001700054309847C2235B00E358002B20D0C4239F
:1001800054225B00E2540920FDF7C8FAA2E74B4E67
:100190001120311CF7F704F8311F1020F7F700F891
:1001A0008A23FF33E35C002B0FD08A23FF33012225
:1001B000E254FD232370D7E70120FCF73BFFCFE794
:1001C000C423B7225B00E25484E73D498E225200EB
:1001D000A15080218A2209015200A1508C22520094
:1001E000A35486235B00E0180CF050FAA7230122E9
:1001F0009B00E2549C229200A0180CF047FAD4E72E
:10020000304A2A4B1A80F6F7DDFB63E72E4A274B6C
:100210001A80F6F7EBFB64E72C4A244B1A80F6F7BA
:10022000E5FB99E7311C7C311120F6F78DFF311C7D
:1002300078311020F6F788FF00237A22B3522B83FF
:10024000234B53222B62C4232A745B005922281C9F
:10025000E2540830FBF77EF97823F15C2420F6F7AE
:10026000BFFA37E701222A746B614C23EB5C291C2F
:100270002B767723F35C82206B761A314000F6F7F9
:1002800063FF291C2C311348F6F742FF2E1C124B3A
:100290000836EB61301CFBF757F9C42356225B008C
:1002A000E25417E7406B0020A43000005C380020C7
:1002B00038690020B5110100C46C0020B469002029
:1002C0008D240100A3300000A1300000A230000006
:1002D000E5EF00000202000071E4000038B53C4C7C
:1002E000C6256D00635D452B02D0472B0FD038BD6E
:1002F000C8235B00E058374B6E229A5C012A35D048
:10030000C2222823C254C62347225B00E25432484B
:10031000F6F7E2FA2023C35C051C002B1DD128232D
:10032000EB5C002B08D1CA235B00E35C002B34D0CC
:10033000CA2301225B00E254281C6B6A28309847CC
:10034000C8235B00E358002B0BD0C62345225B007B
:10035000E2540620FDF7E2F9C9E70020FCF76AFE47
:10036000DDE7C6239A225B00E254C0E722785107FA
:10037000C6D57C229A5A0430028178229A5C827215
:1003800077229B5CC372002303734373134B036197
:10039000FBF7E6F846236355A9E711498E22520080
:1003A000A15080218A2209015200A1508C225200C2
:1003B000A35486235B00E0180CF068F9A7239C2166
:1003C00001229B008900E25460180CF05FF9AFE74E
:1003D000406B002038690020D06C002051D700000D
:1003E0008D24010038B5234CD0256D0063590022BF
:1003F0009868D968FEF794F9D2235B00E050002892
:100400002BD0D42300225B00E2541B4B7722995C53
:10041000EA22FF32A154C178F4225200A154F522FD
:1004200002215200A154C188F6225200A1528188B3
:10043000F8225200A1521A7AFC235B00E2540F4AC0
:10044000FE235B00E250F0235B00E018FBF728F886
:10045000CC2323225B00E25438BD6259CA212823F1
:10046000D154CC2322225B00E2540A20FDF756F936
:10047000F2E7C046406B002038690020A508010063
:1004800038B51B4CD0256D00635901229868D96896
:10049000FEF746F9D2235B00E05000281CD0D4239D
:1004A00000225B00E254C38812497C228B52F42262
:1004B00050215200A154F8225200A3520E4AFC23AC
:1004C0005B00E250F0235B00E018FBF743F8CC231D
:1004D00029225B00E25438BD62592823C321D1543C
:1004E0000A20FDF71BF9CC2322225B00E254F2E73D
:1004F000406B002038690020AD37010008B5FFF7D8
:10050000BFFF08BDF8B58B790C1C151C012B01D061
:100510000120F8BD4E7A0B7A36021E438B7A0A7B95
:100520001B041E43CB7A1B061E434B7B1B0213434B
:100530008A7B12041343CA7B1206171C1F43FAF767
:10054000C3F80368B342E3D14368BB42E0D14D4EE8
:10055000CC277F00F35D1A1C2C3A012A1FD9DA2B15
:10056000D6D1494B6E229A5C022AD1D1A27E617EFD
:1005700012020A437A215A52F42353215B00F154A8
:10058000F8235B00F252414AFC235B00F250F02357
:100590005B00F018FAF7DEFF3123F355B8E7D623F6
:1005A0005B00F0180CF09AF8A37E627E1B021343E6
:1005B000374A934259D0E27E002A56D1D0214900D1
:1005C0007058314C282142547A216352D2235B0067
:1005D000F35899882180D878782160541A701A7E4F
:1005E0000132D2B20F2A4AD90F226272597E2220DA
:1005F0002174F6F7F5F8FCF7C3FD6B68002B18D0F3
:1006000059781A78090211439A781879120411431B
:10061000DA78120611435A79120202439879DB798B
:1006200000041B0602431A43D2235B00F35899606F
:10063000DA60F42353225B00F2547A23E25AF8235F
:100640005B00F252114AFC235B00F250F0235B0086
:10065000F018FAF77FFFCC232E225B00F2547823A8
:10066000E15C2420F6F7BCF852E7D2235B00F35894
:1006700004219A7E8A439A76FFF702FF48E7627266
:10068000B4E7C046406B002038690020AD37010058
:10069000FFFF000008B5D4210C4B49005A5C013221
:1006A000D2B25A54022A07D8CC2228215200995497
:1006B0000320FDF787FE08BDD22252009B5804217B
:1006C0009A7E8A439A76FFF7DBFEF4E7406B0020C0
:1006D00010B50378002B0DD00A4CD0225200A1583F
:1006E00028228B540A20FDF719F8CC2322225B0024
:1006F000E25410BD8168034ADA235B00D150FFF752
:10070000C9FFF6E7406B00200378D02210B55200F5
:100710001C4C002B18D1A258117C032909D0282188
:100720005354CC2322225B00E2540A20FCF7F6FF4C
:1007300010BD154B1B7A1B07DB0F10D1DA225200BC
:10074000A350FFF7A7FFF3E7A15828228B540A20F4
:10075000FCF7E4FFCC2322225B00E254E8E7F42319
:1007600081225B00E254094AF6235B00E250F02349
:100770005B00E018FAF7A6FECC232B225B00E254C4
:10078000D6E7C046406B002038690020D106010042
:1007900010B500290AD0124AD2235B00D358042195
:1007A0009A7E8A439A76FFF76BFE10BD0C4CDA23D3
:1007B0005B00E258F532FF32E2500A4ADE235B006A
:1007C000E250DC235B000122E254D6225200A01842
:1007D0000BF05CFFCC232D225B00E254E5E7C04622
:1007E000406B0020E907010008B5144B1B7A1A077B
:1007F0000AD5134AD2235B00D35804219A7E8A4338
:100800009A76FFF73DFE08BD0D48E42302225B0007
:10081000C254D2235B00C358E522D98852008152CA
:100820009A88E8235B00C252064AEC235B00C25060
:10083000C130FF30FAF79AFEE5E7C046386900207C
:10084000406B00204908010038B5144CCC256D00E0
:10085000635D2D2B00D038BD0378002B09D0D22347
:100860005B00E35804219A7E8A439A76FFF708FEDC
:10087000F1E70B4ADE235B00E250DC2301225B0040
:10088000E254DA2378225B00E250D6235B00E018C2
:100890000BF0FCFE2C236355DDE7C046406B0020C7
:1008A000FD04010070B5837C041C002B19D0022BC1
:1008B0000AD8D223324A5B00D3589A7E02218A4357
:1008C0009A76FFF78FFD70BD2D4CD4225200A35CA9
:1008D0000133DBB2A354012B48D9D2235B00E35888
:1008E000EBE7274DD2225200AA58264ED0887C2111
:1008F000705220887A21705291883180A068E16816
:100900009060D160F4214900685C782170541370C4
:10091000137E0133DBB20F2B25D87372517E222058
:100920003174F5F75DFFFCF72BFCD2235B0011223D
:10093000E858217CA256FCF763FCF42345225B00B7
:10094000EA54F8235E365B00EE50CC2324225B0091
:10095000EA54F0210C4AFC235B004900EA50681875
:10096000FAF7F8FDAFE70F237372D7E7F0235B00C8
:10097000E018FAF795FDCC2323225B00E254A2E7AE
:10098000406B002038690020AD37010038B5C12226
:10099000134B920099580278E12A08D00A73C022BA
:1009A000A521920099540120FCF7B8FE38BD0D48EE
:1009B0001C5C032CF2D80C4A7C21555A0B4901349B
:1009C0005D521188C62292009952C022A421920041
:1009D0009954C22292001C549818FAF7C7FDE5E713
:1009E000406B002001030000386900201203000062
:1009F00038B50E4CE26F137CDB0906D11222782346
:100A0000E2540620FDF7DEFC38BD7825132363553C
:100A100000229023E254064A9423201CE25088309E
:100A2000FAF756FD14236355EEE7C046406B0020ED
:100A30004D1D010010B52848C0239B00C35CA32BAB
:100A400002D0A52B14D010BDC1239B00C358002297
:100A50001A730278D10701D4C2221A731A79002AB4
:100A60001BD11B7B002B20D0C023A5229B00C2548E
:100A70001A4C201CF5F730FF031C9B680C3098477C
:100A8000174923686218002B0AD0C023A3219B00BA
:100A9000D1540120FCF742FED5E7C1221A73E3E7E7
:100AA000C02331219B00D154CDE70E4B7C22995AB3
:100AB0000D4A81521A88C6239B00C252C023A42229
:100AC0009B00C254094B0122C254C2239B00C01890
:100AD000FAF74CFDB7E7C046406B0020446E00209B
:100AE000FCFCFFFF38690020120300000103000036
:100AF000F8B55F4656464D464446F0B43A48802223
:100B000052003A4D81586F22AA5C90279446602289
:100B1000AA5C0626D4095207FC23D20F3F18A04630
:100B2000B346C358914600248026BA4604E0052AFD
:100B300048D020338B4216D21A78062AF9D0012ADF
:100B4000F5D1825D002A04D0524612689F68BA42ED
:100B500033D06746002F02D05A78022AE9D11C1CF4
:100B600020338B42E8D35F354346D9016B787F222F
:100B70001A400A434E460421B3008A431A436A705E
:100B8000002C2ED0A2888823C252031C9033A16867
:100B9000E26819605A60A37EDA071BD40522982305
:100BA000C25415227823C2540720FDF70BFC3CBC2D
:100BB00090469946A246AB46F8BD57467F68DA682C
:100BC0009742C6D15A78022A08D0012291465A4645
:100BD0001A70AEE798230122C254E2E70127B84613
:100BE000F5E7FFF705FFE2E7406B002038690020DA
:100BF000F8B54D4C7822A35C112B02D0172B08D0EE
:100C0000F8BD2378E56FD80716D41723A354C22361
:100C10002B76464C201CF5F75FFE031C5B691830F1
:100C20007C3C9847E76F002F1DD011227823E254B7
:100C30000C20FCF773FDE3E7AB68E9680B4305D0D4
:100C4000281C0830F9F744FD002810D0384A6E23DC
:100C5000D35C022B02D06B7C002B13D1FFF7C8FEB4
:100C60007823E35CCAE7E6227823E254C8E7304EF3
:100C70006E23F35C012B0FD9C22117227823E25493
:100C80002976C6E7F123237000228023E254FFF780
:100C90002FFF7823E35CB1E7EA68FC2394468022C7
:100CA0005200A868E358A1581A78062A02D09F6813
:100CB000874204D020338B42F6D3C821DDE7DF68BA
:100CC0006745F7D1012A12D0C221052AD5D15A7819
:100CD0005F367178022A21D004220A4372700622FC
:100CE0001A7078231722E25400232B7691E7988814
:100CF00088216052211C90319D68DE680D604E6035
:100D00009B7EDE0700D405229823E2547825152324
:100D100063550720FDF756FB635D6FE78022524263
:100D20000A437270DBE7C046406B0020BC6B0020BA
:100D3000386900200A4A10B5D06F8368C46823431D
:100D400006D18023D15C0131D154FFF7D1FE10BD13
:100D500017247823D45401760C20FCF7DFFCF6E747
:100D6000406B0020F0B544465F4656464D46F0B411
:100D7000002385B0029388464179804F6E46090171
:100D800007367918041C0C31301C01220DF02CFAA6
:100D9000237BE56B0A2B19D8794A9B00D3589F46D1
:100DA0006978E878AB78C9070002C90F1843C9B25F
:100DB000FCF7B4FB002859D041464379002900D004
:100DC000AFE0FF2B00D1C2E001334371617902A88B
:100DD00009010831791804220DF006FA029B002B54
:100DE00002D0201C414698473378002B03D0201CAA
:100DF0008038FEF7FDFD05B03CBC90469946A24602
:100E0000AB46F0BDEA78AB78120240461A4309239C
:100E1000002829D003A80280837007F079FAD5E76B
:100E20006A792B7912021A43AB78208A9B46EB78B9
:100E300092461B029C46B622524B92008146995C18
:100E4000584662461043834600294BD0697858467D
:100E5000C907C90FC9B2FCF761FB0028B6D00379F6
:100E6000012293430371B1E71323D3E74246002ADB
:100E7000ACD06B792A791B02434913437A228A5AF0
:100E80009A42A3D02A789207A0D1002802D00279F2
:100E9000D0079BD4227B062A98D1E978AA78090248
:100EA00011438C463748218AB62292008A46815CDB
:100EB000002900D08AE7B825AD0041553349554691
:100EC0004352B9239B006146C152BA239B00C552CD
:100ED0002F4BC55201238354B72292008018FEF78E
:100EE00005FD73E7B82082009954284950465852AE
:100EF000B9215A4689005A52BA21484689005852A7
:100F000023495852B620012180001954B721890085
:100F10005818FEF7EBFCE878AB78000218438346DC
:100F200094E7002B0BD017491A4A8A5C191C11410F
:100F3000CAB2002A00D101229B1ADBB243715A1EA9
:100F40009341027901218A431343037191E70D4ACA
:100F5000B225AD00B3208000535984461979C807E3
:100F600003D559794908013159716046115A5059D0
:100F7000C900083341188B42F0D327E768F101001C
:100F800058F00100406B002038690020E2020000A8
:100F9000E6020000CE020000F8B544465F46564621
:100FA0004D46F0B49446041C644A654801238046CB
:100FB0007A2792469946E56B40466A792B79120268
:100FC0001A43C35B934204D06379193B012B00D8C9
:100FD00099E0022959D000D88FE003295BD0042979
:100FE00000D090E06B78D9074FD4EA78AB78120242
:100FF0001A43524B9A4248D1502212199246171C5A
:1010000000E01F1CBB69002BFBD13B7938209846C0
:1010100083464346002B38D169792B790902386918
:101020001943FBF7E5FF3861002800D180E002207A
:10103000FDF786F9061E00D17DE0211C80220DF00F
:10104000D3F874225242921991465B46E25CE16BFE
:1010500048460DF0C9F84846331CF06342463869EB
:10106000503351466366B166726683884121338688
:1010700005237354301CFEF7D1FD3B7A3A790133D6
:1010800090463B724346002BC6D03CBC90469946E6
:10109000A246AB46F8BD261C503600E01E1CB369C4
:1010A000002BFBD16B78D8072DD4EB78A9781B02E5
:1010B0000B43534527D13379002B2CD0A36E4946DF
:1010C0003171002B24D0626E5A61626E002A00D00A
:1010D0009361201C8038FEF78BFC337A013BDBB236
:1010E0003372002BD1D17379002BCED0341C503CFD
:1010F0004923E35C01219C465DE7002903D1201CC4
:10110000FEF78CFDC1E7201C6146FFF72BFEBCE714
:101110007171337AE5E73069111CFBF769FF3061C3
:101120000028CBD08388052223864123E254E6E7BA
:1011300001233B71A9E7397988466AE7FFFF000080
:1011400038690020F8B54F464646C0B4184E5023C3
:101150000022F25468239B1999464923B46E98469D
:10116000502706E00122013BF25563812468002CE0
:1011700011D06389002BF5D1211C48462568F5F76D
:10118000B3FB201C50384346217BC25CFFF704FFB1
:101190002C1C002CEDD15023F35C002B03D1301C10
:1011A00054300BF09BFA0CBC90469946F8BDC046F3
:1011B000406B0020F0B5474680B4C2233B4F5B0034
:1011C000FC58C4235B00FB5C061C572B04D0384A38
:1011D000384B1A80F5F70AFC002C61D0231C203311
:1011E0009E4204D0344A334B1A80F5F7FFFB337824
:1011F000002B3BD1656973689D4345D0F368307A15
:101200009C46002811D02022002101231D4206D037
:101210006646765CCC2E00D99D430131C9B2013AB5
:101220005B00002A01D08842F0D801232374656155
:101230004C23E35C214A23767723D35C211C822054
:1012400063761A314000F5F77FFF211C2C311C48D2
:10125000F5F75EFF251C1B4B0835E361281CFAF7E8
:1012600073F9C42356225B00FA540AE0FA2B11D01A
:101270005422A354C42358225B00FA540920FCF7DB
:101280004DFA04BC9046F0BD0F4A0A4B1A80F5F7A0
:1012900099FBF6E70D4A074B1A80F5F793FBF0E749
:1012A0000B4A044B1A80F5F7A1FB97E7406B00202F
:1012B000A83000005C380020AA3000003869002007
:1012C0000202000071E40000BA300000BB300000F0
:1012D000A9300000014A7A23D05A704738690020AB
:1012E000014A7123D05C70473869002030B50C4A40
:1012F000F023F421D35851581A78141CD50703D57C
:1013000002689D68AA4203D010338B42F4D330BDEB
:101310004268DD68AA42F7D1012294431C70F6E7C7
:10132000406B002038B5041E32D0F9F7D1F90028FF
:101330001ED124CC1A4CFC23E05880235B00E158DA
:101340000378062B02D08368934213D02030884262
:10135000F6D3F023E058F423E1580378DC0702D5F4
:10136000836893420FD010308842F6D3002038BDF6
:101370000C48FCE7C368AB42E8D181880A4B0430D3
:101380009942E6D8F3E7C468AC42ECD10230EEE70C
:10139000064A074B1A80F5F715FB0020E7E7C04621
:1013A000406B0020B2690020F7FF000011310000FF
:1013B0005C38002010B5011E12D00F4C201CF5F730
:1013C00065FA383C3C22A35CD62B0FD0703B022B35
:1013D00000D810BD094A0A4B1A80F5F7F3FAF8E76E
:1013E000084A074B1A80F5F7EDFAF2E77023A35489
:1013F0000820FCF793F9ECE7786B0020D13000006F
:101400005C380020D0300000F8B5524CCC256D007F
:10141000635D212B32D0222B00D0F8BDD0235B009E
:10142000E3584D4E7A22B25A9868D96818635963C6
:101430005A857822B15CD025382299546D006359C1
:1014400028229A5C002A36D0181C28301B6A98473C
:10145000D2235B000022E250CE235B00E358002B36
:1014600007D00A20FCF75AF9CC2321225B00E25472
:10147000D3E7CC23DA225B00E254CEE7CE21490049
:101480006018F5F729FAD0277F00E051437F324EEC
:101490003372FDF797FC2378DA062FD5E3591A7CCF
:1014A000023A012A2CD9C22128229954CC22222185
:1014B0005200A154B6E7D2277F00E359321C803294
:1014C0001869596910605160311C7C311120F5F7A1
:1014D00067FE311C78311020F5F762FEFBF750FEF5
:1014E000BD232370E35900209A88737AD900CB1A60
:1014F000DBB20021FCF730F86359A5E7E359D2E7E6
:101500003222625530222270197F83229200A15428
:101510009869842292008721A0508900002262509D
:101520000E4962540E4985229200A1508822012161
:101530009200A1549B7C002B05D0F021490060183B
:10154000FFF738FF69E786229200A354FEF754F9AB
:1015500063E7C046406B0020386900201A02000093
:1015600035F80000F0B55F4656464D464446F0B4A7
:10157000B44F3C23061CFB5C806B8BB08146712B07
:1015800006D00BB03CBC90469946A246AB46F0BD97
:1015900007AC102323800023A36066603423F35C30
:1015A0000E2BEED90378011C002BEAD10979C07803
:1015B0004A460902014350794D460004014390799F
:1015C0000006021C0A43297AE87909020143687A75
:1015D00000040143A87A0006031C0B43012040428B
:1015E000C11712184B41581C01D1D11CC9D8BA6B74
:1015F0009046002A00D119E139234546EA5C3A2396
:10160000EB5C934200D89EE0EB6B12019A18002B22
:1016100000D111E1934253D24946C87809794D4629
:1016200009020143687900040143A87900060843D0
:10163000297A8446E87909020143687A0004014363
:10164000A87A00060843012101908A4600206146DD
:101650008346B4460E1C02E010339A422CD95978C6
:1016600018780902014398781D7900040143D8785D
:10167000000601435879000228439D792D04284330
:10168000DD792D062843B142E6D1019DA842E3D180
:101690006046C17EC90901D0514659734D46A978AB
:1016A000480702D551469973A9780125C909AB4667
:1016B000D2D05046D873CFE759466646002942D16A
:1016C000337E48461372B37E4D461B071B0FD37201
:1016D000B37E1B091373F37EDB0953730179C3785F
:1016E0000902194343791B0419438379C0791B0606
:1016F00019432B7A1B020343687A00040343A87A38
:10170000117000060343080A5070080C090ED170CE
:10171000190A13715171190C1B0E90709171D371CC
:10172000AB7840465B07DB0F9373AB78DB09D37371
:101730006B781B071B0F53726B781B09937239234D
:10174000C25C0132C2544A463F4D53787322AA5CB0
:101750001909AA46914200D013E77222AA5C1B071E
:101760001B0F934204D06E23EB5C022B00D008E7E2
:101770001E20211CF5F734F8A368002B00D000E7E9
:1017800004A918208846B56BF5F7DEFC0498059986
:1017900001225242D31712184B415C1C00D1EBE0DE
:1017A0002A79EB7812021A436B792C7A1B041343C3
:1017B000AA79240212061A43EB7923436C7A240493
:1017C0002343AC7A24062343904200D0D9E69942C1
:1017D00000D0D6E60F206844814649461220F5F72E
:1017E000B3FC49460B78002B00D0C9E06E2350466D
:1017F000C35C9C46022B00D1D2E0012B00D1CAE091
:10180000FC23FC5880235B00B16BA046F8580022F3
:1018100007E0358AA3889D421ED02034844200D33D
:10182000C3E02378062BF4D1221CF6E7074A084BC5
:101830001A80F5F7DBF8DFE6064A054B1A80F5F764
:10184000C1F880E7406B002038690020DA300000E2
:101850005C380020DB3000000D79CB782D021D4371
:101860004B791B042B438D792D061D43AB460D7A16
:10187000CB792D022B439A464B7A55461B041D43C8
:101880008B7A1B061D43A94625695D45C5D1636951
:101890004B45C2D1A04200D887E045468222631B57
:1018A00052005B11BD58DB00ED182378062B00D1E8
:1018B00083E0F37E01275B06DB0F7B406370A37838
:1018C0000220BB43804603430420834308221A437B
:1018D0003F231340A370337EE370338AA380738960
:1018E000E38000220023A260E3600A79CB78120231
:1018F0001A434B791B0413438A7912061A43934601
:101900000A7ACB79120213439A464B7A52461B0449
:101910001A438B7A1B061A4391464B465A4622615C
:1019200063618B785B061B0F23768B7B6376A37ECC
:101930001F43A776F27EFBB2D20947465200BB4353
:1019400013438343A3768B78590702D56246012A55
:101950002FD0DB0902D06346022B31D0201CFCF7CC
:10196000C7F91E22B256717F201CFBF781FC2B7930
:10197000072293432B7104E6D41C00D810E729E713
:10198000112041464446F5F7DFFB728923889A42CD
:1019900000D0F6E52AE7AB785A0700D530E7F0E546
:1019A000AB78DB0900D02BE7EBE5141E00D074E721
:1019B000E7E5A37E1843A076D0E70323237078E7FA
:1019C000A37E04221343A376C8E7C04610B5011EC8
:1019D00013D0104C201CF4F759FFC83CCC22A35C58
:1019E000132B11D01933DBB2022B00D810BD0A4AD9
:1019F0000A4B1A80F4F7E6FFF8E7084BC22292017F
:101A00001A80F4F7DFFFF1E7E723A3540D20FBF77B
:101A100085FEEBE7086C00208A3000005C3800206F
:101A200010B5011E14D0104C201CF4F72FFF853C7C
:101A3000C422FF3C5200A35CB72B0FD0543B0C2BAD
:101A400000D810BD094A0A4B1A80F4F7BBFFF8E72B
:101A5000084A074B1A80F4F7B5FFF2E75423A35462
:101A60000920FBF75BFEECE7C46C0020BC300000F3
:101A70005C380020A030000038B5114AE8239B00F4
:101A8000D358002914D0E924A400145902E00433E7
:101A9000A3420BD21A78002AF9D05D888542F6D18C
:101AA000FF2901D09142F2D1012000E0002038BD91
:101AB000044A054B1A80F4F785FF0020F7E7C0467B
:101AC000406B0020A23400005C38002070B54368F1
:101AD00082B09A79041C013AD2B29A710178C8078F
:101AE00001D5002A09D12378012293432370201CB9
:101AF0008038FDF77DFF02B070BD5A78D00730D432
:101B0000237A62686846C908037001924170E18CCB
:101B1000231C418041780078803B6171B821585482
:101B200001986A46BC21585051889022995200224F
:101B3000E0215A50D8215A54E4215A50E8215A50F1
:101B4000D4215A54D5215A548422995C02208143CD
:101B500099541D48211CF4F799FE0320FBF7DEFD84
:101B6000C9E7D8789A7800021043FF21FFF784FF75
:101B7000002809D1A26913789907890F012911D08A
:101B80002178CA07BCD4B2E7A36903211A781C20C4
:101B90008A4301210A43D2B25109890082430A4390
:101BA0001A70EDE7D806400F0728E9D0072507305F
:101BB00028401C268500B3432B4313700028DFD137
:101BC00023788B43237092E7806B0020F8B55F4643
:101BD00056464D464446F0B40D1C43496E23CB5C3B
:101BE000061C171C022B79D0AB79012B76D9E8782B
:101BF000AB7800021843FBF76BFB00280CD0837E08
:101C0000DA0709D42023F35C742B59D80220FCF79F
:101C100039FB002809D153E02023F35C742B4FD803
:101C20000520FCF72FFB00284AD0021C0C3284232D
:101C3000C2502023041CF35C80342372726A6168F2
:101C40008A4202D2D318994242D3716A227A6068DA
:101C50000CF0CAFA237A32899B4628239246211C2B
:101C6000F25C984660682A2310319146F65CFBF7D7
:101C70003DF92423E25C5B469A1A2523E25452463E
:101C8000E28443464A46E2542923E654237801225B
:101C9000134323706B78207802229B079043DB0F5D
:101CA000FA005900071C0F4307210F401743FB227E
:101CB00017402770002B11D1201CFFF707FF0DE004
:101CC00068792B7900021843E979FBF7C5F805E03C
:101CD000064A074B1A80F4F789FEB6E73CBC9046EB
:101CE0009946A246AB46F8BD38690020A7310000EE
:101CF0005C38002008B5031C803B1A78D10704D457
:101D00000138FF38FDF774FE08BD181CFFF7DEFE32
:101D1000FAE7C04630B583B06D4607351620291C5A
:101D2000FF30F5F711FA074C0748211CF5F7F0F9D9
:101D30002A78206892008318636000210CF0E8FA8A
:101D400003B030BDE06E002011020000F0B5474640
:101D500080B43E4C0778E66F002F0CD0FD23237033
:101D6000037817217822A15433760C20FBF7D6FC98
:101D700004BC9046F0BD68221219101C9046F4F77E
:101D8000ABFD5023E25C051C002A18D1337CDA0736
:101D90002BD49A0755D45A074FD49A0621D4DB097D
:101DA00005D12B490022002380310A604B601223A9
:101DB000237017227823E25400233376D5E7201CC2
:101DC000E75454300AF08AFC4927281C5038C25D79
:101DD0000121FFF7E1F84046F4F77EFD051EF4D13E
:101DE000D4E7FFF797FF337CD9E7AF239B00B027F9
:101DF000E558BF0003E0E35918359D4206D22B7821
:101E0000002BF8D0281CFBF749FBF4E7FCF732FD68
:101E1000C227104D04E0181C1F741030DB6898476F
:101E2000281CF4F759FD031EF5D10B4A1023AD18F9
:101E30006A689A436A60337CABE7FCF7E9FA337C63
:101E4000ABE7FCF78BFD337CA5E7C046406B002079
:101E500038690020E06D002060FDFFFFF0B54746C7
:101E600080B4037882B0002B0ED0064C626900204B
:101E70001372FBF753FCC223237402B004BC9046D8
:101E8000F0BDC046406B0020EC4E01235B42338026
:101E90006E23F35C002B00D0012300257372758044
:101EA000B580F5800CF08CFA00270123B072B37472
:101EB00037747774FCF752FDFCF784FFFBF760F989
:101EC000DF4C5023201CE75454300AF007FC6023F9
:101ED000E7542023E365DB4B412263664C23E25445
:101EE0006268D94B211C134084206360703140002C
:101EF000A5662564A564F5F727F9211C6C31D34844
:101F0000F5F706F97023E35C002B0CD0E56E002397
:101F1000002070215A01D218D20050550133625C62
:101F2000DBB29A42F6D8CC23DA225B00E254CE230D
:101F300000255B00E5506268C54B65671340636030
:101F4000D0235B00E550D2235B00E550D4235B0037
:101F5000E554D6235B00E0180AF0C0FBC423B72287
:101F60005B00E254C2235B00E5508A23FF33E55453
:101F7000D6223C23E254C6239A225B00E254C823B3
:101F80005B006268E550B34B6F4613406360CA2341
:101F90005B00FD700E200337E554FF30391CA5634C
:101FA0000195F5F7D1F88320800001A9F5F7B0F885
:101FB00001983A78EC23E050131C7F2A00D93BE1CA
:101FC000D021DAB26354D02500230021002A08D0A2
:101FD000DA008218D17051600133625DDBB29A423F
:101FE000F6D80025D123201CE554D430F4F744FE64
:101FF000201C0021502278300CF08AF97823984672
:102000004246E623A354C02331229B00E254924B64
:10201000924AE554C1239B00E550C8239B00E2503F
:10202000C42302229B00E254FCF7F2F9B3239B0085
:102030008520E1184000F5F787F8B2229200A11838
:102040008748F5F765F8B3239B00E25AB2239B005B
:102050000021D200E0580CF05BF9824B0127E754D5
:10206000FCF708FCA82362689B00E55010239A4304
:1020700062600CF0A5F96D23F054A9239B008A201F
:1020800001A9E5544000F5F75FF8A7269C239B00C3
:10209000B600E018A5550AF021FBA555A126B6000B
:1020A000A0190AF01BFB0CF08BF96F4980B2F2F714
:1020B000C1F89E2389B29B00E1509F239B00E75407
:1020C0006A4AA0239B00E250019AA3239B00E2509E
:1020D000A4239B00E754664AA5239B00E250654B6E
:1020E0000026E554A6239B00E55296239B00E018AA
:1020F0000AF0F4FA8C229200A018002140220CF081
:1021000007F98C2348229B00E254626880239A439B
:1021100099239B00E75462609A23574A9B00E25040
:102120008A239B00E1180A200D604D60FF30F5F70F
:102130000BF88B229200A1185048F4F7E9FF8A238C
:102140009B00E35C00219A00D3181A018B239B00AB
:10215000E0580CF0DDF81322CC23E254C823E550FC
:10216000B4239B004246E254B5239B00E550B623BE
:102170009B00E654424ABB239B00E25090235B0045
:10218000E0180021482267680CF0C2F89023AA22C8
:102190005B00E254B4225200A3181E749D60DD60FF
:1021A0005D601D60BE235B00E550C0238E225B0096
:1021B000E254CB239B00E550CA2366229B00E254E5
:1021C000DF239B00E550DE2316229B00E2542D4BBB
:1021D0002D481F40BE239B00E1186760BD26F4F721
:1021E00097FFB6008B20A1194000F4F7ADFFBD2387
:1021F0009B00E25C131C082A1CD8BD21DAB28900BE
:1022000063540023002A0AD0BE25AD000020665981
:10221000DA0090510133625CDBB29A42F7D8FFF7E3
:1022200079FD1A4B00221A605A60043B36221A705C
:1022300000231BE60823E0E77F23C1E6386900207E
:10224000406B002045110100F7BFFFFF06020000B0
:10225000FFFBDFFFBFFCFFFF010300008D09010052
:1022600009020000CE0200004C1D00004DFA0000E3
:1022700005FB00009A02000041D6000007020000A2
:1022800009D60000FB5FF3FF21020000446B002031
:10229000014B18887047C04638690020014A7C23EA
:1022A000D05A704738690020024B8033186859684B
:1022B0007047C0463869002003490268436880318E
:1022C0000A604B607047C04638690020014A6E239F
:1022D000D05C704738690020014A7823D05C704791
:1022E0003869002008B5044A7823011CD054242002
:1022F000F4F776FA08BDC04638690020014BD8686B
:102300007047C04638690020014BD8807047C046EE
:102310003869002008B5044B011C18742220F4F71A
:102320005FFAFAF72DFF08BD38690020014B588885
:102330007047C04638690020014B98887047C046F6
:1023400038690020024B00225A809A807047C046AC
:10235000386900200A4B1B7C98420ED0C21AD11754
:1023600052184A40C72A04D9002283425241D0B2AF
:102370007047834280414042FAE70120F8E7C046B7
:102380003869002038B5037C011C042B24D0012BB4
:102390000BD01A4CCC25201C9D3CFF3C6D00F4F763
:1023A00075FA635DDA2B11D038BD154C201CF4F79B
:1023B0006DFA144BE418DE239B00E25C162AF3D17D
:1023C0001722E2541320FBF7A9F9EDE70A20FBF7E7
:1023D000A5F921236355E7E70B4C201CF4F756FAC7
:1023E0000A4BE418CA239B00E25C662ADCD1672210
:1023F000E2541220FBF792F9D6E7C046DC6C0020CD
:10240000BC6E002084FCFFFF6C6E0020D4FCFFFF3C
:1024100030B5037885B0041C0D1C012B19D0002D9C
:1024200012D1237804229343012B03D00623237077
:1024300005B030BD6378022B1ED0134B04225F33EE
:1024400059780A435A70F1E7201C0830FEF74EFF16
:10245000E7E70D4A6F23D35C002B02D04378022BB1
:10246000DDD16A46002368461372A268E3680092D1
:10247000019305F0DDFCD2E7034B80225F335978EE
:1024800052420A435A70D1E738690020F8B5244A0D
:1024900046464F46234DC0B4FC238227EC587F00AC
:1024A000FC2690460AE0013B9BB21380002B35D0FE
:1024B00080235B00EB5820349C421CD221780629F3
:1024C000F6D0AA59A31A5B11EA59DB00D218138877
:1024D0009146002BE7D12388434510D001394B4268
:1024E0005941201CC9B2FFF793FF80235B00EB58D2
:1024F00020349C42E2D30CBC90469946F8BDA37EA2
:10250000DA0703D53D234A461380D1E7FBF7D8FB12
:10251000C30A01339BB24A461380C7E72178DDE73F
:1025200001020000406B002010B5084C011C201C6B
:10253000F4F7ACF97C3C7823E25CE62A00D010BDCD
:102540001122E2540C20FBF7E9F8F8E7BC6B0020FD
:10255000F0B54E4657464546E0B4537D0E1C012B60
:1025600062D90778FA0990467B0663D44B78DD067A
:102570005AD50B7A497A327B09021943B37A534C04
:102580001B041943F37A1B061943737B1B02134385
:10259000B27B12041343F27B1206151C1D43FC236D
:1025A000E05880235B00E2580378062B03D0836851
:1025B0008B4200D182E020309042F5D3727933799A
:1025C00012021A43101C00219246FAF7A7FF0028B6
:1025D00003D00379012293430371B22080000125C7
:1025E000B3212358AC46890006E0625A2558D20030
:1025F0000833AA1893420FD21A79D507F5D55D880A
:102600005545F2D16546AA431A71625A2558D2003F
:102610000833AA189342EFD32D4C7379317922886D
:102620001B020B439A423CD001201CBC90469946A9
:10263000A246F0BD264C6E23E35C022B35D08A23E4
:10264000E05C0028F1D0BF06FF0F25D06E23E35CCD
:10265000022BE9D1803400220023226063601B4CEE
:10266000A026A15D0029DFD1211CB0310A604B609A
:10267000184934228A5CB823E2544546B923E5540C
:10268000154ABA23E754201CBC23E250A830FFF7B8
:102690004BFF0123A355C7E735200021F4F7A0F82D
:1026A000D4E74246002ACED1BEE773790979228861
:1026B0001B020B4300209A42B7D1C4E7C368AB4268
:1026C00000D078E70121FFF7A3FE77E7406B0020F9
:1026D0003869002030F1010041E8000010B50A4AD5
:1026E000FC23D3588224C31A640012595B11DB0007
:1026F000D3180722141C0C401979914321431971F6
:10270000FBF7F6FA10BDC046406B002038B5094C07
:10271000A725AD00635D022B0AD0002363559C23DF
:102720009B00E01809F0DAFF01236355FDF78EF9ED
:1027300038BDC046406B002010B5094C011C201C60
:10274000F4F7A4F87D3CC023FF3C5B00E25C8E2ADA
:1027500000D010BD8F22E2540F20FAF7DFFFF8E718
:10276000BC6C0020F8B54F464646C0B4041E07D0E6
:102770009023C358002B03D08C23C35C002B08D1BB
:102780009F4AA04B1A80F4F71DF90CBC904699465D
:10279000F8BD18239C4E43737423F35C5B004375B0
:1027A0008823C25C8A23C05A9D23E55C002D08D093
:1027B000022A00D1A2E0FF21FFF75EF9002800D035
:1027C000A5E09D230022E254904B00251B78DA07F8
:1027D00000D48EE08823E35C012B00D1B3E0022B10
:1027E00000D0A1E08A23E25A894B9A4200D8A1E0A6
:1027F000082708237F4298469023E558ED19281CA6
:10280000FBF702F96B78042293436B708A23E35C35
:10281000AB70231C8A335B78EB709823E35C002B4E
:1028200000D08EE07423F25CA9795200FF23FE2AC7
:1028300000D8D3B2994204D0764A724B1A80F4F78A
:10284000C1F88823E35C012B00D181E06B78012281
:1028500093436B708A23E35A6D4A93421DD96E4AA3
:10286000934204D005339BB2022B00D9A5E0192373
:1028700063737A23F05AE9799946FBF7D9FB02286A
:1028800000D1B7E0AB79012B07D94B46F25A201C97
:10289000EB795830111CFAF741FD637B182B00D1FE
:1028A00090E000236022A3662461A3545C22E366C7
:1028B0002367A3545D22A3547A23F35A3D20238334
:1028C0008C23E25C40234244E2549023E358534972
:1028D000DF196764F3F718FF9D23E35C002B61D1D8
:1028E000211C08314E48F3F7D1FF0320FAF716FFF9
:1028F0004BE7201CC221FCF7CDFD46E77A23F35AB3
:10290000834204D0FCF720FC002800D159E70123C2
:102910009D223E49A35409780B4000D05AE7A354A6
:10292000201CFFF709FF30E73E4A364B1A80F4F7C8
:1029300049F82AE7002D39D1082708227F4290461E
:102940005AE7AB717DE7092709227F42904653E79A
:1029500001226B7891464A4613436B708A23E05AF2
:10296000FF21FFF789F82B7A03229343002835D102
:102970002B72182363739923E25C072111402A7A92
:102980001C20890082430A432A72E25C2B7A1F21B1
:1029900052010B4013432B728823E35C012B00D1BF
:1029A0007BE757E7201CFFF7C7FEEEE600229D23DA
:1029B000E254201CFFF7C0FEE7E6201CC121FCF713
:1029C00069FDE2E69A23E35C002B00D169E72B78EE
:1029D0003F221A40402313432B7062E74A461343B9
:1029E0002B721A2363737A23F05AE979FBF720FBE1
:1029F0000228C0D1201CD221FCF74CFDC5E6C04600
:102A0000B03100005C38002038690020406B0020A5
:102A1000F7FF0000B7310000FFFF00002C0100208D
:102A2000806B0020B131000010B5002818D00E4B8B
:102A30002030802252009A580424904203D30DE0A3
:102A4000203090420AD20378A343012BF8D1437877
:102A5000022BF5D183888B42F2D010BD0020FCE719
:102A6000014BFC229858E4E7406B002010B50D4C58
:102A70007C210D4A645A8021FC234900D3585158C7
:102A800002E020338B420AD21A78062AF9D09A88BB
:102A90008242F6D1DA88A242F3D1181C00E000206D
:102AA00010BDC04638690020406B002010B5124AA6
:102AB0007A23D35A041C83421AD0FFF7D7FF002889
:102AC00003D08368C268134310D10C4AF023F42169
:102AD000D35851581A78D00702D55A88A24204D048
:102AE00010338B42F6D3002010BD181C0830FBE7D2
:102AF000F7F7EAFDF8E7C04638690020406B002090
:102B0000F0B5474680B40127C46B7F420786061C98
:102B1000201C0D1CFAF778FF23780322934301222F
:102B20001343237004235B42A370E770EB7AA37115
:102B30006B7BE371A888030A20716371FFF7B6FF0E
:102B4000002800D16DE062781023134363700CC835
:102B5000110A22726172110C120EE2721A0AA1722B
:102B60002373627308211A0C1B0EA273E3731027E0
:102B700010248846F16B01230C19627823707823A6
:102B80001A4018239A4320218A4362706A785206B9
:102B9000920F012A40D0627840218A4362706A789D
:102BA0005106890F1CD1D10613D462789A43131CA5
:102BB000082213436370AB7A0637A3702B7AE37055
:102BC0006B7A2371AB7863713823F75404BC904659
:102BD000F0BD62789A43131C102213436370EAE736
:102BE0002889FFF763FF0028E5D06278202313438C
:102BF00063700CC8110AA271E171110C120E62729D
:102C000047461A0AA372E27210371A0C1B0E217281
:102C100022736373FFB2CEE762784023134363707D
:102C2000C9E70023082708249846A3E7F0B54646DD
:102C30004F46C0B483B08046161C9946FFF736FF56
:102C4000002831D00368B3422BD00220FAF766FD8A
:102C500000270122164B8020FC21400059581D58A6
:102C60000C78062C02D08B68B3420ED02031A942DA
:102C7000F6D300924046321C4B46FAF7FDFC381C56
:102C800003B00CBC90469946F0BDCB684B45EDD1E6
:102C900043468B80D3008A7E082082431A438A767B
:102CA000EDE743684B45D0D101270022D2E7C0466B
:102CB000406B002010B5064C011C0020A14202D838
:102CC000141C1C4300D110BD081CFFF7AFFFFAE72E
:102CD000F7FF0000F0B54E4645465746E0B4537D39
:102CE0008946161C1569072B00D89DE06F78FA06F7
:102CF000BF06D20FFF0FBF18791CC9008B4200D24C
:102D000092E0002A00D095E02979EB780902194376
:102D10006F4BAA789846AF239B004046C458B02317
:102D200098004346185803E01834844200D37BE0EF
:102D30002378002BF8D0A37A9342F5D1A3888B4255
:102D4000F2D1EB79E2789A426ED9E3706A78900614
:102D500024D5791EC9B2A87901316A79C9006918E8
:102D6000000210434A780F7812023A438F783F04EA
:102D70003A43CF783F063A4392464A790F79120296
:102D800017438A79C9791204090617430F43514939
:102D9000884203D85146394300D08BE061782089BE
:102DA0004906890F01394A425141C9B2F28AFAF7FC
:102DB000D3FB2879EB7800021843474B7A229A5AC2
:102DC00082425FD06B78D90619D56A7A2B7A1202C3
:102DD0001A43AB7A297B1B041A43EB7A1B061A436E
:102DE0006B7B1B020B43A97B09040B43E97B0906A0
:102DF0000B433849884202D8111C194360D14A4616
:102E00009379012B53D9013B237362780423134335
:102E10006370B1239B004046C25C002A04D1932218
:102E2000C2540520FAF77AFC00201CBC9046994653
:102E3000A246F0BD284829797A23EA78C35A0902C4
:102E400011438B4200D063E76A7A2B7A12021A434D
:102E5000AB7AEC7A1B04134324066A7B1C432B7B5E
:102E600012021A43AB7B1B041343EA7B12061A437C
:102E70009046F7F729FC0168A142D5D14368434544
:102E8000D2D141E72269002A1DD000211174F18AB4
:102E900051829B7C002BC7D0101C1030D368984700
:102EA000002323616378082293436370BCE7012306
:102EB0002373AAE73B1C5246FFF7B8FEE3786DE7A1
:102EC000FFF7B4FE9BE79B7C002BE9D1ACE7C04643
:102ED000406B0020F7FF000038690020F8B55F461E
:102EE00056464D464446F0B48423354D5B00EE5CB7
:102EF000F423EA58F023EB580136D31A1B11F618C5
:102F00000F1C304A3049B6B27A23041CB3468A46B5
:102F100091469846631E9BB24B4500D90124564604
:102F200046443388A34239D0F023F422EB58A95801
:102F30001A78101CD60702D55A88A24215D0103331
:102F40008B42F5D3201CFFF791FD002830D081681B
:102F50003A68914228D05B460134013B5946A4B2FD
:102F60009BB2002913D09B46D4E78107F3D499681C
:102F70003A689142EFD1DB687E68B342E2D05B46AB
:102F80000134013B5946A4B29BB20029EBD10F4A50
:102F90000F4B1A80F3F716FD0E480AE0381CF7F7BE
:102FA00097FB0028C0D1D6E7C3687E68B342D2D170
:102FB000201C3CBC90469946A246AB46F8BDC04694
:102FC000406B0020F6FF000038690020063000004A
:102FD0005C380020FFFF000070B586B003AC0092A3
:102FE00001936D46202368812380061C00230A3547
:102FF0001E20211C05930495F3F7F2FBA368002B18
:103000000CD10E4B71229A5C301C002A04D16F2225
:103010009B5C022B07D00A4806B070BD2888694621
:10302000FFF75CFFF8E7074B9E4203D86946FFF7BE
:1030300055FFF1E70BF0C4F980B2F7E738690020DB
:10304000FFFF0000F7FF0000F0B55F464D46564613
:103050004446F0B48DB0071C6846037616AB1B7867
:1030600008910A9317AB1B78017E5BB20B938B0719
:103070009549DB0F954805938946FC230992C25870
:1030800074234846C35C497A0F2B02D8994200D377
:10309000E0E08E4980235B00CD5882235B00C85856
:1030A00000240021A446131C88468A460026049169
:1030B000141C03901878062800D1AEE09A68BA4232
:1030C00000D1B4E004218843012800D199E0002E0A
:1030D0000DD0181B4011039AC0001218301B40116C
:1030E0000399C000081892788078824200D21E1C92
:1030F00020339D42DED8644650464146F9F7DCFF56
:10310000002C00D1ADE0237804229343012B17D08B
:10311000059851464246FCF759F8002800D099E03E
:10312000059A002A00D097E053460133DBB29A4655
:1031300050464146F9F7C0FFA37E10229343A37681
:1031400071234846C35C002B09D0A38809998B42A0
:1031500003D0A37E10229343A376099AA2800598F8
:1031600001232370434243410133694663704300A6
:10317000087E02229043021C1A43A270494678231B
:10318000CB5CE3707C23CB5AE3804B4680331868DA
:1031900059682061616149464B7A0E2B57D92376D5
:1031A0004846037CD108A27E6376012319409A43E6
:1031B0000A43F92345491A40A276FC23CB588222C0
:1031C000E31A52008A585B11DB00D3181A790721E1
:1031D0008A431A710A990B9A201CFAF749F8201CA5
:1031E000FAF786FDA268E3680021A0880091FAF74B
:1031F00043FA201C0DB03CBC90469946A246AB4613
:10320000F0BD5878022819D040460130C0B22033B2
:1032100080469D4200D94DE76DE70498002800D014
:1032200066E7049320339D4200D943E763E7D968FA
:10323000089A914200D045E79C4643E7504601304A
:10324000C0B2203382469D4200D933E753E70133B1
:10325000DBB2A4E70020CDE743460133DBB298465A
:1032600066E7059851464246FBF7B0FF0028F1D1CA
:103270000499002924D0089B09983A1CFFF7ACFE5A
:10328000134B041E9C42E5D8059A002A13D04346EE
:103290000133DBB2984650464146F9F70DFF049BD7
:1032A00008989C80191C9F60D8609B7E10229343D5
:1032B0008B760C1C53E753460133DBB29A46EAE7A0
:1032C000002EC7D00496D6E738690020406B002056
:1032D000F7FF000030B5204B83B01B78041C1A07A1
:1032E00008D51E4B027A1B7A52065B06D20FDB0F03
:1032F0009A4201D003B030BD416800680022FAF75D
:1033000049FB051EF6D0627A237A00920A22A25661
:10331000206861680192124AFFF796FE002813D0D8
:1033200022230022EA5483882B84237A281C6B7082
:1033300022686368AA61EB610A4B08306B62F8F798
:10334000B5F805232B70D5E722230122EA54012387
:103350005B422B84E9E7C046406B002038690020BF
:10336000FFFF000041F60000F0B54D4644465F46C1
:103370005646F0B44B7883B00C1C9146190710D513
:103380001822A7791219261C90461036012F10D04A
:103390000125281C03B03CBC90469946A246AB468A
:1033A000F0BD1023A7791B19261C98460836012F5B
:1033B000EED1494B41464A781B7A52065B06D20F42
:1033C000DB0F00259A42E4D1444B1B781A07DFD566
:1033D0007078337800021843B37871791B0418436E
:1033E000F37809021B061843337901221943B37994
:1033F0001B041943F3791B061943FAF7CBFA8246EB
:103400000028C5D07078337800021843B3787179FA
:103410001B041843F37809021B06184333796279B9
:103420001943B37912021B041943F3791B0619439C
:1034300023791A4343465B789B464B461B7E009399
:103440004B465B7E5BB201935B46FFF7FDFD834617
:1034500000283AD04A46117E527E52B2F9F7D0FE89
:1034600059468B8852461382157542465378514609
:103470004B7063789B07DA0F002B24DA01234B751E
:10348000637922791B02134351464B827278337859
:1034900012021A43B37831791B041A43F3780520DA
:1034A0001B061A4373791B020B43B17909040B43C2
:1034B000F17909060B435146CB6001238A600B70FA
:1034C000FAF780FF64E74A75DAE7012351465B4269
:1034D0000B820F75C9E7C04638690020406B002099
:1034E000F8B54F464646C0B46F4C0D1C23785906BC
:1034F00009D590267600A35DAA2B08D091235B0006
:10350000E35A834249D00CBC90469946F8BD9123BA
:103510005B00E05292235B00644FE55498467A23A7
:10352000FB5A834240D06E23FB5C022BEBD0F9F7B1
:10353000CFFE4723071CA35528D0837E0826B3431C
:1035400083760122C1688068FAF724FA051E28D024
:1035500000230375BA7E6B7801200240D200B3438A
:1035600013436B70BB8881466B82BA68FB68504816
:10357000FFF732FD2882BA68FB68AA60EB604B4611
:103580002B700420FAF71EFF4046255C002D42D127
:10359000902347225B00E254B5E792235B00E55499
:1035A000B1E74346E55CF1E76E23FB5C002BAAD054
:1035B000022B03D06F22BA5C022A4ED0982252000E
:1035C000A3183A1C803210685168186059609C2317
:1035D00003225B00E2543A230022FF33E2549D228F
:1035E00001235200A3547822BA5C94219340A02274
:1035F0005200A350A22308225B00E2542D4AA423C8
:103600005B00E250902345225B004900E2546018C1
:10361000FEF7B8FE77E796230D225B00E254032203
:10362000972352425B00E2520122992352425B00EF
:10363000E25291235B00E25A98235B00E2521E4A59
:103640009C235B00E2509421902346225B004900BA
:10365000E2546018FCF74AF955E7012B00D052E715
:103660007A25F7F731F8026843681148FFF7B4FC90
:103670007B5B8342F5D0114B984200D943E79C23F2
:103680005B00E052982353225B00E2540C4AA023D3
:103690005B00E250902344225B00E25494225200EB
:1036A000A018F7F757FF2EE7406B0020386900207D
:1036B000FFFF000075D70000F9D70000F7FF0000FA
:1036C00039F9000010B5144B01241B7811691C4214
:1036D00002D0537D042B01D0012010BD4B78002B6C
:1036E00009D00D2BF8D1C8788B780002184300213F
:1036F000FFF7F6FEF0E7C8788B7800021843074B17
:103700009842E9D80021F9F709FF0028E4D00379AD
:10371000A3430371E0E7C046406B0020F7FF0000C1
:1037200010B59023204C5B00E35CAA2B00D010BDA9
:103730008022FC235200E358A1581A78062A02D0AE
:103740009A7E100718D420338B42F6D3F023F4224C
:10375000E358A15802E010338B42E8D21A78D00720
:10376000F9D59007F7D5598891225200A1521A78BD
:1037700002218A431A7007E0998891225200A152CF
:103780009A7E08218A439A7691235B00E05A0121B0
:10379000FFF7A6FE90235B00E35CAA2BC7D10220B3
:1037A000F9F7BCFFC3E7C046406B0020F0B50378D3
:1037B00083B0854C002B21D1CC235B00E35C243B00
:1037C000DBB2112B18D8814A9B00D3589F46F423B3
:1037D00046225B00E254F8230F225B00E254CC2324
:1037E00025225B00E2547A4AFC23F0215B00490069
:1037F000E2506018F7F7AEFE03B0F0BDD0225200E1
:10380000A15828228B540A20F9F788FFCC232222C2
:103810005B00E254F0E7D0235B00E3581B7C032BF2
:1038200000D0B3E06B4D7123EB5C002B00D1B7E00F
:103830007A23E85AF42353225B00E254F8235B0016
:10384000E052CC2333225B00E254CCE7F423F8208F
:1038500083225B004000E25421180220F3F774FC3D
:10386000CC2334225B00E254BDE75A4B1A7A002382
:10387000110700D58DE0F4225200A350564AF623DA
:103880005B00E250F0235B00E018F7F757FECC2313
:1038900027225B00E254AFE7D2235B00E3584D4997
:1038A000DB7878228B54F42252000021A154F822B4
:1038B0005200A354CC232A225B00E25493E7D02386
:1038C0005B00E25800212823D154CC2322225B0044
:1038D000E2540A20F9F722FF8EE73E4A7A23D35AB0
:1038E00001A803801023837004F012FDCE235B0037
:1038F000E358002B4FD00A20F9F710FFCC232122E8
:103900005B00E25478E7FCF7BBFD75E7F423522235
:103910005B00E2542F4B1A7AF8231207D20F5B0098
:10392000E254CC2326225B00E2545CE7F4234B22D2
:103930005B00E254D2235B00E3589A88F8235B00D3
:10394000E252CC232F225B00E2544CE7F4234A22BC
:103950005B00E254D2235B00F820E35840002118BA
:103960009A68DB680A604B60CC2330225B00E2542B
:1039700039E7F42345225B00E254184AF8235B0040
:10398000E250CC2324225B00E2542CE7FCF72AFD12
:1039900032E7134B6FE7CC23DA225B00E2542BE7CC
:1039A0007A27EE5B0F4B9E4208D8F6F78DFE011C7E
:1039B000301CFFF793FA7A23E8523BE70AF000FD48
:1039C00086B2EE53F1E7C046406B002084F0010060
:1039D000AD37010038690020090701009669002011
:1039E000FFFFFF00F7FF0000F0B55F464D4644467D
:1039F0005646F0B483B01F1C0CAB93461A780EAB3E
:103A000080461E780D9802235B42684D03809946DC
:103A10006E23EB5C0C1C022B4FD0002F1DD1644B8E
:103A2000984500D884E001230D9F5B423B8008222B
:103A300001AB1A706A465671FE216A4691715A7836
:103A400018789B7812021B041043184303B03CBC47
:103A500090469946A246AB46F0BD00239A46002AFE
:103A6000E1D14046391CF9F759FD002836D00D99AF
:103A700043880B8001798279480729D40621002FD9
:103A800002D1984500D18CE0331C964200D9131C1A
:103A9000DEB25346002B65D0002924D0062922D05F
:103AA0000D9F3B889C4265D09B4563D001AB19704C
:103AB00069464E7169468A71C1E72B880380002FE1
:103AC00003D12B88434500D1012601AB0322B0E787
:103AD0007A20285AA04253D00A21E1E75046FE221C
:103AE000002860D00021334BFC2018585746381A64
:103AF00082277F004011DB59C0001B181B799806F4
:103B00005B07400F5B0F30D10727B84230D07523D9
:103B1000ED5C101CAA4200D9281CC0B2B84221D9C1
:103B200050460D9983883A1C0B8001260421B9E781
:103B30004046FEF79BFF8246002892D0837ED8073E
:103B400022D552461378052B02D05378022B88D108
:103B500004220D9F01AB40461A7001216A4638804D
:103B6000517169E70029A1D09AE71F1C9842CEDB6A
:103B7000071CCCE702230D9F5B423B80012195E7A8
:103B80000807A9D407217AE7022201AB01210D9F82
:103B90001A706A46517140466A46494638809171AA
:103BA0004DE7012675E7514680E7C0463869002099
:103BB000F7FF0000406B0020F0B5C46B474680B4AF
:103BC000B523494F9B00061C201CFD58F9F71CFF2C
:103BD000237803229343012213432370E8886278F9
:103BE000030AE370102313436370404BA0709842A4
:103BF0002FD8FEF75BFF804600282AD06278082382
:103C000013436370F6F760FD0CC8110A22746174E7
:103C1000110C120EE2741A0A237562751A0C1B0E2F
:103C2000A174A275E37541460CC9110A2272617232
:103C3000110C120EE2721A0A237362731A0C1B0E15
:103C4000A172A273E3731821231C38221833B154D4
:103C500019E06378082293436370F6F735FD0CC8CA
:103C6000110A22726172110C120EE2721A0A237387
:103C700062731A0C1B0EA172A273E3731021231C32
:103C800038221033B15403221A702A795A702A7AD2
:103C90009A706A7ADA706B893386AB893382688965
:103CA000124B984216D8FEF7E1FE41230122F2544E
:103CB000002804D0827ED10701D40522F254382393
:103CC000F25C0432F254B42321229B00FA5404BC67
:103CD0009046F0BD064A7A23D05AE179FAF7A8F95E
:103CE0000228ECD1F3E7C046406B0020F7FF00004C
:103CF00038690020F8B546464F46C0B44B780822D4
:103D0000061C9343C8884B70012241233086F2542D
:103D1000F46B0D1CFEF7CAFE8046201CF9F774FEFA
:103D20002378032293430122134323702B7B7F4F7D
:103D3000A3717A23FB5C627823713B1C7A335B7836
:103D400041466371338EA3701B0AE3701023134343
:103D50006370002900D1C6E0DAB208231343637010
:103D6000F6F7B2FC0CC8110A22746174110C120E21
:103D7000E2741A0A237562751A0C1B0EA174E3759E
:103D8000A27543461A685B68110A22726172110CAF
:103D9000120EE2721A0AA1722373627318211A0CAE
:103DA0001B0EA273E37388461824F36B0F221C19B1
:103DB00063784021934363706A785206920F013A08
:103DC00053425A41637892018B4313437F2213403D
:103DD000637002232370AB7AA370A9882B7989467C
:103DE000E3700B0A23712B7A63716B7AA371E888F5
:103DF000FEF73CFE002800D195E07023FB5C002B11
:103E00003CD14B4BFC229A58801A822252009B587C
:103E10004011C000181802799206520FEB78D218A0
:103E2000FE23FD2A00D8D3B2E3714846FEF73EFEDA
:103E3000002800D171E062781023134363700CC82E
:103E4000110A22726172110C120EE2721A0A2373A5
:103E500062731A0C1B0EA172A273E37301256378BF
:103E60002022934363705A061DD50135ED00454469
:103E70003823F5540CBC90469946F8BD2C4BFC22D7
:103E80009A58801A822252009B584011C00018187C
:103E90000279930652075B0F520F39D107229342E2
:103EA000BCD11A1CBAE7A079637900021843FEF767
:103EB000FDFD0028D9D0627801352023E9001343A5
:103EC00063700CC86418110A22706170110C120E14
:103ED000E2701A0A237162711A0C1B0EA170A27192
:103EE000E371EDB2C1E7F6F7EFFB0CC8110A2272DD
:103EF0006172110C120EE2721A0A62731A0C2373A9
:103F0000A2731B0E1022A172E373904610244CE79B
:103F10009A4200DD82E71A1C80E7637810229343FF
:103F2000637000259BE7072278E7C04638690020C8
:103F3000406B0020F0B5474680B4C77900230137B5
:103F4000FFB2994A0373C7716E23D35C041C884681
:103F50008679022B0AD00E2E03D8944AB300D35888
:103F60009F460125281C04BC9046F0BD01250E2E5D
:103F7000F8D82A1C8E4BB2401A42F3D04346002B8D
:103F800000D197E01B780125002BEBD0012E00D14A
:103F9000ADE00E3E721E96410222961BE12B00D12F
:103FA00085E00AF00DFAE7798023DB00BB40013B96
:103FB000184060810225B742D3D86089F6F798FB94
:103FC0007C4E40096081211C301CF2F75FFC321CE2
:103FD000683A5023D15C0029C4D10121301CD1544E
:103FE000143808F053FBBDE7031C503B188AFEF75A
:103FF0003DFD0C2E7DD0012F68D06F4B63810B2EC1
:104000004FD0424613780226002B01D10B23A37117
:10401000351C31E00AF0D4F90005000D6081E77924
:104020000126C7E7012F45D00125032E9AD1634B06
:1040300004264381BEE7062E43D0414600293DD0E9
:104040000B78002B1FD1E3710026012514E0031C1F
:10405000503B188AFEF70AFD071C092E2CD0082EAB
:1040600041D04346002B02D01B78002B16D0A1690B
:1040700000260325002941D0022D02D0042D00D0B6
:1040800070E7E77997E70AF09BF903051B0D3F2BD3
:1040900000D84023638103260225EDE70823A3719E
:1040A000E5E70023414602260B70351CE4E70136A4
:1040B000F6B276E7002555E70723A3710026002511
:1040C000DAE7012FB9D900260125D5E7002802D06B
:1040D0004378022B27D00AF073F943055B0D0226C3
:1040E0006381351CC8E7002342461370BFE70326EF
:1040F00057E70A230026A371351CBDE7E2790226A3
:104100009046022AB8D8A379082B16D0002F02D0E7
:104110007B78022B35D00AF053F943055B0D6381A0
:1041200002260425A8E7037804229343012BD2D169
:10413000002302266381351C9EE7214BBD22B2403D
:104140009A5C002AE2D0BE21B1405B5819688C42CB
:1041500028D0511EC9B20833A94059180120400087
:10416000C0B28B42D2D008331A1C083A126894426B
:10417000F5D1FBF75FF800280CD00325E571022686
:104180007AE73B780425AB43012BC4D1002363813C
:10419000022671E74246022AB8D1074B46466381A0
:1041A000042569E70120E4E738690020CCF001002C
:1041B00083530000A86B0020093D0000021F00008F
:1041C000406B002038B5041C611C051C0830FFF74B
:1041D000B1FE483D011C6278281CFCF7DDFE38BDAD
:1041E00010B50379012293430371572200238354AE
:1041F0005A22041C83526179084B09015918012283
:10420000563009F0F1FF201C00215030FFF792FEDC
:10421000E822011C201CFCF7BFFE10BD68F1010064
:104220000178F8B5041C051C7C3C002913D1E36B14
:10423000428858791E790002304382420FD1987823
:10424000DB78278A1B0203439C461548B6239B0054
:10425000C65C002E0DD0201CFCF784FDF8BD228624
:104260004123E15C01220A43E254201CFFF7B8FF1E
:10427000F4E7B826B60081550A494252B922614690
:1042800092008152BA2292008752074A8752012235
:10429000C254B7239B00C018FBF728FB2978DAE744
:1042A000406B0020E2020000E6020000F8B5061CA8
:1042B00001200F1C151CFAF743F8041E1AD0022324
:1042C00028228354292283540B4A7C23D35A002268
:1042D000438502235B4203864123C254074B291CBA
:1042E0004364B8476671201C6C61A560FFF778FFD6
:1042F0000020F8BD0120FCE738690020C54101001D
:10430000F0B5AF232B4D9B00EC58B12347461A2242
:104310009B0080B4EA54284A01269046274F05E0C6
:10432000B0239B00EB5818349C4232D22378002BE8
:10433000F6D06378DA0713D55A06920F24D10E20EF
:104340009A0700D50C20221C391CFFF7AFFF6378B9
:10435000321C0240B3431343637000281ED1DBB20A
:104360005A07DDD54146221C0A20FFF79FFF6378DC
:10437000321C0240042192008B43134363700028D7
:10438000CED004BC9046F0BD0D209A07DBD50B20A3
:10439000D9E7B12300229B00EA54F2E72369002BFE
:1043A00005D0181C04225A741030DB68984700238B
:1043B0002370E6E7406B0020F53C0100012B010073
:1043C000F0B556464D465F464446F0B485B001937D
:1043D000061C10798A46D37801990002151C1843EF
:1043E000012900D1BEE0874F7A23FB5A834200D1D6
:1043F0008AE0FEF73BFB002805D0037804229343B4
:10440000012B00D1D3E0B379012B75D9002081466F
:104410007C4F51460C7E02A87B49062209F0E4FE3F
:10442000002302A8C25CD9B2A24200D8DDE0013369
:10443000062BF6D107247023FB5C0093002B00D0E1
:1044400098E07623FB5CA34256D96B79FE22E418F0
:104450009346FD2C01D8E4B2A3467079337900026B
:1044600018436A4BA9789846AF239B004246D4581C
:10447000B0239A0043469A5802E01834944246D238
:104480002378002BF9D0A37A8B42F6D1A3888342FC
:10449000F3D16378019A5B069B0F93422CD12B7961
:1044A000E97822891B020B439A4225D1A3785B4508
:1044B00022D95A46A2705346DA8A0098E280002830
:1044C00007D0707933790002184300215B46F9F771
:1044D00043F849466278002900D174E0042313436D
:1044E0006370B1239B004046C25C002A04D1932232
:1044F000C2540520F9F712F9002005B03CBC9046E3
:104500009946A246AB46F0BD0122914681E7484656
:10451000FAF748FA041EEFD001986378032260216D
:10452000024052018B43134363702B79EA781B02DC
:1045300013432381737932791B021343A380AB7831
:104540004946A372B379013BE372F379637300299F
:104550004ED00023E3707423FB5C5B00FE2B4FD82E
:10456000DBB248E0FF21FDF787FA8146002800D141
:1045700049E74DE75146C88AFEF778FA002800D18E
:104580005FE7224BFC229A588221821A490052117D
:104590005B58D2009B181B799A065C07520F640F78
:1045A0000CD10724072A00D04BE7141C49E74378B5
:1045B000022B00D027E7012399462AE7944200DD29
:1045C0003FE7141C3DE701231343FD2213406370B2
:1045D000B1239B004146CA5C002A00D08CE793229D
:1045E000CA540520F9F79AF886E70131CCB222E7E0
:1045F000FF23E370012323737023FF5C009758E7C8
:10460000FF23F8E73869002030F10100406B0020FB
:1046100070B5537D0D1C141C1669052B58D9344AEE
:104620006E23D35C022B53D04B78DA0620D5237D42
:104630000F2B4DD948790B794A7A000218430B7A2F
:1046400012021A438B7A1B041A43CB7A097B1B068E
:104650001A436B7B1B020B43A97B09040B43E97BC9
:1046600009060B432349884202D8111C194338D14B
:1046700073785A062ED4DA06920F29D13079F2785F
:10468000000210431B4A904222D89A0619D5637D36
:104690000D2B1DD9F279B37912021A43337AB17A0C
:1046A0001B041A43737A1B061A43F37A1B020B434B
:1046B000317B09040B43717B09060B43111C194321
:1046C00012D1281C211C321C0223FFF779FE00E0C6
:1046D000002070BD281C211C321C0123FFF770FE36
:1046E000F7E7FEF7A3FAC3E7FEF7A0FAE9E7C0464B
:1046F00038690020F7FF00000B4A10B58024FC2326
:104700006400D35814591A78062A02D09A68824253
:1047100004D02033A342F6D3002010BDDA688A42C9
:10472000F7D1181CF9E7C046406B002000487047DD
:104730003C6C0020054BFC229A58801A82225200C1
:104740009B584011C000181880787047406B0020BB
:1047500030B50E4C8025FC236D00E35865591C785C
:10476000062C02D09C68844204D02033AB42F6D39E
:10477000002030BDDC688C42F7D1997EC806C00F9E
:10478000002AF6D0102211439976F2E7406B002000
:10479000F8B5061C0F1CFEF769F9304D041CFC230C
:1047A000002847D0EA58A31A82225200AD585B1164
:1047B000DB00A278ED180323237001239A43637072
:1047C000131C02221343FB221340082213433B22F3
:1047D0001340E11C1020A370F2F7B6FCA680A11DC7
:1047E0001120F2F7B1FC002F33D03A687B68A26049
:1047F000E360211C10310620F2F7A6FC012323768A
:10480000174BA27E1B7C201C637601231343DBB273
:104810000222134304221343A376F9F769FA002214
:10482000201CFF21F8F724FD2B79072293432B71DD
:10483000201CF8BDE85880235B00E958031C02E007
:1048400020338B42F4D21A78062AF9D1021C1C1CA0
:10485000A9E700220023A260E360CAE7406B0020C2
:104860003869002070B51C4C2378190704D5CA2379
:104870009B00E35C662B00D070BD8022FC235200BD
:104880000568E3584068A1581A78062A02D09E6845
:10489000AE4203D020338B42F6D3EDE7DE6886428A
:1048A000F8D1012AE8D10D496254D021890062185B
:1048B000506015609A88D2239B00E252084AD323A5
:1048C0009B00E250CE229200A018F6F7F5FDCA2315
:1048D0006C229B00E254CFE7406B00204A030000AB
:1048E0000DD3000010B50D4C011C201CF1F7CEFFBC
:1048F0000B4BE2188C239B00D35C482B05D04A2B32
:104900000BD1201C243007F0E9FE8C23054A5D21E1
:104910009B00D1540720F8F701FF10BD746D0020F3
:10492000CCFDFFFF406B002038B50E4C051C211C50
:1049300010312520F1F7E8FE211C20313720F1F756
:10494000E3FE094C291C201C143CF1F79FFF237C3B
:10495000192B00D038BD0020F8F7E0FEC1232374E6
:10496000F8E7C0462C010020546B00200A4A0023BF
:10497000111C19201360536010709360D360136191
:1049800053619361D36113625362103980200C3AF2
:104990004B60087053607047506B002008B5037976
:1049A000011C002B0DD0D023037400234374022379
:1049B0005B424B820548F1F769FF0420F8F7AEFE31
:1049C00008BD037404235B42C380F0E7E06D002060
:1049D000F0B5584D87B0281CF1F77EFF041E42D079
:1049E00002232822835429228354534A7C23D35AF6
:1049F0004122438502235B420386002383540593AF
:104A000041794E4B4E4A090159184264043105A8B8
:104A1000042209F0E9FB059B002B01D0201C9847DC
:104A20003823E35C742B0CD9201CE521FCF79AF9A0
:104A3000444B1A6C002A12D00320F8F76FFE07B01F
:104A4000F0BD228E404BE56B9A421AD009232373A6
:104A5000201CFFF7C5FB3B4B1A6C002AECD15B6CAA
:104A6000002BE9D1EBE7281DF1F736FFE8224923B7
:104A7000C2544023C25C4823C2544830FFF7A2FB13
:104A8000D6E72E7AE878AB78B60769790002B60FD8
:104A90001843013E2B7977427E410902228A19434D
:104AA0006B780096261C30360196667BDB07DB0FA1
:104AB000DBB20296FEF798FF030A20736373030CC0
:104AC000C0B2A373092833D8204B80001B589F46DF
:104AD0004123E15C01220A43E254B9E74123E15C4E
:104AE00005220A43E254B3E72B789B091BD0062327
:104AF00023736A78201CD20753425A410132702333
:104B0000E254EA78AB7812021A437223E252AA798D
:104B10007423E25401227523E2540D4B6C30A367D9
:104B2000FFF73CFF84E7D121201CFCF71BF97FE74E
:104B3000C221F9E7806B00203869002068F101008C
:104B4000C5410100406B0020FEFF000008F101009C
:104B50002142010008B5F8F7E1FC002803D00379F1
:104B600001229343037108BD10B5002815D00E4BE8
:104B7000B22292009C580830B32189005A5AD200C0
:104B8000A218904203D306E00830904203D2037982
:104B9000D907F9D510BD0020FCE7034BB2229200E3
:104BA0009858041CE8E7C046406B0020F0B54E461C
:104BB00057464546E0B41D1C08AB1E8809AB1B7860
:104BC000141C99460AAB1B785BB29A460323037008
:104BD000002E3FD001234370204B5F7A002F37D047
:104BE0000776817801229143022739438C46FB21C5
:104BF0000A1C61460A409446082290464246614695
:104C000011438C4662463B210A4082707822995CAF
:104C10008680C1707C269E5B8460C5601C1C8034CD
:104C20002168626801614261C6801B7C847E437694
:104C300001232343DBB21F4304231F4387764946E6
:104C40005246F8F715FB1CBC90469946A246F0BDAB
:104C50000127C5E746700676004BC2E73869002099
:104C6000F0B55F4656464D464446F0B40378161CF0
:104C7000DB067768DB0E87B0DAB2002F00D19BE04D
:104C80005C00E318747DDBB2023CE4B2A34200D9BD
:104C900092E0002A00D1B7E05F4C7A23E35A5F4CE0
:104CA0009C46A0460C1C00236146A44603E0013349
:104CB000DCB294420ED25C00E41804196578A47842
:104CC00024022C438C42F2D19DB20133DCB2A846BF
:104CD0009442F0D3514B6146984500D191E0424651
:104CE00053004344C018C3785B075B0F99467A783A
:104CF0003B7812021A43BB7838791B041A43FB78BD
:104D0000357E1B061A437B7982241B020343B87944
:104D1000640000040343F879000618434B79844685
:104D200008791B0203433E480495767E0559FC2111
:104D30008024640041580596AB460659042500249A
:104D4000081C271CA046AA460478062C3CD085885F
:104D50009D4244D0856895423ED05546AC43012CD7
:104D600016D0441A6411E4005C44247907256407D2
:104D7000640F00D0251C002F2BD07C1A6411E40096
:104D80005C4424796407640F02D0AC4200D2071C53
:104D90002030B042D8D34146002938D00093059C3A
:104DA000049B4046019363B202936346FFF7FEFE05
:104DB00040464946FDF792FC012007B03CBC9046B6
:104DC0009946A246AB46F0BD4446002CE0D1804651
:104DD000DEE7A945DBD3DBE7C5686545BDD1437890
:104DE000022BE9D0012CE4D10B4B6F229A5C002AF4
:104DF000DFD0032202705F33597804220A435A70CD
:104E0000D7E70724A14672E7072399466FE7002FEB
:104E1000D2D0B846C2E7C04638690020FFFF000084
:104E2000406B0020F0B54F464646C0B4464A8C461B
:104E30008021FC234900D358515885B000271A78A7
:104E4000062A03D1002F39D11F1C37E04479067997
:104E50009D8824023443A54230D1597802290DD0CF
:104E6000012A0BD1394A6F21515C002906D0032158
:104E700019705F3251780424214351704278D10671
:104E80005CD59A68D9680A4358D161464A68517816
:104E90001078090201439078147900040143D07816
:104EA000000601435079000220439479D27924040A
:104EB0002043120602439960DA603FE020338B42C0
:104EC000BDD3002F3AD04378624605794679192040
:104ED000147E1056D9060AD4360235430290009546
:104EE0000194381C00220023FFF760FE22E0624696
:104EF000516836024A780B7812021A438B78354390
:104F00001B041A43CB781B061A4391464A790B7946
:104F10001202134398468B794246C9791B041A43FF
:104F2000131C090602900B4300950194381C4A4655
:104F3000FFF73CFE381C0021FDF7D0FB05B00CBC90
:104F400090469946F0BDC046406B0020386900206D
:104F5000F0B556464D4644465F46F0B487B0994694
:104F600010AB1B78061C98460B780D1C9B079246CD
:104F70009B0F012B5DD14B78980705D52023F35C5F
:104F8000742B00D90EE14EE0914B1B7899070AD49F
:104F90006B792979D28A1B020B439A4203D1281CD0
:104FA0005146FFF73FFF51460C694A7D2378002A9E
:104FB00000D105E15F1EFAB2092A00D900E1E978C3
:104FC000AA7809021143834A914210D88249BF004E
:104FD0004031C91905A8042209F006F9059B002BE8
:104FE00000D1EDE0601C291C5246984714E0012BCB
:104FF000ECD0082BEAD068792B790002774A184365
:105000007A23D35AE979834205D0F9F711F8FD23C1
:1050100018400128DAD000204246002A00D1CFE013
:105020000028ABD1CCE00320F9F72CF900280ED1F1
:10503000B8E0002B00D0B5E02023C35C742B00D96E
:10504000B0E00420F9F71EF9002800D1AAE0021C04
:105050000C328423C2502023041CF35C803423725E
:10506000726A61688A4203D2D318994200D2A1E0E1
:10507000227A716A606809F0B7F83089237A2827A4
:105080000190F15D9B4602912A23F35C211C60682C
:1050900010310393F7F72AFF2423E25C5B469A1A48
:1050A0002523E25401980299039A2923E084E155CB
:1050B000E25422780123414619409A430A43227060
:1050C00069781F20D9400B405900D3B20222934384
:1050D0004A460B4310400721C2000B4013430422F1
:1050E000134323706A792B79120231891A43AE79FE
:1050F000EB79132805D1012E03D9201C5030F8F785
:105100000DF9237898075BD4314B1B7899070BD4A2
:105110006B7950462979C28A1B020B439A4203D10C
:10512000281C5146FFF77EFE2B789B0736D163681B
:10513000201C5A78211C38306031D50702D4022255
:105140000A7001E001220A70D9789A7809021143A5
:105150006222A15259791A79090211436422A1529B
:10516000E18C6622A1522521615C221C68321170FB
:10517000216AE1662821615C11722921615C51720A
:105180005A78231C9207D20F78331A70144BE367B6
:10519000793400232370F3F7DBF911E0201CFCF7CE
:1051A00095FC0DE068792B7900021843E979F7F74F
:1051B00053FE05E00B4A0C4B1A80F1F717FC57E73A
:1051C00007B03CBC90469946A246AB46F0BDC046EF
:1051D000406B0020F7FF0000E8F201003869002072
:1051E000F51C0100A73100005C380020F0B55646E0
:1051F0004D4644465F46F0B42023C55C8DB0041C88
:10520000466A012D07D9814F33787322BA5C99061B
:10521000090F914206D00DB03CBC90469946A2467B
:10522000AB46F0BD9B079B0F032B00D1DDE002785E
:10523000022AF0D1027C022AEDD1072DEBD9B279F6
:10524000002AE8D07179327909021143704A9142FB
:10525000E1D8002B00D0CBE06E490B788946D90706
:10526000D9D5238902A99B462823E35C301C9A46A2
:105270002A23E35C9846F7F739FE69460B7F5246CE
:10528000ED1A4D775D46CD8308A921250A706D443E
:10529000414629702022A25C9A42BCD373789A07B7
:1052A00000D4B9E0DD07ED0FEDB2012D00D1CBE167
:1052B000F178B578564B08028A462843984200D8C0
:1052C00055E1F9F741FF0028A5D033789B079B0FE4
:1052D000012B00D1DBE172797A2533797D5B1002F5
:1052E0001843F179854200D1CFE1F8F7A1FEFD2303
:1052F0000340012B00D1CAE133797279F1791202AE
:105300004D461A43EC23EF58D123EB5C984600231B
:1053100004E00133DBB2434500D92EE2DD007D1904
:10532000EE78002EF5D02E889642F2D1AD788D42DF
:10533000EFD1BD2320899B004C46E35C00259C46B1
:10534000BE239B00E75801243B1C03E06400E4B249
:1053500001350833EEB2664500D35CE7DE1BB2468A
:105360001E68002EF2D09E798E42EFD19E88964222
:10537000ECD1FDF77BFB002800D14CE74946FC232C
:10538000CB588222C31A52008A585B11DB00D31813
:105390005A79201CA2435A71F9F74CFF002800D11A
:1053A00039E7BE239B004A46D35855465C594846C8
:1053B0006830211CF1F798FA002800D12BE74E46FF
:1053C000B36E5A1E9341DBB25022B354002B03D16B
:1053D0004846543007F082F90321201CE17150380F
:1053E0004923C25CFBF7D8FD15E7F4F7B7FC12E7D9
:1053F000012B00D00FE77378DA0700D50BE7054BD8
:1054000099461B789A0600D405E72AE738690020F8
:10541000F7FF0000406B0020039B002B2AD032785E
:105420009207920F012A00D19FE170793279000230
:1054300010435A78197812020A4399785D79090461
:105440001143DA782D0212060A4319790D4399792E
:10545000DB79090429431B060B43CC49884200D958
:10546000D9E6111C194300D1D5E6FDF7DFFB002872
:1054700000D1D0E6029B002B32D07278D50700D540
:10548000C9E6F078B27800021043C04A904200D9D1
:10549000C1E67A2271793579BA5A090229438A42DA
:1054A0001ED090421CD05A78197812020A4399787B
:1054B0005D7909041143DA782D0212060A4319793D
:1054C0000D439979DB79090429431B060B43111C11
:1054D000194300D19FE6FDF7A9FB002800D19AE609
:1054E000212208A96A44097812786B46D88B8A462B
:1054F0009346FDF7BBFA051E07D059464AB25146FE
:10550000F7F77EFE281CF8F7F3FB6A467023D28B70
:10551000FB5C9246002B28D07578EB0700D5D5E0D0
:10552000F178B378994A090219432B1C914200D9AA
:10553000B8E67279337912021A43101C9346FDF7CC
:1055400095FA002805D0037804229343012B00D15B
:10555000BCE07423B279FB5C9A4272D2D343DBB2D3
:10556000584600215246F7F7F7FF73789AE63378EA
:1055700070799B075A1E93411222D21A3379000286
:10558000184323899146834206D0FDF76FFA00281D
:1055900002D04378022B12D07A235246FB5A1002D3
:1055A0002843984222D07279317912020A439342F9
:1055B00011D0201C311C4A46FCF708FB2BE603786F
:1055C00004229343012BE7D10021FCF721FFF1785E
:1055D000B5788A46E0E70021F7F7A0FF002800D160
:1055E00019E6037901229343037114E60299002915
:1055F0001ED04A780B7812021A438B78CD791B049F
:105600001343CA782D0612061A4390464A790B793D
:1056100012021A438B791B0413431D43F5F754F808
:105620000368434500D0F6E54368AB4200D0F2E59D
:1056300000230093201C311C02AA4B46FFF788FC74
:10564000E9E5DB43DBB28BE73B7A190700D4E2E5FF
:10565000F078B37800021843FF21FCF70DFA049AA2
:10566000814613789B079B0F32D1002833D1737981
:105670007A223179BA5A1B020B439A425ED0201C1F
:10568000311C1222FCF7A2FAC5E5002037E670793A
:105690003379000218432389834206D0FDF7E6F9E7
:1056A000002802D04378022B56D06E23FB5C022BDD
:1056B00061D0B37901229A429B415B420093201C46
:1056C000311C02AA1323FFF743FCA4E52B1CE9E5D8
:1056D000012B00D09FE570793379000218437A23BB
:1056E000FB5AF179834200D195E5F8F7A1FCFD233F
:1056F0001840012800D08EE54B46002B11D06E23B8
:10570000FB5C022B0BD0B37998429B415B42009328
:10571000201C311C02AA1423FFF71AFC7BE500238E
:10572000F5E7049B1B78DB065B0F012B00D872E5C5
:10573000201C311C1422FCF749FA6CE5F078B37890
:1057400000021843291CF7F7E9FE002800D162E5A2
:105750000379AB4303715EE5037804229343012B85
:10576000A3D10021FCF754FE9FE7069D2A78062A64
:1057700000D05AE67EE60023A0E7022800D1D8E553
:10578000101C0121FDF7ACFE45E5C046F7FF000007
:1057900010B5094C011C201CF1F778F8913CC62388
:1057A000FF3C5B00E25C9A2A00D010BD4522E25427
:1057B0000620F7F7B3FFF8E7D06C002030B50E4BAA
:1057C00083B01B78802B11D00C4D2C1C6834B43561
:1057D00001A8211C042208F007FD019B002B02D028
:1057E0009847002805D00434AC42F1D1002003B022
:1057F00030BD0120FBE7C046406B0020E8F201000D
:1058000038B50C1C0D78FFF7D9FF0123584005402F
:10581000257038BD10B5114A6E23D35C022B1BD006
:105820000F4C104A8E235B00E25080228A23120123
:105830005B00E2508C2300225B00E25486235B0075
:10584000E01806F023FFA7239B000122E2549C23CB
:105850009B00E01806F01AFF10BDC0463869002012
:10586000406B00208D24010010B50A4A6E23D35CE2
:10587000022B0ED0084C201C06F030FF074B0021F5
:10588000E218A7239B00D154B2235B00E01806F076
:1058900025FF10BD386900204C6C0020F4FEFFFF8E
:1058A000044B803318685B681843431E9841C0B2AC
:1058B0007047C0463869002010B5094C011C201CF7
:1058C000F0F7E4FF074BE418C0239B00E25C312AA9
:1058D00000D010BDA322E2540120F7F71FFFF8E724
:1058E000446E0020FCFCFFFF38B50378051C022B3A
:1058F00021D0032B00D038BD124BFC229C588022B3
:10590000520081689A58C06802E020349442F2D272
:105910002378062BF9D0A3688B42F6D1E368834243
:10592000F3D11222201C297CAA56F7F769FC201C0F
:10593000F8F7DEF9DFE70089FDF798F8041EF0D1EB
:10594000D9E7C046406B00207047C04670B51A4E7C
:1059500082B0347A7068231C012501E09C4229D072
:105960000133DBB2191E152901D900210023021CC5
:10597000CA401542F2D0337201238B4058400F4B7E
:105980008900343359187060042201A808F02CFCF7
:10599000019B9847706800280AD001A805F054FAC6
:1059A000074B0822198801A80A431A8005F052FA09
:1059B00002B070BD3472EEE7406B002068F3010066
:1059C000B434002030B50B4A802083B07423C0006B
:1059D000D55CF4F78DFE084A3223D35C01A9C418C4
:1059E0001A20F1F7B1FB6C43019B5800201803B05B
:1059F00030BDC046386900209868002008B50D20E9
:105A000000F0D0F90C23011C1943C9B20D2000F09D
:105A1000B9F908BD08B5042000F0C4F9430605D55E
:105A200040214840C1B2042000F0ACF9FFF7E6FF86
:105A30000A2000F0B7F9F823011C19400323194389
:105A40000A2000F09FF908BD70B5061C06F0B6FAF2
:105A5000134B1C22FF329A5C051CD2B2012A17D0CC
:105A60001C22FF329B5C0124002B05D0002D01D0AD
:105A700006F09EFA201C70BD0D2000F093F9042E54
:105A800009D0FB2101400D2000F07CF90024EDE756
:105A900004490A70E4E704210843C1B2F3E7C046B1
:105AA00050700020D835002008B50420FFF7CCFF47
:105AB00008BDC04608B50020FFF7C6FF08BDC046B8
:105AC00038B5431E041C012B18D80D2000F06AF9CC
:105AD00003250421A84321430143C9B20D2000F04E
:105AE00051F9074B25401C78062294436D002C4346
:105AF000012294431C70002040B238BDFF20FBE718
:105B00005C01002008B50D2000F04CF9044B032285
:105B10001040C2001878182188431043187008BD3F
:105B20005C010020024B1878C006800F7047C04609
:105B30005C010020034B8022197852420A431A70FC
:105B40007047C0465C01002008B50D2000F02AF91E
:105B5000074B03221040420118786021884310430C
:105B60001870C20702D401221043187008BDC04645
:105B70005C01002008B506F081FA042803D8084B20
:105B800080001B589F460121032000F0FBF808BD50
:105B90000021F9E70421F7E70221F5E70321F3E704
:105BA000F4F3010038B506F02FFAFF2006F0F6F9FD
:105BB000FF2006F0F3F906F01FFA062006F0EEF9D2
:105BC00006F012FA0821022000F0DCF8FF2006F0AF
:105BD000E5F9FF2006F0E2F90F4C1F2506E0013C35
:105BE0000520A4B206F0DAF9002C13D0012000F051
:105BF000D9F828400828F2D1FFF7BCFF06F06CFA6C
:105C000006F060FA06F0BCFB06F0CCF906F0D0F91D
:105C1000012038BD0020FCE7D107000070B5061C4C
:105C200006F0CCF90E4B1C22FF329A5C051CD2B256
:105C3000012A11D01C22FF329B5C0124002B05D0CD
:105C4000002D01D006F0B4F9201C70BD307AB17A75
:105C500000F098F80024F3E702490A70EAE7C0462A
:105C600050700020D835002070B5061C06F0A6F94B
:105C70000E4B1C22FF329A5C051CD2B2012A11D0B5
:105C80001C22FF329B5C0124002B05D0002D01D08B
:105C900006F08EF9201C70BD307A00F083F80024E5
:105CA0007074F3E702490A70EAE7C04650700020BA
:105CB000D835002030B585B006F09EF9022006F0F8
