:10000000583C00202DE101000000000011D101004A
:1000100000000000000000000000000000000000E0
:1000200000000000000000000000000000000000D0
:1000300000000000000000000000000000000000C0
:1000400000000000000000000000000000000000B0
:1041000009000100752E00200000000000000000E2
:1041100008000400A02300200000000001000000AF
:1041200007002800402700200000000001000000D8
:1041300002000001181D0020000000000100000026
:1041400001006000981A00205D720000000000006D
:10415000A43E02000500014008B504F041FD04F052
:104160005BFDFCE7002934D00123002210B4884213
:104170002CD301242407A14204D2814202D2090196
:104180001B01F8E7E400A14204D2814202D24900B7
:104190005B00F8E7884201D3401A1A434C08A0425A
:1041A00002D3001B5C0822438C08A04202D3001BF0
:1041B0009C082243CC08A04202D3001BDC08224307
:1041C000002803D01B0901D00909E3E7101C10BC2B
:1041D0007047002801D00020C04307B4024802A164
:1041E0004018029003BDC046D90000000029F0D05D
:1041F00003B5FFF7B9FF0EBC4243891A1847C04602
:10420000002941D010B4041C4C40A44601230022D4
:10421000002900D54942002800D5404288422CD3CD
:1042200001242407A14204D2814202D209011B01C8
:10423000F8E7E400A14204D2814202D249005B00C7
:10424000F8E7884201D3401A1A434C08A04202D32F
:10425000001B5C0822438C08A04202D3001B9C0870
:104260002243CC08A04202D3001BDC0822430028D2
:1042700003D01B0901D00909E3E7101C6446002C98
:1042800000D5404210BC7047002806D003DB002058
:10429000C043400801E08020000607B4024802A1A4
:1042A0004018029003BDC046190000000029EBD061
:1042B00003B5FFF7A7FF0EBC4243891A1847C04653
:1042C0007047C046F8B55F46564644464D46F0B482
:1042D0000C034D00CE0F610A440F2143C4001803A4
:1042E00080465800400D8246D80F84464046400A1A
:1042F000530F0343D0006D0D371C8346524666456D
:1043000000D1A4E0AF1A002F00DC09E1002A3BD164
:10431000184300D0EAE0630700D187E00F23234071
:10432000042B00D182E0221DA242A44164428023DA
:1043300009191B040B40371C141C002B00D17CE016
:10434000CE4B01359D4200D105E1CD4BE40819402B
:104350004807490204430B0B002000211B031A0BE2
:104360000B0D6D051B0513436A08C64DFF071D4065
:1043700015436D006D08291C3943201C3CBC904638
:104380009946A246AB46F8BDBC488542C3D08020C2
:1043900000040343382F00DDF0E01F2F00DD24E18F
:1043A0002020C01B1A1C814682405846F840024318
:1043B000944658464A469040421E9041FB40624611
:1043C00002431F1CA21A9442A4416442C91B091B48
:1043D000141C0B029FD549024F0A002F00D1C8E0E0
:1043E000381C01F079FB021C083A1F2A00DDB5E0F9
:1043F0002821091A201C9740C84007439440954241
:1044000000DDB2E0551B691C1F2900DDDCE01F2226
:10441000551B3B1C221CAB40CA40AC40651EAC4146
:104420001343CF401C43391C002574E780231B0431
:104430000B40371C002B00D082E7904B4807E40864
:104440000443C9089D4248D009030B0B84E7AA1A0C
:104450009446002A00DC98E05046002852D0874855
:10446000854200D157E78020000403436246382A82
:1044700000DDFCE01F2A00DD4AE120226046101A20
:104480001A1C82408246914658466246D0404A46AF
:1044900002439046584652469040421E9041424642
:1044A00002436046C3401219A242A4416442591813
:1044B0000919141C080200D42DE7704B01359D42E8
:1044C00000D122E16E4B60081940012323401C1CDF
:1044D0000443CB071C4349081DE7231C0B433AD078
:1044E00080231B030B431B031B0B35E7013F002FEE
:1044F00065D15846221A9442A4416442C91A091B44
:10450000141C66E75846184300D104E701225242C2
:1045100094446046002800D0C5E058460219C3E71D
:10452000002F73D1681C4005400D012800DCDEE03F
:104530005A46A21A9442BF41C81A7F42C71B38028A
:1045400000D489E05A46141BA3459241591A52429D
:104550008F1A664641E700230024FDE6271C283811
:1045600087400024954200DC4CE74549AD1A3940AC
:10457000D1E6201C01F0B0FA203034E75A461A4345
:10458000531E9A41D2B200271CE7002A00D0DCE07B
:10459000681C4205520D012A00DC8DE0374DA8420F
:1045A00000D1F3E05D462A19A242A44164425918A1
:1045B0000919CC07520814434908051CABE62F48DB
:1045C000854200D0E6E6A6E62B1C1F3B3A1CDA40EB
:1045D000131C20296CD03F22551BAF403C43601E6A
:1045E00084411C430021002595E6381C20381A1C04
:1045F000C240101C202F5DD04022D71BBB405A4622
:104600001A43531E9A4102430027DBE6002D3BD09C
:104610001A4DAA4500D193E080252D047F422943FD
:10462000382F00DDACE01F2F00DD29E12025ED1B38
:10463000081C261CA840FE40AC400643651EAC4149
:104640003443F9405D462C1BA34592415B1A52420C
:10465000991A55466646BCE6131C3B43141C002BB6
:1046600000D0BAE60027002100250024E5E65A46DE
:104670001A43531E9A41D2B2002314E7FF070000E9
:10468000FFFF7FFFFFFF0F800D1C254358D0FF4326
:10469000002F51D1041BA3459241591A5242891A45
:1046A0005546664695E69648854200D0DEE632E6F7
:1046B000002793E70023A2E7081C2043002D00D029
:1046C000C4E0002800D1F7E05846184300D122E6A4
:1046D00058460219A242A441644259180919141CEF
:1046E0000A0200D417E6874B0125194013E6081C7F
:1046F0002043002D39D1002871D15946194303D0E8
:10470000191C5C46664606E600270021002494E654
:10471000604620381A1CC24060469146202800D1CD
:10472000ACE04022121A93405A461A43531E9A4153
:104730004B461A430023B6E6714DAA4500D06FE7F9
:10474000191C5C4655466646E5E5002D22D10D1C38
:10475000254377D0D543002D71D15C445C4592410F
:104760005918524289185546A4E600284DD1594699
:10477000194300D194E0191C5C466646604DCAE5B9
:104780000C43611E8C41E4B200215BE7051C002153
:10479000002452E65A4DAA4554D0554280221004B6
:1047A0000143382D00DD81E01F2D00DD92E0202245
:1047B000501B0A1C84468240201CE840024390465D
:1047C00062469440601E844142461443E9405C4482
:1047D0005C459241CB185242991855466AE65846B4
:1047E000184300D197E55846271ABC429241C81A8F
:1047F0005242801A020266D55846041BA3459241D4
:10480000591A5242891A664685E55846184333D0EC
:104810004807E40804438020C9080003014208D087
:10482000DD08054205D15946CA085C071443291C16
:104830006646630FC9001943E400314D6BE5304A09
:104840009245AED1191C5C46554664E5002836D029
:104850005846184310D080254807E408C9082D039E
:1048600004432942E5D0D8082842E2D15D46EA084F
:104870005C071443011CDCE7214D4CE5002353E7A2
:104880003D1C203D0A1CEA40151C202F34D0402638
:10489000F71BB9400C43611E8C412C430021D1E62B
:1048A00080210027C903164D0024C6E50C43611E74
:1048B0008C41E4B200218AE7191C5C462BE5191CE7
:1048C0005C460F4D27E5031C3B4300D11CE7011C50
:1048D0003C1C20E52020404240190A1CC240904662
:1048E000202D0BD04020451BA9400C43611E8C415C
:1048F00045462C4300216AE70021CBE70021F4E77D
:10490000FF070000FFFF7FFFF0B5564644465F46B5
:104910004D46F0B41F1C0B031B0B98464B0087B091
:10492000041C81465B0DC80F161C9A460090002B94
:1049300051D06A4B9A4531D08022414652030A43F6
:10494000630FD2001A43664B90460025E200914661
:104950009A44002402953B031B0B9B46FD0F7B00F2
:10496000311C5B0D019560D05C4A934254D080218C
:10497000584649030143720FC9001143584A8B46F8
:104980009B18F1000020009A04436A4003920F2C08
:1049900000D9ADE0534EA4003459A7464046044325
:1049A0006ED1002102250824884689460295D2E767
:1049B000009C0298C34649460194022864D003280B
:1049C00000D1ABE2012800D038E2019A0024024075
:1049D0000025A14660E0434623434AD040460028D4
:1049E00000D1C0E101F078F8031E272B00DDB3E110
:1049F00028210D1A211C083B4246E9409A400D1C13
:104A00001543221C9A40A8469146374B00251B1A95
:104A10009A46002402959EE75A4616430320002E2C
:104A2000B1D1B34600210220ADE75A4632431BD034
:104A30005B46002B00D18AE1584601F04DF827284B
:104A400000DD7DE12822171A011C321C08395B4663
:104A5000FA408B40171C1F43331C8B40BB46191C6C
:104A6000214B1B1A00208EE70027BB4600210120A6
:104A700089E70020012504248046814602956AE7E3
:104A800003250C24029566E7019C0394039D0122F3
:104A90002A400024114DA146002000212403260BAA
:104AA0000C0D2405114B34432D0523402B435B0093
:104AB0005B08D207191C4846114307B03CBC90461E
:104AC0009946A246AB46F0BD0022802424039146BD
:104AD000024DE1E700240025A146DDE7FF070000C5
:104AE00001FCFFFF145102000DFCFFFFFFFF0F80D0
:104AF0005546ED1A0495D84500D953E100D14EE151
:104B0000049C0025013C4E4604944746A94658465D
:104B100003020C0E1C430902250C23041B0C0091FC
:104B2000381C291C0193FFF71DFB01998346414363
:104B3000381C8A46291CFFF759FB330C090419431A
:104B40008A450CD95B460919013B8C4200D947E1E3
:104B50008A4500D844E1022252429344091953463F
:104B6000CB1A181C291C9846FFF7FCFA071C019861
:104B7000291C784382464046FFF738FB36040B0475
:104B8000360C33439A4509D91B197A1E9C4200D929
:104B900024E19A4500D821E1023F1B195E46320408
:104BA0001743380CBB46009E009F51463F0C320411
:104BB0005B1A5946BA46120C0F043F0C90465146F8
:104BC0007A434F434146414356467043CF19160C32
:104BD000BE19B14202D980277F02C019310C1204DC
:104BE0003604120C4018B618834200D2C4E000D13B
:104BF000BEE0191A4846861BB145BF417F42CF1B14
:104C0000A74200D113E1291C381CFFF7ABFA019928
:104C100002904143381C8946291CFFF7E7FA330C00
:104C20000904194389450CD9029B0919013B8C429F
:104C300000D9FFE0894500D8FCE0029F0919023F36
:104C400002974F46CF1B381C291C0597FFF78AFA9D
:104C5000071C0198291C784381460598FFF7C6FA7E
:104C600036040904360C0E43B14509D936197B1EAA
:104C7000B44200D9E0E0B14500D8DDE0023F36198A
:104C8000029D4946761A290439430B0457460A0CFB
:104C90001B0C40464546584355437B437A43EB182B
:104CA000070CDB199D4202D980256D0252191D0C9B
:104CB00000041B04000C52191B18964235D300D176
:104CC000FCE001231943049E994FF519002D00DCE7
:104CD000A1E0480709D00F230B40042B05D00B1D82
:104CE0008B42894149428B44191C5A46D20107D54F
:104CF000904B5C46049E80271C40FF00A346F5199C
:104D00008D4B9D427ADD039C0122224000248B4D75
:104D1000A146C1E680242403474627424CD13C43A8
:104D20002403240B009A854DB6E63619481EB4427A
:104D30005ED9011C9642C4D1009E9E42C1D1C2E7F9
:104D4000031C283B311C99408B46002188E6301C0F
:104D500000F0C2FE203072E6283B211C9940002260
:104D60008846914651E6201C00F0B6FE20303BE616
:104D70000021B14500D33DE7009F5A46B944B945EB
:104D8000BF417F423F19FB18013A9C421ED2984214
:104D900000D97EE000D1B5E0191A93462AE789458B
:104DA00000D8ADE64846464642467708D30746084F
:104DB000C0071E438146AAE65846204212D104434A
:104DC00024032A1C240B89465C4D65E6A342E3D1EB
:104DD000009F4F45DBD9211A93460BE7171CDDE6F0
:104DE0009B46BCE63C432403240B009A534D53E6F8
:104DF000B24259D800D18AE0011C62E75F46C90877
:104E00007B07039E0B437C026D0501229946240B10
:104E10006D0D324040E64A4B049FDB1B382B10DD02
:104E2000039C0122224000240025A14634E60121F2
:104E3000494248E7029304E71F1C21E7019C0394C1
:104E400041E71F2B40DC3F48049F0C1C3A18584692
:104E50009140DC40904020430A1C511E8A41011CB5
:104E600011435A46DA40131C480709D00F220A4062
:104E7000042A05D00A1D8A42894149425B18111C47
:104E80001A0234D5039C0122224000240125A146A8
:104E900002E6009F02214942B9448B44B945894149
:104EA00049420919CB18A4E6009D881E6900A94251
:104EB000AD416D422C19361900913AE7002B00D014
:104EC00033E70024009437E71F4A049C5D46121B19
:104ED000D5402A1C202B1FD01C4E5F46A3199F4093
:104EE0003B1C19434B1E994111430023BCE75A0751
:104EF000C9080A43039F91465B0201221C0B3A40FA
:104F00000025C9E54E45C4D89346002172E6009FAE
:104F10009F42C9D3011C0FE70023E2E7802424034A
:104F20005F463C432403240B019A8946034DB3E5B5
:104F3000FF030000FFFFFFFEFE070000FF07000069
:104F400002FCFFFF1E040000E2FBFFFF3E04000026
:104F5000F0B5564644465F464D46F0B41F1C0B0361
:104F60001B0B9A464B0087B0041C80465B0DC80F94
:104F7000161C02938146002B68D0694B0299994216
:104F800032D08022534652031A43D200630F1A4391
:104F90009246644AE0008918804602910024002568
:104FA0003B031B0B9B467800FB0F321C400D039309
:104FB00000D175E05A4B984269D08022594652037D
:104FC0000A43730FD2001A43564B9346C018F2009F
:104FD000002303994E4671401C430F2C00D9A9E0D1
:104FE000514EA4003459A74653461C4300D087E0D5
:104FF0000025AA46A84608240225D1E74946022DE5
:105000006CD0032D00D117E2012D00D058E10D40E6
:10501000EDB20024A9460023A0460020002125036C
:105020000A0D1C052D0B1205404B2A431340234348
:105030005B004C465B08E207191C4046114307B071
:105040003CBC90469946A246AB46F0BD534623432E
:1050500050D05346002B00D184E1504600F03CFD77
:10506000031E272B00DD76E128210D1A211C083BA9
:105070005246E9409A400D1C1543221C9A40AA460C
:1050800090462B4B00241B1A0293002588E75B46B1
:105090001E430323002E9CD1B3460022022398E72F
:1050A0005B46334321D05846002800D14EE100F042
:1050B00013FD272800DD42E128210F1A021C311CB4
:1050C000083A5B46F94093400F1C1F43331C934042
:1050D000BB461A1C164B181A00237AE701230B4013
:1050E00000249946A0460E4B97E70027BB460022B6
:1050F00001236EE7002104248A46884601254FE7F4
:105100000C2403254CE700258024A9462403A84647
:10511000034B82E7DA46904603991D1C6FE7C046B1
:10512000FF07000001FCFFFF54510200FFFF0F804A
:105130000DFCFFFF029F160C381804904046070C28
:105140000004000C1204120C031C5343041C3D1CED
:105150007443554398463B1C73436419A446444624
:105160000293230C63449D4204D9029D802464026F
:105170002D1902951D0C039545462C041B04240C87
:105180001C1905945C46230C051C58432404240C6C
:105190008446381C604365435F438146CC44280CF9
:1051A0006044BB46814502D980277F02BB442D0461
:1051B000070C2D0C000440195546BC462F04E3444F
:1051C0008446280C3D0C2F1C5743B8462F1C7743B0
:1051D0004243B94647463F0C9144BA46D144464300
:1051E0004A4502D980225202B6184F463A0CB618E8
:1051F0003A0447463F043F0CB8462F1C67435D43C3
:105200004443584365190190380C2D184244B84660
:10521000AC4204D9019880235B02C0180190039C22
:10522000029F201C6044C0196045A4414746644267
:10523000A4462B043C049946240C4C44A046D84474
:105240008018C246E24490429241574652429146EB
:10525000F219E245BF417F424B46BC46D845BF41AB
:10526000D4187F4263461F432D0C7F19B2429241EE
:105270004C45AD4152426D421543019E7D19AB191B
:10528000E20D5B02059F134342023A439A46531EC6
:105290009A41C30D101C18436402204380465046B7
:1052A000C0010DD5454601225646049C6B082A4094
:1052B0001A43F30701341A43760804949046B24621
:1052C000049E634FF319002B61DD404640070BD06D
:1052D0000F2244462240042A06D042460432424568
:1052E00080414042824490465546ED0107D5594BD6
:1052F0005646049F80201E40C000B2463B18564AC6
:10530000934200DDEAE644465546E208680710434A
:1053100001226C025B050A408046240B5B0D91461E
:105320007BE6DA4690461D1C69E680242403574636
:1053300027421CD13C432403240B484B6DE6031C3D
:10534000283B311C99408B460022C3E6301C00F0FC
:10535000C3FB2030ADE6283B211C994000228A4641
:1053600090468EE6201C00F0B7FB203078E65846C9
:10537000204207D1044303992403240B8946904615
:10538000364B4AE63C432403240B344B45E6344B6E
:10539000049E9B1B382B06DD01230B4000249946FD
:1053A000A046002339E61F2B25DC049C2D4D4646E4
:1053B0006019524644468640DC4082405746301CC5
:1053C0002243DF40441EA04102433B1C540709D046
:1053D0000F201040042805D0101D904292415242E7
:1053E0009B18021C1D021AD501230B40002499466C
:1053F000A046012311E61C48049C5546001BC540ED
:10540000281C202B16D0194E5746A21997403A1C3B
:1054100043461A43531E9A4102430023D6E75807D6
:105420005B02D2081C0B01230B40104399468046B7
:105430000023F2E50022EBE78024240350460123F9
:10544000044319402403240B8946044BE5E5C04678
:10545000FF030000FFFFFFFEFE070000FF07000044
:1054600002FCFFFF1E040000E2FBFFFF3E04000001
:10547000F8B55F46564644464D46F0B40C034D0021
:10548000CF0F610A440F2143C4001803DE0F80468A
:10549000B44646465800760A530F3343D600D14AE5
:1054A0006D0DBA46400DB346904200D1F5E062461C
:1054B000012672409446674500D1ABE02F1A002FB9
:1054C00000DC11E100283ED15846184300D0F1E03D
:1054D000600700D197E00F232340042B00D122E185
:1054E000221DA242A4416442802309191B04012702
:1054F00050460B400740141C002B00D179E0B94BFB
:1055000001359D4200D10BE1B74BE4081940480733
:10551000490204430B0B002000211B031A0B0B0D47
:105520006D051B0513436A08B04DFF071D40154369
:105530006D006D08291C3943201C3CBC90469946DF
:10554000A246AB46F8BDA7488542C1D080200004E2
:105550000343382F00DDFDE01F2F00DD31E1202067
:10556000C01B1A1C5E468240FE40324394465A4697
:105570008240101C421E9041FB40624602431F1CA9
:10558000A21A9442A4416442C91B091B141C0A02BA
:105590009ED549024F0A002F00D1D6E0381C00F0FA
:1055A0009BFA021C083A1F2A00DDC3E02821231CB5
:1055B000091A9740CB401F439440954200DDC0E05C
:1055C000551B691C1F2900DDEAE01F22551B3B1CEF
:1055D000221CAB40CA40AC40651EAC411343CF40D7
:1055E0001C43391C002573E780217E4D0027C90329
:1055F00000247C4B4807E4080443C9089D4250D06E
:1056000009030B0B87E780231B04012752460B403D
:10561000174071E72A1A9446002A00DCA1E000280E
:1056200054D07048854200D152E7802000040343E3
:105630006046382800DD0EE11F2800DD57E1624694
:105640002020801A1E1C8640B1465E46D6404A463F
:1056500032435E4686409046301C421E9041424690
:1056600002436046C3401219A242A4416442591841
:105670000919141C080200D42AE75A4B01359D422F
:1056800000D131E1584B60081940012323401C1C14
:105690000443CB071C4349081AE71E4300D00AE71E
:1056A00005E7231C0B433BD080231B030B431B0349
:1056B0001B0B30E7013F002F6DD15E46A21B9442C9
:1056C000A4416442C91A091B141C60E758461843D8
:1056D00000D1FDE601267642B4446046002800D0A1
:1056E000D0E05E463219BFE7002F00D080E0681C92
:1056F0004005400D012800DCE8E05A46A21A944219
:10570000BF41C81A7F42C71B3E0200D498E05846EA
:10571000041BA3459241591A52428F1AE2463AE7B6
:1057200000230024F7E680231B04012756460B4084
:105730003740E1E6271C283887400024954200DCEA
:105740003EE72949AD1A3940C2E6201C00F0C4F9F1
:10575000203026E75A461A43531E9A41D2B20027F8
:105760000EE7002A00D0DEE0681C4605760D012E0B
:1057700000DC90E01B4DA84200D1F5E05E463219F6
:10578000A242A441644259180919CC075208144393
:105790004908051C9CE61348854200D0D9E697E6E7
:1057A0002B1C1F3B3E1CDE40331C20296FD03F22A8
:1057B000551BAF403C43601E84411C430021002523
:1057C00086E6381C20381E1CC640301C202F60D0B6
:1057D0004022D71BBB405A461A43531E9A410243EC
:1057E0000027CDE6FF070000FFFF7FFFFFFF0F80D0
:1057F000002D37D0B64DA84200D18FE080252D0472
:105800007F422943382F00DDA8E01F2F00DD24E16F
:105810002025ED1B0E1CAE40B046261CFE40424625
:10582000AC401643651EAC413443F9405A46141B44
:10583000A34592415B1A5242991A051CE246A6E61C
:10584000131C3B43141C002B00D0A4E600270021AE
:1058500000250024CDE65A461A43531E9A41D2B27F
:10586000002300E70D1C254358D0FF43002F51D1E2
:105870005A46141BA3459241591A5242891A051CD3
:10588000E24684E69248854200D0D1E620E6002731
:1058900090E700239FE7081C2043002D00D0C2E0C2
:1058A000002800D1EFE05846184300D110E65846D2
:1058B0000219A242A441644259180919141C0A028F
:1058C00000D405E6834B0125194001E6081C20435E
:1058D000002D38D100286FD15946194303D0191C27
:1058E0005C46E246F4E500270021002481E660469C
:1058F00020381A1CC2406646101C202E00D1AAE097
:105900004022921B93405A461A43531E9A41024327
:105910000023A8E66E4DA84200D073E7191C5C4630
:10592000051CE246D4E5002D22D10D1C254376D07E
:10593000D543002D70D15C445C45924159185242C8
:105940008918051C96E600284CD15946194300D108
:105950004AE6191C5C46E2465D4DB9E50C43611E02
:105960008C41E4B2002161E7051C0021002440E6DF
:10597000574DA84253D05542802216043143382D4A
:105980007BDC1F2D00DD8CE02022561B0A1CB44658
:10599000B240261CEE403243904662469440661E5A
:1059A000B44142461443E9405C445C459241CB1803
:1059B00052429918051C5DE65846184300D187E508
:1059C0005E46A71BBC429241C81A5242801A060288
:1059D00060D55846041BA3459241591A5242891A70
:1059E000E24675E55846184333D04807E4080443B7
:1059F0008020C9080003014208D0DD08054205D116
:105A00005946CA085C071443291CE246630FC900C3
:105A10001943E4002E4D5BE52D4A9042AFD1191C8D
:105A20005C46051C54E5002830D05846184310D079
:105A300080254807E408C9082D0304432942E5D01E
:105A4000D8082842E2D15D46EA085C071443011CED
:105A5000DCE71F4D3CE5002355E73D1C203D0E1CB7
:105A6000EE40351C202F2ED04026F71BB9400C43AA
:105A7000611E8C412C430021D8E60C43611E8C41F1
:105A8000E4B2002190E7191C5C4621E5191C5C4634
:105A90000F4D1DE5031C3B4300D124E7011C3C1CBA
:105AA00016E52026764276190A1CF2409046202DF3
:105AB0000BD04026751BA9400C43611E8C41454606
:105AC0002C43002170E70021D1E70021F4E7C04614
:105AD000FF070000FFFF7FFF1C2101231B049842EA
:105AE00001D3000C10391B0A984201D3000A08396F
:105AF0001B09984201D30009043902A2105C401826
:105B00007047C046040302020101010100000000C9
:105B1000000000008446101C62468C46191C634637
:105B200000E0C0461FB500F073F9002801D4002141
:105B3000C8421FBD10B500F0A3F84042013010BDAF
:105B400010B500F065F9002801DB002010BD012030
:105B500010BDC04610B500F05BF9002801DD002043
:105B600010BD012010BDC04610B500F0D3F80028CC
:105B700001DC002010BD012010BDC04610B500F0B2
:105B8000C9F8002801DA002010BD012010BDC04670
:105B9000002B11D1002A0FD1002900D1002802D0FA
:105BA0000021C943081C07B4024802A14018029012
:105BB00003BDC0460DE7FFFF03B4684601B5029878
:105BC00000F044F8019B9E4602B00CBC7047C046F2
:105BD0009C460304F0B51B0C17043F0C150C1E1C4F
:105BE000041C000C7E436B4347434543FB18300CB9
:105BF0001818874202D980235B02ED18030CED18B8
:105C000063465C434A433604360CA11800048019ED
:105C10004919F0BDF0B583B0161C1F1C009001910E
:105C200000F01AFA041C0D1C221C2B1C301C391C01
:105C3000FFF7CEFF009A019B121A8B410899201C96
:105C40000A604B60291C03B0F0BDC046F0B583B0BC
:105C5000141C1D1C0090019100F0DAFB221C2B1C6F
:105C6000061C0F1CFFF7B4FF009A019B121A8B4110
:105C70000899301C0A604B60391C03B0F0BDC04667
:105C8000F0B55F4656464D464446F0B40D1C041C24
:105C90008046E80F814618030F03000B3F0B83B0CB
:105CA00084461B48009749005E00DF0F490D92466D
:105CB000760DBB4681420CD01548864210D001209B
:105CC000B14215D003B03CBC90469946A246AB46C3
:105CD000F0BD009F01202743F4D10D488642EED14C
:105CE000604602430120002AECD10120B142E9D1F3
:105CF000009B6345E6D1D045E4D1D94506D00029C3
:105D0000E0D11C43201C441EA041DBE70020D9E762
:105D1000FF070000F0B55F4656464D464446F0B4D6
:105D2000CD0FDE0FAC461D032D0BB146374E0F03D2
:105D30004C00AB465D0080463F0B640D92466D0DF6
:105D4000B44232D0314EB54235D0002C0ED138435A
:105D500041424141081C002D0BD0002919D1CC45EE
:105D60002DD0654668420123184318E0002DF6D176
:105D7000281C59460A4353425341002806D1002BA0
:105D8000EDD0634658420123184308E00020002B61
:105D900005D14A46504250414042012318433CBC81
:105DA00090469946A246AB46F0BD3E1C0643C9D07C
:105DB00002204042F3E75E461643C6D0F8E7AC4205
:105DC00007DC0BDA61464842484140420123184350
:105DD000E5E76646704201231843E0E75F450AD8CD
:105DE0000ED000205F45DAD26546684268414042E5
:105DF00001231843D3E76246504201231843CEE7FC
:105E0000D045F8D80020D045EED3C8E7FF07000002
:105E1000F0B556464D4644465F46F0B40D1C83B07F
:105E2000041C0190E80F814618030F03000B3F0B81
:105E300084463548009749005E00DF0F490D9246C1
:105E4000760DB846814234D02F48864236D000299C
:105E500018D0002E1FD1341C67463A435342534199
:105E6000002C1FD00020002B05D14246504250414B
:105E700040420123184303B03CBC90469946A246D9
:105E8000AB46F0BD0098044360426041041C002E04
:105E9000E2D00028E9D1C14515D04F467842012310
:105EA0001843E8E7002BF6D04B465842012318432D
:105EB000E1E7009F02202743DDD1C5E767460220C6
:105EC0001743D8D1C3E7B14204DD4A46504201230B
:105ED0001843D0E7B14207DB00986045E4D80AD008
:105EE000009F00206745C6D24F4678427841404225
:105EF00001231843BFE7019A5245D5D8019A0020E3
:105F00005245F1D3B7E7C046FF07000070B50B1C40
:105F1000124C09030E0B5900021C490DDD0F002025
:105F2000A14211DD0E4881420FDC80204003064370
:105F30000C48401A1F280BDD0B4A521AD640321C5F
:105F40005042002D00D1101C70BD084BE818FBE733
:105F5000074BC240C9188E403243F1E7FE030000F0
:105F60001D0400003304000013040000FFFFFF7F46
:105F7000EDFBFFFFF8B5041E31D0C70F00D044423F
:105F8000201CFFF7A9FD184D2D1A0A2819DD0B3822
:105F9000844024036D05240B6D0D3A1C002600205F
:105FA00000210B0D2403240B1B0523430F4C2D054F
:105FB0001C402C4364006408D307211C301C194387
:105FC000F8BD061C1536231CB3401E1C0B23181AE3
:105FD000C44024036D05240B6D0D3A1CDFE700223D
:105FE000002500240026DAE71E040000FFFF0F80D2
:105FF00010B5041E28D0FFF76FFD154A121A0A28A3
:1060000015DD0B38844024035205240B520D002368
:10601000002000212403181C0B0D240B1B05234317
:106020000C4C12051C4014436400610810BD031C95
:106030001533211C99400B1C0B21081AC440240362
:106040005205240B520DE3E7002200240023DFE772
:106050001E040000FFFF0F80F0B544465F46564621
:106060004D46F0B41C1C85B0002900DADBE00F1CA3
:106070000021061C8A46101C191C002C00DAC9E0FD
:106080000196009089468046002951D1B84200D837
:1060900071E0FFF721FD002809D020234546311C7F
:1060A0001B1A85408740D940A8460F438640424688
:1060B000150C13041B0C291C381C9B46FEF752F8C8
:1060C0005B464343041C291C381C9946FEF78EF896
:1060D000330C08041843814509D94044631E8045A8
:1060E00000D978E1814500D875E1023C4044494639
:1060F000411A8946081C291CFEF734F85A464243C7
:10610000071C291C48469346FEF770F8360409041C
:10611000360C0E43B34507D946447B1EB04502D822
:10612000023FB34500D81F1C24042743002403E08A
:10613000B94211D9002400275246381C211C002ADC
:1061400003D03B1C00215842A14105B03CBC904605
:106150009946A246AB46F0BD081CFFF7BDFC041EE5
:1061600000D0BFE0B94500D242E1019D0099071C73
:106170008D424741E0E7002804D101200021FDF7CE
:10618000F1FF80464046FFF7A7FC002852D1414668
:1061900044460B043C1B1B0CA3460D0C009301242E
:1061A000291C5846FDF7DEFF009F81464743291C06
:1061B0005846FEF71BF8330C090419438F4208D9DF
:1061C0004B464144013B884502D88F4200D91AE131
:1061D0009946C91B8B46081C291CFDF7C3FF009B71
:1061E000291C4343071C58460093FDF7FFFF360464
:1061F000009D0904360C0E43B54207D946447B1E68
:10620000B04502D8023FB54200D81F1C49460E04D3
:10621000374391E75246D243031C0C1C924600219F
:106220005842A1412CE7002746428F4101214942B3
:106230008A4620E720231B1A4246351C82403C1C1C
:10624000DD40DC4087402B1C150C3B43291C86405D
:10625000201C009317049046FDF784FF3F0C011C9F
:10626000794381468B46201C291CFDF7BFFF009C0B
:106270000904230C19438B450CD94B464144013B7F
:10628000884500D9BDE08B4500D8BAE002225242D1
:10629000914441445C460C1B201C291C0194FDF7D1
:1062A00061FF391C4143041C8B460198291CFDF7F2
:1062B0009DFF009A090413041B0C19438B4509D94F
:1062C0004144631E884500D997E08B4500D894E08F
:1062D000023C41445B46CB1A49469B460B041C4397
:1062E00000975DE7009D20231B1A4A468240DD404F
:1062F0001543391C009AD94082408846311C0092CF
:10630000D9403A1C82400B1C134301932F0C2B04E1
:106310001B0C391C40460293FDF724FF029A81466C
:106320004243391C40469346FDF760FF019A090439
:10633000130C19438B450AD94B464919013B8D4231
:106340005DD88B455BD902235B42994449195A4673
:106350008A1A101C391C0392FDF704FF029B804629
:106360004343391C03989B46FDF740FF019A0904FB
:1063700013041B0C19438B450AD943464919013BA9
:106380008D4238D88B4536D902235B42984449194F
:106390005D464D1BAB464946009D0F0442461743E0
:1063A0002A04120C3B042D0C1B0C380C111C5943F5
:1063B00042436B436843D3180D0C5B198C469A42D9
:1063C00002D98022520280181D0C401983450CD33B
:1063D00003D00024B0E61C1C89E665462A041B0491
:1063E000120C9B18A6409E42F3D2013F0024A3E664
:1063F00000240127A0E69846CAE71C1C6AE79946D4
:10640000A5E7994646E70222524291444144E0E61C
:10641000F0B55F4656464D464446F0B40D1C85B077
:10642000061C924698460290019103921F1C141C70
:106430008346A946002B59D1AA4269D9101CFFF7FF
:106440004BFB00280AD020231B1A311CD940854061
:106450000B1C2B43864084409946B346250C2304ED
:106460001B0C291C48469846FDF77CFE4646071C37
:106470004643291C4846FDF7B9FE5A460904130C49
:1064800019438E4209D909197B1E8C4200D957E164
:106490008E4200D854E1023F0919891B8946081C25
:1064A000291CFDF75FFE43464343061C291C484652
:1064B0009846FDF79BFE5A46130409041B0C19432A
:1064C000884508D90919731E8C4200D936E1023E6D
:1064D000884500D832E1380430430027391C05B024
:1064E0003CBC90469946A246AB46F0BD019A934209
:1064F00062D8181CFFF7F0FA041E60D1019B9F427E
:1065000000D22CE1029F03998F4260410027E5E70A
:10651000002A04D101200021FDF724FE041C201CC8
:10652000FFF7DAFA002800D0B9E023042D1B1B0C7A
:10653000A946260C98460127311C4846FDF712FE55
:1065400041464143051C8A464846311CFDF74EFE34
:106550005A460804130C1843824507D900196B1ECC
:10656000844202D8824500D910E11D1C5346C31A4B
:10657000181C311C9A46FDF7F5FD41464143814602
:1065800088465046311CFDF731FE5A461304090473
:106590001B0C194388450BD94B460919013B8C420A
:1065A00000D9CFE0884500D8CCE002235B42994473
:1065B00028044946084391E7002700208EE720235E
:1065C0001B1A424657468240DF40174352468240DC
:1065D0000192321CDA40291CD9408540131C2B4300
:1065E00002933D0C3B041B0C8846081C291C9A4650
:1065F000FDF7B8FD534643438146291C40469B4660
:10660000FDF7F4FD029A0904130C19438B4506D9D2
:106610004B46C919013B8F4200D8ABE099465A4618
:106620008A1A101C291C9346FDF79CFD53464343D0
:10663000291C804658469A46FDF7D8FD029A09045F
:1066400015042D0C29438A4506D94346C919013B37
:106650008F4200D886E098465746CF1BBA46494637
:10666000019F0804424610433D042D0C03043F0CD7
:106670001B0C020C291C594355437B437A43EB18EE
:106680000F0CDB198C469D4202D980277F02D2195C
:106690001D0C521992455FD356D000271EE72023C8
:1066A0001B1A311C2F1CD940DF4085400B1C844035
:1066B0002B4386400193B3462304260C1B0C381C45
:1066C000311C9846FDF74EFD42464243051C311CE5
:1066D000381C9146FDF78AFD019F09043B0C1943C4
:1066E000894507D909196B1E8C424DD889454BD96C
:1066F000023D09194A468A1A101C311C9246FDF7C0
:1067000031FD43464343071C311C50469946FDF773
:106710006DFD019A090413041B0C1943894507D91F
:1067200009197B1E8C422DD889452BD9023F0919A6
:106730004B46CB1A2D0499462F43FDE61E1CCAE694
:106740001F1CAAE6994633E761460A041B04120C93
:106750009B18A6409E42A0D201380027BEE6002723
:106760000120BBE68A4500D875E702235B429844C6
:10677000C91971E78B4500D850E702235B42994461
:10678000C9194CE71F1CD3E71D1CB3E7023D0019D4
:10679000ECE6C046084870B50023041C061C0360E4
:1067A00043600834D836051D211C281C343402F0FF
:1067B00061F8B442F8D170BD580A002030B5114CD0
:1067C00083B02568002D0ED02979684600F01AFCA8
:1067D00000280AD1201C02F073F8011C201D02F0D1
:1067E00049F800F0C5FB03B030BD281D019B984758
:1067F0000028EFD1201C02F063F8011C201C02F0DD
:1068000039F8EEE7580A002070B50E4C061C656892
:10681000002D14D0201D02F053F8011C201C02F0A2
:1068200029F831680435002903D0281C302219F0DA
:10683000EFFC3560012400F09BFB201C70BD0024A0
:10684000F9E7C046580A002030B585B00190002411
:1068500003A801A90022039400F086F900281FD0A4
:1068600000216822039819F067FD039B01204A224A
:106870009852022530229D5401211C874824195525
:106880004C2418534E20195450215A525822985CC7
:1068900004210143082001439954592200219954AD
:1068A000012005B030BDC04608B5034B00221A7068
:1068B00000F040FB08BDC046300B002008B5034B7C
:1068C00002221A7000F036FB08BDC046300B0020D3
:1068D00010B582B06946073100241D200C7002F00B
:1068E00053FB024B1C7002B010BDC046300B0020A1
:1068F000F0B5244C83B02378012B20D0002B0FD08F
:10690000022B06D0032B02D11F4817F071FF03B0F2
:10691000F0BD00F0FDFA0123237000F00BFBF6E759
:10692000194D281C17F08CFFC823AB6001232B7373
:10693000164B2B610223237000F0FCFAE7E7144B9F
:106940001D78012D04D00323237000F0F3FADEE755
:1069500000271F700F4E63681922317EB256013333
:106960000D48636000F0F6FB01A80197FFF74CFFAC
:106970000028E8D00198311C05702F22013019F051
:1069800047FCE0E7300B002070150020BD680000D8
:10699000B4000020B800002094510200054BC360F1
:1069A00008230374044B4360044B0360044B83606F
:1069B0007047C046603E0200D1680000F1680000E8
:1069C000A9680000037870B5041C002B24D1264B65
:1069D000264D1968AA688A4206D02548A96000F0A9
:1069E000B9FB244B01221A7000232B7302236B7313
:1069F0002E1C211C6A69B8390C1E944203D12CE06C
:106A00009C4223D01A1C1368002BF9D1301C01F0D2
:106A100031FF00F0CBFA70BD134B144D1B682A698F
:106A20009A4207D0144A2B61117E527E134852B20B
:106A300000F090FB2B7B0133DBB22B73022B08D9C8
:106A400000232B7303236B732E1CD2E7246814607E
:106A5000DCE700236B732E1DCBE7281C143001F0FC
:106A60002FFF011CD2E7C046340B0020380B00205A
:106A7000BC510200B4000020B8000020D851020030
:106A800038B50A4C0023251C1835211C281C203140
:106A900063736360A3616361236001F0EBFE211CFB
:106AA000281CE83101F0E6FE38BDC046380B002056
:106AB000F0B52B4D47466B7B80B4022B08D0032BDF
:106AC00004D0002B2ED004BC9046F0BD00F08CFA10
:106AD0002B68181C0830002B1CD02E1CC027A84681
:106AE0001836041C083CE359002B00D098472A684C
:106AF000211E914203D12DE09C4210D01A1C136834
:106B0000002BF9D1301C01F0B5FE2868002801D017
:106B10000830E6E700236B7300F048FAD3E72468F7
:106B20001460EFE768680028CDD00E4AB423C25045
:106B3000021C2632AC23C250583003F0EBFB281D58
:106B400001F0BEFE011C281C143001F093FE00F081
:106B50002DFAB8E7404601F0B3FE011CD2E7C0466B
:106B6000380B0020C5690000F8B51C4D4F46AC69D4
:106B70004646C0B49146061C0F1C002C2CD0281C85
:106B8000183001F09DFE011C281D01F073FE3968CC
:106B900000291DD026231B19181C3022984619F0F5
:106BA00037FB3168251C5835002903D0281C682282
:106BB00019F02EFB42463A60C0234A463560E25047
:106BC000012400F0F3F9201C0CBC90469946F8BD56
:106BD000262212199046E4E70024F2E7380B002041
:106BE00000B583B0019001A8FFF70EFE03B000BD11
:106BF00000B583B001A816F07FFA054B80221988F2
:106C000052010A4301A81A8016F07CFA03B000BDB5
:106C10006412002008B5437E002B03D1034B0422ED
:106C20001A7008BDFFF7E4FFFBE7C046E80C002040
:106C3000837C10B5041C002B17D10D4B01221A7058
:106C40000C4B02221A70DB68002B00D09847227987
:106C5000094BDA7462791A75A2785A72E2789A72DC
:106C6000228ADA8222785A7510BDFFF7C1FFFBE74E
:106C7000B4000020E80C0020B800002070B5774C6C
:106C800086B02378012B00D1A5E0002B4ED0022B3B
:106C900032D0032B2ED17249BE225200A150221CA9
:106CA0003421F0321180221CF232137005F0FCFB0B
:106CB000611CFF31026843680A604B602822002390
:106CC000FF32A35494225200A058251C010E09063D
:106CD000A1502C22FF32A35496235B00E15870355B
:106CE0000A0E1206E25030234022FF33E254281CE1
:106CF00013F068FB06B070BD3C23E25CD00706D5FC
:106D000001218A43E2546368002B00D098473C235A
:106D1000E25C510700D58EE03C23E25C9007E9D5A8
:106D200002218A43E254FFF749FDE3E700F0DAF974
:106D3000002002A902F0FCF80298039901225242B5
:106D4000D31712184B41591C7BD001AE201DFFF701
:106D500025FE0223311C2120337002F015F9414D2C
:106D6000337800222B70012323766376E376637FEA
:106D7000A27622770F229343012213436377231CC9
:106D800018332363201C384B2830636304F09CFEC7
:106D900004A9002002F0CCF804992A780B021343CE
:106DA0002B606B4613331B78059A2B7113022A79DB
:106DB00013436B606B4617331B782B72A368002B51
:106DC00000D09847FFF75CFEFFF7E4FC0123237037
:106DD000FFF70EFF8EE76D460235244800F0BAF942
:106DE000291C122002F0A4F82988214800F0B2F9E9
:106DF00001A9042002F09CF801991E4800F0AAF9AC
:106E000002A9192002F094F8039B029A191C1A484F
:106E100000F0A0F904A9002002F08AF8059B049A6A
:106E2000191C164800F096F9154B201C4030A3663B
:106E300013F07CFA5EE704218A43E254FFF738FE40
:106E40006AE7101C083000D87FE702A801F05AFF5B
:106E5000002002A902F098F877E7C046E80C00206D
:106E6000156C0000B8000020E16B00000452020025
:106E700024520200385202005052020064520200B2
:106E8000316C0000037810B5502B1FD0902B26D00A
:106E90001DD88E2B1AD3C27981791A4B12020A435C
:106EA0005A72120A9A72C1780279D9741A75827864
:106EB000417812020A43DA824279134C5A752378D8
:106EC000012B10D0042B14D00223237010BD912B62
:106ED000FCD10D4B01221A70FFF78AFEF6E70A4B30
:106EE00004221A70F2E7E368002BEDD0984723786C
:106EF000E8E702232370E368002B00D09847FFF7F0
:106F000077FEE1E7B8000020E80C00207047C0469B
:106F100030B5074D83B001ACEB8A201C238013F001
:106F2000D1F8A3782B76E3786B7603B030BDC046FA
:106F3000B800002000B50C4B83B01A78022A01D0AB
:106F400003B000BD3C22985C0121014301A8995483
:106F500016F0D2F8054B8022198852010A4301A885
:106F60001A8016F0CFF8EBE7E80C0020641200203E
:106F700000B50C4B83B01A78022A01D003B000BDD3
:106F80003C22985C0221014301A8995416F0B4F800
:106F9000054B8022198852010A4301A81A8016F075
:106FA000B1F8EBE7E80C00206412002000B50C4BB0
:106FB00083B01A78022A01D003B000BD3C22985C4D
:106FC0000421014301A8995416F096F8054B80223C
:106FD000198852010A4301A81A8016F093F8EBE7CA
:106FE000E80C00206412002008B5054B1A78022A2C
:106FF00000D008BD03221A70FFF7FAFDF9E7C0467A
:10700000E80C0020F8B5134E051C33690F1C002B4B
:1070100015D0327D002A12D0002405E00134337DE2
:10702000E4B2A3420BD93369E2009918281C082264
:1070300019F0EEF82B78BB42F0D1012009E00023D3
:107040002B706B70AB70EB702B716B71AB71EB7164
:107050000020F8BDE80C00207047C0467047C046CD
:107060007047C0461349144808B502880B889342FC
:1070700017D009D8114912480A801249D21A591852
:1070800092B217F0DBFE08BD0C4A002111800D49B9
:107090008022D2005918D31A9AB2094817F0CEFEAE
:1070A000F1E7064A0023138003800B80064B002281
:1070B0001A70E8E7C6150020C2150020C815002088
:1070C0008415002094160020C015002008B5034B3D
:1070D0001A88034B1A80FFF7C5FF08BDC8150020AA
:1070E000C6150020114A08B5002311481370114A33
:1070F0000361C260382283540F4A83758282002262
:1071000082760E4A03830262012282840C4A8362E1
:1071100002630C4A838542630B4A13800B4A138037
:107120000B4A138017F036FE08BDC046C01500207C
:10713000841500209C36002004C5FFFFC4150020E4
:1071400061700000CD700000C6150020C21500203F
:10715000C81500200FB4F0B546464F46C0B483B002
:107160000AAA08CA354E191C301C019219F070F990
:10717000334F344D3C882B8882B290469C4221D0BC
:1071800024D90004020C1C1B2F49A4188C4247DC94
:107190002E48311C181819F03BF82B8843442B80DB
:1071A0002B4B00241A78002A03D101221A70FFF712
:1071B00059FF60B203B00CBC90469946F0BC08BCC5
:1071C00004B01847234A1288A2422BD00004070CAF
:1071D0001D4AD919914219DD1C1B3C1994421FDC30
:1071E0008024E400E41A194AA4B298189146311C8C
:1071F000221C19F00DF83A1B3119484619F008F80D
:107200002B88154A9B1843442B80C9E70F48311C33
:1072100018183A1C18F0FCFF2B8843442B80BFE75A
:10722000FF24C6E70004020C311C084818F0F0FFE8
:1072300043462B8000233B80B2E7C046CC1500209C
:10724000C6150020C2150020FF0300009416002080
:10725000C0150020C815002000FCFFFF70B5264BAC
:10726000264C996ADA6A21606260254D254E2B7999
:10727000291C23722A6D6B6D22616361AB68201C2F
:10728000A3617723F35C383123776E23F35C2130DD
:1072900063772823EB5CA3772923EB5CE3772A232E
:1072A000EA5C2023E254112218F0B2FFEB896386D6
:1072B0002A7D3423E2547A23F35AE3867123F25C65
:1072C0003823E2548A23F25C3923E2545823E95CE0
:1072D0003A22A154317C3B22A15431884C22A15244
:1072E000717A4E228036A1543168726821656265D8
:1072F000EA7CE25470BDC046602D0020981A002040
:10730000A82D0020082E0020F0B5A4220E4C9200DB
:1073100085B0051C0F1CA61802E01034B44210D032
:1073200010226846211C18F073FF6A461388AB428E
:10733000F3D1381C6946102218F06AFF012005B00D
:10734000F0BD0020FBE7C0460041000000B50B4B3C
:1073500001228240101C1A7883B01043187001A8D3
:1073600015F0CAFE064B8022198892010A4301A833
:107370001A8015F0C7FE03B000BDC046D80E00202D
:107380006412002010B5154C82B02178002913D06A
:10739000CB0720D4002301200133DBB20A1CDA40E2
:1073A0001042F9D001229A40D3B25940217000F026
:1073B0001FF82378002B01D102B010BD01A815F0F1
:1073C0009BFE074B8022198892010A4301A81A806C
:1073D00015F098FEF0E70123E7E7C046D80E00203D
:1073E0006412002008B501F06BF800F079FE08BDCA
:1073F000F0B5374E85B000250124A95DEFB200231A
:107400000A1CDA40D8B214421CD10133082BF7D140
:107410000135062DF1D13827381C00F0CDFF6C4620
:1074200000281BD1381C6946FFF76EFF002833D1B6
:10743000331CB11D1A78002A40D101338B42F9D197
:1074400005B0F0BD0122FF009A40C7199143381CD6
:10745000715500F0B1FF6C460028E3D0381C694636
:10746000FFF752FF0028E3D06388002B2AD0019B4E
:10747000002B27D0A368002B00D098476288636850
:10748000381C002100F044FE0028D1D0C221114850
:10749000490000F0A1FFCBE7029B002B00D09847EA
:1074A00061886268381C00F019FFFD231842BFD0C4
:1074B00080210848490000F08FFFB9E70020FFF75E
:1074C00045FFBDE7BB210348490000F085FFD1E738
:1074D000DC0E00207852020010B5031C002914D1E4
:1074E00017E01C78100A444020094440120220038F
:1074F000624042406401181C0139624089B2441E56
:10750000A04192B21B18002903D0002BE9D1FF241F
:10751000E8E7101C10BDC046F0B556464D4644463F
:107520005F46F0B485B089460E99061C9046002946
:1075300048D0C9188A4641465D18ADB247464C4608
:10754000A84514D141E06A461023301C211C00F0EC
:10755000D3FF6A469388D288AB4206D2D21892B241
:10756000BA4202D9AA420CD2171C6B465C89002C85
:10757000E9D1002005B03CBC90469946A246AB46F6
:10758000F0BDEA1A92B2BB4217D8EB1B9BB247463A
:10759000CB46ED1A5146ADB200290AD0211C10315C
:1075A0005118C91A5246D21A89B2301C924600F0BC
:1075B000A3FFAF4209D05C46D9E769464989131C4D
:1075C0008B46E6E700229246B5E70120D2E7C046A7
:1075D000F0B55F46564644464D46F0B485B003903C
:1075E000D679937936021E4313795279370A1202FB
:1075F0001A437BB28B469046002B2DDB1A4A1B4B5D
:1076000000249146FFB29A46E3B2BB4227D0013E26
:10761000FF3E8025B6B26D0052460092039859464F
:1076200042462B1CFFF778FF002809D04246AB18D2
:107630009BB24A465046291C9846FFF74DFF8146AB
:1076400001343B1B1A06DFD5484605B03CBC9046CA
:107650009946A246AB46F0BD034B9946F4E7002E8F
:10766000F2D0351CD8E7C046FFFF0000E40E002032
:1076700010B5114B1978002910D0104B1A8882428E
:107680000FD04C1EE4B20433A4001C1904E01A1CF1
:1076900011880433814205D0A342F8D10024201C74
:1076A00010BD1A1C5388141C002BF8D1B8210448B3
:1076B000490000F091FEF2E7E4110020E40F002001
:1076C0008852020038B5041CFFF7D2FF002804D00E
:1076D0007E210C48FF3100F07FFE0B4D287843B22D
:1076E000002B08DB431C2B70084B8000181804701B
:1076F000240A447038BDBF210248490000F06CFEE6
:107700002878EFE788520200E4110020E40F0020FF
:1077100010B5041CFFF7ACFF00280ED0201CFFF7AB
:10772000A7FF094B042219780139C9B21970074B18
:107730008900591818F06CFD10BD8C210448FF31E8
:1077400000F04AFEEAE7C046E4110020E40F002002
:107750008852020010B5084C607800F06FFF80225C
:1077600060780021920100F087FF002802D080237A
:107770005B00638010BDC046E4110020F8B5084FDF
:10778000061C0D1C141C7878311C2A1C231C00F0CC
:10779000E5FE7878311C2A1C231C00F073FFF8BD2D
:1077A000E411002010B586B001AC4123A37054232E
:1077B000E3705323237103904E23C04363710490FD
:1077C00076236846A371218232231021064A0630AF
:1077D000E371FFF781FE211C208012220020FFF7B9
:1077E000CDFF06B010BDC046FFFF0000034B5A8816
:1077F0000F3280180F22904358807047E411002008
:1078000008B5012910D0002909D0022906D1084B5A
:107810005A883F3280183F229043588008BD044B5D
:107820005A8880185880F9E7FFF7E0FFF6E7C0466E
:10783000E4110020F8B5424B4446984680235B0093
:107840004D4656465F46F0B48A46051C1A1CFF2179
:107850004046994618F070FDE979AB790902194361
:10786000384A5046FFF738FE2870000A68700E212B
:10787000344A281CFFF730FEA873000AE873102270
:107880004046291C18F0C4FCEA79AB7912021A436D
:10789000141C10345346A4B2002B39D04C452ED9B9
:1078A000294B002610279B460AE0641B281C022156
:1078B000F619A4B2FFF7A4FFB6B2002C18D0002727
:1078C0008023251C5B009C4200D91D1CADB24346A1
:1078D000D8195346EF1B99193A1C18F099FC5B46CE
:1078E000588841462A1CFFF749FF81460028DCD111
:1078F00048463CBC90469946A246AB46F8BD404639
:107900001030514618F084FCEA79AB7912021A4320
:107910000D4B5888EF2A0FDD802252004146FFF7B9
:107920002DFF8146E879AB7900021843103080B210
:107930000221FFF765FFDBE7103292B2EEE7C046A7
:10794000E40E0020FFFF0000E411002008B5064B04
:107950005B68002B03D09847002800D108BD034B7B
:10796000187800F06BFEF9E7E4110020E800002031
:10797000F0B5214C4746238980B4CB189BB2061C36
:107980000D1C2381FF2B2BD91C4B628980277F0084
:10799000191C8018BA1A984618F03AFC6088311CF5
:1079A0003A1CFFF7EBFE051E03D1281C04BC9046D1
:1079B000F0BD638822890133013AFF33FF3A6380C7
:1079C00092B20023618922816381002AEDD0791A65
:1079D00089B24144301C18F01BFC23896381E4E721
:1079E00060892A1C3018054918F012FC6389ED18CB
:1079F00065810125D9E7C046E4110020E40E00208E
:107A0000F0B556464D4644465F46F0B47549CFB092
:107A1000081C89460C3001F031F900234A46938452
:107A2000D38453811381527812239246101C002173
:107A300009AA00F061FD0B9B002403936A4D564692
:107A400007E000234C70B3420CD0FFF783FE002800
:107A500010D149464B780133DBB2012BF1D84B7082
:107A6000B342F2D1281C614900F0B6FCFFF772FE68
:107A70000028EED049460B78B246002B00D187E0B3
:107A80000022029205AF029B59499D004D196A8858
:107A90005046111C934610233A1C00F02DFD3C89E2
:107AA0000021002200237981BA8159463A1C5046B0
:107AB000BB80FC80FFF78CFD0E2138804D4A381CBE
:107AC000FFF70AFD8022F881FF2152004A4818F092
:107AD00033FC391C1022484818F09AFB4B465A894F
:107AE0005B881034D3188021A4B26B8049008C428B
:107AF0002ED900261023B0460DE00EA8291CFFF752
:107B000037FF00281BD04644641BB6B2A4B2B0466F
:107B1000002C33D000238021251C49008C4200D941
:107B20000D1C354AADB2EE1AB6B2D31800935046CA
:107B300059464246331CFFF7EFFC0028DDD10024F4
:107B4000201C4FB03CBC90469946A246AB46F0BDC7
:107B5000294A3B8910320092504659460022FFF7CD
:107B6000DBFC0028EBD04B465A895B880EA8D31863
:107B70006B80211CFFF7FCFE0028E0D0029B4946E9
:107B80000133DBB20293029A0B78934200D97AE771
:107B90004B461A89002A22D058880EA9FFF7EEFD1D
:107BA0000028CCD04A4611894A4653880398C91800
:107BB00089B201385180FFF7F5FD041EBFD00020C7
:107BC00002214D46FFF71CFE28350C4B5146281C60
:107BD000197016F035FE281C16F00AFEB0E70021D9
:107BE000E2E7C046E411002088520200BA03000018
:107BF000E40F0020FFFF0000E40E0020E80000205A
:107C000008B5094B5B68002B03D09847002800D1CA
:107C100008BDFFF7F5FE0028FAD118210348FF310F
:107C200000F0DAFBF4E7C046E411002088520200BD
:107C3000104A08B5518880239B015B1A9BB283428E
:107C400006D30D498B4202D8137B002B09D008BD07
:107C5000FFF7D6FE0028FAD10848094900F0BCFB1E
:107C6000F5E7101C0C300121064A074B00F0E8FF35
:107C7000EDE7C046E41100200F0400008852020026
:107C80002C04000010270000017C0000F0B55646CF
:107C90005F464D464446F0B46C4E89B07368002B85
:107CA0000AD09847002807D1052009B03CBC90466F
:107CB0009946A246AB46F0BDF08C00286FD1B38C3C
:107CC0000020002BF1D0181CFFF7D2FC02900028F6
:107CD00000D191E0029904ADCA788B7812021A4360
:107CE000111C1023924670782A1C00F005FCF38CBE
:107CF000002B00D182E0728803922F89544804211E
:107D0000002200F06BFB2A89F38CB18C514800F003
:107D100067FBF28C3B1C2A81974200D98EE09FB210
:107D20004D493C1C0023EA80081C1022103489466F
:107D3000291CAB806B81AB81A4B218F069FA802258
:107D40005200944231D9002710239346B84612E0DE
:107D5000708841492A1CFFF711FD00284CD0474488
:107D6000641B281C0221BFB2A4B2FFF749FDB8462C
:107D7000002C39D00023251C5C4501D980256D00DD
:107D8000ADB2EF1ABFB24B447078514600934246F1
:107D90003B1CFFF7C1FB0028DAD1012085E710303A
:107DA00080B2FFF745FFB08C8EE74B4610337078FA
:107DB0005146009300223B1CFFF7AEFB0028ECD09D
:107DC000291C1022484618F023FAEA8870881032DD
:107DD00092B24946FFF7D2FC00280DD0E888022174
:107DE000103080B2FFF70CFD0023029AB384F384B5
:107DF000039B93701B0AD370002056E7288910302C
:107E000080B2FFF715FFB08CFFF732FC029000281C
:107E100016D0029A70789378D27812021A43111C05
:107E2000102392462A1C00F067FB738803932F8966
:107E3000F38C3A1C002B00D172E75FE7131C6EE74E
:107E40000348064900F0C8FAE3E7C046E411002001
:107E50008852020090520200E40E00205F040000ED
:107E600008B5FFF713FF08BDF0B54E464546574627
:107E7000E0B4964C0023237001238EB05B42FF22B6
:107E800000269946904604AD1223301C00212A1C7E
:107E900000F032FBAF68EB687B40013341D0013624
:107EA000F6B2022EF0D14346FF2B5FD063705346EB
:107EB000012B00D17FE080235B0009AE6380404648
:107EC00012230021321C00F017FB814B814F984692
:107ED0006188B94266D8338A434500D1AFE08B420E
:107EE00000D8ACE000239946102360786A4600F081
:107EF00003FB6B4602E00133AB4253D01878FF28F6
:107F0000F9D06B46DB8968460E21714A9A46FFF725
:107F1000E3FA824500D19AE010204946FFF770FC51
:107F2000D6E7AB78412BBAD1EB78542BB7D12B796C
:107F3000532BB4D16B794E2BB1D1AB79762BAED11B
:107F4000EB79312B00D1B9E0322BA8D16846123041
:107F500010215F4AFFF7C0FA2B8883429FD102238A
:107F60009A464F459BD2B946B04698E700235A4DF2
:107F70006370FFF7EFFB002806D00220404254490F
:107F8000FFF710FC00280BD163780133DBB263707C
:107F9000012BEED9A021281CC90000F01DFAE8E74A
:107FA0000023237001223C23E2540EB01CBC9046F7
:107FB0009946A246F0BD1023464F638040461021EB
:107FC00009AE0DAD1023321C00F096FA331C19785F
:107FD000FF290BD10133AB42F9D1FFF711FD002886
:107FE000E0D13D483D4900F0F7F9DBE7F28968460A
:107FF000904626300C21364AFFF76EFA804507D0AE
:108000001020FFF7F3FB6188B942E6D86078D9E722
:108010003388002B0DD17288101C9046FFF728FB87
:10802000002843D0A3788370E378C3703389002B92
:108030001DD0F088103080B2FFF7D8FBE3E70221B3
:108040000020FFF7DDFB0222618891464CE76A467B
:1080500060786188FFF7BCFA6A46138883420AD0C9
:10806000D0884946103080B2FFF7CAFB30E740465F
:10807000FFF74EFBDDE75388181C9A46FFF7F8FA26
:10808000002817D0A3786A468370E378C3701389F9
:10809000002B07D06B46D8884946103080B2FFF7D6
:1080A000AFFB15E75046FFF733FBF3E74046FFF71A
:1080B00009FBB7E75046FFF705FBE3E72B88002BEA
:1080C00000D0ECE6012292464BE7C046E4110020C6
:1080D000FFFF0000FF1F0000885202001B0300008A
:1080E00010B5084C3C23E35C002B01D1FFF7BCFE2C
:1080F000231C283301221A73034BA363034B23630E
:1081000010BDC046E41100204D790000581B00004E
:10811000F0B54F464646C0B4051C85B08946171CCD
:108120009846002850D0002B4ED0304E7468002C5A
:1081300008D0A047002805D1052005B00CBC90460A
:108140009946F0BD381C103080B2FFF771FD281C35
:10815000FFF78EFA041C0320002CEED0E578A378FC
:108160002D021D437078291C6A46102300F0C4F9C3
:1081700069460B8949467A1804209A42DDD86A4636
:1081800049469180D78055819F422BD0938969467B
:1081900001338B81684641467588FFF74BFB031C12
:1081A0000120002BC9D0A5702D0AE57069468B8986
:1081B000642B07D94B88B3840023F3844023F35CFA
:1081C000002B06D00020B8E709480A4900F004F95E
:1081D000ABE7301C40300121074A084B00F030FD6E
:1081E0000020AAE700239381D4E7C046E4110020D1
:1081F0008852020069050000B80B0000617E000093
:10820000F0B5474680B4041C82B08846171C1D1C7C
:10821000002812D0002B10D0201CFFF729FA0028CC
:1082200014D0C47886782402211C3143032000290D
:108230000ED102B004BC9046F0BD0E480E4900F0CD
:10824000CBF8201CFFF714FA0028EAD10320F0E74E
:108250004346DA19094B9A4201D90420E9E7084B51
:108260004246587800953B1CFFF756F90028F4D099
:108270000020DEE788520200BA050000FFFF000080
:10828000E411002010B5041C84B0002815D0201C77
:10829000FFF7EEF9002819D0C17883780902194355
:1082A00002D1081C04B010BD094B6A46587810234F
:1082B00000F022F96B461989F3E70648064900F0F9
:1082C0008BF8201CFFF7D4F90028E5D10021E8E75E
:1082D000E411002088520200D7050000F0B5461EC8
:1082E000041C3048B6B285B00D1C171C864217D846
:1082F0008023DB00994213D8201CFFF7B9F900282E
:1083000004D0C37882781B0213432FD1264E7368A2
:10831000002B0AD09847002807D1052005B0F0BDF2
:108320002248234900F058F8E6E7281C103080B2B4
:10833000FFF77EFC33787F2B2ED86A4600236846F1
:10834000391C93805381938176885480D580158120
:10835000FFF770FA031C0120002BDFD0201CFFF771
:10836000B1F98670360AC6700220D7E7201CFFF7E5
:1083700089FFA84206D00C4B9C84DD84FFF786FC65
:108380000028CBD10020002FC8D0201C00212A1C9F
:108390003B1CFFF735FFC1E70448064900F01CF815
:1083A000CBE7C046FEEF0000E41100208852020037
:1083B000230500004B05000008B5FFF759F9002818
:1083C00007D08378C07800021843431E9841C0B29A
:1083D00008BD0020FCE7C0467047C0467047C04655
:1083E0000FB404B07047C046F0B557464E464546F8
:1083F000E0B499462F4B4003CB180C1C1B18494680
:1084000084B0151C9A4600294FD02B4E731E9A45F6
:1084100046D853464B449E423DD380234C449B0157
:108420009C4233D84B46002B2ED049464B46102950
:1084300000D910239BB298461A1C6846514617F083
:10844000E7FE4246002A17D0002407E02F780135C6
:10845000BE420AD10134E4B2A0450DD96B461E5D7F
:10846000002DF3D1FF27BE42F4D0002004B01CBC85
:1084700090469946A246F0BD494642468B1A9BB2A9
:108480009946C244002BD0D10120EFE70B48A92127
:10849000FFF7A2FFC6E70948A821FFF79DFFBCE749
:1084A0000648A721FFF798FFB3E70448A621FFF786
:1084B00093FFAAE70001000000410000BC52020047
:1084C00010B5094CFF231C4203D008484621FFF792
:1084D00083FF074B074A9B189C4203D003484A215D
:1084E000FFF77AFF10BDC04600010000BC52020039
:1084F0000041000000C0FFFFF0B54746144D80B4B6
:10850000144F4D1940031C1C2D187B1E0E1C904649
:108510009D4218D82B199F4210D3802336199B01F6
:108520009E4203D90C485A21FFF756FF4046291CAA
:10853000221C17F06DFE04BC9046F0BD0648592180
:10854000FFF74AFFE9E704485821FFF745FFE1E755
:108550000001000000410000BC520200F0B5474697
:1085600080B4334F4003CF190E1C151C1C1C3F1840
:10857000002B3ED02F4B9846013B9F4242D83B19DF
:10858000984546D3802336199B019E424AD8FF2046
:10859000802638407600361AA64200DD261CB3B28B
:1085A000191C2A1C984616F0FDFC381C16F002FD1A
:1085B0004346E41A80235B00A4B2F7199846AE192B
:1085C000002C13D0251C444501D980256D00ADB287
:1085D000321C0020291C641B16F0E4FCA4B2381CD9
:1085E00016F0E8FC7F197619002CEBD104BC9046FC
:1085F000F0BD11486D21FFF7EFFE0E4B9846013B91
:108600009F42BCD90C486E21FFF7E6FE3B19984506
:10861000B8D209486F21FFF7DFFE361980239B018E
:108620009E42B4D904487021FFF7D6FEAFE7C0469A
:108630000001000000410000BC52020038B50B4BA5
:108640004403E4180A4B013B9C420AD880239B0157
:10865000E518201C0134FF3416F0A8FCAC42F8D118
:1086600038BD04489021FFF7B7FEEFE70001000096
:1086700000410000BC52020008B5131C0022FFF7A5
:10868000B3FE08BD08B5FFF7AFFE08BD7047C04692
:1086900030B5104C83B02378002B0DD06D460735D4
:1086A0002120291C00F044FC69461D20063100F001
:1086B0003FFC2B78022B03D015F02CF803B030BD13
:1086C0006A469379002BF7D1034B201D636111F0AB
:1086D0000BFDF3E73C1200208D860000014B18785B
:1086E0007047C0463C12002008B516F019F908BDC5
:1086F000F0B51F24044001234746A34080B40E1C5C
:1087000047091C1C3F2817D8BF00F5196B68234286
:1087100002D004BC9046F0BD114B311C181C984689
:1087200000F0F4F800280DD06B68474423436B60D9
:108730007B681C437C60ECE70A4A0B4B1A8000F014
:1087400049F9E1E730717071B071F0713072707297
:10875000B072F072311C404600F08CF8E4E7C0467D
:10876000541200200380FFFFFC1A002070B51F2464
:1087700004400123A3400D1C46091C1C3F2817D8A8
:10878000B00029184B681C4211D0E5432B404B60C8
:108790000A490B68002B06D01A185268224206D1EB
:1087A0001B68002BF8D1081843681D40456070BD58
:1087B000034A044B1A8000F00DF9E1E7541200203F
:1087C0000380FFFFFC1A0020F0B5454657464E4691
:1087D000E0B41F2505400123AB40071C884646092D
:1087E0001D1C3F281ED8164BB6009A1952682A4203
:1087F00013D01C68002C10D0124A134B9246994695
:10880000A3195B682B4205D0E368002B10D0381CFD
:10881000414698472468002CF2D11CBC90469946EA
:10882000A246F0BD094A074B1A8000F0D3F8DAE7F8
:108830004B465246138000F0CDF8E368E7E7C046A8
:1088400054120020FC1A00200580FFFF0480FFFF67
:108850001F23034001229A40131C4009044A800050
:10886000101840681840431E9841C0B27047C04677
:1088700054120020026808B5002A18D091420FD087
:10888000131C01E099420BD01B68002BFAD10B603E
:1088900000E01A1C1368002BFBD11160012008BDF9
:1088A000054A064B1A8000F081F80020F7E70A60BD
:1088B00001600120F3E7C0460080FFFFFC1A0020A2
:1088C0000368002B01D01A680260181C7047C0466C
:1088D00010B500290ED004688C4213D0002C09D0AA
:1088E00023688B4204D107E01A688A4206D0131C21
:1088F000002BF9D1002010BD1A1C231C1268012086
:108900001A60F8E7246804600120F4E70368002B8C
:1089100003D106E01B68002B03D09942FAD1012055
:1089200000E000207047C04610B5808800280BD1B9
:1089300015F0A0FF84B203F0B7FD0023C25A023342
:108940005440082BFAD1201C17F044FD03480123A2
:1089500003731C3015F04CFF10BDC046EC00002026
:1089600008B5024803F008FE08BDC046EC00002030
:1089700010B5084C237B002B0AD0201C1C3015F0AE
:108980005FFF054B201CA3610023237303F0F4FD5C
:1089900010BDC046EC0000202989000008B502483F
:1089A0001C3015F04DFF08BDEC000020064808B54E
:1089B00002230380054B1B884380054B1B68002B5B
:1089C00000D0984708BDC046001B0020FC1A0020BC
:1089D000F81A0020064808B503230380054B1B88BE
:1089E0004380054B1B68002B00D0984708BDC0464C
:1089F000001B0020FC1A0020F81A0020F8B546469B
:108A00004F46C0B408AC267809AC257841607E2A70
:108A100027D8141C7F2A22D8E2B26400A04604782A
:108A200091460122144047462743FCB24F46154069
:108A300094430381BB002543CB18067405700022C4
:108A4000994208D2CA70037844685B089B000431DD
:108A5000E3189942F6D30CBC90469946F8BD7F24A2
:108A6000DAE7034A034B1A80FFF7A0FFF3E7C0469B
:108A70000180FFFFFC1A0020F8B54F464646C0B4FF
:108A80008846071C914615F0F5FEFB68051C3989E0
:108A9000C01AFBF767FBFE2808D8C0B2002806D131
:108AA00039787B684E08B6009E1918E0FF203978A7
:108AB0007C684E08B600A619B44241D28446E378D9
:108AC0001A1C834200D962469B1AE37039787B688E
:108AD0004E08B60004349E19B442F0D3FD60B34290
:108AE00030D20025DC78002C02D01A88424517D0FD
:108AF000002D02D0EA78A24200D91D1C0433B342F3
:108B0000F0D3CB0711D5002D18D043462B804B4610
:108B1000AB703B7C0120EB700CBC90469946F8BDD5
:108B20009A784A45E4D10020F6E7002D04D0EB788E
:108B30000220002BF0D1E8E70220EDE70120EBE76F
:108B4000231CCBE7CB07591E8B410220C01AE3E759
:108B500008B5FFF70DFF08BD7047C046044A13680B
:108B6000002B03D018181060181C7047014BF9E750
:108B700060120020583C002030B5144B144D198869
:108B800083B0002401222B880B4023411A4204D1D8
:108B900001340F2CF7D103B030BD01A814F0ACFAAA
:108BA0002B880122A240934301A82B8014F0AAFA3B
:108BB000084BA400E458002C01D0A047EBE7064A7C
:108BC000064B1A80FFF706FFA047E4E71C010020D0
:108BD00064120020683E02000680FFFFFC1A00209D
:108BE00000B583B014F016FC0EF010FF022300282D
:108BF00002D1181C03B000BD01A814F07DFA054B8A
:108C00001022198801A80A431A8014F07BFA012364
:108C1000EFE7C0466412002010B5FFF7ADFF2B2030
:108C20000021FFF7D1FD054C2388002B01D1FFF770
:108C30002FFD2088431E9841C0B210BD6412002051
:108C4000F8B51D1C0378041C0F1C161C012B05D045
:108C500000232774E66065612370F8BD002303706C
:108C6000043015F0EDFDF3E708B50378002B04D1CF
:108C700001230370043015F0BBFD08BD08B503786F
:108C8000012B00D008BD00230370043015F0D8FD7F
:108C9000F8E7C046164B10B5984218D01A1C183287
:108CA000904200D010BD134A00219A6106225A77E3
:108CB00019770322D97721215A542E215A549A77B1
:108CC0000724202001212F221C549954EAE7094B44
:108CD0000322036004234371827100230521427241
:108CE000012203710172C3718275C375DAE7C04650
:108CF0009C3600200008004200207047002070478A
:108D00007047C04638B5174C2322227201222282B6
:108D1000154A051CA26128226261144A1448E260C7
:108D200002226060628100F025F8201C16F060F9D4
:108D3000C3B2002B01D058B238BD201C16F084F904
:108D4000C3B2002BF7D10823201C6381E56016F025
:108D500099F9C3B2002BEED1201C16F061F9002066
:108D6000EAE7C04668120020018D000020010020C3
:108D7000CC360020094B984200D07047084B0222A5
:108D8000036010234371002303711121C3718372A7
:108D90000123827101724272C372EEE7CC36002069
:108DA000000C004200B5094B83B01B78002B0BD0A0
:108DB00001A814F0A1F9064B8022198852000A4339
:108DC00001A81A8014F09EF903B000BD841200209F
:108DD000641200200000000010B51B4C0021201C74
:108DE000482217F0A9FA174B154AA262E36205223E
:108DF0003223E25401224123E25433230722E25476
:108E000012499022124817F003FA124C1422211C26
:108E10001031114817F0FCF9211C243103220F48AE
:108E200017F0F6F9211C283160220D4817F0F0F9EF
:108E30009222002152010B4817F07EFA10BDC04665
:108E4000EB1D341234123412602D0020B03E0200AB
:108E5000082E0020303F02004C2D0020482D00201D
:108E6000A82D0020081B002030B583B000236C46DD
:108E70000093A380FF23CAB299438023051C5B00A3
:108E8000994220D080239B00994214D000290AD017
:108E9000114A124B1A80FFF79DFD2B1C06CC06C30E
:108EA000281C03B030BD0E4BD200D11868460822F2
:108EB00017F0AEF9F1E70B4BD200D1186846082243
:108EC00017F0A6F9E9E7084BD200D1186846082246
:108ED00017F09EF9E1E7C0460A600000FC1A002086
:108EE00050420200B83F0200D840020008B5FFF728
:108EF00073FFFEF777FA08BD30B5041C83B00D1C74
:108F00006846211CFFF7B0FFFF239C4380239B0092
:108F10009C4204D0044A054B1A80FFF75BFD009B7E
:108F20002B6003B030BDC04606600000FC1A002074
:108F3000F0B5041C83B00D1C6846211CFFF794FF9C
:108F400001AB009F1E88002D13D0FF239C4303D04C
:108F500080235B009C4206D1281C391C321C17F070
:108F600057F903B0F0BD064A064B1A80FFF732FDF1
:108F7000F7E7044BC022D2011A80FFF72BFDE4E78C
:108F800001600000FC1A002030B5051C83B00C1CE9
:108F90006846291CFFF768FF002C0FD0FF239D4374
:108FA00004D0094A094B1A80FFF714FD6B469A88D2
:108FB0000098211C17F02CF903B030BD044A034B74
:108FC0001A80FFF707FDE9E705600000FC1A0020A2
:108FD00004600000F0B50268214C57464E464546F5
:108FE000B223E0B490465B004A22E050FF320023F7
:108FF000A354A52252001B4DA3546A78A7235B00FB
:10900000E254A4235B00E65C50274346D85B311C46
:10901000FBF7F6F8A623C0B25B00E054994643463E
:109020008246311CD85BFBF741F9002903D0534637
:1090300001334A46A354AB78FF229A40D24301231E
:109040009A434C23FF33E254074A1378591C11709A
:109050004E22FF32A3541CBC90469946A246F0BD56
:10906000982E0020482D002088120020F8B52C4CA6
:10907000A56885423CD8401BD821FBF773F82278BD
:10908000C3B29A423AD9FF231840D82358432D1827
:109090002B7C5B08022B07D024DD032B22D02B7CFA
:1090A000012293432B74F8BDE378002B01D0013BE0
:1090B000E370A823EF5826692821B81BFBF752F864
:1090C000C3B2B74220D362789A4223D9FF23184013
:1090D00083001818C00036183378002BDFD0002327
:1090E0003370DCE72379002BD9D0013B2371D6E71D
:1090F0000C4A0D4B1A80FFF759FCD4E70B4A0A4B78
:109100001A80FFF753FCCEE7094A074B1A80FFF796
:109110004DFCC8E7074A044B1A80FFF747FCC2E73B
:10912000982E002082440000FC1A00208344000096
:1091300084440000854400004823002210B5C25436
:10914000436C041C002B03D0201C4830984710BDF2
:10915000034B044A1A80FFF73DFC636CF4E7C046FA
:10916000FC1A002044440000F0B557464E464546E0
:10917000E0B43D4F82463A78002A13D0BC68237C85
:10918000D80715D5013AD2B2D8255543231CD83378
:109190005D1905E01A1C117C1E1BD833C80709D5C0
:1091A000AB42F7D100201CBC90469946A246F0BDC8
:1091B000221C00260021A823D1505146022924D088
:1091C00007D3032905D0294A294B1A80FFF702FC4F
:1091D000E8E73B79B9789942E4D901333B71517C96
:1091E0000F2500232940936051741371A419637CE7
:1091F0000F22934351466374480001231843002310
:1092000023602074B8688019CDE7FB7899467B7895
:109210004B45C7D9387B80460028C3D039690D78C3
:109220000B1C8C4628330021002D07D10BE09C46F7
:1092300028331D1C283D2D78002D04D00131C9B2E2
:109240004145F4D1AEE74B4601336046FB70012344
:1092500003701C208444A8256046505113713B7B49
:109260008B42C3D19EE7C046982E00208144000067
:10927000FC1A002000B50A4B01228240101C1A7A09
:1092800083B01043187201A813F036FF054B20225B
:10929000198801A80A431A8013F034FF03B000BDF7
:1092A000881200206412002008B5064B011C5A7A6F
:1092B000181C013A0C305A72FFF7DCFA0120FFF754
:1092C000D9FF08BD8812002070B50E4CBE23A28ABB
:1092D000061C113AFF3A92B22569DB009A4204D982
:1092E000094A0A4B1A80FFF775FB201C1030311C0D
:1092F000FFF7C0FA002D00D070BD0020FFF7BAFFC5
:10930000FAE7C0468812002063440000FC1A0020DF
:1093100008B5011C044820391830FFF7ABFA0120CA
:10932000FFF7A8FF08BDC04688120020F8B59A22B2
:10933000324B52009918E82299500221E0229954A8
:10934000198EE22299520B21E42299540022F02135
:109350005A54F1215A540124F2215C54F3215C54F3
:10936000274EF4215A54F8215E50F5215C549A247A
:1093700064001E5D032102258E432E4383273E4059
:1093800080277F423E431E5538241E5D3624FF341D
:109390001E559E8E9B2464001E53DE8E9C2464000A
:1093A0001E5332241E5D9D2464001E5539241E5D0B
:1093B0003C24FF341E559E2464001E5D8E433543BD
:1093C000294019552D215C5C3E21FF315C542E2132
:1093D0005C5C9F2149005C54A02149005C5C1A211F
:1093E000FF315C549A62074A1876517A181C013191
:1093F000583051720BF0E0F8F8BDC046982E0020AE
:10940000799800008812002070B582B06D4618313E
:1094100003350191041C291C0E20FFF789FD2B78D0
:109420000199002B5BD102228823CA5403225242A5
:109430008A23CA525023E25A8C230932CA54636DDC
:109440009020093B0B50228F5A70120A9A704C22BE
:10945000A25CDA70221C4C3252781A714A22A25C49
:109460005A71221C4A3252789A714E22A25CDA71E9
:10947000324A15781D720B58032019786E1C8143EF
:109480000C2001430F20014019702D480199A023A1
:109490001670C8505923E05C01999823C854294B91
:1094A000019918789923C8545823E45C0198012144
:1094B000E4094C409A214454019801239B214354D0
:1094C00001989C21435401989D214354537A01985B
:1094D000013353720BF070F8002002B070BD01220E
:1094E0008823CA54228F8A23CA525023E25A8C23DB
:1094F0000832CA54636D9020083BFF220B505A700B
:109500004C22A25C9A70221C4C325278DA704A22A9
:10951000A25C1A71221C4A3252785A714E22A25C05
:109520009A71064A1578DD710B58082119700648A2
:1095300001996E1CA0231670C850ABE7881200205A
:109540004D950000482D0020A992000038B5041C5C
:10955000A43C9023E358051C98785A7800021043E5
:10956000FF210AF0B1F9002803D1281CFFF79CFE67
:1095700038BD054AA023E25000229D23E254201C5E
:109580000BF004F8F4E7C046A992000070B5354C22
:109590008820211C4000FFF7CBFC211D32480C3CE9
:1095A000FFF7AAFC237B002B0BD0206900230021AE
:1095B0009A00D218D20011540133227BDBB29A42B6
:1095C000F6D81020FF30211CFFF7B2FC211C083117
:1095D0002648FFF791FC2678002E10D0751EEDB2BC
:1095E000D821A2684D43131CD8335D19012000E037
:1095F000D833117C814311741A1EAA42F8D1237BFF
:10960000A4225200637094200023E3702371A118F8
:109610004000A670FFF78CFC211C2A202531FF306A
:10962000FFF786FC211C8C20243140002425FFF705
:109630007FFC635D002B0CD0211C1C310C48FFF714
:109640005BFCB4235B008420E1188000FFF754FC2E
:10965000635D2522A25C5343E269D3182362002391
:10966000237670BDA42E00200E0200000D02000023
:109670000F02000038B5134C1348211C2031251C63
:10968000FFF73AFC1C351820FF30291CFFF750FC6F
:10969000227F236A002A01D0002B0DD09100891867
:1096A000C9005918A8208B4205D21A1C2032283331
:1096B00010709942F9D838BD044A054B1A80FFF75B
:1096C00075F9F8E788120020120200002944000012
:1096D000FC1A002070B5041C0E1C002813D0C368AF
:1096E000002B10D00B4D281C1030FFF7E9F8201C80
:1096F000E3682674103098472B69002B02D00020B5
:10970000FFF7B8FD70BD044A044B1A80FFF762F9F9
:10971000E8E7C046881200206B440000FC1A0020D5
:10972000F0B55F46564644464D46F0B485B00190CC
:109730008846171C13F048FE82464A482423C35C1F
:10974000002B00D175E048490C788946002C00D1E7
:1097500083E0C16A53465B1A4A4602939368013C10
:10976000E4B2191CD8260831664300917D22C16AF3
:109770001D1C012494465246D83564428A1AAE19FB
:10978000A3460099394D3A4C0392009703E0D83331
:10979000D831B3421CD01A8A2A40A242F7D11A7C8F
:1097A000674652083A40012AF1D10A68002AEED0F1
:1097B000019FBB42EBD0029FBA4236D9039FBA1831
:1097C0000A605A4541D89346D833D831B342E2D1E2
:1097D000009F4146002923D14A46936A002B1FD09F
:1097E000C26A5446A11A8B4232D9D218121B49467A
:1097F0008A62BA4200D93A1C5A4500D95A46041C1A
:109800002434201C01211B4BFFF71AFA201CFFF700
:109810002BFA05B03CBC90469946A246AB46F0BD3B
:109820005A46BA42EBD93A1CE9E700220A6093464D
:10983000CAE7041C2434201C01213A1C0D4BFFF7FD
:10984000FFF9201CFFF710FAE3E75A469346BBE7FF
:1098500042464B469A620022D1E701235B429B4677
:10986000B7E7C04688120020982E0020010F0000A4
:1098700001020000ED98000070B5174D174C6B7A8F
:10988000013B6B72237E032B0ED0022B04D0144AB3
:10989000144B1A80FFF79EF84221FF31635C002BC6
:1098A00006D12376A36270BD00232376A362FAE774
:1098B00001220D4822768278ED6B013A9600B218AB
:1098C0004078520052194243013B6354A262002087
:1098D0000121FFF725FFE6E788120020982E0020DF
:1098E00052440000FC1A0020482D0020F0B54546E7
:1098F00057464E46E0B43C4D2B78002B00D16CE02F
:1099000001233A483A495B42984600248146D827C9
:10991000384E8A4604E001342B78E4B2A34224D9BD
:109920003B1C6343AA68D318198A334A31409142D9
:10993000F1D11A7C7D21520811400129EBD1494611
:109940009868096B401A98602CD1597C0F2081438C
:10995000042001435974032A2DD00120FFF78AFC0B
:1099600001342B78E4B2A342DAD8AB6A002B06D0DC
:109970004846006B1B1AAB622BD0984527D841464E
:10998000013113D04C462434201C012142461B4B8C
:10999000FFF756F9201CFFF767F91CBC9046994663
:1099A000A246F0BD8045B6D98046B4E7484624308B
:1099B000FFF764F9F1E752469378FF229A404C236F
:1099C000D243FF33EA540120FFF754FCC8E798461E
:1099D000D5E70220FFF7AAFCD1E701235B429846B6
:1099E000024B9946C1E7C046982E002088120020FD
:1099F000482D0020010F000001020000ED9800003A
:109A0000F0B557464E464546E0B4314B061C1C6A3D
:109A10001B7F8A469D00ED182023C35CED0065196D
:109A2000002B4DD1AC423BD2428910231B189046EB
:109A3000077A994604E0AA2B07D02834A5422FD9EB
:109A4000231C20331B78A42BF5D1237ABB42F4D1FD
:109A500063894345F1D1226833689A42EDD1626847
:109A600073689A42E9D1327B237B9342E5D1012B83
:109A70000FD0032B1DD1327E237E9A42DDD1211CD3
:109A800048461031082216F09DFB0028D5D1201C35
:109A90000AE0328A238A9A42F9D02834A542CFD8E4
:109AA00020235246F25400201CBC90469946A24600
:109AB000F0BD084A084B1A80FEF778FF0020F3E754
:109AC000064A054B1A80FEF771FF0020ECE7C046FE
:109AD0008812002026440000FC1A002025440000C3
:109AE0005823C35C021C0020D90708D5190705D5E7
:109AF0005023D35A61209842804140427047190751
:109B0000FCD55023D35A6320984280414042F5E768
:109B1000F0B5474680B4874AB823CA500222A02332
:109B2000CA54028FA223CA525923C25CB023CA541A
:109B30000022B123CA545823051CC05C0E1CC00966
:109B400001214840B22170540122B3217254B42142
:109B50007254EB5C82B05B06DB0F04D12A8F76492E
:109B600091425B41DAB2B523F254281CFFF7B8FFEB
:109B700000285BD0714CA4235B00A622E15C52005C
:109B80004A23FF33A25CE35C013A0F1C934200D1ED
:109B9000C3E03A1C1E32612A00D9B2E0B42252005E
:109BA00059439046A2586B6D101C59183A1C1E3030
:109BB00016F02EFB0A37A423F7544246A458A823D4
:109BC0001434F4502278EC23134023702A8F5A4B1C
:109BD0009A4200D979E023780C22934323702378AA
:109BE0002022934323705823EB5C5A0756D42378E2
:109BF000402293432370281CFFF772FF00281FD0D8
:109C0000227880235B42134323704A224B4BFF325E
:109C1000995C002965D1227A03218A4301210A43F4
:109C20002272A62252009B5C63720DE05023EA5A16
:109C3000A4230832F2546C6DA823083CF450C1E709
:109C400023787F22134023704823EB5C281C637029
:109C50004C23EB5CA3702B1C4C335B78E3704A23E2
:109C6000EB5C23712B1C4A335B7863714E23EB5CF6
:109C7000A371FFF735FF00283CD1314B1A78511CF6
:109C80001970E2715A7A301C013218305A720AF097
:109C900093FC002002B004BC9046F0BD2278402323
:109CA00013432370737C0F27BB4301221343737448
:109CB000281CFFF715FF00280ED1224B5B78727C21
:109CC0001B0117401F43777495E723780C229343B9
:109CD00008221343237082E7A723184A5B00D35C52
:109CE000EDE7217A032081430220014321729B5C2E
:109CF0006372A9E74E23114AFF33D35CE371104B23
:109D0000C0E7114B114A1A80FEF764FEA4235B00E2
:109D1000E15C4A23FF33E35C40E75022AF5A0A1C60
:109D20005A43BF1AFFB23A1C1E32612A00D835E7E7
:109D3000E7E7C046A9920000F7FF0000982E002038
:109D400088120020482D0020FC1A002051440000F9
:109D500008B5044AB2235B00D1580868FFF7D8FE63
:109D600008BDC046982E0020F8B5041E09D0AA23CD
:109D7000202543550668476802F096FB0268B24208
:109D800002D00025281CF8BD4368BB42F9D18223CC
:109D90006355237A013BDBB2FD2BF2D8237B032BE7
:109DA00009D0012B02D0A6236355EAE70022202325
:109DB000E2540125E6E7237E0025013BDBB2FD2BC3
:109DC000E0D8236962691343F0D1034A034B1A8038
:109DD000FEF7ECFDD6E7C04610440000FC1A002058
:109DE00010B5041E10D06023C154002A16D012688A
:109DF0004266E36D002B13D0201C60309847201C76
:109E0000FFF76EFE002800D110BD084AB2230021E2
:109E10005B00D1500120FFF72DFAF5E74266E8E735
:109E2000034A044B1A80FEF7C1FDEDE7982E00208F
:109E300054440000FC1A002070B5124D03682C69D0
:109E4000061CA34215D3181B2821FAF78BF96A7850
:109E5000C3B2061C9A4205D80B4A0C4B1A80FEF777
:109E6000B9FD2C69FF231E40B0008619F0002018B0
:109E700070BD064B064A1A80FEF7ACFD33682C69AC
:109E8000E1E7C046982E002048440000FC1A00205C
:109E90004744000008B50378002B05D02838A921D5
:109EA0000022FFF79DFF08BD011C044828394030FF
:109EB000FEF7E0FC0120FFF7DDF9F4E7881200204F
:109EC000F8B54F464646C0B49946244B041C1E6A5A
:109ED0001B7F88469D00ED18ED00171C75190028A2
:109EE00039D0864231D82834A01B2821FAF77EF9D0
:109EF000002904D01A4A1B4B1A80FEF76BFDA542BD
:109F000005D81DE0AA2807D02834A54218D9201C5E
:109F100020300078A428F5D1267ABE42F4D1638996
:109F20004345F1D14B4622681B689A42ECD14B461F
:109F300062685B689A42E7D1A428E5D1201C00E062
:109F400000200CBC90469946F8BD074A054B1A8084
:109F5000FEF740FDC7E7341CD1E7C0468812002059
:109F600024440000FC1A002023440000F8B55F469A
:109F700056464D464446F0B40E1C051C02F094FAB9
:109F8000D023071CF458002D2BD0A822934600287C
:109F900027D04C2291464E23D022984692464B46DB
:109FA000E95A4346EA5C201C3B1CFFF789FF041E6C
:109FB00033D0EB6A002B23D0237B5246B450032BC3
:109FC00024D1201C10300FF0BFFF002815D0227EB6
:109FD0004823EA540388311C2B87281CFFF798FD7F
:109FE00005E0194A194B1A80FEF7E0FCA8203CBC9A
:109FF00090469946A246AB46F8BDA9239B46CEE7BC
:10A00000227B9346032A0AD0D023F450238A281CAB
:10A010002B87311CFFF7F8F9E9E75846E7E7201CE2
:10A0200010300FF091FF0028C6D15B46AB75226956
:10A0300063692A626B62064B281C1030EB620FF0DA
:10A0400075FF0020D3E7C04614440000FC1A00202E
:10A0500055A00000F8B5174F061C3A78283EBC689A
:10A060000025002A0AD0237CD90702D52368B342F1
:10A070000AD00135EDB2D8349542F4D10E4A0F4BD7
:10A080001A80FEF7A7FCF8BD211C301CFFF76EFFFD
:10A09000011E03D13B78AB42F5D8EFE7301C00221C
:10A0A000FFF79EFE201CFEF7E1FF0120FFF7E2F81C
:10A0B000F0E7C046982E002015440000FC1A00204E
:10A0C00038B5051C0C1C002810D000290ED0002328
:10A0D000D022EB62281CA350211CFFF747FF051E6E
:10A0E00002D0201CFEF7C2FF281C38BD024A034BD9
:10A0F0001A80FEF76FFCEAE713440000FC1A002008
:10A10000F8B50468061C0D1C002C28D0201CCE2D90
:10A110001FD020232A1C9A43D02A1AD0D12D14D024
:10A12000C823F35860276366E5553023C35C002BD2
:10A130001CD0291C221C6432FFF752FE301CFEF793
:10A1400095FF0120FFF796F8F8BD5823E35CDB0983
:10A15000E6D0C823F35863666023E554E9E7084A6C
:10A16000084B1A80FEF736FC3068D0E7E362201C0B
:10A17000311CFFF7FBFEA828E6D13068E15DD9E786
:10A180004F440000FC1A0020F8B5041CFFF7ECFD5A
:10A19000002800D1F8BD201C0021FFF731FC002869
:10A1A0000DD0201CA621FFF72BFC0028F2D0A42202
:10A1B0002023C25410200021FEF706FBEAE7002C02
:10A1C00003D02023E35C002B04D01C4A1C4B1A80D4
:10A1D000FEF700FC1B4B1A7F002A16D01D6A2023B5
:10A1E000EB5CA82B15D0013AD2B291002B1C891838
:10A1F0002833C900591806E01D1C28331A1C083AD8
:10A200001278A82A05D08B42F6D1AE222023E25440
:10A21000C0E72026A427AF55002C09D0A35D002B52
:10A2200006D1281C211C282215F0F2FFAF55C1E7EA
:10A23000054A034B1A80FEF7B9FBBBE72044000038
:10A24000FC1A0020881200202744000010B5041ECC
:10A2500003D0104A136A984213D20F4A0F4B1A8048
:10A26000FEF7B8FB2023E35CA42B06D0AA2B04D076
:10A270000B4A0A4B1A80FEF7ADFBA8222023E254BA
:10A2800010BD127F91008A18D2009B189842E4D228
:10A29000E8E7C0468812002021440000FC1A002094
:10A2A0002244000010B5041CFFF75EFD002800D119
:10A2B00010BD201CA421FFF7A3FB0028F8D0FFF756
:10A2C000C5FF10200021FEF77FFAF1E700281BD020
:10A2D0000F4B2830196A1B7F9A00D218D2008A18B7
:10A2E00090420FD22023C35CA42B08D109E0283070
:10A2F000904207D2031C20331B78A42B01D0AA2B39
:10A30000F5D170470020FCE7014B186A011CE2E719
:10A310008812002010B5041C0548211C4030FEF7AF
:10A32000A9FA0023E3620120FEF7A4FF10BDC04696
:10A330008812002010B5041C0548211C1830FEF7B7
:10A3400099FA002363620120FEF794FF10BDC04616
:10A350008812002070B588B0384A05AC0820322336
:10A36000FF30211CD55CFEF7E3FD1A2006A9FEF79D
:10A37000DFFD069B9D4206D35B001A2006A90693CB
:10A38000FEF702FE069B22782D4E51008A180735F3
:10A39000756455436C465B1915346D4608201635B7
:10A3A000211CF363FF3001232B70FEF7C1FD242035
:10A3B000291CFEF7BDFD1A2007A92478FEF7B8FD79
:10A3C0002B78726C0798002B31D06100FF2932D8AE
:10A3D0004A43002412181B48013B1118DBB26418D1
:10A3E0005200002BF7D12B706D46620AEB75E40525
:10A3F00017351220611E8C41FF30291CA4180793C9
:10A40000FEF796FD8220800007A9FEF775FD301C3F
:10A41000483007992A78FF2C0BD801230193002399
:10A42000E4B20293802300949B00FEF7E7FA08B0A1
:10A4300070BDFF24F1E7FF21CAE7C046602D002070
:10A4400088120020FF01000038B5002849D1284BB0
:10A450000025284C1D649D61DD60DD65AC230A226A
:10A460005B00E250244AB0235B00E250AE2301229D
:10A470005B00E2542E23E5543923E5542C23E554A4
:10A480002D220023A3543222A354201C3822A3548B
:10A49000A586E58625862376A5620021D822403050
:10A4A00015F04AFF8C225200A3181D605D609D606C
:10A4B000DD601D615D619D61DD611D625D62252361
:10A4C000E25C2423E35C01325A430021E06915F089
:10A4D00033FF9A235B00E218E823E250FFF73AFFCC
:10A4E00038BD15F081FF024B002218705A72AFE799
:10A4F00088120020982E0020519D0000F8B5444697
:10A500005F4656464D46F0B4041E05D05A4D061C13
:10A510002969103EB1420AD0584A594B1A80FEF7B9
:10A5200045FA3CBC90469946A246AB46F8BD337905
:10A53000192BF1D1AB8AE022D200934228D080229D
:10A540009200934204D04F4A4D4B1A80FEF742FAD4
:10A55000002360220120AB542B72FFF775FFFFF739
:10A5600015F8FFF787F8484B281CAB82237810308A
:10A570003376FEF7A5F97369002B76D0201C0830DE
:10A5800098472B69002BCCD00020FEF773FEC8E75C
:10A5900040222F6C52199046002F0AD04046FEF7F9
:10A5A0008FF9381CA3210022FFF71AFC2F6C002F13
:10A5B000F4D1364B9A46364A9346EF68002F3BD08B
:10A5C000391C3448FEF784F952469168781A884657
:10A5D000D821F9F7C7FD51460A78C3B281469A429D
:10A5E00016D9FF2349460B40D822534343441868E9
:10A5F0001B7C5B08012B1AD0022BDED0002B10D065
:10A60000254A1F4B1A80FEF7E5F9214A9346D4E705
:10A610001B4A5B461380FEF7DDF952469168884677
:10A62000DFE73A1C39790C32FFF7DAFBC3E7A721E1
:10A630000022FFF7D5FBBEE751460B78D8229046A3
:10A64000002B07D184E7524601371378FFB2BB4293
:10A6500000D87DE74046784353469B681818037C32
:10A66000D907F0D5FEF702FDEDE7054B0B4A1A803E
:10A67000FEF7B0F9736981E7881200206644000094
:10A68000FC1A00206744000032030000982E0020CE
:10A69000424400009412002043440000694400003A
:10A6A00038B5354D2C69002C46D023798A2B21D022
:10A6B000C52B16D0192B05D0304A314B1A80FEF726
:10A6C00089F938BDAA8A88235B009A4249D0E023E1
:10A6D000DB00AB822B4B201CE36008300CF072F8DF
:10A6E000EFE7AA8A284B9A422CD0201CA321FEF720
:10A6F000F1FFE6E7AB8A254A934216D0C222D20088
:10A70000934212D0A3232373281C1030FEF7D8F8ED
:10A71000A368002B29D0201C0C3098472B69002BF4
:10A72000CFD00020FEF7A6FDCBE7174BAB82FFF79B
:10A7300011FE00232373E7E7154A114B1A80FEF739
:10A7400049F9B2E7A023DB00AB82281C0223238156
:10A750002430FEF793FA002301206B72FEF78AFD86
:10A76000AFE780239B00AB82B4E7054B094A1A8010
:10A77000FEF730F9A368CEE7881200206544000098
:10A78000FC1A0020FDA400003F040000320300007A
:10A79000644400006A44000010B58368021C5878C5
:10A7A0009B7886B01B0203AC03434020208001A8A5
:10A7B00060600120A0600C4881420ED08B4211D015
:10A7C0006B4619811E20211C0192FDF7FDFFA06838
:10A7D00043425841C0B206B010BD1BB20120002B4D
:10A7E000F9DAEDE70120F6E7FFFF0000F8B54F4684
:10A7F0004646C0B4051E38D01F4B20221F4E0024F1
:10A8000091469846002C1FD02468002C23D0237931
:10A81000002BF7D1A268002A21D0A98F201CFFF7B6
:10A82000BBFF0028EED0A368288A1F78391C09F0E6
:10A830004BF80028E6D04A46AF54E368002B05D019
:10A84000281C9847002CDFD17468DEE70C4A0A4BBD
:10A850001A80FEF7ABF80CBC90469946F8BD094B40
:10A8600042461380FEF7B6F8D7E7074A024B1A8034
:10A87000FEF7B0F8C0E7C046FC1A0020881200209E
:10A88000324400003144000030440000F0B55F461F
:10A8900056464D464446F0B4061C476B7F4899B077
:10A8A00088468146B18D4830FA79FEF7E5F80028F0
:10A8B00063D07A78531EDBB2FD2B68D9002428239D
:10A8C000F35C02AD012B00D002232B73738D2B821E
:10A8D0007A782023EA54B08D0FF03AFB002800D19B
:10A8E000B4E003222123EA540168426829636A63C1
:10A8F000B38D40202B85F38D48212B87BA793A23DD
:10A90000EA547B793A791B021343AB87FB78BA7818
:10A910001B021343EB873023F25C8A46131C0A3B6D
:10A920009BB22B5283460020011C50462954387894
:10A93000C00938D1131C083B9BB258462B52D31A7E
:10A94000726B4046D3186B644923E8544022B15CD3
:10A950004A23E9543823F15C4B23E954F16B392342
:10A96000E964F15C5023E9543B78DB09012B2ED0DC
:10A97000002C21D0E368281C9847301CFEF7DCFB34
:10A9800019B03CBC90469946A246AB46F0BD49463C
:10A990004C6805E0A0680378934200D18FE72468F3
:10A9A000002CF7D1E9E7387A8007C8D1131C093B9E
:10A9B0009BB259466B52C2E72823F35C012B68D047
:10A9C0007B78FF2B46D0281C0FF06AFED5E73B7A38
:10A9D0009B079B0F022BCBD1314B181C9A461B6A4D
:10A9E0001978A9522C221978825C8B460120012A01
:10A9F00028DD221C291C01975D46041CB3469046A5
:10AA00000E1C5246D269574650192522B95CFF697F
:10AA100061431A5D791815F0FBFB5046036A402725
:10AA20001A191078F15B2C27411840203152127806
:10AA30005146AD18CA5D0134A242E2DC019F351CCB
:10AA400044465E465146C969696491E70222212362
:10AA5000EA544DE700242027002C17D02468002C4E
:10AA600000D18AE7A0680378002BF5D02379002B6A
:10AA7000F2D1A98F201CFFF78FFE0028ECD0A1682F
:10AA8000281C0B78EB55E2689047E5E74B465C687D
:10AA9000E5E7281CFFF7AAFE6FE7C04688120020F2
:10AAA000982E0020F8B556464D465F464446F0B411
:10AAB000456B061C6A78531EDBB2FD2B20D8A14BD8
:10AAC0005C6800E02468002C0CD0A06803789342F6
:10AAD000F8D169792B7909021943201CFFF75CFE34
:10AAE00000280ED12B780022DB09012B61D0002A2F
:10AAF00059D101203CBC90469946A246AB46F8BDD0
:10AB000000242978CB09012B57D001224F06ECD520
:10AB10000907890F02296ED0B18D8B4A91426AD8FC
:10AB2000002C03D0207900220028DED1746B23781A
:10AB30005806DED59B079B0F0725012B00D18FE11F
:10AB4000824B1A78002A00D10AE1013AD2B2D82702
:10AB50009B687A43181CD830801803E0D8338342AE
:10AB600000D1FDE01A7C052AF8D11A1CA232128805
:10AB70008A42F3D11A1CA8321268675D525D97426F
:10AB8000ECD1B6E72C22A25CA9785F1ED31A8B42C7
:10AB900000DD0B1CFB18DFB2013A974200D0ABE19D
:10ABA0000320FEF7C3FB301CAF21FFF76FFE002030
:10ABB000A0E72B7A9B079AD002E02A7A9207A4D0CA
:10ABC0003023624CF25C2423756BE35C6F7A002BBC
:10ABD00000D18EE70A3A207ED2B291468046012803
:10ABE0000BD0002873D003286BD9594A594B1A80CF
:10ABF000FDF7F0FE7DE7002277E72B7A9A07920FA8
:10AC0000022A02D0002F00D073E79B0800D070E723
:10AC10002C23E35CBB4200D26BE7228EB38D9A42B9
:10AC200000D066E73223E25C6B789A4200D060E79E
:10AC3000EB78A978A28E1B020B439A4200D058E70A
:10AC40006B792979E28E1B020B439A4200D050E7C0
:10AC50003823E25CAB799A4200D04AE73923E25CC0
:10AC6000EB799A4200D044E73B4D2D23A878E35C72
:10AC700080469A4643449F4200DB3AE7381C4146EF
:10AC8000F9F7B4FACAB2BA4508D9BB1A2D216354F0
:10AC900001214346494299402E23E1542523E05C9B
:10ACA000E1697843736B08189846002399B2894587
:10ACB00000D1E7E09C46C4446146897AC15401331F
:10ACC000F4E7264A234B1A80FDF784FE11E7297A20
:10ACD0008A46012900D00CE79F4200D909E72522C6
:10ACE000A25C914500D904E701325A43E069002192
:10ACF00015F022FBA023AF225B00E25452462C2326
:10AD0000E7542276B38D474623866A783223E2548D
:10AD1000EB78AA781B021343A3866B792A791B026E
:10AD20001343E386AA793823E254EA793923E254BB
:10AD3000094B5A784223FF33E2542D23E7542B7AF0
:10AD4000002762E788120020F7FF0000982E0020FD
:10AD500053440000FC1A0020482D0020404400000D
:10AD60000220FEF701FA002800D1C2E6A823C3584A
:10AD7000AF211A1C1C3A517056600221A022815446
:10AD80008B46B18DA22281520022B0214254B227BB
:10AD9000B1214254BC4601210F1C8A4661464754EA
:10ADA000B3214754B427C2556E4A5146944667466C
:10ADB000B8228750B52281541A7802218C46032785
:10ADC000BA4367463A431A70217803228908114032
:10ADD0001F78890088460C218F4341460F431F701E
:10ADE000227851461209114009018946FFB210210B
:10ADF0008F4349460F439F213940197021781A78B3
:10AE0000C909C9017F278946391C11408C46624611
:10AE10004946114319702178CF062CD40827A42164
:10AE20004754A7795F70E778A2783F023A43170A40
:10AE30009A70DF70677922795F711A7167789F71F4
:10AE4000766B755DDD712578ED09012D0AD0464BD5
:10AE500018305A7A01325A7209F0AEFB002049E6E6
:10AE600001256DE6257AAD0739D100221A72435CBF
:10AE700001334354EBE7726B5946525D5A70A42379
:10AE8000C154E4E7236A4846D8552D23E35CA04625
:10AE90009F4253D00121081C90402E228446A05C82
:10AEA000914662461043C2B248462254FF2A00D15E
:10AEB00068E62C22A25C013A97423BD0AA78013A7C
:10AEC0009B189F4218D00A235A43274B0020DB6B64
:10AED000D2186B785A43A262FEF722FC09E6455C61
:10AEE000032203354554247A03210C40197A9143F7
:10AEF00021430A401A72AAE70220FEF717FA2E230E
:10AF0000E35CFF2B00D0F4E52D22A15CAB7859184F
:10AF1000A1542C22A25C013AD71BFFB23A1C9F42DB
:10AF200000D91A1C0123D2B25B4293401A1C2E2373
:10AF3000E254DEE50220FEF7F9F9DAE52C21615C46
:10AF4000A878C91BC9B28C46844500D9011C0120D0
:10AF5000C9B2404288402E21894641464944087082
:10AF600098E7C046A992000088120020F0B54D462F
:10AF700044465F465646F0B4D34D8823A88A9DB018
:10AF800080465B00984200D18DE0D04F281C0C30E9
:10AF9000FDF796FC041E00D185E0BE68D821A01BF9
:10AFA000F9F7E0F83A78C3B29A4201D800F034FCDD
:10AFB000FF231840D8235843C2233618DB00984596
:10AFC00000D18DE1A023DB00984500D188E1337CDE
:10AFD0005B08012B00D1B3E100DC8FE1022B00D133
:10AFE00099E1032B00D090E1737C1B071B0F012B11
:10AFF000CCD14A23FF33FA5CA6235B00FB5C013B08
:10B000009A4201D100F015FCB1498A788946002A9C
:10B010001DD04C23FF33FB5C9C46DB0701D500F0C1
:10B02000B3FC0123B2469B4666460392A44608E061
:10B03000191C301C08415C460133044201D000F069
:10B04000FEFB039CDAB2A242F2D3644656461A20B3
:10B0500006A9247CFDF76CFF696C069A4C434B46AD
:10B06000A4185A78737C1B09D31A9C40A146B224B9
:10B0700064003E5915F0B8F9C305DB0D4B44B360CD
:10B080003B590F215A7C8A4302210A435A7438598A
:10B0900000218268FEF744FB281C0C30FDF710FCF1
:10B0A000041E00D079E7894905AE002333808B4622
:10B0B00016E0404603789A07920F012A27D04122D2
:10B0C000A25C002A23D1201CFEF736F83823E35C6B
:10B0D0003B2033703923E35C311C7370FDF774FB44
:10B0E000182040190221814688464846FDF7E8FBB2
:10B0F000041E00D18EE1626AAF8A002A00D175E198
:10B10000606B8046734B9F42D3D141460B78590602
:10B1100001D400F073FC6D4AD178107917780818C3
:10B120008742D0DD52788A42CDD91A07970F012F76
:10B13000C9D09A07920F022AC5D0002FC3D19A0610
:10B14000C1D42822A25C9246012A00D18DE3022AB2
:10B15000B9D19B079B0F00D1B3E3022BB3D1594662
:10B160000B78D82253438F68FB189F42ABD25A48C2
:10B1700002944446594A8246019403E0D8379F42DC
:10B1800000D39BE3398A11405145F7D102983C68BE
:10B19000391C808D248FA8310968A042EED1019816
:10B1A000CC79C079A042E9D10198019C00796479F9
:10B1B0008046087924020390A1464C79484624022F
:10B1C000A44644462043039C804660462043804575
:10B1D000D4D10198019C8078E47880468878240254
:10B1E0000390A146CC7848462402A4464446204316
:10B1F000039C8046604620438045BFD101988C79EE
:10B200004078A042BAD10198497880798842B5D176
:10B21000397C4908012901D100F03EFC0329ADD158
:10B220000199A5235B0058464A7AC35C029C884674
:10B230009A4200D047E7264901228B78101C4146EC
:10B24000897A98404042014340468172787C0F21C0
:10B2500088430321014379744046817AFF2901D153
:10B2600000F0DBFBC9434C20C9B2FF305F463954C4
:10B27000002B21D00A4200D0CCE30122944698460C
:10B28000D3B29A46984517D9171C081C3841634613
:10B2900001320342F4D00123BB40DB435046DBB212
:10B2A0004C225F460B40FF32BB54A5235B00FB5C86
:10B2B000C0184A23FF33F854B2235B005F46F958A5
:10B2C0000868FEF725FCFEE688120020982E002074
:10B2D000482D00203F04000001020000010F000083
:10B2E000337C5B08022B6DD0221C30680C32A3210A
:10B2F000FEF776FD201CFDF7B9FE47E6002B04D1D2
:10B300002179301CFEF7FCFE40E6C14AC14B1A8091
:10B31000FDF760FB3AE6301CA830FEF78DFD061CF9
:10B32000407881467068002800D1ACE24946FFF7BA
:10B33000ADFA201CFDF79AFE0120FDF79BFF25E6E4
:10B34000737C1B071B0F012B00D01FE63268237C88
:10B350001A2006A999469246FDF7EAFD6A6C48460E
:10B3600042430699AC4B52185978737C1B09CB1A8F
:10B3700021799A409146002900D15EE2CE2900D180
:10B3800005E3F02900D102E3D02900D1FFE2D12961
:10B3900005D158235246D35CDB0900D0F7E24B4677
:10B3A000B36015F021F8737CC2050F218B43D20DD9
:10B3B00002210B434A44B2607374301C0021FEF733
:10B3C000AFF9E3E5301CA830FEF736FD417842685E
:10B3D00081468A46002A00D16AE22379002B83D174
:10B3E000494648685146FFF751FA7DE7636B1A7882
:10B3F0009207920F012A01D0984683E69A78052A8F
:10B40000FAD0A08D0EF0A4FD002800D142E2636BBB
:10B41000984677E6AB8A9A0700D4D4E07F4B804EFB
:10B42000994698462C6C002C10D0E76A002F00D16A
:10B430008BE0B2235B00F358002B1DD0201CFEF7DD
:10B440004FFB002827D02468002CF7D1AB8AA0221C
:10B45000D200934200D180E1C222D200934200D1B7
:10B460007BE1704A934200D1F4E01DB03CBC9046B1
:10B470009946A246AB46F0BD201CFEF731FB0028E2
:10B4800009D0B4235B00F358002B7BD05823E35C36
:10B49000AA27590708D55023E35A642B0FD95823FC
:10B4A000E35CA0271A070AD4281C4030211CFDF7B2
:10B4B0000FFA201C391C0022FEF792FCB2E74E2343
:10B4C000E75C002F08D06B6800E01B68002B3AD0C7
:10B4D00098680178B942F8D15823E25C30235207CA
:10B4E000D20FE35C002A04D0022B00D183E1012BB0
:10B4F00029D0991E012900D883E1002B19D1002AF7
:10B500007BD1201CFEF7ECFA002800D08AE15823FA
:10B51000E35C5A076AD50120FDF726FE424B071C63
:10B520009A4637E03B4B414A1A80FDF73FFA3023F9
:10B53000E35C012B28D0002BE3D0022B00D1F0E0FC
:10B54000032B00D1E1E0A627AEE73027E35D032B14
:10B5500000D06EE7201C40300EF0F6FC002800D032
:10B5600067E7206C616C20626162E35D201CA3755B
:10B570002F4B1030E3620EF0D9FC281C4030FDF751
:10B580009FF94FE7AA278FE70020FDF7EDFD294936
:10B59000071C8A46002F00D158E7281C4030211C88
:10B5A000FDF796F93C60201CFEF79AFA002806D1B8
:10B5B000391C201CD047071E00D133E779E7381C1F
:10B5C000FDF708FDF4E72C6C002C00D13FE72E1CA2
:10B5D0004036211C301CFDF77BF9201CA3210022E2
:10B5E000FEF7FEFB2C6C002CF3D12FE70020FDF7BB
:10B5F000BBFD071C0C488246CCE74C23E35A9B4614
:10B6000000F052FF824600288CD0002018E0C0468F
:10B610004E440000FC1A0020482D0020119B000021
:10B62000982E00203F040000C1A00000124400003A
:10B63000959E000009940000037B012B00D182E756
:10B6400059463A1C5346FEF73BFC0028F4D1302300
:10B65000E35C6EE7DB4E3378002B00D105E7DA4F71
:10B66000DA48D82300249A46B946804605E00134DA
:10B670003378E4B2A34200D899E057466743B168F3
:10B680004A46CF193B8A13404345F0D13B7C7D228B
:10B690005B081A40012AEAD1797C0809039000D19D
:10B6A000ECE00807000F0128E1D00F2081438B4612
:10B6B00084460121584608438346039861460F306B
:10B6C00008400001039058460840011C03980143BC
:10B6D0007974012B00D167E1032BC8D14C23FF33D0
:10B6E000F15C9143F154A5235B00F25C4A23FF33E4
:10B6F000F254A7235B00F25C013AF254B2235B00E0
:10B70000F1580868FEF704FAB1E7201C40300EF04B
:10B710001BFC002800D1C9E00388022223873023C4
:10B72000E254201CFEF7DCF900280FD15823E35C1B
:10B730005F0705D50120FDF717FDC246071C29E765
:10B740000020FDF711FDCA46071C23E70320FDF783
:10B750000BFD9F4A071C92461CE79A4ED820327870
:10B7600000248046002A05D122E001343378E4B277
:10B77000A3421CD947466743B168CB191A7C032AF8
:10B78000F3D15A7C1207120F042A01D0022AECD1FD
:10B790001868A3210022FEF723FBB2680134D019F8
:10B7A000BC30FDF763FC3378E4B2A342E2D8AB8A45
:10B7B000A022D200934200D057E66B7A002B00D033
:10B7C00053E62C692379C52B04D0824A824B1A8018
:10B7D000FDF700F9238902229343238100D044E638
:10B7E0000020FEF731FEC223DB00201C0021AB82CB
:10B7F000FDF770FF39E6228F784BA6279A4200D9D1
:10B8000052E64823E35CA6270F33DBB20D2B00D8AA
:10B810004AE63023E35C8CE6714A6F4B1A80FDF7F1
:10B82000C5F840E40320FDF79FFC6E49071C8A46DB
:10B83000B0E66D488146FFF70AFCB260B1E501232E
:10B840008B40DB43B446DBB260464C210340FF3102
:10B850007B54A5235B00FB5C6448D2184A23FF336A
:10B86000FA5412F0C5FFFFF791FB201CFFF71AF9FD
:10B87000002801D1FFF72AFCFFF725FC381CA7217F
:10B88000FEF73EFCF3E65A4A534B1A80FDF7A2F846
:10B8900070684BE54746A773A38D564F201C238243
:10B8A000676208300EF042FBFFF71FFCA927FBE59B
:10B8B000514B49480380FDF78DF88EE5029CFFF758
:10B8C00002FC032FD1D1281C43464830A18D1A7A9F
:10B8D000FDF7D2F8002801D1FFF7F5FB3023E35C38
:10B8E000082B01D8FFF7EFFB012309A8037041469D
:10B8F0008B784A781B0213436A461385A08D0EF09D
:10B9000027FB2123002800D180E006A9CF5402683C
:10B91000436812921393A38D10A90B80E38D14AA90
:10B9200013804346DA7906AF3A23FA5440468379C6
:10B9300042791B02134315A90B800379C2781B02BD
:10B94000134356226A4413803023E25C4023093AB1
:10B95000FA52626B0021093217924822B954AF2182
:10B960004922B954E25C4A23FA543823E25C4B235F
:10B97000FA54E06B39231990E25C381C5023FA54D6
:10B98000FEF734FFFFF79FFBFE2300225CE7221C3B
:10B990000C325046FEF724FA201CFDF767FB01200D
:10B9A000FDF768FCFFF77FFB6B7A381C013318301A
:10B9B0006B7208F001FEBA68381C0021FDF7B0FE7A
:10B9C00055E6C046982E0020010F0000010400003B
:10B9D000119B00006D440000FC1A0020F7FF0000DE
:10B9E00049440000C1A00000482D0020E82F00209D
:10B9F0004D440000119300004A4400001A07970FBD
:10BA0000012F01D0FFF79BFBFFF75DFB504606AF10
:10BA1000F85480E7FE23002042E4A6225946520053
:10BA20008A5C9446A52252008A5C501E804660467D
:10BA3000811A994200DD191C4A20FF304144814699
:10BA40005846C9B2484488460170012149428C4495
:10BA5000E0452ED0D218A521D2B25F4649007A54D3
:10BA60001848A721490047788C46594661440F7011
:10BA70005F464F443A70FF229A40D24301239A43D3
:10BA80004C235846FF33C254B2235B00C1580868A8
:10BA9000FEF73EF8FFF717FB7A7C0F239A43032348
:10BAA0001343029C381C7B740021FEF729FBFFF72F
:10BAB0000AFB381CFDF78EFA381C0021FEF720FB2C
:10BAC000FFF701FB482D002038B5051E13D0A62333
:10BAD00003748368002B0ED01A78531EDBB2EF2B51
:10BAE00009D80A48446800E02468002C04D0A16802
:10BAF0000B789342F8D138BDE96804304B424B4192
:10BB00002B71291CFCF7B6FE2C74F4E78812002078
:10BB1000002801D000687047014B5868FBE7C04619
:10BB200088120020F0B58FB0002859D00378032B7D
:10BB300001D00FB0F0BD438802AC23808268C36897
:10BB4000A260E360037C466A2374438A638282694D
:10BB5000C369A261E3612823C25C2C23E2542A2337
:10BB6000C25C2D23E2542023C55C062DE1D9337835
:10BB70009A07920F032ADCD15B09DAD17378002B84
:10BB8000D7D16F4607371520391CFDF7D1F9327828
:10BB90003B78D206520F9A42CBD1B3789A07920FD4
:10BBA000032AC6D11A09C4D11B079B0F032B1DD032
:10BBB000B31E072299795879090201436184D97922
:10BBC0001B7AAD1A1B020B4323842423E554104B2C
:10BBD000B2185B6EA262002BABD0201C9847A8E77E
:10BBE0000C4A0D4B1A80FCF7E1FEA2E701232374F7
:10BBF000082D9ED93079F37800021843FF21208365
:10BC000007F062FE002800D193E7331C0922D1E738
:10BC10008812002045450000FC1A002008B5882243
:10BC2000064B52009A82602100221A611A725A54FD
:10BC30005A60FDF7ABFC0AF0E7FD08BD8812002052
:10BC400038B50C4D041C291C2520FCF751FD38206B
:10BC5000291CFCF74DFD002C05D019232371201C55
:10BC6000FDF732FB38BD044A044B1A80FCF79EFEF8
:10BC7000F8E7C0462401002060440000FC1A0020C0
:10BC800008B5002804D08A230371FDF71DFB08BD09
:10BC9000024A034B1A80FCF789FEF8E76144000072
:10BCA000FC1A002008B5002804D0C5230371FDF755
:10BCB0000BFB08BD024A034B1A80FCF777FEF8E73E
:10BCC00062440000FC1A002070B51F4D2A7B002A38
:10BCD00013D02B691978002933D1013AD2B29100DF
:10BCE00089182833C900591805E028331A1C283A46
:10BCF0001278002A25D18B42F7D12B780024D82640
:10BD0000002B13D1287E431E9841C0B21AE0A968C7
:10BD1000CB181A7CD10704D55B7C1B071B0F022BA9
:10BD20000FD101342B78E4B2A342EBD9FCF7D6FC57
:10BD3000331C63430028EAD1AA68D3181B7CD907B7
:10BD4000EFD5012070BDC046982E0020F8B50E1C1E
:10BD5000252822D0382800D0F8BD144B0F781A7847
:10BD6000002A18D0013AD2B2D8259B685543191C35
:10BD7000D8314D190E4C0F487D2102E0D833AB422B
:10BD800009D01A8A22408242F8D11A7C52080A400D
:10BD9000012AF3D101273770DEE70C78FFF794FF13
:10BDA0000123584004403470D6E7C046982E002046
:10BDB000010F00000102000008B50378DA0601D582
:10BDC000FDF758FC08BDC04670B5204D6023EC5C03
:10BDD00082B0287A231C012601E09C422BD001333B
:10BDE000DBB2191E072901D900210023021CCA4019
:10BDF0001642F2D06022AB5401238B405840144BC2
:10BE000089002872591801A8042214F001FA019B34
:10BE1000002B13D09847287A00280AD001A811F0E7
:10BE20006BF90C4B2022198801A80A431A8011F0E3
:10BE300069F902B070BD6023EC54EDE7064B88222F
:10BE4000D2011A80FCF7C6FD019BE3E788120020AF
:10BE50000045020064120020FC1A0020094A422317
:10BE6000D35C162B0CD808499B00CB589F46022068
:10BE700070473823D35C02200A2BF9D80820F7E753
:10BE80000020F5E7602D002020450200032812DC89
:10BE9000431D1AD0C31D1DD0031C09331FD0031C22
:10BEA0000E33DBB2042B0BD9031C0E331CDB114AFF
:10BEB0004023D05403E00F4A03214023D15470475C
:10BEC0000C4AF4214023D154F9E70A4AFC214023CB
:10BED000D154F4E7074AFA214023D154EFE7054A49
:10BEE000F8214023D154EAE7024AEF214023D154FC
:10BEF000E5E7C046602D00200F4A4223D35C162B95
:10BF000018D80E499B00CB589F463823D35C10208D
:10BF1000002B00D1282070471020FCE73823D35C89
:10BF20003220002BF7D010200A2BF4D81920F2E78A
:10BF30003220F0E70020EEE7602D00207C45020073
:10BF400010B5041CFFF7D8FF23011C1BA401FA2124
:10BF500060438900F8F706F910BDC04610B5FFF739
:10BF60007DFF041CFFF7C8FFA200E301A418E4B2A0
:10BF7000E418A4B2FA2160438900F8F7F3F8024A02
:10BF800001303223D05410BD602D002070B52B4CF1
:10BF90000B223823251CE2544035294B291C032051
:10BFA000E363FCF7C5FF4023E056FFF76FFF291C52
:10BFB00003200025FCF7E8FF4223E554FFF74EFF7E
:10BFC0008200C3018018C0B2C0184423E052FFF7BA
:10BFD00045FF8300C0184623E054FFF73FFF472387
:10BFE000E05436232360012325716571A371A56098
:10BFF000257314F0F9F90126764201225242D31733
:10C00000226163612683607314F0EEF90523E37601
:10C010000423237703236377A37720222223E25488
:10C020002323E5542423E5543023E5543123268487
:10C03000E684E554A076FFF791FF70BD602D0020E7
:10C0400000F8FF0710B5027882B0131C403BDBB24A
:10C05000041C442B00D999E06D499B00CB589F46A6
:10C06000FB2002B010BDF420FBE7037AE820342B5C
:10C07000F7D8684A00201373F3E78268654B002005
:10C080009A60EEE7027A634B00209A76E9E702892C
:10C09000604B00201A83E4E75E498268C368002091
:10C0A0000A614B61DDE7027A5A4B00205A73D8E7E8
:10C0B000037AE820052BD4D8564A00201377D0E71E
:10C0C0000289544B00201A84CBE7524B027AD97E66
:10C0D000E8209142C5D39A770020C2E7037AE8208E
:10C0E0000F2BBED84B4933228B540020B9E7FFF702
:10C0F00003FF2389FA211A01D31A9B0158438900AF
:10C10000F8F730F801A901900220FCF73DFF00206C
:10C11000A7E702893F4B0020DA84A2E7017A3D4A73
:10C120002323D15400209CE7027A3A4B0020DA7690
:10C1300097E7027A374B00201A7192E735498268F7
:10C14000C36800208A62CB628BE7017A314A2223DE
:10C15000D154002085E7037AE820072B00D980E737
:10C160002C4A002053777CE7027A2A4B00205A7130
:10C1700077E7011C08310220FCF706FF002070E77A
:10C18000017A244A3123D15400206AE7072A00D9D2
:10C1900069E7214B92009B589F46237AE820032BA6
:10C1A00000D95EE71B4941228B54002059E7237ACE
:10C1B000E8201A1C2032D2B23F2A00D951E758B2E7
:10C1C000FFF764FE03201549FCF7DEFE002048E778
:10C1D000104B227AD96BE820D140CC0700D440E73D
:10C1E00038215A54FFF7BAFE00203AE7237AE820B4
:10C1F000162B00D935E70121094A9940114200D197
:10C200002FE7044942228B54FFF7A8FE002028E7BD
:10C21000D8450200602D0020EC460200A02D002031
:10C220002700500030B5027883B0131C403BDBB2CE
:10C23000041C442B00D99AE06E499B00CB589F46C2
:10C2400000230372002003B030BD6B4B5B79037297
:10C250000020F8E7F420F6E7674B1B8C03810020F1
:10C26000F1E7654B9B7F03720020ECE7624A2223D3
:10C27000D35C03720020E6E75F4B9B68836000207D
:10C28000E1E75D4B5B7B03720020DCE75A4B1B7BD5
:10C2900003720020D7E7584B1B7F03720020D2E7C0
:10C2A000554B9B7E03720020CDE7534B1B790372E5
:10C2B0000020C8E7022001A9FCF73AFE019D002DED
:10C2C00000D088E0FA20400020810020BBE74A4BE4
:10C2D000DB8C03810020B6E7474A2323D35C03723B
:10C2E0000020B0E7444B5B7F03720020ABE7424B7A
:10C2F000DB7E03720020A6E73F4A3323D35C037240
:10C30000F420A0E73C4B1B8B038100209BE73A4BBA
:10C3100019695A698160C260002094E7364B1B6836
:10C32000836000208FE7011C08310220FCF700FE2B
:10C33000002088E7FFF7E0FD2F4A2223D35CFA2193
:10C340001A01D31A9B0158438900F7F70BFFA0602D
:10C35000002078E7284A3123D35C0372002072E77B
:10C36000254B996ADA6A8160C26000206BE7072A70
:10C3700000D96FE7214B92009B589F46FFF76EFD57
:10C38000207200205FE7FFF769FD8300C01820726C
:10C39000002058E7FFF762FD8300C318C201DBB23B
:10C3A0009B18238100204EE7134A4123D35C0020D1
:10C3B000237248E7104A4023D35C0020237242E7EF
:10C3C0000D4B0020DB6BA3603DE70B4A3823D35CA9
:10C3D0000020237237E7FFF78FFD0301181AFA21B7
:10C3E00089008001F7F7BEFE011C281CF7F7BAFE92
:10C3F00080B269E70C470200602D0020204802004F
:10C40000F8B54F464646C0B41D4BDA7E197F987F7B
:10C4100089469446161A8E4200DD0E1C751E002EAB
:10C4200001D100250126002300220224C118013970
:10C43000271C8F400133B846DBB24244AB42F5D9EA
:10C44000494663468F1B013B02269E40013E7E43C8
:10C4500092199500AA189500FFF700FD84000419B1
:10C46000C301E4B2E418FFF747FDA4B26419FA214E
:10C4700060438900F7F776FE0CBC90469946F8BDFC
:10C48000602D002008B5FFF737FD064A2223D35C54
:10C49000FA211A01D31A9B0158438900F7F762FE6B
:10C4A00008BDC046602D002000487047882D002040
:10C4B000064B01689A6A4A40D96A4368081C58408A
:10C4C000104343425841C0B27047C046602D00201F
:10C4D00038B5041CFFF7C2FC051CFFF70DFD6843CF
:10C4E000FA2160438900F7F73DFE38BD00B583B0FF
:10C4F000684610F001FE0B4B8022198812010A4396
:10C5000001A81A8010F0F8FD074B0122198801A834
:10C510000A431A8010F0F6FD684610F0F3FD03B0F0
:10C5200000BDC046781300206412002010B5054CF1
:10C53000011C201CFCF79EF92379002B01D1FFF789
:10C54000D5FF10BDF012002008B500230371FFF7DE
:10C55000EDFF08BD08B501230371FFF7E7FF08BD34
:10C5600008B502230371FFF7E1FF08BD08B50323F7
:10C570000371FFF7DBFF08BD08B505230371002336
:10C58000036102234373FFF7D1FF08BD30B50D4CA3
:10C5900083B00025256000F09BF901A810F0ACFDE8
:10C5A000684603300FF0F2FE002808D02571064BD4
:10C5B000002201A81A8010F0A5FD03B030BD0223AF
:10C5C0002371F4E7F012002078130020F0B587B053
:10C5D00002A810F091FD764D6846002407306C717A
:10C5E0000FF0D4FE002807D02B79022B3AD002A8F6
:10C5F00010F088FD07B0F0BD6846C27901266D4F86
:10C60000331C93401A1C3B8802A893433B8010F0D4
:10C6100079FD6846C3792E710B2B05D00C2B2CD8D5
:10C62000654A9B00D3589F462C68002C25D063494F
:10C6300023790A1CDA40164208D101222468002C12
:10C640001BD02379081CD8400242F7D0281C211C9B
:10C65000FCF73EF92379082B0FD8594A9B00D35891
:10C66000201C9F462C71C2E7564B1B78002B04D12F
:10C670002A68002A01D0FFF739FF03A80FF086FED1
:10C6800000280AD04F4B1B78002BB3D12B68002B0E
:10C6900000D18AE0FFF72AFFACE704A810F02CFDD8
:10C6A0006B79002B73D004A810F02CFDA2E700F0EA
:10C6B000EFF8041C002CE0D0012C9BD103A810F053
:10C6C0001BFD6846C37903A89C403B881C433C8003
:10C6D00010F018FD8EE700F07BFA041CEAE700F08A
:10C6E000BFFA041CE6E700F063FC041CE2E700F07C
:10C6F000F1FB041CDEE700F08DFB041CDAE70FF011
:10C70000CFFB041CD6E70FF0FDFB041CD2E700F0C2
:10C7100037F9041CCEE70FF08FFB041CCAE70FF0BB
:10C7200071FB0A236A46041CD371C3E700F010F9B9
:10C730000923041C6846C371BCE70FF0CDFB082336
:10C740006A46041CD371B5E70FF092FB0723041C63
:10C750006846C371AEE700F0F7FA06236A46041C88
:10C76000D371A7E700F094FB0523041C6846C3714E
:10C77000A0E700F0EBFB02236A46041CD37199E7A3
:10C7800000F062F80C23041C6846C37192E705A808
:10C7900010F0B2FC0C4B01241A8805A8224392B277
:10C7A0001A8010F0AFFC6C717DE72B7122E7C04658
:10C7B000F01200207813002040480200FFFF000024
:10C7C00074480200FF1200206412002038B51B4D8F
:10C7D0002C68281CFCF774F82379082B07D8184A12
:10C7E0009B00D3589F46201C6830636E9847154BBA
:10C7F0001B78002B08D038BD201CA3680C3098474C
:10C80000104B1B78002BF6D12B68002BF3D0FFF7D1
:10C810006DFEF0E7A3699847E9E763699847E6E7A3
:10C82000201C1030A3699847E1E7201C1030E36812
:10C830009847DCE7E3689847D9E7C046F012002044
:10C8400098480200FF12002010B5002303740379FA
:10C85000041C072B14D0082B08D10BF03DF900283D
:10C8600004D0012809D1084B1C6006E00023201CDD
:10C8700023741030E36898470020044B187010BDF3
:10C880000BF004F9EBE7C0467C130020F8120020FF
:10C8900010B50D4B1C682379072B11D0082B09D03C
:10C8A00001232374201C1030E36898470020074BB5
:10C8B000187010BD201C0BF00FF90028F7D1F1E71C
:10C8C000201C0BF0E3F8F8E77C130020F81200209E
:10C8D00010B584B00BF026F9002400F06BF800F0DE
:10C8E000ABFA00F0FDFB0FF0F1FA00F007FB0FF0E0
:10C8F0001BFB00F059F80FF0B5FA6A464E23684664
:10C90000137014720BF076FC6A464F2313700F4BB2
:10C9100068469B7F13720BF06DFC6A4659231472B4
:10C9200068460124137064420BF064FC6A4650238D
:10C930006846137014810BF05DFC6A465323684609
:10C94000137014810BF056FC04B010BD602D002054
:10C9500038B5051C0BF096FA041E07D0012801D14A
:10C96000054B1D60054B201C1C7038BD281C103069
:10C97000AB699847F6E7C0467C130020F912002007
:10C9800038B5074B1D68281C0BF07CFA041E03D138
:10C99000281C1030AB699847024B201C1C7038BD16
:10C9A0007C130020F9120020014B00221A707047FE
:10C9B000F9120020F0B5474680B41E4C82B06E4696
:10C9C000802080270636211C7F008000FCF794FA27
:10C9D000381C311CFCF7ACFA23683288A360E36092
:10C9E0002361251C9B18E43D00226361211CE82380
:10C9F000EA50183110489046FCF77EFA9720311C17
:10CA00004000FCF795FAFC23EB58822149006B505B
:10CA1000842149006B503288862149006B509B1855
:10CA200088225200AB504346EB5102B004BC904602
:10CA3000F0BDC04604360020230200004300181851
:10CA4000C000034BE030C018C06801307047C046DA
:10CA50002435002030B545002D180F4BED0083B074
:10CA6000E035ED1801A810F047FB2B691A78013268
:10CA70009A182A6100221A702A696B699A4204D0B6
:10CA800001A810F03FFB03B030BDEA686B686A6133
:10CA9000EB602B61F4E7C0462035002043001818F6
:10CAA000074BC0001818E430C3684268934204D0B2
:10CAB0001878431E9841C0B270470020FCE7C0467A
:10CAC0002035002030B5012085B0FFF7E7FF0028B2
:10CAD00016D10020FFF7E2FF002801D105B030BDDC
:10CAE0001D4B0222198802A80A431A8010F004FB89
:10CAF0001A4C2378002B13D002A810F003FBEDE7AB
:10CB0000154B01241A88684622431A8010F0F4FA63
:10CB1000124D2B78002B11D0684610F0F3FAD8E7AD
:10CB200003A810F0E9FA0E4B01251A8803A82A433E
:10CB300092B21A8010F0E6FA2570DDE701A810F035
:10CB4000DBFA074B01A81A88224392B21A8010F030
:10CB5000D9FA2C70E0E7C04678130020F5120020C7
:10CB60006412002030B597B0041CFFF767FF011C6A
:10CB700068460FF02BFA00280FD069464B785A0709
:10CB800011D0114D01222B88684693432B8000F071
:10CB90003FFD2A88012313432B80201CFFF75AFFF7
:10CBA000002017B030BD9A06EBD45906E9D46A4686
:10CBB00093781B079B0FE4D1044A3823D25C694663
:10CBC0002023CA54DDE7C0461C010020602D002050
:10CBD00038B5224C8E235B00E25C82235B00FC2193
:10CBE000E35861580432D2B28B4223D084214900E9
:10CBF00061580020C91A91420ADD80214900635022
:10CC000082214900581C60501A7060588218625086
:10CC10000BF0FAF9802300225B00E2500120FFF7BD
:10CC20003DFF002802D00120FFF79CFFFFF74AFFDD
:10CC3000002038BD8621882549006D00605865595F
:10CC40002D1A9542D2DD80235B00E050431C6350D7
:10CC50000270605882186250DAE7C0462035002022
:10CC600038B51E4C8E235B00E25CE421EC23E358D4
:10CC700061580432D2B28B421FD0F021615800209B
:10CC8000C91A914208DDE8216350581CEC2160501C
:10CC90001A706058821862500BF0B6F90022E8232F
:10CCA000E2500020FFF7FAFE002802D00020FFF734
:10CCB00059FFFFF707FF002038BDF421F825605821
:10CCC00065592D1A9542D8DDE823E050431C635086
:10CCD0000270605882186250DEE7C046203500209E
:10CCE000F0B5184D85B02B78061C012B21D0002003
:10CCF00000F0AAF80BF0CAFB041C071E02D0201C8F
:10CD000005B0F0BD337A6A466846137033697469BA
:10CD1000029303940BF06EFA2B78041C022BEED1D5
:10CD2000687800F0A9F800F08FF80BF0AFFB2F70D7
:10CD3000E5E7012000F088F80BF0A8FB041EDED127
:10CD40002870DCE7FA12002030B5037A85B0041CA5
:10CD5000532B1ED030D9842B1BD011D8592B32D055
:10CD60006F2B16D0284D2A78002A1DD16A466846B6
:10CD7000137022696369029203930BF03BFA16E089
:10CD80001A1C1032D2B2022AECD8F12B2AD0592B1D
:10CD900019D08D221D4952008A5C1B4DD2B26A7097
:10CDA000162AE0D102232B70201CFFF799FF0028E0
:10CDB0000DD0174B1C600DE0042B0ED8022BE4D2D3
:10CDC000002BCFD1E5E7104D2B78002BECD1A369D8
:10CDD00098470020E87005B030BD1A1C4E3A022A70
:10CDE000C0D8D2E7084D237CAA789A42ECD0AB7029
:10CDF000064A8D235B00D35CDBB26B70162BE3D14C
:10CE000001232B70D0E7C046FA1200202035002005
:10CE10007C13002038B5064B1D68281CFFF760FF07
:10CE2000041E01D1AB699847024B201CDC7038BD51
:10CE30007C130020FA120020024B0022DA701A70D4
:10CE40009A707047FA120020002806D01623012895
:10CE500001D1181C70470323FBE71923F9E7C046EB
:10CE6000002806D01623012801D1181C704708237A
:10CE7000FBE71923F9E7C046031C083BDBB2082097
:10CE8000112B01D8014AD05C7047C046BC48020053
:10CE900038B50D4A8D235B00D55C041C007AEDB2D9
:10CEA000FFF7DEFFA8420BD0207AFFF7CDFF0BF093
:10CEB000EDFA002804D0054B1C60054B187038BDF6
:10CEC000E36898470020F8E7203500207C13002015
:10CED000FE12002038B5074B1D68287AFFF7B4FF13
:10CEE0000BF0D4FA041E01D1EB689847024B201CCA
:10CEF0001C7038BD7C130020FE120020014B002264
:10CF00001A707047FE12002038B5084B0222041C2C
:10CF100008301A700FF06EF96023051CE05CFFF713
:10CF200093FF011C281C0BF057FB38BDFF1200209B
:10CF300010B5041C0020FFF787FF0BF0A7FA0028AC
:10CF400002D1201CFFF7E0FF10BDC04638B56023BA
:10CF5000041CC05CFFF778FF0F4D8C235B00E85486
:10CF60000E4B1C600E4B5A7F0E4B1A7013F03CFA9E
:10CF70000D4B18808D235B00EB5C192B07D00B4DFC
:10CF80000123201C2B70FFF7D3FF687038BD201CD5
:10CF9000FFF7BAFF054DF8E7203500207C1300208D
:10CFA000602D0020083000200A300020FF120020F1
:10CFB00070B51A4B1A4C1D68237882B0012B26D00D
:10CFC0000AF0EEFC6E460AF0B9FC06360023338008
:10CFD000144A1623FF33D25C0223D2B2052A13D996
:10CFE0006822281CAB5468306B6E98470E4B3D206E
:10CFF0005A7F0E4B311C1B78D31A3380FBF7E4FBAE
:10D000000020607002B070BD094B9B5CE8E7281CF3
:10D01000FFF78EFF0028F4D1D2E7C0467C13002032
:10D02000FF12002020350020602D00200830002055
:10D03000D048020030B585B013F0D6F9214B6A46CE
:10D040001880032368461370FFF7ECF86A46137ADA
:10D05000032B17D01C4B1A78013A1A7011F050F9B3
:10D060000020FFF7F1FE0BF011FA002816D0174B45
:10D0700001225A701A70164B042219880A431A802A
:10D0800005B030BD1623134AFF33D35CDBB2052B4A
:10D09000E0D8114AD35C012BE0D0DBE70F4B022232
:10D0A0001C680A4B201C08301A700FF0A3F860238C
:10D0B000051CE05CFFF7C8FE011C281C0BF08CFA75
:10D0C000DEE7C0460A30002008300020FF120020B2
:10D0D0007813002020350020D04802007C13002067
:10D0E000024B00225A701A707047C046FF1200208F
:10D0F00038B5064AD123D35C0C1C0D780020002BD8
:10D1000002D101F0B7FD2840207038BD2035002045
:10D1100010B50B4C011C82B0201C1C3CFBF7AAFB79
:10D120006378002B0AD101A80FF0E6FF054B04221B
:10D13000198801A80A431A800FF0E4FF02B010BD5D
:10D140003C3500206412002010B5037982B0102B0A
:10D1500044D82A4A9B00D3589F46021CC368103209
:10D16000101C9847264BD1229A5C00215970002A46
:10D170003FD001A80FF0C0FF224B0422198801A85C
:10D180000A431A800FF0BEFF02B010BD021C183215
:10D190004369E5E7021C1C328369E1E7184BD121A2
:10D1A0005A5C012082435A54DFE7021C143203699F
:10D1B000D6E7021C2032C369D2E7021C2032C369C1
:10D1C000101C9847E0E72923C35C021C042430327A
:10D1D0001C40C36A101C9847002CD5D1084BD122A3
:10D1E0009A5CC2E7064BD1215A5C022082435A5412
:10D1F000BBE7DB69002BBCD1C6E7C046D8480200BC
:10D20000203500206412002030B5334C83B06378A1
:10D21000002B03D0032B01D003B030BDD123E35C3E
:10D22000002B29D12D4B1B78002BF5D0E569002D63
:10D23000F2D0201C1C30FBF743FB2B796560637038
:10D240002B790E2B07D8264A9B00D3589F4600F017
:10D2500025FC0028E0D100236370E369002BDBD0BC
:10D2600001A80FF049FF1F4B0422198801A80A43A7
:10D270001A800FF047FFCFE7DA0704D4102363705A
:10D280000FF070FBC8E70F23637001F027FCF1215A
:10D2900001F0B2FAC0E701F0CBF8DAE701F0AEF83E
:10D2A000D7E700F029FCD4E700F0E2FED1E701F077
:10D2B0004DFACEE70FF00EFACBE70FF04DFAC8E7C4
:10D2C00000F05EFCC5E700F00FF9C2E700F022FBBA
:10D2D000BFE70FF04FFCBCE72035002034010020F1
:10D2E0001C4902006412002008B507230371FFF7F0
:10D2F0000FFF08BD08B508230371FFF709FF08BD3C
:10D3000008B50B230371FFF703FF08BD08B502231F
:10D310000371FFF7FDFE08BD30B5037A83B0041C2E
:10D32000002B05D104230371FFF7F2FE03B030BDDB
:10D33000114D03231149D12203716B700023AB54AB
:10D34000EB6125200431FBF7D3F9281C211C1C308C
:10D35000FBF790FAFFF71AF9281C083011F070FA61
:10D3600001A80FF0C9FE064B0422198801A80A4340
:10D370001A800FF0C7FED9E72035002034010020C5
:10D380006412002008B50A230371FFF7C1FE08BD2F
:10D3900008B505230371FFF7BBFE08BD08B50123DF
:10D3A0000371FFF7B5FE08BD08B506230371FFF74B
:10D3B000AFFE08BD08B50C230371FFF7A9FE08BD39
:10D3C00008B50D230371FFF7A3FE08BD08B5034B95
:10D3D0005B78032B01D007F0A7FE08BD20350020A5
:10D3E00008B5034B5B78032B01D009F069FE08BD3B
:10D3F0002035002008B5034B5B78032B01D005F0E6
:10D40000D9FF08BD2035002008B5034B5B78032BFE
:10D4100001D00AF0FDF908BD2035002008B5034B06
:10D420005B78032B01D009F06BF908BD2035002093
:10D4300008B5034B5B78032B01D00AF0B9F908BD9E
:10D440002035002000B50B4BD122985C012101430F
:10D4500099545B7883B0002B0AD101A80FF04CFEE1
:10D46000054B0422198801A80A431A800FF04AFECE
:10D4700003B000BD203500206412002000B50B4B26
:10D48000D122985C0221014399545B7883B0002B30
:10D490000AD101A80FF030FE054B0422198801A81B
:10D4A0000A431A800FF02EFE03B000BD2035002085
:10D4B0006412002008B5044B5A78002A03D11122C7
:10D4C0005A7000F0ADFA08BD20350020054B10B5AC
:10D4D00000785C680FF0D8FA3823E054201CFFF77E
:10D4E00033FE10BD20350020F0B5474680B43D4CDA
:10D4F0003D4E6568338C03272B83AF76FEF7D4FF50
:10D5000028230168426829626A62EF54AA68EB68BE
:10D510002A636B63AB7C002B5CD040230B22E2546C
:10D52000B27E511CB176432162544122A05C072196
:10D53000884303210843F721084020210843C0B253
:10D540009843231C4133844658780C210843804675
:10D550006146672008404146A054CAB2BA43302110
:10D560008A4301215A7049424422A152A968EA68BB
:10D57000A164E2644022597852420A435A70328CC4
:10D580005023E252FEF790FF02684368A265E3650C
:10D59000328C6023E252F28C6223E2522A8A6623A2
:10D5A000E2523823F25C6423E254104A9C23E25096
:10D5B0002323F35C002B09D102229823E2540C4868
:10D5C000FEF7C2FF012004BC9046F0BD0122982363
:10D5D000E254F4E73822281CAB54FFF7B5FD0020D5
:10D5E000F1E7C04620350020602D0020CDD400009A
:10D5F0005835002010B5837882B09B0903D0836929
:10D60000C469009301946846FFF708FF02B010BD9B
:10D6100010B58378041C9B09022B30D0032B38D023
:10D6200023780B2B0AD8244A9B00D3589F465723B4
:10D63000E35CDA0738D5201C00F0AEF810BD1F4AB5
:10D640003123D35C002BF9D0FFF718FFF6E7201C3D
:10D6500000F08CFDF2E7201C00F0B8F8EEE7201C8B
:10D660000FF01CF8EAE7201C0FF086F8E6E7201C14
:10D67000FFF7C0FFE2E7201C00F050FEDEE7211CB0
:10D68000221C008B553156320FF0D2F80028C7D03B
:10D69000D4E7221C231CC1698069553256330FF030
:10D6A00007F90028BCD0C9E7201C01F025FA0028A2
:10D6B000C1D0FFF7C7FEBEE758490200602D002029
:10D6C000024A01213123D1547047C046602D002009
:10D6D000024A00213123D1547047C046602D0020FA
:10D6E00008B50548032383700022C823C2540349A8
:10D6F000383001F05FF808BD2035002001D7000068
:10D7000010B5034C6068FFF71FFD0023A37010BD28
:10D710002035002000B583B011236A466846137196
:10D72000FFF712FD03B000BD38B50078144C6568F2
:10D7300002281FD800280FD1EB232B770123237554
:10D74000104BA361FEF75CFE02232061201CA37036
:10D75000083011F04DF838BD0FF096F90323287703
:10D76000A3700022C823201CE2543830064901F07F
:10D7700021F8F0E70328EED1EB232B77A070F0E738
:10D7800020350020E1D6000001D70000014B002227
:10D790009A7070472035002010B5837886B06A46AD
:10D7A0009B091370038A6C4653808269C369029295
:10D7B00003935523C35C2374C37863745623C35CFB
:10D7C0006846A374FFF734FE06B010BDF0B5837849
:10D7D0008DB06C469A0922708669C769D1B21B0761
:10D7E000028A029603979B0F62802374DDB28388BE
:10D7F000066D63828368C468069307945423C25CF1
:10D800006F462023FA5409965523C45C2823FC5400
:10D81000C4782923FC545623C05C3A4C2A23F8547C
:10D82000A378002B38D0881E6668012801D90DB076
:10D83000F0BD307A814233D002284BD0032843D048
:10D840000028F4D1022954D00329F0D12E4902989E
:10D850000F69B842EBD1496903988842E7D1022D9C
:10D860002BD0002A05D06846FFF7BAFD0023337796
:10D87000A378022BDBD1254C201C10F0E1FF231CE8
:10D88000083B03229A700021C822201C9954303092
:10D890001F4900F08FFFCAE76846FFF7A1FDC6E702
:10D8A000022921D00329C2D1029831698842BED110
:10D8B000039F70698742BAD1D1E76946088B124944
:10D8C000C98C8842B3D1CCE70F493889098B88428B
:10D8D000ADD1C4E70C49029F08698742A7D14969C5
:10D8E000039F8F42A3D1BAE73889318A88429ED1FB
:10D8F000B5E705496F463889098B884200D096E71D
:10D90000ADE7C04620350020602D002028350020DE
:10D9100001D70000F8B54F464646C0B43D4C60689C
:10D92000037A002B08D0023B012B05D9E8230377AB
:10D93000FFF70AFC002058E00721374B40256155CE
:10D940009A7E0327561C9E764326A2554122A65C4A
:10D950008E43311C03263143E726314020263143D4
:10D96000A154468944216652067A211C4131374030
:10D97000BF004E78B9460C27BE434F463E434E701B
:10D98000017A002935D0A55C40212943A1544122C8
:10D99000A15C7F252940A154221C41325578CC211D
:10D9A0002940517005694669A564E664188C5021C8
:10D9B0006052DB8C991C89B201291ED951783F2015
:10D9C000014080204042014351705822A352134A23
:10D9D0009C23E25001259823201CE5543830A57083
:10D9E000FEF7B2FDC823E55401200CBC90469946D1
:10D9F000F8BDA15CA943A154C9E7517840235B421B
:10DA00000B435370FEF750FD06684768A665E7654F
:10DA1000DDE7C04620350020602D002029D700001A
:10DA200010B583788EB01A076946920F9B090A7465
:10DA30004B74038A20224B828369C469069307943E
:10DA40000023124C8B5428228B54201C29228B54E7
:10DA500009930FF025F80E4A2323D35C002B05D140
:10DA6000201C4038C823C35C002B0BD0094801227E
:10DA70009823C254084A9C23C2503830FEF764FDF4
:10DA80000EB010BD02229823C254F3E76035002087
:10DA9000602D00202035002015D7000010B5094B5F
:10DAA0005C68207A207401F0A5F8002806D1E723ED
:10DAB0006374201CFFF748FB002010BD0023637433
:10DAC000F7E7C0462035002008B5024B5868FFF73D
:10DAD0003BFB08BD2035002008B505480222402345
:10DAE000C254044B3830C360FEF734FD08BDC04655
:10DAF00020350020C9DA000070B51A4C0026656890
:10DB00002E74FFF7E5FD2D7A002D10D100F06AFE8E
:10DB100001F08AF8F2224023E2544823E554124BE4
:10DB2000201C38302365FEF71BFD012070BDFEF779
:10DB30002DFAFEF72BFD201C083010F081FEC823C3
:10DB4000E65400F027FE00F04DFE01F06DF80EF0F7
:10DB50009FFD00F045FCFFF719FE6068FFF7F4FA3F
:10DB60000020E3E720350020D9DA000008B5034B98
:10DB7000586800230374FFF7E7FA08BD203500203A
:10DB8000094808B543689B68002B09D0012240234F
:10DB9000C254064B3830C360FEF7DCFC012008BDE0
:10DBA00002224023C254F4E7203500206DDB000040
:10DBB00008B509480E230370084B09491B78382221
:10DBC0008B5400214022815448228354054B383025
:10DBD0008361FEF7C5FC08BD20350020011300203D
:10DBE000602D002021DD000010B5094A2323D35CFD
:10DBF000084C0122002B00D102224023E254064BA4
:10DC0000201C63643830FEF7A5FC0523237010BD8B
:10DC1000602D00202035002095DC000038B51A4D1D
:10DC20006A68002814D00021D023E954D168002369
:10DC30000A1CDA400124D00704D512E00A1CDA409D
:10DC400014420ED10133DBB2202BF7D1002038BDB6
:10DC5000D0216B5C0133DBB26B54D1681F2BE7D949
:10DC6000F4E70A49D022AB5438228B5400214022D9
:10DC7000A9544822AB54064B281C38302B65FEF7BC
:10DC80006FFC0120E3E7C04620350020602D002016
:10DC900021DD000010B51F4C23786068052B07D0EC
:10DCA000062B04D1037A002B16D0022B14D010BD02
:10DCB000037A022B27D8002B14D1F0224023E25400
:10DCC0000023A364E364144B201C23653830FEF763
:10DCD00047FC08232370EAE70120FFF79FFF012399
:10DCE0002370E4E70D4B50211B8C4022A3640023DA
:10DCF000E364094B201C2365A1543830FEF730FC47
:10DD000010232370D3E7032BD1D100232370FFF717
:10DD10001BFACCE72035002021DD0000602D00201B
:10DD200070B5904C23786568102B0AD88E4A9B00FA
:10DD3000D3589F46032B04D10120FFF76FFF012327
:10DD4000237070BDFFF750FFFBE72D7A012D00D146
:10DD5000C8E0022DF5D101224023E254834B201C60
:10DD600063643830FEF7F6FB06232370E9E7F122FF
:10DD70004023E25401224823E2547D4B201C2365BA
:10DD80003830FEF7EDFB02232370DAE7794B53219D
:10DD9000DA8C4023E1544823E252754B201C236562
:10DDA0003830FEF7DDFB09232370CAE7F122402358
:10DDB000E25400224823E2546D4B201C2365383086
:10DDC000FEF7CEFB03232370BBE72B7A022BB1D8DF
:10DDD000002B77D1F0224023E25401224823E25461
:10DDE000634B201C23653830FEF7BAFB07232370F2
:10DDF000A7E72E7A012E00D18AE0002E77D0022EDE
:10DE000051D0032E9DD109224023E254594A7F2547
:10DE1000937E591C91764322A3544122A15C231C7A
:10DE20002940402541332943782558782940032546
:10DE300029434325B0432940A154C321021C0A4071
:10DE4000382149420A435A7001235B424422A352BB
:10DE50004822A3525022A352FEF726FB02684368D1
:10DE6000A265E365444A9C23E250201C01229823CA
:10DE7000E2543830FEF768FB63E700232370281C68
:10DE8000FFF762F95DE73B4B50211A8C4023E154C8
:10DE90004823E252364B201C23653830FEF760FBE6
:10DEA0000A2323704DE7D023E35C01229A40131C20
:10DEB000EA69201C9A430C23EA612370083010F0B1
:10DEC00097FC3EE750224023E2540122524248236D
:10DED000E252274B201C23653830FEF741FB0F230D
:10DEE00023702EE70120FFF799FE257029E70C2308
:10DEF000201C2370083010F07BFC2023EB5C6A6A46
:10DF0000201CD6541D4B38302364FEF72FFB18E736
:10DF1000402218490A23A3548B7E7F25581C8876FB
:10DF2000432163544123E05C0721884303210843D4
:10DF300028409043021C47200240E25401235B42E8
:10DF40004422A352211C4822A352413108230A4AE9
:10DF50004B709C23E250201C9823E6543830FEF787
:10DF6000F3FAEEE6203500208849020095DC000037
:10DF700021DD0000602D0020ADDF0000F5DF000096
:10DF800010B5094C6268137A002B02D10D2323705F
:10DF900010BD0020FFF742FE002802D001232370AD
:10DFA000F6E7FFF705FEF3E72035002008B5037814
:10DFB000032B01D0002B0FD10D48D022825C436887
:10DFC000012191400A1CD9699143D9610C23037046
:10DFD000083010F00DFC08BD0020FFF71FFE0028E0
:10DFE00003D0034B01221A70F5E7FFF7E1FDF2E7DA
:10DFF0002035002038B51C4C202263680078596A0F
:10E000009A5C8D5C854200D2885422780D2A04D017
:10E01000201C3830FEF7AAFA38BDD022A25C0125B8
:10E02000291C91400A1CD9699143D96120215A5C6D
:10E030000132D2B25A54997C91420DD80B49382200
:10E040008A5C01329540DA686D422A4201D0FA2298
:10E050001A76FFF7ADFDDFE70020FFF7DFFD0028B0
:10E06000F7D02570D8E7C04620350020602D00206D
:10E07000F0B5394D394E6C68F16B227AE36885B0A2
:10E080006276194001278B4246D0042369460B7003
:10E09000637C68460B72FDF7D5FF002807D0E823A4
:10E0A000201C2376FFF750F8002005B0F0BD002FAC
:10E0B000F5D13823F25C2A4B1A70237A227C032B89
:10E0C00038D001269640FDF717FF33019E1BF02242
:10E0D0009200B601B618FA2170438900F6F742F8AB
:10E0E000286101232B751F4B0022AB612023E254D2
:10E0F000E368E361237A002B16D0627C402304247A
:10E10000EC544823EA54184B281C38302B65FEF792
:10E1100027FA2C700120C8E7002BB6D0237C0E2BE9
:10E120000CD9032AB1D10DE0A27C606A002112F063
:10E1300003F9E2E7FEF7A6F92861D2E7002A05D045
:10E14000032AA2D8EA23237600279EE7A77C22761B
:10E150007B425F41FFB298E720350020602D002010
:10E160000113002081DF000021DD0000F0B55F46D3
:10E17000564644464D46F0B45423C75C99B0041C3F
:10E18000644E002F0DD1B379002B0AD0624B1A7860
:10E190000C2A53D019B03CBC90469946A246AB46D7
:10E1A000F0BDA378228A9B099B469246A269E36947
:10E1B000029203932023E35C684699464223F35C72
:10E1C000211C213102221230984612F021F823231B
:10E1D000E05C5523E15C5623E35C08AD9C46E378A4
:10E1E0005A462B706B461A7052465A8004AB4A4608
:10E1F0001A706B4642465A74C00905AB18706B46DC
:10E20000624659756B469A756946002320220AA812
:10E21000069311F0FDFF4423E25C2823EA54A36C2B
:10E22000E26CEB623423EF54236D281C2A63AB634A
:10E23000FFF7E0F8384B1A780C2AABD15D68B37958
:10E24000002B2FD02B7A013B012BA3D800232B7658
:10E250002023EF5CB846002F26D0E15C3A1C6B6AA5
:10E26000013A181CD2B220305201801802E020334B
:10E27000834219D01A7C8A42F9D1A7781A78BF094B
:10E28000BA42F4D15F88BC46278ABC45EFD1022A46
:10E290003AD09A68A769BA42E9D1DA68E769BA421E
:10E2A000E5D177E72B7675E7AB7C434500D871E77E
:10E2B0006B6A42465701DF19A378381C9B093B70F3
:10E2C000238A211C7B80A269E369BA60FB6020235A
:10E2D0009846E35C12303B744223F35C21317B743B
:10E2E000022211F095FF2323E35CDB093B755523E4
:10E2F000E35C7B755623E35CBB750023BB6147463B
:10E30000EB5D0133EB5545E71F89228B9742AED178
:10E3100040E7C046602D002020350020F0B583780E
:10E3200083B0041C9B09022B0CD0032B04D1284D75
:10E3300082692B699A421DD0264B1A780C2A1ED06E
:10E3400003B0F0BD224D028B2B8B9A42F4D1214BAE
:10E350001A780C2A3AD06A4601231370238C684637
:10E3600053802423E35C13712823E35C5371FFF78C
:10E370004BF8E5E7C2696B699A42DDD1E7E7144DD6
:10E380005F682B690133DBD16A690132D8D1124E43
:10E39000301C10F055FA00223A76638C38212B831A
:10E3A000238C301C2B84E38C3030EB842423E35CFF
:10E3B000341C083C6B54402162544822A354074B40
:10E3C0002365FEF7CDF80B232370B9E75F68DEE71E
:10E3D000602D0020203500202835002021DD0000A0
:10E3E000014B00221A7070472035002008B5024BFF
:10E3F0005868FEF7A9FE08BD2035002010B50B4B6C
:10E4000084B05C686A46237A68461370FDF70AFF99
:10E410006A46137820746374201C029A039BA261DD
:10E42000E361FEF791FE002004B010BD203500200E
:10E4300030B5274D85B06C686946237A0B70216929
:10E440006269029103926F2B2ED06846FDF7FAFDA8
:10E4500069460B78207769460A78627700282AD1C6
:10E460000021042B06D801211D22994011404A1E8B
:10E470009141C9B21A1C4E3AD2B2362A03D8154875
:10E48000920082589746002915D04022AB54029A38
:10E49000039BAA64EB64104B281C38302B65FEF7F5
:10E4A0005FF8012005B030BD029A03990A4307D1F5
:10E4B000E82222776377201CFEF746FE0020F1E772
:10E4C0006846FDF7BFFD6A4620771378C3E7C0466C
:10E4D00020350020CC490200EDE30000F0B55F4696
:10E4E00056464D464446F0B4244D3823EB5C2A8C06
:10E4F0009A464223EB5C85B03026934699466A469D
:10E50000AB5D5027177098460389041C6846138139
:10E51000FDF798FD237B6A46AB5504231370E37A1D
:10E5200068461372FDF78EFD6A4600231370A37AC6
:10E5300068461372FDF786FD0023002815D15B465F
:10E5400052462381A2724B464246E37222730C4C20
:10E550002A8C4023E7544823E2520A4B201C2365AF
:10E560003830FDF7FDFF01232370181C05B03CBCBB
:10E5700090469946A246AB46F0BDC046602D0020AD
:10E5800020350020C5E5000010B50C494B681A7D08
:10E59000E12A0BD00A4A148C1C813824145D9C7229
:10E5A0004224145DDC723024125D1A730022187547
:10E5B0000A70181CFEF7C8FD10BDC04620350020AB
:10E5C000602D002070B5504C23786568022B00D177
:10E5D0007EE000D869E0032B56D0042B64D12023C1
:10E5E000E25C002A00D184E0484D40210B226254B5
:10E5F000AA7E0726501CA876432022544122A05C04
:10E60000B04303263043F72630409843231C413360
:10E61000884359780C26B143082631436726304099
:10E620000126A05476424422A6524822A652CC2269
:10E630000A40402149420A435A702A8C5023E25230
:10E64000FDF732FF02684368A265E3652A8C602308
:10E65000E252EA8C6223E2526623E6523823EA5CF5
:10E660006423E2544223EA5C6823E254284A9C2350
:10E67000E2502323EB5C002B41D001229823E2548B
:10E680002448FDF761FF0FE0204A3823D25C0021C7
:10E690004023E1544823E2541F4B201C23653830AB
:10E6A000FDF75EFF0423237070BD012BFCD1174AD8
:10E6B0003023D25CF2214023E1544823E254164B2C
:10E6C000201C23653830FDF74BFF02232370EBE756
:10E6D0000E4A4223D25C04214023E1544823E254F1
:10E6E0000D4B201C23653830FDF73AFF03232370C0
:10E6F000DAE7FEF7E5FF287DFFF746FFD4E70222C1
:10E700009823E254BCE7C04620350020602D00204D
:10E710001DE7000058350020C5E5000038B50A4D5A
:10E7200000786C680EF0B0F92075E12805D0FEF78E
:10E73000C7FF207DFFF728FF38BD00222023EA54C1
:10E74000201CFFF7CBFEF7E72035002038B50E4B35
:10E750000E4DDA8C0E4B6C689A4210D0201CFFF7DD
:10E76000BDFE002806D0627B2023EA5400232375D7
:10E77000012038BDE820FFF707FF0020F9E7EC2073
:10E78000FFF702FF0020F4E7602D00202035002075
:10E79000FFFF0000024B002220215A541A707047DC
:10E7A0002035002008B5024ACC23D358984708BD2D
:10E7B0002035002008B5084ACC23D150074A23232E
:10E7C000D35C002B01D0884708BD02230372044BA1
:10E7D000C360FDF7BFFEF7E720350020602D002065
:10E7E000A5E70000034B0022C1215A54C0215A540E
:10E7F0007047C04620350020F8B5051C0C1EF02CD3
:10E8000000D17CE00379514C082B35D00D2B1ED064
:10E81000C423E5504123E35C5A0626D54C4A232302
:10E82000D35C002B0BD001229823E254494A9C234D
:10E83000201CE2503830FDF787FE0020F8BDC823C9
:10E84000E35C002BEFD102229823E254EEE7C023D1
:10E850000222201CE2544030291C0EF021F9C4236E
:10E86000E5504123E35C5A06D8D40122A023E254A8
:10E87000E82000F071F8E0E70121C022A154052151
:10E880004022A154324A7F27517B481C50734320B9
:10E8900021544121665C0720864303200643F6B2DB
:10E8A0009E4310239E4320231E43231C41333E409E
:10E8B000402758783E436654CC2101400C20014348
:10E8C000597028696969A064E16440215878494217
:10E8D00001435970138C5022A3524422A352FDF7D6
:10E8E000E3FD01684268A165E2652A8B6023E2527C
:10E8F000AA7E6223E25400229423E25488E700F0C7
:10E9000065F92B79082B08D00D2B00D095E7312322
:10E91000EC54281CFEF718FC8FE703232222AB548B
:10E920003022AB540A4B1B8C2B84FDF7BDFD0168D4
:10E930004268A962EA622A696B69AA63EB634023B1
:10E94000EC54281CFEF700FC77E7C0462035002079
:10E95000602D0020F9E9000070B5254CC123E25C70
:10E96000C425013AE25482B0061C605900F02EF929
:10E97000C023E35C012B22D0022B0ED0C023002247
:10E98000E254C123E35C002B13D10F236A4668468F
:10E990001371FEF7D9FB02B070BD60593123C65424
:10E9A000FEF7D2FBC0230022E254C123E35C002B1C
:10E9B000EBD000F093F8F121FFF71EFFEBE765596C
:10E9C00003232222AB543022AB540A4B1B8C2B84E2
:10E9D000FDF76AFD02684368AA62EB622A696B6907
:10E9E000AA63EB634023EE54281CFEF7ADFBC5E79A
:10E9F00020350020602D002000B5007883B00EF097
:10EA000043F800281BD00F4BC4229A5800211173E1
:10EA1000C1201A5C013AD2B21A54C0201954002AFB
:10EA200007D10F236A4668461371FEF78DFB03B0CA
:10EA300000BD00F053F8F121FFF7DEFEF7E7FFF726
:10EA40008BFFF4E7203500200C4AA82310B5D458DA
:10EA5000002C05D111E0143BA3602468002C0CD0DD
:10EA6000A368142BF7D8237B002BF6D1201CF021B0
:10EA7000FFF7C2FE2468002CF2D110BD2035002023
:10EA8000011C10B50831041C0220FAF751FAA368E2
:10EA9000002B0ED000230F482373A823C358002B4C
:10EAA00013D0211C0C48F9F7E5FE201C0EF0D4F819
:10EAB00010BDFA204000FDF743FA0023A06005488E
:10EAC0002373A823C358002BEBD1AC300FF090FE7A
:10EAD000E7E7C04620350020C8350020054AA823B6
:10EAE000D058002805D0037B002B02D100680028F5
:10EAF000F9D170472035002030B53149A823CB58D3
:10EB000083B0041C002B09D01A79092A15D00D2ACC
:10EB100045D0082A36D01B68002BF5D16D46073545
:10EB20002720291CFAF704FA2B78002B45D0201C4B
:10EB3000FEF7C0FC002003B030BDA278187C92091B
:10EB40008242E8D1022A31D0032AE4D1A26998692D
:10EB5000E5695040DA696A40024350424241D2B20C
:10EB6000002AD8D01A7B002A05D101221A73C123AA
:10EB7000CA5C0132CA54694627200731FAF7D8F92E
:10EB80000120D8E7A2789209032AC4D11869A269A2
:10EB90009042C0D15D69E0698542BCD1E2E7A278CC
:10EBA000587C92098242B6D1022ACDD1188B228B91
:10EBB000821A50424241D2B2D2E70020BBE7C0469F
:10EBC00020350020013800230370704738B5084C09
:10EBD000051C291C201CF9F77BFE281C0EF04EF8A2
:10EBE0002368002B00D038BD201D0FF029FEFAE766
:10EBF000C83500200B4A08B5A823D358002B06D0EF
:10EC000028211A790D2A04D01B68002BF9D1002085
:10EC100008BD5A5C8242F7D1181CFFF7D7FF0120CC
:10EC2000F6E7C0462035002010B50F4C201C0FF031
:10EC300007FEAC3CA823E458002C06D0201CF02191
:10EC4000FFF7DAFD2468002CF8D1084B0022A82138
:10EC50005A501420B4215850B8215A540449BC22A7
:10EC600099500EF02DF810BDCC3500202035002035
:10EC700049EA0000034AA823D05843425841C0B291
:10EC80007047C04620350020044A90235B00D05CCA
:10EC9000AA3843425841C0B27047C04610300020E5
:10ECA000F0B50E4EEC23F7580023D1259C46725D3B
:10ECB0009A4211D3DA00BA18D478002C09D01488FB
:10ECC000844206D194788C4203D16446D470644661
:10ECD00054600133DBB2EAE7F0BDC04610300020DB
:10ECE000034A4C23D05C413843425841C0B270477C
:10ECF00010300020034A3C23D05CD63843425841B0
:10ED0000C0B2704710300020034ACC23D05C1338C7
:10ED100043425841C0B2704710300020044AC42317
:10ED20005B00D05CB73843425841C0B27047C04620
:10ED300010300020021C08320A6143781B07DB0FE9
:10ED400004D0031C10330A600B6100E00B604378B1
:10ED5000DB06DB0F04D00B694B6008330B6100E06E
:10ED60004B604378DB07DB0FDBB2002B04D00B6971
:10ED70008B6001330B6100E08B6043785B07DB0F36
:10ED800007D00B69CB601A78013252009B180B61D7
:10ED900000E0CB600B69181A087570470B4A8B238B
:10EDA0008A2189009B00D358525C9100891809017F
:10EDB00059188B4203D307E05033994204D91A788B
:10EDC000002AF9D0002000E0012070471030002018
:10EDD000044ACC235B00D05CDA3843425841C0B2CD
:10EDE0007047C04610300020014BFD221A7070475A
:10EDF00010300020034A7823D05CE6384342584163
:10EE0000C0B2704710300020044AA7239B00D05C9A
:10EE10000238431E9841C0B27047C04610300020EF
:10EE2000044AC0235B00D05C8E3843425841C0B2D4
:10EE30007047C0461030002030B5002818D00E4B67
:10EE40002030802252009A580424904203D30DE0CF
:10EE5000203090420AD20378A343012BF8D1837E5D
:10EE6000DD07F5D483888B42F2D030BD0020FCE76B
:10EE7000014BFC229858E4E7103000201E4AFC2386
:10EE800080214900D35830B55458062500211A78FE
:10EE9000002A01D1002802D001311D70C9B22033EF
:10EEA0009C42F4D8154B002917D088229A5C002A7E
:10EEB0001AD11A1C5F325178042081435170892283
:10EEC000995C0122002900D100225F33D1015A78D8
:10EED0007F2002400A435A7030BD1A1C5F325178BD
:10EEE000042081435170EFE71A1C5F3250780421EF
:10EEF00001435170E3E7C04610300020082E002087
:10EF000070B51D4A84235B00D35C0A1C994200D96A
:10EF10001A1C9B1ADBB21A1C834200D9021CD2B203
:10EF20009A4222D0154B00255A7C940704D4882499
:10EF30001D5DA94289414D421C1C5F34A9006578C2
:10EF40000426B5430D4365700021D40707D55F3310
:10EF50005A78C8017F2111400143597070BD892240
:10EF6000995C884280414142F1E7044B7B225F3348
:10EF700059780A405A70F1E710300020082E00201E
:10EF8000104A802138B54900FC235458D358002139
:10EF90000020042502E02033A3420DD21A78062A6D
:10EFA000F9D0AA43012AF6D15A78022A07D00131B2
:10EFB0002033C9B2A342F1D3FFF7A2FF38BD01301D
:10EFC000C0B2E8E71030002038B51E4B00215E22A9
:10EFD000995472205F211D5C585C0F2273241C5DC4
:10EFE0001540904328432401104020435854587A38
:10EFF000191C5F314C780240D00084222240024329
:10F000004A70191C80310A681C6E1002FF221440DD
:10F0100020431866CC7864201C544C6820025C6E37
:10F02000144020435866C8796821585469215A54BD
:10F030006A215A546B215A54197C6C229954FFF757
:10F040009FFF38BD082E002070B5194B161CFC22FE
:10F050009D588222401B52009D584011C0002D181F
:10F06000AB7882B00C1C002B05D05B085A089B18AB
:10F070008C081C19E4B2AC7068460E49062211F0E7
:10F08000C7F800236A46D05CD9B2A0420CD901333C
:10F09000062BF7D1072329793822DB009143194346
:10F0A0002971EE7002B070BD013107230B40F2E709
:10F0B000103000204C4C020070B5154B161CFC2281
:10F0C0009D588222401B52009D584011C00082B0C2
:10F0D0002D18A9700C1C68460E49062211F098F8EC
:10F0E00000236A46D05CD9B2A0420CD90133062B6A
:10F0F000F7D1072329793822DB009143194329717D
:10F10000EE7002B070BD013107230B40F2E7C0463C
:10F11000103000204C4C02000D4A8021FC23490095
:10F1200030B5D3585458042502E02033A3420DD201
:10F130001A78062AF9D059780229F6D1AA43012A69
:10F14000F3D19A888242F0D1181C00E0002030BD33
:10F1500010300020024ACA2366219B00D154704718
:10F1600010300020F0B54D465F4656464446F0B498
:10F170009A46384DBD239B00EB5C85B0834688469C
:10F180009146002B16D0BE229200A958086800288C
:10F190005CD0581EC0B20130C0000823012605E033
:10F1A000CC581A1C0832002C0BD0131C7600F6B277
:10F1B0008342F5D105B03CBC90469946A246AB4689
:10F1C000F0BD9C46FC23EC58F74382220397802332
:10F1D00067460294C44652005B00FC210197201C44
:10F1E000B04615E06778022F15D0A788674512D082
:10F1F0004F4510D0201AAF584011C0003818477939
:10F20000464637434771EF582034BC4210D2685805
:10F210002778062FE6D1201AAF584011C0003818C1
:10F220004779039E203437404771EF58BC42EED3F4
:10F23000BE239B00E95801985C460C50EB5884466D
:10F2400063444E4657469E809F71B3E70026B446FE
:10F250000126B7E71030002010B5104BBD229200F8
:10F260009A5C002A15D0BE21890059580B68984233
:10F2700010D0541E0B1CE4B20833E4001C1906E045
:10F28000191C08331A1C083A1268904202D0A34293
:10F29000F6D110BD00230B60FBE7C0461030002004
:10F2A000054A8C239B00D05C022398434838434294
:10F2B0005841C0B27047C04610300020034B187C44
:10F2C000193843425841C0B27047C0461030002040
:10F2D000034AA8239B00D05843425841C0B270470C
:10F2E00010300020036910B5041C002B09D04269BE
:10F2F000002A02D09168814206D0181C1030DB68C9
:10F3000098470023237010BD00219160F5E7C046A7
:10F31000836810B5002B05D01A69002A02D05C69F9
:10F32000844200D010BD002909D014205074002060
:10F330001870101C11741030D3689847F2E71079D8
:10F340000028EFD158780824A04319615870F0E7DD
:10F35000034AB1239B00D05C43425841C0B270477E
:10F360001030002030B50D4AB324B223A4009B0016
:10F37000145BD358E4001C1902E00833A3420BD2FB
:10F380001A79D507F9D5D206D20F8A42F5D11A8853
:10F390008242F2D1181C00E0002030BD1030002065
:10F3A000F0B5474680B40E1C071C141C1D1CFFF74B
:10F3B000D9FF00280DD08379AB4207D31C4A1D4BDF
:10F3C000D35C01229A4042714480857104BC90460E
:10F3D000F0BD1749B2239B00CA58B3239B00C85AFB
:10F3E0008C46C000801880460023101C0279D1078B
:10F3F0000AD5002B03D041795A79914200D2031CDF
:10F4000008304045F2D3181C017901220A430271E9
:10F41000084A61468A5C0123191C914002791E400A
:10F42000E123360113403343417107800371CBE779
:10F4300010300020CE020000044AC6235B00D05CDE
:10F440009A3843425841C0B27047C046103000203D
:10F45000024AB62300219B00D1547047103000208F
:10F46000044AC0239B00D05C313843425841C0B2AB
:10F470007047C04610300020024B986E43425841FE
:10F48000C0B270471030002008B50B488C235F22B3
:10F490009B00C254094A94239B00C25090234122EE
:10F4A0009B00C254922300229B00C2548E239B00D7
:10F4B000C018FDF773FF08BD103000208500010063
:10F4C000F0B557464E464546E0B4984608AB1B7823
:10F4D000214F9A46F023161CFB58F422BD58814652
:10F4E0001C1C2178CA0702D5A168B1422CD0103467
:10F4F000AC42F6D3F822BC589C4229D2174A184B8A
:10F500001A80F9F767FAF823F422FB58BD58103334
:10F51000F822BB50AB4202D3F023FB58BB502278F9
:10F5200001234946134342466180E260514601226D
:10F530000A40FD2152000B401343A66023701CBCFF
:10F5400090469946A246F0BDE2684245CFD1E6E733
:10F55000AC42D3D2231CDAE7103000201431000073
:10F56000FC1A002000B50A4B01228240101C5A6888
:10F5700083B01043586001A80DF0BEFD054B082272
:10F58000198801A80A431A800DF0BCFD03B000BD24
:10F59000103000206412002008B5C822064B52002B
:10F5A0009958007828228854C6224721520099543D
:10F5B0000620FFF7D7FF08BD1030002030B590239C
:10F5C0001A4D5B00EB5C83B0041C452B05D0C622B2
:10F5D000174B92011A80F9F7FDF9002C02D0154B58
:10F5E0009C4204D0144A124B1A80F9F7F3F9902385
:10F5F0005B00AA22EA54237801A8002B0CD00F4A02
:10F600007A23D35A0380092383700AF0A3FF0220D0
:10F61000FFF7A8FF03B030BD084A7A23D35A03800E
:10F62000102383700AF096FFF1E7C04610300020E7
:10F63000FC1A00206031002081310000082E0020DB
:10F6400010B50D4C002804D090235B00E35C462BE2
:10F650000CD00A4A0A4B1A80F9F7BCF99023AA2267
:10F660005B00E2540220FFF77DFF10BD9E22520096
:10F67000A3189842EDD1F1E710300020833100004B
:10F68000FC1A002070B5184CC823E558CC23E35C65
:10F69000061CE82B04D0154A154B1A80F9F79AF985
:10F6A000002D1AD02B1C1C339E4204D0114A104B43
:10F6B0001A80F9F78FF932783823EA5473680D20ED
:10F6C000EB63327A4023EA54E922CC23E254CD237F
:10F6D000E35C2370FFF746FF70BD074A044B1A80B6
:10F6E000F9F778F9DEE7C0461030002087300000D7
:10F6F000FC1A0020893000008830000070B5C22359
:10F70000144C5B00E558061C002D1DD02B1C183333
:10F710009E4204D0104A114B1A80F9F75BF9C423BA
:10F720005B00E35C5E2B04D00D4A0C4B1A80F9F7AA
:10F7300051F932785423EA54C42358225B00E2542E
:10F740000920FFF70FFF70BD064A044B1A80F9F736
:10F7500041F9DBE710300020B5300000FC1A002032
:10F76000B6300000B430000070B5174C3C23E35CA9
:10F77000061CA56B712B04D0144A154B1A80F9F79F
:10F7800029F9002D1AD02B1C1C339E4204D0114A9B
:10F790000F4B1A80F9F71EF93378002B04D0FA2B9F
:10F7A00002D03822AB5402E000223823EA547222FD
:10F7B0003C23E2540820FFF7D5FE70BD064A044BF7
:10F7C0001A80F9F707F9DEE710300020D730000083
:10F7D000FC1A0020D9300000D8300000F8B5061C13
:10F7E0008B2319489B008A24C358A400045D002B76
:10F7F00022D0351C00200D4318D0A5002D192D0155
:10F800005D19AB420BD311E01C1C1834002A00D048
:10F81000103C2768B7420AD050339D4206D91C7865
:10F82000002CF1D1181C50339D42F8D8F8BD646803
:10F830008C42F1D10020F9E7044BC12292011A80D9
:10F84000F9F7B4F80020F1E710300020FC1A00208E
:10F8500010B500220F4B027042707321595C0F24C7
:10F86000214089008270C27001707A229A5C027114
:10F870001A1C7A32527842717422995CFF22490034
:10F88000FE2900D8CAB282719A7A0132D2B29A7233
:10F89000C27110BD082E0020F8B5C46B2D4D061C9A
:10F8A000201CEF6FFFF7D4FF23780322934301223C
:10F8B000134362782370102313436370FCF7F4FD45
:10F8C0000CC8110A22746174110C120EE2741A0A27
:10F8D000237562751A0C1B0EA174A275E37588233B
:10F8E000EB5A6278A3701B0AE3700823134363701A
:10F8F0002B1C90331A685B68110A22726172110C1A
:10F90000120EE2721A0A237362731A0C1B0EE3734F
:10F910000123A371042323764023A172A27363768B
:10F920007A7C002A00D0C0236376BA7C002A02D0F9
:10F930002022134363768823EB5A1A223386382316
:10F94000F2549823EA5C4123F25416227823EA54B5
:10F95000F8BDC04610300020F8B58B223D4B920018
:10F960009C588A2292009B5C061C9A00D2181201B5
:10F97000A218C56B944203D361E05034A2425ED911
:10F980002378012BF9D1281CFFF762FF2B78032283
:10F990009343012213436A782B70082313431022E8
:10F9A00013436B70627D012702213A40DBB25200A3
:10F9B0008B4313436B70638AAB701B0AEB70A268B6
:10F9C000E368110A2A726972110C120EEA721A0A9D
:10F9D0002B736A731A0C1B0EEB731F4BA972AA735D
:10F9E0007A229A5C7A332A715B786B71FCF75CFD42
:10F9F0000CC8110A2A746974110C120EEA741A0ADE
:10FA00002B756A751A0C1B0EEB750723A974AA7562
:10FA1000AF712B76238A227C1B0A6A76AB76237D14
:10FA2000EB76638A338663781A070ED54123F75441
:10FA300038231C22B460F2540423237004E0074AE4
:10FA4000074B1A80F8F7B2FFF8BD05224123F254A4
:10FA5000EEE7C04610300020082E002043300000A2
:10FA6000FC1A0020F8B5C46B4F464646C0B4051CCE
:10FA7000201CFFF7EDFE237803229343012213435A
:10FA80002370637808229343102213436370D223B8
:10FA90001B4A5B009846914642441368194E1A79F6
:10FAA0000127A2705B79E3707A23F35C2371331C26
:10FAB0007A335B786371FCF7F7FC0CC8110A227289
:10FAC0006172110C120EE2721A0A237362731A0C1D
:10FAD0001B0EE3730623A273A771A1722374337AFA
:10FAE0004A4642446374136812229B882B86412342
:10FAF000EF543823EA540CBC90469946F8BDC046F2
:10FB000010300020082E002010B584B002A96C46E9
:10FB10001B20F9F70DFA073403A91A20F9F708FAA0
:10FB2000211C1020F9F704FA0399029A2378881807
:10FB3000584304B010BDC04630B5134BFC229C584E
:10FB40008222041B52009B586411E4001C19437864
:10FB500083B0022B0ED06D4607350F20291CF9F714
:10FB6000E7F92878094B01305843C00A013020805A
:10FB700003B030BD837E3D20DA07F8D4FFF7C4FF21
:10FB8000C00A013080B2F2E710300020983A00003D
:10FB9000F0B54D4644465F465646F0B4C16B89B059
:10FBA00088460690081CFFF753FE4246137803224E
:10FBB0004446934301221343627823701023134376
:10FBC0006370FCF771FC0CC8110A22726172110C8F
:10FBD000120EE2721A0A237362731A0C1B0EE3737D
:10FBE00004235B42A37001235B42E3700123A371F2
:10FBF00008232374637CA2737F2213406374984F9D
:10FC0000A623A1729B00FB5A964C9946FC23FD58F3
:10FC100080235B00FA5895423BD2231C803341CBB2
:10FC2000B246914E0021B44656462B1C8B46029696
:10FC3000039402E0203393421AD219780629F9D0AE
:10FC400059780229F6D01C698442F3D15E69029C7E
:10FC5000A642EFD19E886645ECD80129EAD1B1458C
:10FC6000E8D859460131C9B220338B469342E4D3D8
:10FC70005846039C1F280CD97C4EB85D0290002882
:10FC80004FD04346597C9F230B40464673740395DF
:10FC900011E0764BFE5C0296002E39D00021F9541B
:10FCA0004346597C20239943402346460B437374B3
:10FCB00000260395029680346368404641462568D5
:10FCC000039C12306F31049105909B46011C9442B5
:10FCD0005CD3059C664B091B59434646727C1F2327
:10FCE0009A431940029C131C0B437374002C02D1DD
:10FCF000A6239B00FC524B005918069C1231382356
:10FD0000E15409B03CBC90469946A246AB46F0BDD2
:10FD10004046417C2023194340230B434374039501
:10FD2000C9E7544839181420FF30F9F701F9514B4D
:10FD3000FB5C012B16D043465A7C20231A43BF2379
:10FD40001340404643740123BB5580235B00FA589F
:10FD5000FC23FB5801260393A6239B00FB5A029623
:10FD60009946A8E741464A7C20231A43402313437F
:10FD70004B74029A80235B00BA55FA58FC23FB5857
:10FD80000393A6239B00FB5A994694E782235B00CA
:10FD90009A464346A4460793039B002402E020337F
:10FDA00093421AD21E78062EF9D05E78022EF6D033
:10FDB0001869A842F3D15E695E45F0D19E882A4851
:10FDC0008642ECD8B145EAD8002C02D0A088B042D7
:10FDD000E5D91C1C20339342E4D3002C3DD0664669
:10FDE000A31B504638585B11DB00C018A38884461B
:10FDF0001E0A4E700B7000798606760F00968E787C
:10FE00000720864300980643082086438E70664686
:10FE10003679072006403601B4468E787020864336
:10FE2000604606437F203040029E8870002E02D03C
:10FE3000A6208600BB53A38801339BB29946009B42
:10FE4000002B00D00331049C8C4203D9FC23FE58C4
:10FE5000B446A1E7079B98463BE7079A904638E7E8
:10FE600010300020082E0020F7FF00009A0200004A
:10FE7000ABAAAAAA9B020000F0B5454657464E46DB
:10FE8000E0B482B00123051C884668466946C37108
:10FE900007311D20F9F74CF84A496E23CB5C8C469C
:10FEA000022B00D175E0484ED123F05CEC23F158D1
:10FEB00000270023DA008A18D478002C50D1002FB4
:10FEC00000D17BE00133DBB28342F3D9002F00D1B4
:10FED00072E04146B9706246D3683D800A337B6068
:10FEE0000123FB70D123F25C4A455CD0D423F35C40
:10FEF000002B3DD00DF068FADC23F35898424FD226
:10FF0000C31A013B9C46EC230122F55852420023C0
:10FF100092469846D1240AE06246801A486082459B
:10FF200000D982460133315DDBB2994213D3D90047
:10FF30006918C8780028F5D04A68101EF2D08F42A0
:10FF4000F0D09445E8D340464860C8700133315D35
:10FF5000DBB29942EBD2D436301C012152460BE081
:10FF60001488AC42AED192784245ABD100200AE071
:10FF7000D4367A68301C0121144BF8F761FE301C2E
:10FF8000F8F772FE012002B01CBC90469946A246CA
:10FF9000F0BD6846C379002B00D084E70320F2E768
:10FFA000C31A9C46AFE7D022B25C013A91459DD27C
:10FFB0004A460132F25499E70220E4E79946171CB9
:10FFC00080E7C046082E002010300020B116010046
:10FFD000F0B52A4DC46BE96F474680B4061C201C5F
:10FFE0008846FFF735FC237803229343012213430D
:10FFF00062782370102313436370FCF755FA0CC822
:020000021000EC
:10000000110A22726172110C120EE2721A0A237323
:1000100062731A0C1B0EE37303235B42A37001236C
:10002000174F5B42A172A273E3707A23F85AE17909
:10003000FFF722FF63780822934363700123A371C3
:1000400004232374002363746E23FB5C022B0CD007
:100050004246537C41465A1E9341DB0163748A7CBD
:10006000002A02D020221343637412223823F25450
:1000700013227823EA5404BC9046F0BD10300020CF
:10008000082E002070B58D230F4C9B00E658031CF2
:100090001C3B197C051C2A20F8F796FB8C239B003F
:1000A000E25C602A07D0002E0AD05D22E2540720CD
:1000B000FFF758FA70BD2A7832735E22E254F6E7F1
:1000C0004822E254F6E7C04610300020F0B547461B
:1000D00080B42B4A7021565CD36E71018919C90016
:1000E000591882B0051C002700248B4206D344E037
:1000F000AA4229D00933FF33994207D91A78002A36
:10010000F6D11C1C0933FF339942F7D8002C34D0A8
:10011000052E1ED91B4907236B4449199846181C04
:100120000122073110F074F8424613785E43012330
:10013000B610B7420BDADFB2002F1ED02570201C9C
:1001400002B004BC9046F0BD0137FFB2D2E70023F5
:10015000F1E7F1008E1B0B496B1E07226A44F6186B
:1001600008319046101C8919012210F051F84246BE
:1001700013789F42BF417F42DEE70020E0E7C046A0
:10018000103000204C4C020008B5FFF79FFF0028FC
:100190001CD0021C0C32BC23C2500023E02283502E
:1001A000D8228354E4228350E8228350D4228354FB
:1001B000D52283548423C25C02218A43C254044A58
:1001C0007A23D25A9023C252803008BD0020FCE727
:1001D000082E002010B5041C0120FFF7D5FF011EDA
:1001E0000FD0094803196933FF331A784030013AB8
:1001F0001A704C71F8F73EFB0320FFF7B3F90120AA
:1002000010BD0020FCE7C0461030002010B5041ED1
:10021000102C12D80C4A12196932FF3213780133AC
:10022000DBB21370002B04D1084A094B1A80F8F78F
:10023000D1FB201CFFF7CEFF10BD064A044B1A80ED
:10024000F8F7C8FBE6E7C04610300020D3310000C5
:10025000FC1A0020D231000030B583B00C20694672
:10026000FF300631F8F764FE6A46D388002B15D0BC
:100270000D4C0E48211CF8F73FFE6B46F03CDA8827
:10028000F025605912018118F423E150002110F08B
:1002900053F86259F823E25003B030BD044A054BCD
:1002A0001A80F8F783FBF7E7003100200A0200000C
:1002B00015310000FC1A0020F0B544465F46564652
:1002C0004D46F0B4C2239D4C5B00E658C4235B004E
:1002D000E35C87B08046B346562B04D0984A994BCE
:1002E0001A80F8F777FB5946002900D10EE15B46EA
:1002F0002033984504D0944A924B1A80F8F76AFB51
:1003000042461378002B16D010221C1C9443EA2C72
:1003100011D054225E46B354884CC42358225B004B
:10032000E2540920FFF71EF907B03CBC90469946FD
:10033000A246AB46F0BD59464E6941464968C423C2
:100340008E430196E5D04246147AD568002C31D010
:100350007E4B01279A46791E01235B42C9B29C4617
:100360004B01EB185888504522D01B7C9946BC4263
:1003700020D93B1C03E00133DBB2A3420FD09942EA
:10038000F9D05A01AA1856888642F4D1167C4E45F7
:10039000F1D101336646DBB25680A342EFD101377B
:1003A000FFB2791EC9B24B01EB1858885045DCD119
:1003B000BC42F4D8631E281CDBB25B012030C0189D
:1003C000624BFF2642469A46A8465B46019DB146CF
:1003D00000210127A4460293B34603923D4219D05F
:1003E0006246002A7DD04346002402E02033834247
:1003F0000AD01A7C8A42F9D15A885245F6D0013483
:100400002033E4B28342F4D1002C6AD0B44201D24A
:10041000261C89460131C9B27F002029DED1029C09
:1004200003995E468846A346FF2E7BD04849782331
:10043000CE5443461C7ADD68A04600236C466375A3
:10044000153489461320211CF8F772FD2378002B00
:100450004ED10FF0C9FF4346013B291C4446DBB295
:1004600001345B012031AC46C918251C80B200273D
:100470004446384A83185A1E93415B421840002C68
:100480000CD0634602E020338B4207D01A7CB24284
:10049000F9D15A888242F6D1013080B20137BFB219
:1004A000BD42E6D87C234C46E052284B984233D0DC
:1004B000594600237A22A3520B83274B1F4C0B6211
:1004C0005322C4230A745B0059225846E254083070
:1004D000FCF764FF4E467823F15C2420F8F774F9AA
:1004E00022E7C323DB031F420AD18B4600248DE79A
:1004F0006C4616341220211CF8F71AFD2088D1E72B
:10050000029B039C9B46A0460E1C8FE7134A0D4B93
:100510001A80F8F75FFAEAE6114A0A4B1A80F8F7F0
:1005200045FA01E74A46FF2A05D10E4A054B1A80D3
:10053000F8F73CFA7AE74E4678E7C04610300020DC
:10054000AB300000FC1A0020AD300000FFFF0000BF
:10055000082E00200100FFFF2D0E0100AC3000002E
:10056000B9300000B8300000F0B55F4656464D4641
:100570004446F0B4424D8146FC23084383B08B4689
:100580009246EC5800273F4E80460AE09A4292413C
:100590005242002A1BD180235B00EB5820349C423E
:1005A0005CD22378062BF6D06378022BF3D0637EDF
:1005B000327C93420BD0991AC81709184140C729B9
:1005C000E4D900219A424941CAB2002AE3D0414607
:1005D000002905D022694A45DDD160695845DAD144
:1005E0005146A27E002941D19107D4D57420325CB6
:1005F000217E0F2A01D89142CDD2002F27D0FC2195
:1006000069588222601A5200AA584011C00010187E
:10061000791A80784911C900019052189278009295
:100620007A7E93420AD0991AC81709184140C729FF
:100630001FD99A429B415B42002BACD1019A009B8F
:10064000D11A1931A7DB0FF0CFFE0107A3D4802305
:100650005B00EB58271C20349C42A2D3381C03B00B
:100660003CBC90469946A246AB46F0BD5007BDD46F
:1006700091E70021081C9A424841C3B2DCE7C0461A
:1006800010300020082E00200A4910B50022002357
:1006900080310A604B6008490024A0200C54BA2025
:1006A00084B0095C684601720092019309F0DEFC97
:1006B00004B010BD082E00201030002070B582B0AC
:1006C0006C4607348620211C4000F8F731FC164D9B
:1006D0001648291CF8F710FC237828685A00D2180D
:1006E000134BD200EC1883186B6000210FF024FE2E
:1006F000B123002662689B00E65420239A430D4BE9
:10070000281C6260E65414380EF09AF8AD239B0062
:10071000E654094AAE239B00E2508022AC235200EB
:100720009B00E25002B070BDCC3200200B020000F2
:1007300044FDFFFFC50200003D070100F0B5AF23F7
:10074000164D9B00EC58164B47460022B02680B44D
:100750009846EA540127B60005E04346EF54AB59EA
:1007600018349C420ED22378002BF8D0013BDBB228
:100770002370002BF1D1201CFEF7B4FDAB591834C7
:100780009C42F0D3064BEB5C002B04D1AA239B00C8
:10079000E8180EF055F804BC9046F0BD103000206B
:1007A000C502000010B50E4C0E48211CF8F7A4FB42
:1007B000211C81200C314000F8F7BAFB237B226812
:1007C0005B01D318211C636008310748F8F794FBDC
:1007D000201C10300EF034F80120FEF74FFB10BD46
:1007E0000C3100200102000003020000F8B51B4E8E
:1007F000AF239B00F458B0239B00F558071C002141
:100800002378002B1DD06278100705D4002902D070
:100810000A789A4200D9211C1834AC42F0D30C1E3D
:100820000DD0201CFEF75EFD201C002118220FF0C9
:1008300083FD01231F40FF00272367702370201CC6
:10084000F8BD074BF25C002AEED10122F254AA2334
:100850009B00F0180DF0CCFFE6E7C04610300020FA
:10086000C502000070B5C2231C4D5B00EC58061C8D
:10087000002C2CD0231C1C339E4204D0184A194B48
:100880001A80F8F7A7F8C4235B00EB5C5D2B04D05B
:10089000154A144B1A80F8F79DF83378002B09D0CD
:1008A0005422A354C42358225B00EA540920FEF7C3
:1008B00059FE70BD0D4B201C23610D4B0830636148
:1008C000FCF760FDC4235E225B00EA54F1E7094AAD
:1008D000044B1A80F8F77EF8CCE7C04610300020B1
:1008E000B2300000FC1A0020B3300000FFFFFF0010
:1008F000FDF60000B130000010B5074C0022902337
:10090000E254064A9423201CE2508830FCF704FD90
:1009100014227823E25410BD103000209D3B0100CA
:1009200038B5134C0D1C201CF7F7CAFF031C0575C6
:100930001B69143098470F4BE2182368002B11D025
:10094000B4212020890050541A790C2A08D0DB8861
:10095000094A00209A4240410130FFF757FC38BD58
:100960001020FAE7B42378219B00D154F7E7C04662
:10097000E43200202CFDFFFFF7FF000038B5184CD3
:10098000CB239B00E018E558F7F79AFF2378DA06A7
:1009900007D42823C222281CEA5428302B6A9847FF
:1009A00038BD6A7F0F4B00201A72CC239B00E550A4
:1009B000CA2368229B00E2540B4AD4239B00E250D6
:1009C000D0236F229B00E254D2239B00E118F8F75A
:1009D000AFFACE229200A018FCF7E0FCE0E7C04698
:1009E00010300020082E0020251D0100F0B53848E9
:1009F0008C229200835C83B05D2B03D05E2B0BD0E6
:100A000003B0F0BD8D2301789B00C358CC071BD4E5
:100A1000C22119735E2383542E4C201CF7F750FF1C
:100A20002D4B051CE6182368002B23D0C22303732B
:100A30008C235D229B00F2540720FEF793FD281CB7
:100A40000C30AB689847DBE7602181541A79234961
:100A5000531E9A4194239B00C150902341219B0037
:100A6000C15492239B00C2548E239B00C018FCF7F4
:100A700095FCC5E703795A1ED2B2FD2A06D9FF2B91
:100A800013D08C2348229B00F254D8E7FA2292001C
:100A9000534398229200B350201C24300DF0A8FE3E
:100AA0008C234A229B00F254C9E76F4607379520F2
:100AB0004000391CF8F73CFA3B78012B06D0022B9A
:100AC000DFD1074A98239B00F250E5E7054AF9E792
:100AD0001030002044320020CCFDFFFF85000100D3
:100AE00030E0030000C8AF00F8B54F464646C0B43A
:100AF000414DBE235B00EC588C27E35D742B07D976
:100B0000C02390225B00EA540CBC90469946F8BD85
:100B10000620FFF7DBFA031EF2D0011C84220C3101
:100B200081508022061C805CF82101409954882164
:100B3000605C191CE03108708A21615AB8362F4870
:100B400071857A21415A181CB185E15DE830017048
:100B50009B21615C8C466246F821CA541A1C1532EE
:100B60007263E15D6B3209311172254AF9337264A7
:100B700001221A7090230278E158706B0FF048FB45
:100B8000204F381CF7F79CFE0023B422A354A82260
:100B9000A3549423E258AC23E2509D23E35C002B42
:100BA00018D0194A211CB8180831F7F763FE032042
:100BB000FEF7D8FC301CF9F7BDFBBE235B00EB58F9
:100BC000002B14D00F20FEF7CDFCC0238F225B003A
:100BD000EA5499E7201CA023E358A4309847301C1E
:100BE000F9F7A8FBBE235B00EB58002BEAD1C0232A
:100BF0008E225B00EA5487E710300020082E002088
:100C0000453B01008C310020C4FEFFFF70B582B06F
:100C10006C4607340820FF30211C00262670F8F7A8
:100C200087F91D4D2278291C8320742388314000C8
:100C3000EA54F8F77DF90620211CFF30F8F778F91F
:100C40008822A95C2378994221D3AB548923EE549E
:100C5000FEF796F9211C022314202370F8F768F997
:100C600022786F23EA540D4A32230D48D45CFBF7F7
:100C70002FFC6400041980200001FBF729FC742379
:100C8000EB5C400824185C43EC6002B070BD5B1A5A
:100C90008922AB54DCE7C046082E0020602D0020DE
:100CA000093D000070B5324C3C23E35C702B07D04B
:100CB000722B32D02F4A304B1A80F7F777FE70BD77
:100CC000A56B002D48D023789A0620D54023EB5CF5
:100CD0002E1D002B02D00120FEF7D0F80023392270
:100CE000AB5401222A732A6B24492A612C22AA5C64
:100CF000301C2A7577228A5CAB75AB62204B6A7513
:100D0000AB61FCF745FB71223C23E254D7E7C222DA
:100D10003823EA5472223C23E2541A48F7F7D0FDF4
:100D2000051E1FD06B6B002B10D0281C3830984745
:100D3000A36B002B06D070223C23E2540820FEF760
:100D400011FCBCE7D6223C23E254B8E70E4A0A4B1A
:100D50001A80F7F72BFEB2E70C4A074B1A80F7F719
:100D600039FEB0E70A4A044B1A80F7F733FED9E799
:100D700010300020D5300000FC1A0020082E002082
:100D800069F7000048300020D4300000D230000065
:100D9000D330000038B51D4D281CF7F791FD2B7995
:100DA000041C032B04D01A4A1A4B1A80F7F712FEC0
:100DB000002C25D0A023E358002B1BD0201CA430EE
:100DC0009847A823E35C002B0FD03D201249F7F78A
:100DD000CDFC124B9A6C002A03D00E20FEF7C2FB0A
:100DE00038BD41214C229954FAE73C200C49F7F7D1
:100DF000EBFCEAE70B4A074B1A80F7F7D7FDEFE762
:100E0000094A044B1A80F7F7E5FDD3E75830002074
:100E1000B4310000FC1A00204801002010300020EE
:100E200008130020B6310000B5310000F8B54E4D72
:100E3000C2235B00EC58061C271C0837002C00D18D
:100E400085E0231C24339E4204D0484A484B1A8034
:100E5000F7F7C0FD3378002B0BD1C4235B00EB5CAC
:100E6000593BDBB2072B00D96BE0424A9B00D358B9
:100E70009F465422A354C42358225B00EA540920FD
:100E8000FEF770FBF8BD462323740F232376C4239B
:100E90005A225B00EA54384B381C2362FCF77EFA76
:100EA000F0E76F23211C237400201831F8F740F875
:100EB000C42360225B00EA54EDE7304E00237372D6
:100EC00080361920311CF8F733F833687268134301
:100ED00043D0FEF779F845232374294B5B22A361A5
:100EE000C4235B00EA54D6E75223237401232376FC
:100EF000C4235C225B00EA54CDE78323211C2374C6
:100F000002201831F8F714F8C4235F225B00EA547A
:100F1000C1E71A4B7C229A5A381C228278229A5CAA
:100F2000A27477229B5CE37401232375002363750D
:100F3000144BA361FCF738FAC4235D225B00EA542A
:100F4000A0E7114A0A4B1A80F7F730FD9AE70F4ADB
:100F5000074B1A80F7F73EFD73E7FBF7A5FA026827
:100F6000436832607360B4E710300020AF30000097
:100F7000FC1A0020A84A02002D0E0100082E0020B5
:100F8000662E002065080100B0300000AE30000081
:100F9000154A031E93421DD090420CD9134A904229
:100FA00004D0134A0120934212D17047114B187A92
:100FB0000007C00FF9E7104A904209D10D4B6E228D
:100FC0009A5C0020012AF0D1187A4007C00FECE7A4
:100FD0000020EAE7074A6E23D35C002001229A42F0
:100FE0004041C0B2E1E7C046FCFF0000FDFF000049
:100FF000FFFF0000082E0020FBFF00003D2800D06E
:1010000070470029FCD00A88014B1A80F8E7C046D7
:101010000813002030B58423164C5B00E35C141CDD
:101020009A4200D91C1C1B1BDBB21C1C8B4200D932
:101030000C1CE4B29C421AD000280BD10E4A0123AA
:10104000547CE50704D48923D35C99424041C3B260
:10105000181C30BD08480221437C19400123002997
:10106000F6D18823C35C9A424941CBB2F0E7012311
:10107000EEE7C04610300020082E0020164BF0B5D9
:10108000FC229D58802252009C58822252009F5878
:1010900000212B1C00261A78062A0DD05A1B52114B
:1010A000D200BA185279024201D10136F6B25A780A
:1010B000022A01D00131C9B22033A342EBD3002070
:1010C000002906D00623052904D900209E4240416C
:1010D000C0B2F0BD0B1CF8E710300020F0B5474659
:1010E00080B44C4F381CF7F7EBFB4B4A051CBF187C
:1010F0003B78DA0700D482E0484E7A23C488B022D5
:10110000F05AAF239B009200FB58B95802E0183305
:101110008B421AD21A78002AF9D01A89A242F6D143
:101120009A888242F3D10423281C6B741030EB6838
:1011300098473B4FA8239B00FB58002B02D004206C
:10114000FEF710FA04BC9046F0BD0120FFF74EFBFD
:10115000041EE8D02B7903221A40637860215201E3
:101160008B43134363706B7A01221A40637810211A
:1011700012018B4313436370FF23E3707A23F35A06
:10118000274FA380EB88A92223819200BB5C591EC4
:101190000D293AD96D23F25C511CC9B2002901D145
:1011A0000232D1B2F154A9239B0098464246012352
:1011B000BB542620F7F708FB4246BB5C6D22B25CAD
:1011C000013A12011343A3722B7AE37200232373B3
:1011D000B37A25610133DBB2B372627863730123A2
:1011E0001343022213436370B1239B00FA5C002A6D
:1011F000A0D19322FA540520FEF7B4F99AE7C2234E
:1012000003741030EB68984794E70133DBB2BB54AA
:10121000D4E7C046B032002060FDFFFF082E00205A
:1012200010300020F8B5164A164CCC25AD007823B6
:10123000D15C66593823F1546359111C80310E6812
:101240004F681E635F637A21525A5A852822985448
:10125000181C28301B6A984700236351CB239B003E
:10126000E358002B07D0CA2367229B00E2541220C8
:10127000FEF778F9F8BDCA2366229B00E254F9E72D
:10128000082E00201030002008B50078002804D077
:10129000EA2819D0FFF7C6FF08BD0D48CA236A2205
:1012A0009B00C2540B4AD4239B00C250D02345223A
:1012B0009B00C254084AD2239B00C250CE239B00FD
:1012C000C018FCF76BF8E7E7CA20FFF7ABFFE3E7CE
:1012D00010300020251D0100662E0020A82210B528
:1012E0008154942281580F4CAC228150031CB022AF
:1012F00000218150201C191CF7F7BCFA483C4C22F5
:10130000A35C412B07D0032B04D0074A074B1A805C
:10131000F7F74CFB10BD0323A3540E20FEF722F970
:10132000F8E7C04658300020B3310000FC1A002016
:1013300038B58468427BB4230D1CE2545030FDF76D
:101340008BFF291C201CFFF7C9FF38BD08B50D4ACB
:101350008B239B00D358834208D88A218900525C92
:1013600091008A1812019B18984205D3064A074B30
:101370001A80F7F71BFB08BD002150220EF0DCFF9E
:10138000F9E7C0461030002041300000FC1A002070
:10139000F0B557464E464546E0B48B23374F9B0089
:1013A000FC588A239B00FB5C86B09E00F618360131
:1013B000A619002C5CD09C218900C919B846894621
:1013C000B44205D31FE0032B23D05034A6421AD9D0
:1013D0002378022BF7D1228C6D462A80A169E2691D
:1013E0006B740023AB746378A960EA609A071DD41C
:1013F0006378201C2B745034FFF7A8FF684608F070
:1014000021FEA642E4D806B01CBC90469946A246EE
:10141000F0BD228A6D462A80A168E2686B74637D04
:10142000A960EA60AB7463789A07E1D5A7239B00B3
:101430009A46FB5C022BDBD04246524400231370D9
:1014400048460DF0FDF90EF0CFFF0D4980B2F2F7DE
:10145000CDFE0B4B89B2C9189E239B004246D1504A
:101460004146012351440B7048460DF0C1F9BFE7D6
:10147000044A054B1A80F7F799FAC4E710300020A8
:101480004C1D000042300000FC1A0020F8B5051C7D
:10149000283D002D47D02B78052B14D1254A8021DB
:1014A000FC234900AC69EE69D35851581A78062AD2
:1014B00002D09F68A7420CD020338B42F6D3281C61
:1014C000FFF744FFF8BD1C4A1C4B1A80F7F76EFA71
:1014D000F8E7DF68B742EFD12221695C002906D026
:1014E00004218A43012A0CD006221A70E7E7202142
:1014F000415C0029F4D102232B700B20FEF732F857
:10150000E0E75A78022A06D00D4A04215F3250786B
:1015100001435170E8E70A4A80215F32507849421E
:1015200001435170E0E7074A044B1A80F7F73EFA8F
:10153000C8E7C0461030002047300000FC1A0020E9
:10154000082E002046300000F8B586680F1C33785E
:10155000042B04D0204A214B1A80F7F73BFA204A8B
:101560008021FC234900B568F068D35854581A7894
:10157000062A02D09968A94206D02033A342F6D3A6
:10158000301CFFF7E3FEF8BDD9688142F5D1317D0B
:10159000002901D1002F18D004218A43012A02D04A
:1015A00006221A70ECE75A78022A06D00D4A042166
:1015B0005F32507801435170F2E70A4A80215F326E
:1015C0005078494201435170EAE7032333700B20FE
:1015D000FDF7C8FFD7E7C04645300000FC1A0020E1
:1015E00010300020082E002038B580680378042BC6
:1015F00015D1002910D1104A8021FC2349008468AC
:10160000C568D35851581A78062A02D09A68A2425F
:101610000BD020338B42F6D3FFF798FE38BD074A34
:10162000074B1A80F7F7C2F9F8E7DA68AA42F0D157
:10163000028A9A80F0E7C04610300020483000004F
:10164000FC1A002010B5F4230B4C6F225B00E2540F
:10165000F8235B00E1180020F7F76AFC074AFC2337
:101660005B00E250F0235B00E018FBF797FECC2311
:1016700035225B00E25410BD1030002001560100FD
:1016800010B50378002B0DD0084CD0225200A15881
:1016900028228B540A20FDF765FFCC2322225B0011
:1016A000E25410BDFFF7CEFFFBE7C046103000202C
:1016B000F0B5012252421E484746EC239046D12203
:1016C00080B4C658E0270023944608E0A04500D91E
:1016D000A04664460133015DDBB2994210D3D900C4
:1016E0007118CC78002CF4D04D68C259AC1A4C60FB
:1016F000ECD1CC7064460133015DDBB29942EED28D
:10170000454601350DD0041CD434201C012142462D
:10171000084BF7F795FA201CF7F7A6FA04BC904699
:10172000F0BD0022D123C254D430F7F7A7FAF5E771
:1017300010300020B116010038B50F4C051C291CD3
:10174000201CF7F797F80D4BE418B4239B00E25CDC
:10175000782A00D038BD2022E2542B790C2B08D0F7
:10176000EB88074A00209A4240410130FEF74EFDC7
:10177000F0E71020FAE7C046E43200202CFDFFFF1E
:10178000F7FF000070B5051C82B0274C002804D07C
:1017900090235B00E35C442B21D0244A244B1A8025
:1017A000F7F718F99026AA237600A3552B78002B7B
:1017B00010D19C256D00635B1E4901A87A228B52D3
:1017C00003801023837008F0C5FE92235B00E35C66
:1017D000002B0AD10220FDF7C5FE02B070BDA22287
:1017E0005200A3189842D8D1DCE796230D225B0063
:1017F000E2540322972352425B00E25201229923D2
:1018000052425B00E25291235B00E25A98235B0054
:10181000E252094B63514623A35594235B00E01821
:10182000FFF78AFFD9E7C046103000208231000060
:10183000FC1A0020082E002041F6000010B5041C00
:10184000D030FDF709FD00232370124CE2186932F5
:10185000FF321278D8B2002A0DD10133112BF5D105
:10186000B1239B00E35C1A2B10D0C0235B00E25C29
:10187000902A05D010BDFEF7ADFC0028FAD1EFE7A5
:101880009122E2540F20FDF76DFEF3E70520FDF7EE
:1018900069FEEAE71030002008B50B480123027802
:1018A000134208D1A722920083549C239B00C018A6
:1018B0000CF09EFF08BDA72302229B00C25400200B
:1018C000FEF7A4FCF6E7C0461030002000B58A20E1
:1018D00083B0400001A9F7F72BFB1948194BC35CF3
:1018E000002B06D0184A835C013BDBB28354002BEB
:1018F0000ED1164A9E239B00C250A7239B000122B3
:10190000C2549C239B00C0180CF072FF03B000BDB2
:10191000019B002B0CD0A32292008350A72301220D
:101920009B00C254A1239B00C0180CF061FFEDE79F
:10193000A72302229B00C2540020FEF767FCE5E7C4
:10194000103000209A0200009B020000983A00002C
:1019500008B50B4801230278134208D1A722920050
:101960008354A1239B00C0180CF042FF08BDA7239D
:1019700002229B00C2540020FEF748FCF6E7C04656
:1019800010300020007808B5002802D0FFF74AFC8C
:1019900008BD0948CA236B229B00C254074AD123C1
:1019A0009B00C250D02353229B00C254CE239B00E5
:1019B000C018FBF7ABFCEBE710300020C1190100A9
:1019C00038B50478002C09D14378502B35D0532BEF
:1019D00008D04B2B2BD0002B13D038BD201CFFF789
:1019E00021FCFAE701891E4A7A231E48D1524B2274
:1019F000D0239B00C254CE239B00C018FBF786FC6B
:101A0000EBE7174C037A211C7831782511206355B8
:101A1000F7F7BAFAFDF7D8FA124BBD2200201A7078
:101A2000FFF700FC615D2420F6F7CEFED5E70289C2
:101A30000B4B0C481A805022DAE7028908497C23B4
:101A4000CA5212207C31F7F79FFA0648D0239B0038
:101A5000C454CE239B00C018FBF758FCBDE7C0461A
:101A6000082E00201030002008B5011C428D0848C7
:101A70007C23C35A9A4206D00648F6F7FBFE0320A1
:101A8000FDF770FD08BD081C1830FBF799FCF9E75D
:101A9000082E002054300020F8B5174DDF26B60080
:101AA000AC59DF26B600071CA819F6F709FF134B3F
:101AB0007822995C3822A1541A1C8032106851682F
:101AC000206361637A229B5A201C63852823E75494
:101AD0002830236A9847AB59002B07D0DE23172202
:101AE0009B00EA541320FDF73DFDF8BDDE231622CE
:101AF0009B00EA54F9E7C04610300020082E002071
:101B0000037810B5002B09D14378453BDBB22A2B73
:101B100000D96AE0424A9B00D3589F46181CFFF741
:101B2000BBFF10BD3F48E2234B229B00C2543E4BFB
:101B30001A88E4239B00C252E0239B00C018FBF7E5
:101B40002DFCEEE73748E22346229B00C254E021F9
:101B5000E4230F229B008900C2544018FBF71EFCAF
:101B6000DFE73048E22352229B00C2542E4B1A7A00
:101B70001207D20FE4239B00C254E0239B00C0183D
:101B8000FBF70CFCCDE72748E2239B005022C25410
:101B90007C23254AE021D25AE4239B008900C252CB
:101BA0004018FBF7FBFBBCE71E48E22300229B002A
:101BB000C2541D4A7823D25CDCE71A48E2239B001A
:101BC0005322C2547A23E4E7164CE2236F229B008F
:101BD000E254E4239B00E1180020F7F7A9F9E02183
:101BE00089006018FBF7DAFB9BE70E48E2239B00B5
:101BF000C35C002B00D094E70B4B1A7A002311072B
:101C000000D50A4BE22292008350094AE3239B004D
:101C1000C250E0239B00C018FBF7B4FB81E7C0462D
:101C2000C84A020010300020082E0020FFFFFF00ED
:101C3000351C0100007808B5002802D0FFF72CFF02
:101C400008BD034BBD221A70FFF726FFF8E7C04618
:101C50001030002010B5114C237CC22B02D0C12BB8
:101C60000DD010BD201C1430F6F72AFE031C5B6853
:101C7000083098476369002B0DD0C12323740122DB
:101C80002023E254064B201C63621830FBF744FB10
:101C9000C3232374E5E719232374E2E710300020FF
:101CA000AD3C010038B51C4C2378DA0603D4C220C1
:101CB000FFF7F2FE38BDDF239B00DE22174D9200B6
:101CC000E3581821A1545B7F291C7C3112202B7210
:101CD000F7F72EF9291C78311120F7F729F9FEF7CB
:101CE00095FFFDF771F90E4AE6239B00E250E223CF
:101CF00045229B00E2542A1CE4235E329B00E25002
:101D0000E0239B00E018FBF749FB7823E95C2420E3
:101D1000F6F75AFDCEE7C04610300020082E00200E
:101D2000011B0100027810B5002A3DD14378462BF3
:101D300052D028D9522B3BD06F2B23D12F48CA2306
:101D400069219B00C154D02303219B00C154CC23A3
:101D50009B00C358D1219C6989004450197FD2232C
:101D60009B00C15426497723C95C264BC154264B9E
:101D7000CE21C254254AD3239B008900C25040186B
:101D8000FBF706FB10BD452BFCD11C48D023462297
:101D90009B00C254D2230F229B00C254CE239B002F
:101DA000C018FBF7FBFAEDE7101CFFF73BFAE9E779
:101DB000134B1A7A0023110700D5154B0F48D02278
:101DC00092008350134AD1239B00C250CE239B0024
:101DD000C018FBF7D7FAD5E70848D02352229B005A
:101DE000C254074BCE241A7AD2231207D20F9B007B
:101DF000A400C2540019FBF7D1FAC3E71030002049
:101E0000082E0020490300004A0300008912010047
:101E1000FFFFFF008519010070B5314CCC23E35C56
:101E2000E72B07D0E92B12D02E4A2F4B1A80F6F75A
:101E3000BDFD70BDC823E558002D45D02378DA07D5
:101E40001FD4C3223823EA54E922CC23E254274882
:101E5000F6F736FD051E3DD06B6B002B2ED0281CEF
:101E600038309847C823E358002B06D0E722CC230C
:101E7000E2540D20FDF776FBDBE71322CC23E2547E
:101E8000D7E7EB6A00262B612E733023EB5C184AF0
:101E90002B757723D35C281D6B751023AB75154B01
:101EA000AB612B1C4133AB62FBF772FA2278CD2376
:101EB000E254E822CC232670E254BAE70E4A0A4BD9
:101EC0001A80F6F773FDB4E70C4A074B1A80F6F751
:101ED00081FDB3E70A4A044B1A80F6F77BFDBBE7A6
:101EE0001030002086300000FC1A0020D83000207E
:101EF000082E002085F600008330000081300000AD
:101F00008230000070B5C423794C5B00E35C542B35
:101F100007D0582B41D0774A774B1A80F6F746FD09
:101F200070BDC2235B00E558002D00D194E04D2325
:101F3000EB5C724E3372FEF769FE23789A0725D563
:101F40004023EB5C012B00D192E0AB6C002B00D165
:101F5000AEE05A1E134200D1AAE000222A746B613F
:101F60004C23EB5C281C2B767723F35C08306B76D4
:101F70001023AB762B1C3033EB62614BEB61FBF72C
:101F800007FAC42357225B00E254C9E7C222542354
:101F9000EA54C42358225B00E2545A48F6F790FCF6
:101FA000051E5FD04423EB5C002B2BD15423EB5C4C
:101FB000002B12D02B6D002B48D0281C5430984792
:101FC000C2235B00E358002B20D0C42354225B00C3
:101FD000E2540920FDF7C6FAA2E74B4E1220311C4D
:101FE000F6F7D2FF311F1120F6F7CEFF8A23FF3319
:101FF000E35C002B0FD08A23FF330122E254FD2340
:102000002370D7E70120FCF739FFCFE7C423B722BD
:102010005B00E25484E73D498E225200A1508021AA
:102020008A2209015200A1508C225200A354862317
:102030005B00E0180CF0DCFBA72301229B00E254BC
:102040009C229200A0180CF0D3FBD4E7304A2A4B14
:102050001A80F6F7ABFC63E72E4A274B1A80F6F797
:10206000B9FC64E72C4A244B1A80F6F7B3FC99E7D5
:10207000311C7C311220F6F75BFF311C78311120C6
:10208000F6F756FF00237A22B3522B83234B5322B9
:102090002B62C4232A745B005922281CE2540830A6
:1020A000FBF77CF97823F15C2420F6F78DFB37E70A
:1020B00001222A746B614C23EB5C291C2B7677235D
:1020C000F35C82206B761A314000F6F731FF291C51
:1020D0002C311348F6F710FF2E1C124B0836EB611B
:1020E000301CFBF755F9C42356225B00E25417E776
:1020F00010300020A4300000FC1A0020082E002020
:102100000530010094310020842E0020E1420100BE
:10211000A3300000A1300000A23000002D0E01000D
:1021200002020000B902010038B53C4CC6256D0022
:10213000635D452B02D0472B0FD038BDC8235B0011
:10214000E058374B6E229A5C012A35D0C2222823F0
:10215000C254C62347225B00E2543248F6F7B0FB74
:102160002023C35C051C002B1DD12823EB5C002B16
:1021700008D1CA235B00E35C002B34D0CA230122C0
:102180005B00E254281C6B6A28309847C8235B0028
:10219000E358002B0BD0C62345225B00E2540620F7
:1021A000FDF7E0F9C9E70020FCF768FEDDE7C6238C
:1021B0009A225B00E254C0E722785107C6D57C2200
:1021C0009A5A0430028178229A5C827277229B5C50
:1021D000C372002303734373134B0361FBF7E4F8EB
:1021E00046236355A9E711498E225200A150802150
:1021F0008A2209015200A1508C225200A354862346
:102200005B00E0180CF0F4FAA7239C2101229B004C
:102210008900E25460180CF0EBFAAFE710300020B0
:10222000082E0020A031002099F50000E1420100B5
:1022300038B5234CD0256D00635900229868D968C1
:10224000FEF792F9D2235B00E05000282BD0D42374
:1022500000225B00E2541B4B7722995CEA22FF329A
:10226000A154C178F4225200A154F5220221520057
:10227000A154C188F6225200A1528188F82252004E
:10228000A1521A7AFC235B00E2540F4AFE235B0042
:10229000E250F0235B00E018FBF726F8CC23232262
:1022A0005B00E25438BD6259CA212823D154CC23A3
:1022B00022225B00E2540A20FDF754F9F2E7C046FF
:1022C00010300020082E0020F126010038B51B4CEC
:1022D000D0256D00635901229868D968FEF744F94A
:1022E000D2235B00E05000281CD0D42300225B00E6
:1022F000E254C38812497C228B52F42250215200AE
:10230000A154F8225200A3520E4AFC235B00E25073
:10231000F0235B00E018FBF741F8CC2329225B0097
:10232000E25438BD62592823C321D1540A20FDF755
:1023300019F9CC2322225B00E254F2E7103000208E
:10234000082E00200156010008B5FFF7BFFF08BDA9
:10235000F8B58B790C1C151C012B01D00120F8BDA0
:102360004E7A0B7A36021E438B7A0A7B1B041E437D
:10237000CB7A1B061E434B7B1B0213438A7B120442
:102380001343CA7B1206171C1F43FAF78DF8036824
:10239000B342E3D14368BB42E0D14D4ECC277F002E
:1023A000F35D1A1C2C3A012A1FD9DA2BD6D1494BDE
:1023B0006E229A5C022AD1D1A27E617E12020A4369
:1023C0007A215A52F42353215B00F154F8235B0025
:1023D000F252414AFC235B00F250F0235B00F018FC
:1023E000FAF7DCFF3123F355B8E7D6235B00F0188A
:1023F0000CF026FAA37E627E1B021343374A9342F7
:1024000059D0E27E002A56D1D02149007058314C73
:10241000282142547A216352D2235B00F3589988D1
:102420002180D878782160541A701A7E0132D2B295
:102430000F2A4AD90F226272597E22202174F6F7A0
:10244000C3F9FCF7C1FD6B68002B18D059781A78D6
:10245000090211439A78187912041143DA781206A6
:1024600011435A79120202439879DB7900041B0662
:1024700002431A43D2235B00F3589960DA60F423D5
:1024800053225B00F2547A23E25AF8235B00F252A3
:10249000114AFC235B00F250F0235B00F018FAF7BE
:1024A0007DFFCC232E225B00F2547823E15C2420B4
:1024B000F6F78AF952E7D2235B00F35804219A7E9B
:1024C0008A439A76FFF702FF48E76272B4E7C04694
:1024D00010300020082E002001560100FFFF0000F0
:1024E00008B5D4210C4B49005A5C0132D2B25A547F
:1024F000022A07D8CC222821520099540320FDF744
:1025000085FE08BDD22252009B5804219A7E8A4340
:102510009A76FFF7DBFEF4E71030002010B5037861
:10252000002B0DD00A4CD0225200A15828228B54E7
:102530000A20FDF717F8CC2322225B00E25410BDDD
:102540008168034ADA235B00D150FFF7C9FFF6E741
:10255000103000200378D02210B552001C4C002B04
:1025600018D1A258117C032909D028215354CC2317
:1025700022225B00E2540A20FCF7F4FF10BD154B49
:102580001B7A1B07DB0F10D1DA225200A350FFF792
:10259000A7FFF3E7A15828228B540A20FCF7E2FF9B
:1025A000CC2322225B00E254E8E7F42381225B0083
:1025B000E254094AF6235B00E250F0235B00E01886
:1025C000FAF7A4FECC232B225B00E254D6E7C046E8
:1025D00010300020082E00201D25010010B5002914
:1025E0000AD0124AD2235B00D35804219A7E8A4330
:1025F0009A76FFF76BFE10BD0C4CDA235B00E258B5
:10260000F532FF32E2500A4ADE235B00E250DC235F
:102610005B000122E254D6225200A0180CF0E8F828
:10262000CC232D225B00E254E5E7C04610300020A9
:102630003526010008B5144B1B7A1A070AD5134A30
:10264000D2235B00D35804219A7E8A439A76FFF7FF
:102650003DFE08BD0D48E42302225B00C254D22394
:102660005B00C358E522D988520081529A88E8233A
:102670005B00C252064AEC235B00C250C130FF30FF
:10268000FAF798FEE5E7C046082E0020103000203B
:102690009526010038B5144CCC256D00635D2D2BBB
:1026A00000D038BD0378002B09D0D2235B00E3585B
:1026B00004219A7E8A439A76FFF708FEF1E70B4AD7
:1026C000DE235B00E250DC2301225B00E254DA23CC
:1026D00078225B00E250D6235B00E0180CF088F80B
:1026E0002C236355DDE7C04610300020492301004C
:1026F00070B5837C041C002B19D0022B0AD8D2237E
:10270000324A5B00D3589A7E02218A439A76FFF7B9
:102710008FFD70BD2D4CD4225200A35C0133DBB27F
:10272000A354012B48D9D2235B00E358EBE7274D94
:10273000D2225200AA58264ED0887C21705220887E
:102740007A21705291883180A068E1689060D160F0
:10275000F4214900685C782170541370137E0133B2
:10276000DBB20F2B25D87372517E22203174F6F71D
:102770002BF8FCF729FCD2235B001122E858217CBE
:10278000A256FCF761FCF42345225B00EA54F823CF
:102790005E365B00EE50CC2324225B00EA54F0212D
:1027A0000C4AFC235B004900EA506818FAF7F6FD72
:1027B000AFE70F237372D7E7F0235B00E018FAF757
:1027C00093FDCC2323225B00E254A2E710300020CB
:1027D000082E00200156010038B5C122134B92008B
:1027E00099580278E12A08D00A73C022A5219200E4
:1027F00099540120FCF7B6FE38BD0D481C5C032C33
:10280000F2D80C4A7C21555A0B4901345D5211888B
:10281000C62292009952C022A42192009954C22249
:1028200092001C549818FAF7C5FDE5E71030002017
:1028300001030000082E00201203000038B50E4CE2
:10284000E26F137CDB0906D112227823E2540620C2
:10285000FDF7DCFC38BD7825132363550022902357
:10286000E254064A9423201CE2508830FAF754FDC3
:1028700014236355EEE7C046103000209D3B010055
:1028800010B52848C0239B00C35CA32B02D0A52B06
:1028900014D010BDC1239B00C35800221A730278C4
:1028A000D10701D4C2221A731A79002A1BD11B7BCB
:1028B000002B20D0C023A5229B00C2541A4C201C00
:1028C000F5F7FEFF031C9B680C30984717492368F7
:1028D0006218002B0AD0C023A3219B00D1540120F1
:1028E000FCF740FED5E7C1221A73E3E7C02331218C
:1028F0009B00D154CDE70E4B7C22995A0D4A815250
:102900001A88C6239B00C252C023A4229B00C25433
:10291000094B0122C254C2239B00C018FAF74AFD9A
:10292000B7E7C0461030002014330020FCFCFFFF46
:10293000082E00201203000001030000F8B55F46D6
:1029400056464D464446F0B43A48802252003A4D2D
:1029500081586F22AA5C902794466022AA5C0626C2
:10296000D4095207FC23D20F3F18A046B346C358E0
:10297000914600248026BA4604E0052A48D0203338
:102980008B4216D21A78062AF9D0012AF5D1825D37
:10299000002A04D0524612689F68BA4233D0674674
:1029A000002F02D05A78022AE9D11C1C20338B4216
:1029B000E8D35F354346D9016B787F221A400A433A
:1029C0004E460421B3008A431A436A70002C2ED06D
:1029D000A2888823C252031C9033A168E268196060
:1029E0005A60A37EDA071BD405229823C25415220D
:1029F0007823C2540720FDF709FC3CBC9046994659
:102A0000A246AB46F8BD57467F68DA689742C6D102
:102A10005A78022A08D0012291465A461A70AEE727
:102A200098230122C254E2E70127B846F5E7FFF7F1
:102A300005FFE2E710300020082E0020F8B54D4CCD
:102A40007822A35C112B02D0172B08D0F8BD237875
:102A5000E56FD80716D41723A354C2232B76464C10
:102A6000201CF5F72DFF031C5B6918307C3C984750
:102A7000E76F002F1DD011227823E2540C20FCF7C1
:102A800071FDE3E7AB68E9680B4305D0281C08300B
:102A9000F9F70EFD002810D0384A6E23D35C022BC4
:102AA00002D06B7C002B13D1FFF7C8FE7823E35CC8
:102AB000CAE7E6227823E254C8E7304E6E23F35C7F
:102AC000012B0FD9C22117227823E2542976C6E7B9
:102AD000F123237000228023E254FFF72FFF782395
:102AE000E35CB1E7EA68FC23944680225200A868C0
:102AF000E358A1581A78062A02D09F68874204D06A
:102B000020338B42F6D3C821DDE7DF686745F7D174
:102B1000012A12D0C221052AD5D15A785F367178A0
:102B2000022A21D004220A43727006221A707823E6
:102B30001722E25400232B7691E79888882160526F
:102B4000211C90319D68DE680D604E609B7EDE0723
:102B500000D405229823E2547825152363550720D5
:102B6000FDF754FB635D6FE7802252420A437270A7
:102B7000DBE7C046103000208C300020082E0020FB
:102B80000A4A10B5D06F8368C468234306D18023F6
:102B9000D15C0131D154FFF7D1FE10BD1724782349
:102BA000D45401760C20FCF7DDFCF6E71030002051
:102BB000F0B544465F4656464D46F0B4002385B016
:102BC000029388464179814F6E460901073679188C
:102BD000041C0C31301C01220DF01AFB237BE56B29
:102BE0000A2B19D87A4A9B00D3589F466978E8780F
:102BF000AB78C9070002C90F1843C9B2FCF7B2FB92
:102C000000285BD041464379002900D0B1E0FF2B7A
:102C100000D1C4E001334371617902A80901083190
:102C2000791804220DF0F4FA029B002B02D0201C2C
:102C3000414698473378002B03D0201C8038FEF79C
:102C4000FDFD05B03CBC90469946A246AB46F0BDA2
:102C50004046E128E0D0EA78AB7812021A43092313
:102C6000002829D003A80280837007F073FCD3E703
:102C70006A792B7912021A43AB78208A9B46EB784B
:102C800092461B029C46B622524B92008146995CAA
:102C9000584662461043834600294BD0697858460F
:102CA000C907C90FC9B2FCF75DFB0028B4D003798E
:102CB000012293430371AFE71323D3E74246002A6F
:102CC000AAD06B792A791B02434913437A228A5A84
:102CD0009A42A1D02A7892079ED1002802D0027988
:102CE000D00799D4227B062A96D1E978AA780902DE
:102CF00011438C463748218AB62292008A46815C6D
:102D0000002900D088E7B825AD0041553349554624
:102D10004352B9239B006146C152BA239B00C5525E
:102D20002F4BC55201238354B72292008018FEF71F
:102D300003FD71E7B8208200995428495046585243
:102D4000B9215A4689005A52BA2148468900585238
:102D500023495852B620012180001954B721890017
:102D60005818FEF7E9FCE878AB7800021843834670
:102D700094E7002B0BD017491A4A8A5C191C1141A1
:102D8000CAB2002A00D101229B1ADBB243715A1E3B
:102D90009341027901218A431343037191E70D4A5C
:102DA000B225AD00B3208000535984461979C80775
:102DB00003D559794908013159716046115A505962
:102DC000C900083341188B42F0D325E7844C020038
:102DD000744B020010300020082E0020E202000098
:102DE000E6020000CE020000F8B544465F465646B3
:102DF0004D46F0B49446041C644A6548012380465D
:102E00007A2792469946E56B40466A792B791202F9
:102E10001A43C35B934204D06379193B012B00D85A
:102E200099E0022959D000D88FE003295BD004290A
:102E300000D090E06B78D9074FD4EA78AB781202D3
:102E40001A43524B9A4248D1502212199246171CEB
:102E500000E01F1CBB69002BFBD13B793820984652
:102E600083464346002B38D169792B7909023869AA
:102E70001943FBF7E1FF3861002800D180E0022010
:102E8000FDF782F9061E00D17DE0211C80220DF0A5
:102E9000BFF974225242921991465B46E25CE16BA3
:102EA00048460DF0B5F94846331CF0634246386990
:102EB000503351466366B16672668388412133861A
:102EC00005237354301CFEF7CFFD3B7A3A7901336A
:102ED00090463B724346002BC6D03CBC9046994678
:102EE000A246AB46F8BD261C503600E01E1CB36956
:102EF000002BFBD16B78D8072DD4EB78A9781B0277
:102F00000B43534527D13379002B2CD0A36E494670
:102F10003171002B24D0626E5A61626E002A00D09B
:102F20009361201C8038FEF789FC337A013BDBB2C9
:102F30003372002BD1D17379002BCED0341C503C8E
:102F40004923E35C01219C465DE7002903D1201C55
:102F5000FEF78AFDC1E7201C6146FFF729FEBCE7AA
:102F60007171337AE5E73069111CFBF765FF306159
:102F70000028CBD08388052223864123E254E6E74C
:102F800001233B71A9E7397988466AE7FFFF000012
:102F9000082E0020F8B54F464646C0B4184E5023C0
:102FA0000022F25468239B1999464923B46E98462F
:102FB000502706E00122013BF25563812468002C72
:102FC00011D06389002BF5D1211C48462568F5F7FF
:102FD0007FFC201C50384346217BC25CFFF704FF76
:102FE0002C1C002CEDD15023F35C002B03D1301CA2
:102FF00054300BF025FC0CBC90469946F8BDC046F9
:1030000010300020F0B5474680B4C2233B4F5B0030
:10301000FC58C4235B00FB5C061C572B04D0384AC9
:10302000384B1A80F5F7D6FC002C61D0231C2033D6
:103030009E4204D0344A334B1A80F5F7CBFC3378E8
:10304000002B3BD1656973689D4345D0F368307AA6
:103050009C46002811D02022002101231D4206D0C9
:103060006646765CCC2E00D99D430131C9B2013A47
:103070005B00002A01D08842F0D8012323746561E7
:103080004C23E35C214A23767723D35C211C8220E6
:1030900063761A314000F5F74BFF211C2C311C4898
:1030A000F5F72AFF251C1B4B0835E361281CFAF7AE
:1030B0006FF9C42356225B00FA540AE0FA2B11D0B0
:1030C0005422A354C42358225B00FA540920FCF76D
:1030D00049FA04BC9046F0BD0F4A0A4B1A80F5F736
:1030E00065FCF6E70D4A074B1A80F5F75FFCF0E741
:1030F0000B4A044B1A80F5F76DFC97E7103000205F
:10310000A8300000FC1A0020AA300000082E002081
:1031100002020000B9020100BA300000BB3000001A
:10312000A9300000014A7A23D05A7047082E0020A7
:10313000014A7123D05C7047082E002030B50C4A3C
:10314000F023F421D35851581A78141CD50703D50D
:1031500002689D68AA4203D010338B42F4D330BD7D
:103160004268DD68AA42F7D1012294431C70F6E759
:103170001030002038B5041E32D0F9F799F9002834
:103180001ED124CC1A4CFC23E05880235B00E1586C
:103190000378062B02D08368934213D020308842F4
:1031A000F6D3F023E058F423E1580378DC0702D586
:1031B000836893420FD010308842F6D3002038BD88
:1031C0000C48FCE7C368AB42E8D181880A4B043065
:1031D0009942E6D8F3E7C468AC42ECD10230EEE79E
:1031E000064A074B1A80F5F7E1FB0020E7E7C046E7
:1031F00010300020822E0020F7FF00001131000067
:10320000FC1A002010B5011E12D00F4C201CF5F73F
:1032100031FB383C3C22A35CD62B0FD0703B022BF9
:1032200000D810BD094A0A4B1A80F5F7BFFBF8E732
:10323000084A074B1A80F5F7B9FBF2E77023A3544D
:103240000820FCF78FF9ECE748300020D13000006F
:10325000FC1A0020D0300000F8B5524CCC256D008F
:10326000635D212B32D0222B00D0F8BDD0235B0030
:10327000E3584D4E7A22B25A9868D9681863596358
:103280005A857822B15CD025382299546D00635953
:1032900028229A5C002A36D0181C28301B6A9847CE
:1032A000D2235B000022E250CE235B00E358002BC8
:1032B00007D00A20FCF756F9CC2321225B00E25408
:1032C000D3E7CC23DA225B00E254CEE7CE214900DB
:1032D0006018F5F7F5FAD0277F00E051437F324EB2
:1032E0003372FDF793FC2378DA062FD5E3591A7C65
:1032F000023A012A2CD9C22128229954CC22222117
:103300005200A154B6E7D2277F00E359321C803225
:103310001869596910605160311C7C311220F5F731
:1033200033FE311C78311120F5F72EFEFBF74CFEF1
:10333000BD232370E35900209A88737AD900CB1AF1
:10334000DBB20021FCF72CF86359A5E7E359D2E77B
:103350003222625530222270197F83229200A154BA
:103360009869842292008721A0508900002262502F
:103370000E4962540E4985229200A15088220121F3
:103380009200A1549B7C002B05D0F02149006018CD
:10339000FFF738FF69E786229200A354FEF752F93F
:1033A00063E7C04610300020082E00201A020000FB
:1033B00081160100F0B55F4656464D464446F0B4CE
:1033C000B44F3C23061CFB5C806B8BB08146712B99
:1033D00006D00BB03CBC90469946A246AB46F0BD29
:1033E00007AC102323800023A36066603423F35CC2
:1033F0000E2BEED90378011C002BEAD10979C07895
:103400004A460902014350794D4600040143907930
:103410000006021C0A43297AE87909020143687A06
:1034200000040143A87A0006031C0B43012040421C
:10343000C11712184B41581C01D1D11CC9D8BA6B05
:103440009046002A00D119E139234546EA5C3A2327
:10345000EB5C934200D89EE0EB6B12019A18002BB4
:1034600000D111E1934253D24946C87809794D46BB
:1034700009020143687900040143A8790006084362
:10348000297A8446E87909020143687A00040143F5
:10349000A87A00060843012101908A46002061466F
:1034A0008346B4460E1C02E010339A422CD9597858
:1034B00018780902014398781D7900040143D878EF
:1034C000000601435879000228439D792D042843C2
:1034D000DD792D062843B142E6D1019DA842E3D112
:1034E0006046C17EC90901D0514659734D46A9783D
:1034F000480702D551469973A9780125C909AB46F9
:10350000D2D05046D873CFE759466646002942D1FB
:10351000337E48461372B37E4D461B071B0FD37292
:10352000B37E1B091373F37EDB0953730179C378F0
:103530000902194343791B0419438379C0791B0697
:1035400019432B7A1B020343687A00040343A87AC9
:10355000117000060343080A5070080C090ED17060
:10356000190A13715171190C1B0E90709171D3715E
:10357000AB7840465B07DB0F9373AB78DB09D37303
:103580006B781B071B0F53726B781B0993723923DF
:10359000C25C0132C2544A463F4D53787322AA5C42
:1035A0001909AA46914200D013E77222AA5C1B07B0
:1035B0001B0F934204D06E23EB5C022B00D008E774
:1035C0001E20211CF5F700F9A368002B00D000E7AE
:1035D00004A919208846B56BF5F7AAFC049805994B
:1035E00001225242D31712184B415C1C00D1EBE070
:1035F0002A79EB7812021A436B792C7A1B04134355
:10360000AA79240212061A43EB7923436C7A240424
:103610002343AC7A24062343904200D0D9E6994252
:1036200000D0D6E60F206844814649461320F5F7BE
:103630007FFC49460B78002B00D0C9E06E23504632
:10364000C35C9C46022B00D1D2E0012B00D1CAE022
:10365000FC23FC5880235B00B16BA046F858002285
:1036600007E0358AA3889D421ED02034844200D3CF
:10367000C3E02378062BF4D1221CF6E7074A084B57
:103680001A80F5F7A7F9DFE6064A054B1A80F5F729
:103690008DF980E710300020082E0020DA3000007D
:1036A000FC1A0020DB3000000D79CB782D021D4381
:1036B0004B791B042B438D792D061D43AB460D7AA8
:1036C000CB792D022B439A464B7A55461B041D435A
:1036D0008B7A1B061D43A94625695D45C5D16369E3
:1036E0004B45C2D1A04200D887E045468222631BE9
:1036F00052005B11BD58DB00ED182378062B00D17A
:1037000083E0F37E01275B06DB0F7B406370A378C9
:103710000220BB43804603430420834308221A430C
:103720003F231340A370337EE370338AA3807389F1
:10373000E38000220023A260E3600A79CB781202C2
:103740001A434B791B0413438A7912061A43934692
:103750000A7ACB79120213439A464B7A52461B04DB
:103760001A438B7A1B061A4391464B465A462261EE
:1037700063618B785B061B0F23768B7B6376A37E5E
:103780001F43A776F27EFBB2D20947465200BB43E5
:1037900013438343A3768B78590702D56246012AE7
:1037A0002FD0DB0902D06346022B31D0201CFCF75E
:1037B000C3F91E22B256717F201CFBF77DFC2B79CA
:1037C000072293432B7104E6D41C00D810E729E7A5
:1037D000122041464446F5F7ABFB728923889A4292
:1037E00000D0F6E52AE7AB785A0700D530E7F0E5D8
:1037F000AB78DB0900D02BE7EBE5141E00D074E7B3
:10380000E7E5A37E1843A076D0E70323237078E78B
:10381000A37E04221343A376C8E7C04610B5011E59
:1038200013D0104C201CF5F725F8C83CCC22A35C23
:10383000132B11D01933DBB2022B00D810BD0A4A6A
:103840000A4B1A80F5F7B2F8F8E7084BC22292014A
:103850001A80F5F7ABF8F1E7E723A3540D20FBF747
:1038600081FEEBE7D83000208A300000FC1A0020EF
:1038700010B5011E14D0104C201CF4F7FBFF853C42
:10388000C422FF3C5200A35CB72B0FD0543B0C2B3F
:1038900000D810BD094A0A4B1A80F5F787F8F8E7F7
:1038A000084A074B1A80F5F781F8F2E75423A3542E
:1038B0000920FBF757FEECE794310020BC300000F4
:1038C000FC1A0020A030000038B5114AE8239B0004
:1038D000D358002914D0E924A400145902E0043379
:1038E000A3420BD21A78002AF9D05D888542F6D11E
:1038F000FF2901D09142F2D1012000E0002038BD23
:10390000044A054B1A80F5F751F80020F7E7C04646
:1039100010300020A2340000FC1A002070B543686B
:1039200082B09A79041C013AD2B29A710178C80720
:1039300001D5002A09D12378012293432370201C4A
:103940008038FDF77BFF02B070BD5A78D00730D4C5
:10395000237A62686846C908037001924170E18C5D
:10396000231C418041780078803B6171B821585414
:1039700001986A46BC2158505188902299520022E1
:10398000E0215A50D8215A54E4215A50E8215A5083
:10399000D4215A54D5215A548422995C022081435F
:1039A00099541D48211CF4F765FF0320FBF7DAFD4D
:1039B000C9E7D8789A7800021043FF21FFF784FF07
:1039C000002809D1A26913789907890F012911D01C
:1039D0002178CA07BCD4B2E7A36903211A781C2056
:1039E0008A4301210A43D2B25109890082430A4322
:1039F0001A70EDE7D806400F0728E9D007250730F1
:103A000028401C268500B3432B4313700028DFD1C8
:103A100023788B43237092E750300020F8B55F463F
:103A200056464D464446F0B40D1C43496E23CB5CCC
:103A3000061C171C022B79D0AB79012B76D9E878BC
:103A4000AB7800021843FBF767FB00280CD0837E9D
:103A5000DA0709D42023F35C742B59D80220FCF731
:103A600035FB002809D153E02023F35C742B4FD899
:103A70000520FCF72BFB00284AD0021C0C328423C3
:103A8000C2502023041CF35C80342372726A616884
:103A90008A4202D2D318994242D3716A227A60686C
:103AA0000CF0B6FB237A32899B4628239246211CD0
:103AB000F25C984660682A2310319146F65CFBF769
:103AC00039F92423E25C5B469A1A2523E2545246D4
:103AD000E28443464A46E2542923E65423780122ED
:103AE000134323706B78207802229B079043DB0FEF
:103AF000FA005900071C0F4307210F401743FB2210
:103B000017402770002B11D1201CFFF707FF0DE095
:103B100068792B7900021843E979FBF7C1F805E0D1
:103B2000064A074B1A80F4F755FFB6E73CBC9046AF
:103B30009946A246AB46F8BD082E0020A7310000EA
:103B4000FC1A002008B5031C803B1A78D10704D466
:103B50000138FF38FDF772FE08BD181CFFF7DEFEC6
:103B6000FAE7C04630B583B06D4607351620291CEC
:103B7000FF30F5F7DDF9074C0748211CF5F7BCF9D4
:103B80002A78206892008318636000210CF0D4FB2F
:103B900003B030BDB033002011020000F0B547463D
:103BA00080B43E4C0778E66F002F0CD0FD232370C5
:103BB000037817217822A15433760C20FBF7D2FC2E
:103BC00004BC9046F0BD68221219101C9046F4F710
:103BD00077FE5023E25C051C002A18D1337CDA07FB
:103BE0002BD49A0755D45A074FD49A0621D4DB090F
:103BF00005D12B490022002380310A604B6012233B
:103C0000237017227823E25400233376D5E7201C53
:103C1000E75454300AF014FE4927281C5038C25D7E
:103C20000121FFF7E1F84046F4F74AFE051EF4D102
:103C3000D4E7FFF797FF337CD9E7AF239B00B0278A
:103C4000E558BF0003E0E35918359D4206D22B78B2
:103C5000002BF8D0281CFBF745FBF4E7FCF72EFD02
:103C6000C227104D04E0181C1F741030DB68984701
:103C7000281CF4F725FE031EF5D10B4A1023AD18BE
:103C80006A689A436A60337CABE7FCF7E5FA337CF9
:103C9000ABE7FCF787FD337CA5E7C046103000207A
:103CA000082E0020B032002060FDFFFFF0B547462F
:103CB00080B4037882B0002B0ED0064C62690020DD
:103CC0001372FBF74FFCC223237402B004BC90466E
:103CD000F0BDC04610300020ED4E01235B42338022
:103CE0006E23F35C002B00D00123002573727580D6
:103CF000B580F5800CF078FB00270123B072B37417
:103D000037747774FCF74EFDFCF780FFFBF75CF926
:103D1000E04C5023201CE75454300AF091FD6023FE
:103D2000E7542023E365DC4B412263664C23E254D5
:103D30006268DA4B211C13408420636070314000BC
:103D4000A5662564A564F5F7F3F8211C6C31D44809
:103D5000F5F7D2F87023E35C002B0CD0E56E00235E
:103D6000002070215A01D218D20050550133625CF4
:103D7000DBB29A42F6D8CC23DA225B00E254CE239F
:103D800000255B00E5506268C64B656713406360C1
:103D9000D0235B00E550D2235B00E550D4235B00C9
:103DA000E554D6235B00E0180AF04AFDC423B7228D
:103DB0005B00E254C2235B00E5508A23FF33E554E5
:103DC000D6223C23E254C6239A225B00E254C82345
:103DD0005B006268E550B44B6F4613406360CA23D2
:103DE0005B00FD700E200337E554FF30391CA563DE
:103DF0000195F5F79DF88320800001A9F5F77CF87F
:103E000001983A78EC23E050131C7F2A00D93DE159
:103E1000D021DAB26354D02500230021002A08D033
:103E2000DA008218D17051600133625DDBB29A42D0
:103E3000F6D80025D123201CE554D430F4F71EFF1A
:103E4000201C0021502278300CF076FA7823984616
:103E50004246E623A354C02331229B00E254934BF5
:103E6000934AE554C1239B00E550C8239B00E250D0
:103E7000C42302229B00E254FCF7EEF9B3239B001B
:103E80008520E1184000F5F753F8B2229200A118FE
:103E90008848F5F731F8B3239B00E25AB2239B0020
:103EA0000021D200E0580CF047FA834B0127E75479
:103EB000FCF704FCA82362689B00E55010239A439A
:103EC00062600CF091FA6D23F054A9239B008A20C4
:103ED00001A9E5544000F5F72BF8A7269C239B0089
:103EE000B600E018A5550AF0ABFCA555A126B60012
:103EF000A0190AF0A5FC0CF077FA704980B2F0F72F
:103F000075F96E4A89B29E2389189B00E1509F2360
:103F10009B00E7546A4AA0239B00E250019EA32322
:103F20009B00E650A4239B00E754664AA5239B0010
:103F3000E250654B9622E554A6239B009200E55281
:103F4000A0180AF07DFC8C239B00E0180021402281
:103F50000CF0F2F98C2348229B00E2546268802323
:103F60009A4399239B00E75462609A23574A9B0027
:103F7000E2508A239B00E1180A200D604D60FF305B
:103F8000F4F7D6FF8B229200A1185148F4F7B4FF42
:103F90008A239B00E35C00219A00D3181A018B232B
:103FA0009B00E0580CF0C8F91322CC23E254C8233C
:103FB000E550B4239B004246E254B5239B00E550F4
:103FC000B62300269B00E654424ABB239B00E250E6
:103FD00090235B00E0180021482267680CF0ACF9E0
:103FE0009023AA225B00E254B4225200A3181E744C
:103FF0009D60DD605D601D60BE235B00E550C023F9
:104000008E225B00E254CB239B00E550CA2366223C
:104010009B00E254DF239B00E550DE2316229B0029
:10402000E2542D4B2D481F40BE239B00E1186760D2
:10403000BD26F4F761FFB6008B20A1194000F4F70C
:1040400077FFBD239B00E25C131C082A1CD8BD210E
:10405000DAB2890063540023002A0AD0BE25AD00DD
:1040600000206659DA0090510133625CDBB29A425B
:10407000F7D8FFF777FD1A4B00221A605A60043B0D
:1040800036221A70002319E60823E0E77F23BFE6F3
:10409000082E002010300020952F0100F7BFFFFFF1
:1040A00006020000FFFBDFFFBFFCFFFF0103000073
:1040B000D927010009020000CE0200004C1D0000BB
:1040C00099180100511901009A02000089F40000BA
:1040D0000702000051F40000FB5FF3FF2102000023
:1040E00014300020014B18887047C046082E00206D
:1040F000014A7C23D05A7047082E0020024B80339F
:10410000186859687047C046082E002003490268A5
:10411000436880310A604B607047C046082E00201B
:10412000014A6E23D05C7047082E0020014A782394
:10413000D05C7047082E002008B5044A7823011C83
:10414000D0542420F4F740FB08BDC046082E0020C0
:10415000014BD8687047C046082E0020014BD8801C
:104160007047C046082E002008B5044B011C187487
:104170002220F4F729FBFAF727FF08BD082E0020BC
:10418000014B58887047C046082E0020014B988884
:104190007047C046082E0020024B00225A809A80A9
:1041A0007047C046082E00200A4B1B7C98420ED058
:1041B000C21AD11752184A40C72A04D90022834292
:1041C0005241D0B27047834280414042FAE7012019
:1041D000F8E7C046082E002038B5037C011C042BEC
:1041E00024D0012B0BD01A4CCC25201C9D3CFF3C2D
:1041F0006D00F4F73FFB635DDA2B11D038BD154C31
:10420000201CF4F737FB144BE418DE239B00E25C20
:10421000162AF3D11722E2541320FBF7A3F9EDE796
:104220000A20FBF79FF921236355E7E70B4C201C7D
:10423000F4F720FB0A4BE418CA239B00E25C662AD1
:10424000DCD16722E2541220FBF78CF9D6E7C04696
:10425000AC3100208C33002084FCFFFF3C33002075
:10426000D4FCFFFF30B5037885B0041C0D1C012B76
:1042700019D0002D12D1237804229343012B03D0AF
:104280000623237005B030BD6378022B1ED0134B7C
:1042900004225F3359780A435A70F1E7201C083032
:1042A000FEF74CFFE7E70D4A6F23D35C002B02D0EB
:1042B0004378022BDDD16A46002368461372A26858
:1042C000E3680092019305F0D1FED2E7034B802210
:1042D0005F33597852420A435A70D1E7082E0020C2
:1042E000F8B5244A46464F46234DC0B4FC238227E6
:1042F000EC587F00FC2690460AE0013B9BB21380FD
:10430000002B35D080235B00EB5820349C421CD21C
:1043100021780629F6D0AA59A31A5B11EA59DB00C5
:10432000D21813889146002BE7D12388434510D03B
:1043300001394B425941201CC9B2FFF793FF80233A
:104340005B00EB5820349C42E2D30CBC904699466B
:10435000F8BDA37EDA0703D53D234A461380D1E793
:10436000FBF7D2FBC30A01339BB24A461380C7E76F
:104370002178DDE7010200001030002010B5084C64
:10438000011C201CF4F776FA7C3C7823E25CE62AD8
:1043900000D010BD1122E2540C20FBF7E3F8F8E73F
:1043A0008C300020F0B54E4657464546E0B4537D6C
:1043B0000E1C012B62D90778FA0990467B0663D45C
:1043C0004B78DD065AD50B7A497A327B09021943BC
:1043D000B37A534C1B041943F37A1B061943737BBE
:1043E0001B021343B27B12041343F27B1206151C0B
:1043F0001D43FC23E05880235B00E2580378062B22
:1044000003D083688B4200D182E020309042F5D304
:104410007279337912021A43101C00219246FAF77E
:10442000A1FF002803D00379012293430371B22036
:1044300080000125B3212358AC46890006E0625A6A
:104440002558D2000833AA1893420FD21A79D507FB
:10445000F5D55D885545F2D16546AA431A71625A71
:104460002558D2000833AA189342EFD32D4C737904
:10447000317922881B020B439A423CD001201CBC9C
:1044800090469946A246F0BD264C6E23E35C022B73
:1044900035D08A23E05C0028F1D0BF06FF0F25D07D
:1044A0006E23E35C022BE9D18034002200232260DA
:1044B00063601B4CA026A15D0029DFD1211CB03117
:1044C0000A604B60184934228A5CB823E25445469E
:1044D000B923E554154ABA23E754201CBC23E25003
:1044E000A830FFF74BFF0123A355C7E73520002174
:1044F000F4F76AF9D4E74246002ACED1BEE77379D1
:10450000097922881B020B4300209A42B7D1C4E7E5
:10451000C368AB4200D078E70121FFF7A3FE77E73D
:1045200010300020082E00204C4C020089060100AB
:1045300010B50A4AFC23D3588224C31A64001259C6
:104540005B11DB00D3180722141C0C40197991432E
:1045500021431971FBF7F0FA10BDC046103000205E
:1045600038B5094CA725AD00635D022B0AD00023A6
:1045700063559C239B00E0180AF062F90123635500
:10458000FDF78AF938BDC0461030002010B5094C3F
:10459000011C201CF4F76EF97D3CC023FF3C5B003E
:1045A000E25C8E2A00D010BD8F22E2540F20FAF771
:1045B000D9FFF8E78C310020F8B54F464646C0B425
:1045C000041E07D09023C358002B03D08C23C35C58
:1045D000002B08D19F4AA04B1A80F4F7E7F90CBCD6
:1045E00090469946F8BD18239C4E43737423F35CA0
:1045F0005B0043758823C25C8A23C05A9D23E55C17
:10460000002D08D0022A00D1A2E0FF21FFF75CF9BB
:10461000002800D0A5E09D230022E254904B002505
:104620001B78DA0700D48EE08823E35C012B00D1ED
:10463000B3E0022B00D0A1E08A23E25A894B9A42D0
:1046400000D8A1E0082708237F4298469023E55828
:10465000ED19281CFBF7FCF86B78042293436B7070
:104660008A23E35CAB70231C8A335B78EB7098235E
:10467000E35C002B00D08EE07423F25CA979520039
:10468000FF23FE2A00D8D3B2994204D0764A724B57
:104690001A80F4F78BF98823E35C012B00D181E0C9
:1046A0006B78012293436B708A23E35A6D4A9342DD
:1046B0001DD96E4A934204D005339BB2022B00D918
:1046C000A5E0192363737A23F05AE9799946FBF739
:1046D000D3FB022800D1B7E0AB79012B07D94B46B9
:1046E000F25A201CEB795830111CFAF73BFD637B22
:1046F000182B00D190E000236022A3662461A3540C
:104700005C22E3662367A3545D22A3547A23F35A01
:104710003D2023838C23E25C40234244E2549023D7
:10472000E3585349DF196764F3F7E2FF9D23E35C25
:10473000002B61D1211C08314E48F4F79BF803206F
:10474000FAF710FF4BE7201CC221FCF7C7FD46E734
:104750007A23F35A834204D0FCF71AFC002800D1D4
:1047600059E701239D223E49A35409780B4000D00C
:104770005AE7A354201CFFF709FF30E73E4A364BA7
:104780001A80F4F713F92AE7002D39D108270822F7
:104790007F4290465AE7AB717DE7092709227F42A5
:1047A000904653E701226B7891464A4613436B705B
:1047B0008A23E05AFF21FFF787F82B7A03229343DD
:1047C000002835D12B72182363739923E25C0721EB
:1047D00011402A7A1C20890082430A432A72E25C33
:1047E0002B7A1F2152010B4013432B728823E35C69
:1047F000012B00D17BE757E7201CFFF7C7FEEEE651
:1048000000229D23E254201CFFF7C0FEE7E6201C97
:10481000C121FCF763FDE2E69A23E35C002B00D1A3
:1048200069E72B783F221A40402313432B7062E73D
:104830004A4613432B721A2363737A23F05AE97999
:10484000FBF71AFB0228C0D1201CD221FCF746FD41
:10485000C5E6C046B0310000FC1A0020082E00203A
:1048600010300020F7FF0000B7310000FFFF00000C
:104870004801002050300020B131000010B5002860
:1048800018D00E4B2030802252009A5804249042B7
:1048900003D30DE0203090420AD20378A343012BCA
:1048A000F8D14378022BF5D183888B42F2D010BD2A
:1048B0000020FCE7014BFC229858E4E71030002070
:1048C00010B50D4C7C210D4A645A8021FC2349000F
:1048D000D358515802E020338B420AD21A78062A64
:1048E000F9D09A888242F6D1DA88A242F3D1181C14
:1048F00000E0002010BDC046082E0020103000202F
:1049000010B5124A7A23D35A041C83421AD0FFF7F7
:10491000D7FF002803D08368C268134310D10C4A24
:10492000F023F421D35851581A78D00702D55A8869
:10493000A24204D010338B42F6D3002010BD181CC5
:104940000830FBE7F7F7B0FDF8E7C046082E002077
:1049500010300020F0B5474680B40127C46B7F4279
:104960000786061C201C0D1CFAF772FF2378032211
:10497000934301221343237004235B42A370E77027
:10498000EB7AA3716B7BE371A888030A20716371D2
:10499000FFF7B6FF002800D16DE0627810231343C3
:1049A00063700CC8110A22726172110C120EE2724D
:1049B0001A0AA1722373627308211A0C1B0EA273C8
:1049C000E373102710248846F16B01230C196278D9
:1049D000237078231A4018239A4320218A43627057
:1049E0006A785206920F012A40D0627840218A43A9
:1049F00062706A785106890F1CD1D10613D462788F
:104A00009A43131C082213436370AB7A0637A370D2
:104A10002B7AE3706B7A2371AB7863713823F75488
:104A200004BC9046F0BD62789A43131C10221343D5
:104A30006370EAE72889FFF763FF0028E5D0627812
:104A40002023134363700CC8110AA271E171110C89
:104A5000120E627247461A0AA372E27210371A0CDB
:104A60001B0E217222736373FFB2CEE7627840237C
:104A700013436370C9E70023082708249846A3E777
:104A8000F0B546464F46C0B483B08046161C9946E2
:104A9000FFF736FF002831D00368B3422BD0022045
:104AA000FAF760FD00270122164B8020FC21400010
:104AB00059581D580C78062C02D08B68B3420ED082
:104AC0002031A942F6D300924046321C4B46FAF7F9
:104AD000F7FC381C03B00CBC90469946F0BDCB687F
:104AE0004B45EDD143468B80D3008A7E082082431C
:104AF0001A438A76EDE743684B45D0D1012700225F
:104B0000D2E7C0461030002010B5064C011C002032
:104B1000A14202D8141C1C4300D110BD081CFFF791
:104B2000AFFFFAE7F7FF0000F0B54E46454657469F
:104B3000E0B4537D8946161C1569072B00D89DE00B
:104B40006F78FA06BF06D20FFF0FBF18791CC90095
:104B50008B4200D292E0002A00D095E02979EB78D0
:104B6000090219436F4BAA789846AF239B00404631
:104B7000C458B02398004346185803E018348442C0
:104B800000D37BE02378002BF8D0A37A9342F5D1B1
:104B9000A3888B42F2D1EB79E2789A426ED9E37026
:104BA0006A78900624D5791EC9B2A87901316A794C
:104BB000C9006918000210434A780F7812023A437C
:104BC0008F783F043A43CF783F063A4392464A797A
:104BD0000F79120217438A79C9791204090617431B
:104BE0000F435149884203D85146394300D08BE0E6
:104BF000617820894906890F01394A425141C9B279
:104C0000F28AFAF7CDFB2879EB7800021843474B7C
:104C10007A229A5A82425FD06B78D90619D56A7A7D
:104C20002B7A12021A43AB7A297B1B041A43EB7AC4
:104C30001B061A436B7B1B020B43A97B09040B4326
:104C4000E97B09060B433849884202D8111C1943F5
:104C500060D14A469379012B53D9013B2373627883
:104C6000042313436370B1239B004046C25C002AB7
:104C700004D19322C2540520FAF774FC00201CBC16
:104C800090469946A246F0BD284829797A23EA78C9
:104C9000C35A090211438B4200D063E76A7A2B7A28
:104CA00012021A43AB7AEC7A1B04134324066A7B84
:104CB0001C432B7B12021A43AB7B1B041343EA7B7E
:104CC00012061A439046F7F7EFFB0168A142D5D1CF
:104CD00043684345D2D141E72269002A1DD0002113
:104CE0001174F18A51829B7C002BC7D0101C1030AC
:104CF000D368984700232361637808229343637045
:104D0000BCE701232373AAE73B1C5246FFF7B8FE1A
:104D1000E3786DE7FFF7B4FE9BE79B7C002BE9D1BE
:104D2000ACE7C04610300020F7FF0000082E00203E
:104D3000F8B55F4656464D464446F0B48423354D9B
:104D40005B00EE5CF423EA58F023EB580136D31AEB
:104D50001B11F6180F1C304A3049B6B27A23041CD6
:104D6000B3468A4691469846631E9BB24B4500D98E
:104D70000124564646443388A34239D0F023F42216
:104D8000EB58A9581A78101CD60702D55A88A242A7
:104D900015D010338B42F5D3201CFFF791FD00286E
:104DA00030D081683A68914228D05B460134013B9B
:104DB0005946A4B29BB2002913D09B46D4E7810781
:104DC000F3D499683A689142EFD1DB687E68B342C8
:104DD000E2D05B460134013B5946A4B29BB20029A4
:104DE000EBD10F4A0F4B1A80F3F7E0FD0E480AE0B3
:104DF000381CF7F75DFB0028C0D1D6E7C3687E6892
:104E0000B342D2D1201C3CBC90469946A246AB4648
:104E1000F8BDC04610300020F6FF0000082E00202C
:104E200006300000FC1A0020FFFF000070B586B0BD
:104E300003AC009201936D46202368812380061CF9
:104E400000230A351E20211C05930495F3F7BCFCB2
:104E5000A368002B0CD10E4B71229A5C301C002AE7
:104E600004D16F229B5C022B07D00A4806B070BDAC
:104E700028886946FFF75CFFF8E7074B9E4203D896
:104E80006946FFF755FFF1E70BF0AEFA80B2F7E79E
:104E9000082E0020FFFF0000F7FF0000F0B55F467E
:104EA0004D4656464446F0B48DB0071C684603761E
:104EB00016AB1B7808910A9317AB1B78017E5BB287
:104EC0000B938B079549DB0F954805938946FC2387
:104ED0000992C25874234846C35C497A0F2B02D802
:104EE000994200D3E0E08E4980235B00CD588223B5
:104EF0005B00C85800240021A446131C88468A463B
:104F000000260491141C03901878062800D1AEE006
:104F10009A68BA4200D1B4E004218843012800D144
:104F200099E0002E0DD0181B4011039AC0001218F2
:104F3000301B40110399C000081892788078824293
:104F400000D21E1C20339D42DED8644650464146A6
:104F5000F9F7D6FF002C00D1ADE02378042293436B
:104F6000012B17D0059851464246FCF753F800280C
:104F700000D099E0059A002A00D097E0534601330B
:104F8000DBB29A4650464146F9F7BAFFA37E10229B
:104F90009343A37671234846C35C002B09D0A388B2
:104FA00009998B4203D0A37E10229343A376099ADA
:104FB000A28005980123237043424341013369468F
:104FC00063704300087E02229043021C1A43A270C1
:104FD00049467823CB5CE3707C23CB5AE3804B4675
:104FE0008033186859682061616149464B7A0E2BFD
:104FF00057D923764846037CD108A27E63760123E5
:1050000019409A430A43F92345491A40A276FC23E2
:10501000CB588222E31A52008A585B11DB00D31866
:105020001A7907218A431A710A990B9A201CFAF7F8
:1050300043F8201CFAF780FDA268E3680021A088ED
:105040000091FAF73DFA201C0DB03CBC9046994601
:10505000A246AB46F0BD5878022819D04046013030
:10506000C0B2203380469D4200D94DE76DE70498D9
:10507000002800D066E7049320339D4200D943E71F
:1050800063E7D968089A914200D045E79C4643E718
:1050900050460130C0B2203382469D4200D933E7EA
:1050A00053E70133DBB2A4E70020CDE743460133E9
:1050B000DBB2984666E7059851464246FBF7AAFFE1
:1050C0000028F1D10499002924D0089B09983A1CA2
:1050D000FFF7ACFE134B041E9C42E5D8059A002A4C
:1050E00013D043460133DBB2984650464146F9F7A8
:1050F00007FF049B08989C80191C9F60D8609B7ECA
:10510000102293438B760C1C53E753460133DBB2DA
:105110009A46EAE7002EC7D00496D6E7082E00206C
:1051200010300020F7FF000030B5204B83B01B7813
:10513000041C1A0708D51E4B027A1B7A52065B061E
:10514000D20FDB0F9A4201D003B030BD4168006836
:105150000022FAF743FB051EF6D0627A237A00920A
:105160000A22A256206861680192124AFFF796FE51
:10517000002813D022230022EA5483882B84237A28
:10518000281C6B7022686368AA61EB610A4B0830C7
:105190006B62F8F7AFF805232B70D5E722230122C5
:1051A000EA5401235B422B84E9E7C046103000201B
:1051B000082E0020FFFF00008D140100F0B54D46C1
:1051C00044465F465646F0B44B7883B00C1C91467B
:1051D000190710D51822A7791219261C90461036E7
:1051E000012F10D00125281C03B03CBC90469946E5
:1051F000A246AB46F0BD1023A7791B19261C984682
:105200000836012FEED1494B41464A781B7A5206A7
:105210005B06D20FDB0F00259A42E4D1444B1B788A
:105220001A07DFD57078337800021843B3787179A4
:105230001B041843F37809021B0618433379012233
:105240001943B3791B041943F3791B061943FAF781
:10525000C5FA82460028C5D070783378000218431A
:10526000B37871791B041843F37809021B061843BD
:10527000337962791943B37912021B041943F37924
:105280001B06194323791A4343465B789B464B46DA
:105290001B7E00934B465B7E5BB201935B46FFF740
:1052A000FDFD834600283AD04A46117E527E52B216
:1052B000F9F7CAFE59468B88524613821575424645
:1052C000537851464B7063789B07DA0F002B24DA32
:1052D00001234B75637922791B02134351464B829C
:1052E0007278337812021A43B37831791B041A4367
:1052F000F37805201B061A4373791B020B43B1791F
:1053000009040B43F17909060B435146CB60012395
:105310008A600B70FAF77AFF64E74A75DAE70123CF
:1053200051465B420B820F75C9E7C046082E00202C
:1053300010300020F8B54F464646C0B46F4C0D1CE7
:105340002378590609D590267600A35DAA2B08D0AC
:1053500091235B00E35A834249D00CBC90469946A6
:10536000F8BD91235B00E05292235B00644FE5544B
:1053700098467A23FB5A834240D06E23FB5C022B73
:10538000EBD0F9F7C9FE4723071CA35528D0837E2D
:105390000826B34383760122C1688068FAF71EFAB3
:1053A000051E28D000230375BA7E6B7801200240C9
:1053B000D200B34313436B70BB8881466B82BA68DB
:1053C000FB685048FFF732FD2882BA68FB68AA6084
:1053D000EB604B462B700420FAF718FF4046255C23
:1053E000002D42D1902347225B00E254B5E792237F
:1053F0005B00E554B1E74346E55CF1E76E23FB5CF7
:10540000002BAAD0022B03D06F22BA5C022A4ED006
:1054100098225200A3183A1C803210685168186014
:1054200059609C2303225B00E2543A230022FF339D
:10543000E2549D2201235200A3547822BA5C9421A5
:105440009340A0225200A350A22308225B00E25402
:105450002D4AA4235B00E250902345225B004900C3
:10546000E2546018FEF7B8FE77E796230D225B0042
:10547000E2540322972352425B00E2520122992315
:1054800052425B00E25291235B00E25A98235B0098
:10549000E2521E4A9C235B00E25094219023462254
:1054A0005B004900E2546018FCF746F955E7012B10
:1054B00000D052E77A25F6F7F7FF026843681148F3
:1054C000FFF7B4FC7B5B8342F5D0114B984200D9C7
:1054D00043E79C235B00E052982353225B00E25495
:1054E0000C4AA0235B00E250902344225B00E2546C
:1054F00094225200A018F7F751FF2EE71030002039
:10550000082E0020FFFF0000BDF5000041F600005E
:10551000F7FF00008517010010B5144B01241B781C
:1055200011691C4202D0537D042B01D0012010BD13
:105530004B78002B09D00D2BF8D1C8788B7800025E
:1055400018430021FFF7F6FEF0E7C8788B780002D9
:105550001843074B9842E9D80021F9F703FF0028C8
:10556000E4D00379A3430371E0E7C0461030002084
:10557000F7FF000010B59023204C5B00E35CAA2BE2
:1055800000D010BD8022FC235200E358A1581A78A5
:10559000062A02D09A7E100718D420338B42F6D305
:1055A000F023F422E358A15802E010338B42E8D2F2
:1055B0001A78D007F9D59007F7D55988912252006B
:1055C000A1521A7802218A431A7007E09988912221
:1055D0005200A1529A7E08218A439A7691235B0059
:1055E000E05A0121FFF7A6FE90235B00E35CAA2BA3
:1055F000C7D10220F9F7B6FFC3E7C046103000203C
:10560000F0B5037883B0854C002B21D1CC235B000F
:10561000E35C243BDBB2112B18D8814A9B00D358A2
:105620009F46F42346225B00E254F8230F225B00DE
:10563000E254CC2325225B00E2547A4AFC23F02179
:105640005B004900E2506018F7F7A8FE03B0F0BD18
:10565000D0225200A15828228B540A20F9F782FF49
:10566000CC2322225B00E254F0E7D0235B00E35816
:105670001B7C032B00D0B3E06B4D7123EB5C002B44
:1056800000D1B7E07A23E85AF42353225B00E254B6
:10569000F8235B00E052CC2333225B00E254CCE7DA
:1056A000F423F82083225B004000E25421180220FA
:1056B000F3F73EFCCC2334225B00E254BDE75A4BA7
:1056C0001A7A0023110700D58DE0F4225200A3506E
:1056D000564AF6235B00E250F0235B00E018F7F730
:1056E00051FECC2327225B00E254AFE7D2235B00BC
:1056F000E3584D49DB7878228B54F4225200002184
:10570000A154F8225200A354CC232A225B00E25475
:1057100093E7D0235B00E25800212823D154CC2307
:1057200022225B00E2540A20F9F71CFF8EE73E4A72
:105730007A23D35A01A803801023837004F00AFF50
:10574000CE235B00E358002B4FD00A20F9F70AFF65
:10575000CC2321225B00E25478E7FCF7B7FD75E724
:10576000F42352225B00E2542F4B1A7AF8231207DB
:10577000D20F5B00E254CC2326225B00E2545CE7AC
:10578000F4234B225B00E254D2235B00E3589A8857
:10579000F8235B00E252CC232F225B00E2544CE75B
:1057A000F4234A225B00E254D2235B00F820E35842
:1057B000400021189A68DB680A604B60CC233022D5
:1057C0005B00E25439E7F42345225B00E254184AB7
:1057D000F8235B00E250CC2324225B00E2542CE748
:1057E000FCF726FD32E7134B6FE7CC23DA225B0090
:1057F000E2542BE77A27EE5B0F4B9E4208D8F6F770
:1058000053FE011C301CFFF793FA7A23E8523BE762
:105810000AF0EAFD86B2EE53F1E7C04610300020F0
:10582000A04B020001560100082E00205525010062
:10583000662E0020FFFFFF00F7FF0000F0B55F4677
:105840004D4644465646F0B483B01F1C0CAB9346FD
:105850001A780EAB80461E780D9802235B42684D85
:10586000038099466E23EB5C0C1C022B4FD0002F5B
:105870001DD1644B984500D884E001230D9F5B4205
:105880003B80082201AB1A706A465671FE216A46B7
:1058900091715A7818789B7812021B0410431843B0
:1058A00003B03CBC90469946A246AB46F0BD0023EF
:1058B0009A46002AE1D14046391CF9F753FD0028E9
:1058C00036D00D9943880B8001798279480729D415
:1058D0000621002F02D1984500D18CE0331C96425E
:1058E00000D9131CDEB25346002B65D0002924D00A
:1058F000062922D00D9F3B889C4265D09B4563D0F2
:1059000001AB197069464E7169468A71C1E72B88EF
:105910000380002F03D12B88434500D1012601AB22
:105920000322B0E77A20285AA04253D00A21E1E7A7
:105930005046FE22002860D00021334BFC2018582E
:105940005746381A82277F004011DB59C0001B18C8
:105950001B7998065B07400F5B0F30D10727B842D1
:1059600030D07523ED5C101CAA4200D9281CC0B2AF
:10597000B84221D950460D9983883A1C0B800126E4
:105980000421B9E74046FEF79BFF8246002892D0EB
:10599000837ED80722D552461378052B02D0537840
:1059A000022B88D104220D9F01AB40461A700121C1
:1059B0006A463880517169E70029A1D09AE71F1C17
:1059C0009842CEDB071CCCE702230D9F5B423B8055
:1059D000012195E70807A9D407217AE7022201AB44
:1059E00001210D9F1A706A46517140466A46494628
:1059F000388091714DE7012675E7514680E7C04632
:105A0000082E0020F7FF000010300020F0B5C46B16
:105A1000474680B4B523494F9B00061C201CFD5807
:105A2000F9F716FF237803229343012213432370CF
:105A3000E8886278030AE370102313436370404BD5
:105A4000A07098422FD8FEF75BFF804600282AD02E
:105A50006278082313436370F6F726FD0CC8110A19
:105A600022746174110C120EE2741A0A23756275A5
:105A70001A0C1B0EA174A275E37541460CC9110ADC
:105A800022726172110C120EE2721A0A237362738F
:105A90001A0C1B0EA172A273E3731821231C382267
:105AA0001833B15419E06378082293436370F6F712
:105AB000FBFC0CC8110A22726172110C120EE27208
:105AC0001A0A237362731A0C1B0EA172A273E3737A
:105AD0001021231C38221033B15403221A702A7962
:105AE0005A702A7A9A706A7ADA706B893386AB892F
:105AF00033826889124B984216D8FEF7E1FE4123A3
:105B00000122F254002804D0827ED10701D405225C
:105B1000F2543823F25C0432F254B42321229B0065
:105B2000FA5404BC9046F0BD064A7A23D05AE17973
:105B3000FAF7A2F90228ECD1F3E7C04610300020B2
:105B4000F7FF0000082E0020F8B546464F46C0B4C7
:105B50004B780822061C9343C8884B7001224123CE
:105B60003086F254F46B0D1CFEF7CAFE8046201CF2
:105B7000F9F76EFE23780322934301221343237027
:105B80002B7B7F4FA3717A23FB5C627823713B1CD4
:105B90007A335B7841466371338EA3701B0AE370DE
:105BA000102313436370002900D1C6E0DAB2082342
:105BB00013436370F6F778FC0CC8110A2274617401
:105BC000110C120EE2741A0A237562751A0C1B0E60
:105BD000A174E375A27543461A685B68110A2272C4
:105BE0006172110C120EE2721A0AA17223736273AF
:105BF00018211A0C1B0EA273E37388461824F36B4A
:105C00000F221C1963784021934363706A7852060F
:105C1000920F013A53425A41637892018B431343E6
:105C20007F221340637002232370AB7AA370A9888C
:105C30002B798946E3700B0A23712B7A63716B7A97
:105C4000A371E888FEF73CFE002800D195E07023A0
:105C5000FB5C002B3CD14B4BFC229A58801A8222D1
:105C600052009B584011C000181802799206520F3A
:105C7000EB78D218FE23FD2A00D8D3B2E371484650
:105C8000FEF73EFE002800D171E062781023134336
:105C900063700CC8110A22726172110C120EE2724A
:105CA0001A0A237362731A0C1B0EA172A273E37398
:105CB000012563782022934363705A061DD5013570
